{"abi":[{"type":"constructor","inputs":[{"name":"name","type":"string","internalType":"string"},{"name":"symbol","type":"string","internalType":"string"},{"name":"baseTokenURI","type":"string","internalType":"string"}],"stateMutability":"nonpayable"},{"type":"function","name":"addCatNames","inputs":[{"name":"newNames","type":"string[]","internalType":"string[]"}],"outputs":[],"stateMutability":"nonpayable"},{"type":"function","name":"approve","inputs":[{"name":"to","type":"address","internalType":"address"},{"name":"tokenId","type":"uint256","internalType":"uint256"}],"outputs":[],"stateMutability":"nonpayable"},{"type":"function","name":"authorizedMinters","inputs":[{"name":"","type":"address","internalType":"address"}],"outputs":[{"name":"","type":"bool","internalType":"bool"}],"stateMutability":"view"},{"type":"function","name":"balanceOf","inputs":[{"name":"owner","type":"address","internalType":"address"}],"outputs":[{"name":"","type":"uint256","internalType":"uint256"}],"stateMutability":"view"},{"type":"function","name":"burn","inputs":[{"name":"tokenId","type":"uint256","internalType":"uint256"}],"outputs":[],"stateMutability":"nonpayable"},{"type":"function","name":"catCards","inputs":[{"name":"","type":"uint256","internalType":"uint256"}],"outputs":[{"name":"nfcUID","type":"string","internalType":"string"},{"name":"catName","type":"string","internalType":"string"},{"name":"breed","type":"uint8","internalType":"enum CatCardNFT.CatBreed"},{"name":"mood","type":"uint8","internalType":"enum CatCardNFT.CatMood"},{"name":"friendshipLevel","type":"uint256","internalType":"uint256"},{"name":"totalInteractions","type":"uint256","internalType":"uint256"},{"name":"lastInteraction","type":"uint256","internalType":"uint256"},{"name":"mintedAt","type":"uint256","internalType":"uint256"},{"name":"isActive","type":"bool","internalType":"bool"},{"name":"boundWallet","type":"address","internalType":"address"},{"name":"imageURI","type":"string","internalType":"string"}],"stateMutability":"view"},{"type":"function","name":"catInteractions","inputs":[{"name":"","type":"uint256","internalType":"uint256"},{"name":"","type":"uint256","internalType":"uint256"}],"outputs":[{"name":"timestamp","type":"uint256","internalType":"uint256"},{"name":"interactor","type":"address","internalType":"address"},{"name":"interactionType","type":"uint8","internalType":"enum CatCardNFT.InteractionType"},{"name":"message","type":"string","internalType":"string"}],"stateMutability":"view"},{"type":"function","name":"getApproved","inputs":[{"name":"tokenId","type":"uint256","internalType":"uint256"}],"outputs":[{"name":"","type":"address","internalType":"address"}],"stateMutability":"view"},{"type":"function","name":"getCatInfo","inputs":[{"name":"tokenId","type":"uint256","internalType":"uint256"}],"outputs":[{"name":"","type":"tuple","internalType":"struct CatCardNFT.CatCard","components":[{"name":"nfcUID","type":"string","internalType":"string"},{"name":"catName","type":"string","internalType":"string"},{"name":"breed","type":"uint8","internalType":"enum CatCardNFT.CatBreed"},{"name":"mood","type":"uint8","internalType":"enum CatCardNFT.CatMood"},{"name":"friendshipLevel","type":"uint256","internalType":"uint256"},{"name":"totalInteractions","type":"uint256","internalType":"uint256"},{"name":"lastInteraction","type":"uint256","internalType":"uint256"},{"name":"mintedAt","type":"uint256","internalType":"uint256"},{"name":"isActive","type":"bool","internalType":"bool"},{"name":"boundWallet","type":"address","internalType":"address"},{"name":"imageURI","type":"string","internalType":"string"}]}],"stateMutability":"view"},{"type":"function","name":"getCatInteractions","inputs":[{"name":"tokenId","type":"uint256","internalType":"uint256"}],"outputs":[{"name":"","type":"tuple[]","internalType":"struct CatCardNFT.InteractionRecord[]","components":[{"name":"timestamp","type":"uint256","internalType":"uint256"},{"name":"interactor","type":"address","internalType":"address"},{"name":"interactionType","type":"uint8","internalType":"enum CatCardNFT.InteractionType"},{"name":"message","type":"string","internalType":"string"}]}],"stateMutability":"view"},{"type":"function","name":"getTokenIdByNFC","inputs":[{"name":"nfcUID","type":"string","internalType":"string"}],"outputs":[{"name":"","type":"uint256","internalType":"uint256"}],"stateMutability":"view"},{"type":"function","name":"getWalletCats","inputs":[{"name":"wallet","type":"address","internalType":"address"}],"outputs":[{"name":"","type":"uint256[]","internalType":"uint256[]"}],"stateMutability":"view"},{"type":"function","name":"interactWithCat","inputs":[{"name":"myNfcUID","type":"string","internalType":"string"},{"name":"targetNfcUID","type":"string","internalType":"string"},{"name":"interactionType","type":"uint8","internalType":"enum CatCardNFT.InteractionType"},{"name":"message","type":"string","internalType":"string"}],"outputs":[],"stateMutability":"nonpayable"},{"type":"function","name":"isApprovedForAll","inputs":[{"name":"owner","type":"address","internalType":"address"},{"name":"operator","type":"address","internalType":"address"}],"outputs":[{"name":"","type":"bool","internalType":"bool"}],"stateMutability":"view"},{"type":"function","name":"mintCatCard","inputs":[{"name":"nfcUID","type":"string","internalType":"string"},{"name":"initialOwner","type":"address","internalType":"address"}],"outputs":[{"name":"","type":"uint256","internalType":"uint256"}],"stateMutability":"nonpayable"},{"type":"function","name":"name","inputs":[],"outputs":[{"name":"","type":"string","internalType":"string"}],"stateMutability":"view"},{"type":"function","name":"nfcToTokenId","inputs":[{"name":"","type":"string","internalType":"string"}],"outputs":[{"name":"","type":"uint256","internalType":"uint256"}],"stateMutability":"view"},{"type":"function","name":"owner","inputs":[],"outputs":[{"name":"","type":"address","internalType":"address"}],"stateMutability":"view"},{"type":"function","name":"ownerOf","inputs":[{"name":"tokenId","type":"uint256","internalType":"uint256"}],"outputs":[{"name":"","type":"address","internalType":"address"}],"stateMutability":"view"},{"type":"function","name":"renounceOwnership","inputs":[],"outputs":[],"stateMutability":"nonpayable"},{"type":"function","name":"safeTransferFrom","inputs":[{"name":"from","type":"address","internalType":"address"},{"name":"to","type":"address","internalType":"address"},{"name":"tokenId","type":"uint256","internalType":"uint256"}],"outputs":[],"stateMutability":"nonpayable"},{"type":"function","name":"safeTransferFrom","inputs":[{"name":"from","type":"address","internalType":"address"},{"name":"to","type":"address","internalType":"address"},{"name":"tokenId","type":"uint256","internalType":"uint256"},{"name":"data","type":"bytes","internalType":"bytes"}],"outputs":[],"stateMutability":"nonpayable"},{"type":"function","name":"setApprovalForAll","inputs":[{"name":"operator","type":"address","internalType":"address"},{"name":"approved","type":"bool","internalType":"bool"}],"outputs":[],"stateMutability":"nonpayable"},{"type":"function","name":"setAuthorizedMinter","inputs":[{"name":"minter","type":"address","internalType":"address"},{"name":"authorized","type":"bool","internalType":"bool"}],"outputs":[],"stateMutability":"nonpayable"},{"type":"function","name":"setBaseURI","inputs":[{"name":"baseTokenURI","type":"string","internalType":"string"}],"outputs":[],"stateMutability":"nonpayable"},{"type":"function","name":"supportsInterface","inputs":[{"name":"interfaceId","type":"bytes4","internalType":"bytes4"}],"outputs":[{"name":"","type":"bool","internalType":"bool"}],"stateMutability":"view"},{"type":"function","name":"symbol","inputs":[],"outputs":[{"name":"","type":"string","internalType":"string"}],"stateMutability":"view"},{"type":"function","name":"tokenURI","inputs":[{"name":"tokenId","type":"uint256","internalType":"uint256"}],"outputs":[{"name":"","type":"string","internalType":"string"}],"stateMutability":"view"},{"type":"function","name":"transferFrom","inputs":[{"name":"from","type":"address","internalType":"address"},{"name":"to","type":"address","internalType":"address"},{"name":"tokenId","type":"uint256","internalType":"uint256"}],"outputs":[],"stateMutability":"nonpayable"},{"type":"function","name":"transferOwnership","inputs":[{"name":"newOwner","type":"address","internalType":"address"}],"outputs":[],"stateMutability":"nonpayable"},{"type":"function","name":"unbindAndBurnCat","inputs":[{"name":"nfcUID","type":"string","internalType":"string"},{"name":"ownerSignature","type":"bytes","internalType":"bytes"}],"outputs":[],"stateMutability":"nonpayable"},{"type":"function","name":"unbindAndTransferCat","inputs":[{"name":"nfcUID","type":"string","internalType":"string"},{"name":"newOwner","type":"address","internalType":"address"},{"name":"ownerSignature","type":"bytes","internalType":"bytes"}],"outputs":[],"stateMutability":"nonpayable"},{"type":"function","name":"walletCats","inputs":[{"name":"","type":"address","internalType":"address"},{"name":"","type":"uint256","internalType":"uint256"}],"outputs":[{"name":"","type":"uint256","internalType":"uint256"}],"stateMutability":"view"},{"type":"event","name":"Approval","inputs":[{"name":"owner","type":"address","indexed":true,"internalType":"address"},{"name":"approved","type":"address","indexed":true,"internalType":"address"},{"name":"tokenId","type":"uint256","indexed":true,"internalType":"uint256"}],"anonymous":false},{"type":"event","name":"ApprovalForAll","inputs":[{"name":"owner","type":"address","indexed":true,"internalType":"address"},{"name":"operator","type":"address","indexed":true,"internalType":"address"},{"name":"approved","type":"bool","indexed":false,"internalType":"bool"}],"anonymous":false},{"type":"event","name":"CatBound","inputs":[{"name":"tokenId","type":"uint256","indexed":true,"internalType":"uint256"},{"name":"nfcUID","type":"string","indexed":true,"internalType":"string"},{"name":"wallet","type":"address","indexed":true,"internalType":"address"}],"anonymous":false},{"type":"event","name":"CatMinted","inputs":[{"name":"tokenId","type":"uint256","indexed":true,"internalType":"uint256"},{"name":"nfcUID","type":"string","indexed":true,"internalType":"string"},{"name":"owner","type":"address","indexed":true,"internalType":"address"},{"name":"catName","type":"string","indexed":false,"internalType":"string"},{"name":"breed","type":"uint8","indexed":false,"internalType":"enum CatCardNFT.CatBreed"}],"anonymous":false},{"type":"event","name":"CatMoodChanged","inputs":[{"name":"tokenId","type":"uint256","indexed":true,"internalType":"uint256"},{"name":"oldMood","type":"uint8","indexed":false,"internalType":"enum CatCardNFT.CatMood"},{"name":"newMood","type":"uint8","indexed":false,"internalType":"enum CatCardNFT.CatMood"}],"anonymous":false},{"type":"event","name":"CatUnbound","inputs":[{"name":"tokenId","type":"uint256","indexed":true,"internalType":"uint256"},{"name":"nfcUID","type":"string","indexed":true,"internalType":"string"},{"name":"wallet","type":"address","indexed":true,"internalType":"address"},{"name":"burned","type":"bool","indexed":false,"internalType":"bool"}],"anonymous":false},{"type":"event","name":"CatsInteracted","inputs":[{"name":"tokenId1","type":"uint256","indexed":true,"internalType":"uint256"},{"name":"tokenId2","type":"uint256","indexed":true,"internalType":"uint256"},{"name":"initiator","type":"address","indexed":true,"internalType":"address"},{"name":"interactionType","type":"uint8","indexed":false,"internalType":"enum CatCardNFT.InteractionType"}],"anonymous":false},{"type":"event","name":"FriendshipLevelUp","inputs":[{"name":"tokenId","type":"uint256","indexed":true,"internalType":"uint256"},{"name":"oldLevel","type":"uint256","indexed":false,"internalType":"uint256"},{"name":"newLevel","type":"uint256","indexed":false,"internalType":"uint256"}],"anonymous":false},{"type":"event","name":"OwnershipTransferred","inputs":[{"name":"previousOwner","type":"address","indexed":true,"internalType":"address"},{"name":"newOwner","type":"address","indexed":true,"internalType":"address"}],"anonymous":false},{"type":"event","name":"Transfer","inputs":[{"name":"from","type":"address","indexed":true,"internalType":"address"},{"name":"to","type":"address","indexed":true,"internalType":"address"},{"name":"tokenId","type":"uint256","indexed":true,"internalType":"uint256"}],"anonymous":false},{"type":"error","name":"ERC721IncorrectOwner","inputs":[{"name":"sender","type":"address","internalType":"address"},{"name":"tokenId","type":"uint256","internalType":"uint256"},{"name":"owner","type":"address","internalType":"address"}]},{"type":"error","name":"ERC721InsufficientApproval","inputs":[{"name":"operator","type":"address","internalType":"address"},{"name":"tokenId","type":"uint256","internalType":"uint256"}]},{"type":"error","name":"ERC721InvalidApprover","inputs":[{"name":"approver","type":"address","internalType":"address"}]},{"type":"error","name":"ERC721InvalidOperator","inputs":[{"name":"operator","type":"address","internalType":"address"}]},{"type":"error","name":"ERC721InvalidOwner","inputs":[{"name":"owner","type":"address","internalType":"address"}]},{"type":"error","name":"ERC721InvalidReceiver","inputs":[{"name":"receiver","type":"address","internalType":"address"}]},{"type":"error","name":"ERC721InvalidSender","inputs":[{"name":"sender","type":"address","internalType":"address"}]},{"type":"error","name":"ERC721NonexistentToken","inputs":[{"name":"tokenId","type":"uint256","internalType":"uint256"}]},{"type":"error","name":"OwnableInvalidOwner","inputs":[{"name":"owner","type":"address","internalType":"address"}]},{"type":"error","name":"OwnableUnauthorizedAccount","inputs":[{"name":"account","type":"address","internalType":"address"}]},{"type":"error","name":"ReentrancyGuardReentrantCall","inputs":[]}],"bytecode":{"object":"0x600861026081815267576869736b65727360c01b61028052608090815260076102a0818152664d697474656e7360c81b6102c05260a05260066102e081815265536861646f7760d01b6103005260c0526004610320818152634c756e6160e01b6103405260e052610360818152634d696c6f60e01b610380526101005260056103a08181526442656c6c6160d81b6103c052610120526103e08181526453696d626160d81b6104005261014052610420918252634e616c6160e01b61044052610160919091526104608581526711d85c999a595b1960c21b61048052610180526104a08181526408ccad8d2f60db1b6104c0526101a0526104e081815264426f6f747360d81b610500526101c052610520928352665061746368657360c81b610540526101e09290925261056090815265536d6f6b657960d01b61058052610200526105a0908152642a34b3b2b960d91b6105c052610220526106206040526105e0918252675072696e6365737360c01b610600526102409190915261018890600f9081610279565b50348015610194575f5ffd5b506040516147843803806147848339810160408190526101b3916103d4565b3383835f6101c183826104e7565b5060016101ce82826104e7565b5050506001600160a01b0381166101fe57604051631e4fbdf760e01b81525f600482015260240160405180910390fd5b61020781610228565b506001600755600e61021982826104e7565b50506001600d55506105a19050565b600680546001600160a01b038381166001600160a01b0319831681179093556040519116919082907f8be0079c531659141344cd1fd0a4f28419497f9722a3daafe3b4186f6b6457e0905f90a35050565b828054828255905f5260205f209081019282156102bd579160200282015b828111156102bd57825182906102ad90826104e7565b5091602001919060010190610297565b506102c99291506102cd565b5090565b808211156102c9575f6102e082826102e9565b506001016102cd565b5080546102f590610463565b5f825580601f10610304575050565b601f0160209004905f5260205f20908101906103209190610323565b50565b5b808211156102c9575f8155600101610324565b634e487b7160e01b5f52604160045260245ffd5b5f82601f83011261035a575f5ffd5b81516001600160401b0381111561037357610373610337565b604051601f8201601f19908116603f011681016001600160401b03811182821017156103a1576103a1610337565b6040528181528382016020018510156103b8575f5ffd5b8160208501602083015e5f918101602001919091529392505050565b5f5f5f606084860312156103e6575f5ffd5b83516001600160401b038111156103fb575f5ffd5b6104078682870161034b565b602086015190945090506001600160401b03811115610424575f5ffd5b6104308682870161034b565b604086015190935090506001600160401b0381111561044d575f5ffd5b6104598682870161034b565b9150509250925092565b600181811c9082168061047757607f821691505b60208210810361049557634e487b7160e01b5f52602260045260245ffd5b50919050565b601f8211156104e257805f5260205f20601f840160051c810160208510156104c05750805b601f840160051c820191505b818110156104df575f81556001016104cc565b50505b505050565b81516001600160401b0381111561050057610500610337565b6105148161050e8454610463565b8461049b565b6020601f821160018114610546575f831561052f5750848201515b5f19600385901b1c1916600184901b1784556104df565b5f84815260208120601f198516915b828110156105755787850151825560209485019460019092019101610555565b508482101561059257868401515f19600387901b60f8161c191681555b50505050600190811b01905550565b6141d6806105ae5f395ff3fe608060405234801561000f575f5ffd5b50600436106101f2575f3560e01c80638da5cb5b11610114578063ba32122e116100a9578063de883cf711610079578063de883cf714610499578063e3d1eb96146104b9578063e985e9c5146104cc578063ed58bad8146104df578063f2fde38b146104f2575f5ffd5b8063ba32122e14610436578063c87b56dd14610449578063cf9c50231461045c578063dafa13f014610486575f5ffd5b8063aa2fe91b116100e4578063aa2fe91b146103b6578063aa76e2ee146103d8578063b236f197146103f8578063b88d4fde14610423575f5ffd5b80638da5cb5b14610377578063924fd8ab1461038857806395d89b411461039b578063a22cb465146103a3575f5ffd5b806342966c681161018a5780636352211e1161015a5780636352211e1461033657806370a0823114610349578063715018a61461035c5780637e894f5214610364575f5ffd5b806342966c68146102cf5780634b762990146102e257806355f804b3146103035780635de32ef514610316575f5ffd5b8063095ea7b3116101c5578063095ea7b3146102815780632225e0e71461029657806323b872dd146102a957806342842e0e146102bc575f5ffd5b806301ffc9a7146101f657806304762ff71461021e57806306fdde0314610241578063081812fc14610256575b5f5ffd5b6102096102043660046135a7565b610505565b60405190151581526020015b60405180910390f35b61023161022c3660046135c2565b610556565b6040516102159493929190613638565b610249610631565b6040516102159190613676565b610269610264366004613688565b6106c0565b6040516001600160a01b039091168152602001610215565b61029461028f3660046136ba565b6106e7565b005b6102946102a4366004613797565b6106f6565b6102946102b7366004613860565b61074e565b6102946102ca366004613860565b6107dc565b6102946102dd366004613688565b6107fb565b6102f56102f036600461389a565b610806565b604051908152602001610215565b6102946103113660046138e4565b610c11565b610329610324366004613688565b610c25565b6040516102159190613935565b610269610344366004613688565b610f64565b6102f5610357366004613a14565b610f6e565b610294610fb3565b610294610372366004613a2d565b610fc6565b6006546001600160a01b0316610269565b610294610396366004613a9f565b61125a565b61024961148a565b6102946103b1366004613b02565b611499565b6102096103c4366004613a14565b600c6020525f908152604090205460ff1681565b6103eb6103e6366004613a14565b6114a4565b6040516102159190613b3b565b6102f56104063660046138e4565b805160208183018101805160098252928201919093012091525481565b610294610431366004613b7d565b61150d565b6102f56104443660046138e4565b611525565b610249610457366004613688565b61154c565b61046f61046a366004613688565b6118a8565b6040516102159b9a99989796959493929190613be0565b610294610494366004613c77565b611aa4565b6104ac6104a7366004613688565b611ee9565b6040516102159190613d00565b6102f56104c73660046136ba565b61203b565b6102096104da366004613da1565b612066565b6102946104ed366004613b02565b612093565b610294610500366004613a14565b6120c5565b5f6001600160e01b031982166380ac58cd60e01b148061053557506001600160e01b03198216635b5e139f60e01b145b8061055057506301ffc9a760e01b6001600160e01b03198316145b92915050565b600b602052815f5260405f20818154811061056f575f80fd5b5f9182526020909120600390910201805460018201546002830180549295506001600160a01b0382169450600160a01b90910460ff1692916105b090613dc9565b80601f01602080910402602001604051908101604052809291908181526020018280546105dc90613dc9565b80156106275780601f106105fe57610100808354040283529160200191610627565b820191905f5260205f20905b81548152906001019060200180831161060a57829003601f168201915b5050505050905084565b60605f805461063f90613dc9565b80601f016020809104026020016040519081016040528092919081815260200182805461066b90613dc9565b80156106b65780601f1061068d576101008083540402835291602001916106b6565b820191905f5260205f20905b81548152906001019060200180831161069957829003601f168201915b5050505050905090565b5f6106ca82612102565b505f828152600460205260409020546001600160a01b0316610550565b6106f282823361213a565b5050565b6106fe612147565b5f5b81518110156106f257600f82828151811061071d5761071d613e01565b60209081029190910181015182546001810184555f9384529190922001906107459082613e59565b50600101610700565b6001600160a01b03821661077c57604051633250574960e11b81525f60048201526024015b60405180910390fd5b5f610788838333612174565b9050836001600160a01b0316816001600160a01b0316146107d6576040516364283d7b60e01b81526001600160a01b0380861660048301526024820184905282166044820152606401610773565b50505050565b6107f683838360405180602001604052805f81525061150d565b505050565b6106f25f8233612174565b335f908152600c602052604081205460ff168061082d57506006546001600160a01b031633145b6108715760405162461bcd60e51b81526020600482015260156024820152742737ba1030baba3437b934bd32b21036b4b73a32b960591b6044820152606401610773565b5f8351116108b35760405162461bcd60e51b815260206004820152600f60248201526e125b9d985b1a5908139190c8155251608a1b6044820152606401610773565b6001600160a01b0382166109015760405162461bcd60e51b8152602060048201526015602482015274496e76616c6964206f776e6572206164647265737360581b6044820152606401610773565b6009836040516109119190613f2a565b9081526020016040518091039020545f146109645760405162461bcd60e51b8152602060048201526013602482015272139190c8185b1c9958591e481a185cc8139195606a1b6044820152606401610773565b600d80545f918261097483613f49565b9190505590505f5f5f61098684612295565b92509250925061099686856123dd565b6040518061016001604052808881526020018481526020018360078111156109c0576109c06135e2565b81526020018260058111156109d7576109d76135e2565b8152602001600181526020015f8152602001428152602001428152602001600115158152602001876001600160a01b03168152602001610a1784846123f6565b90525f85815260086020526040902081518190610a349082613e59565b5060208201516001820190610a499082613e59565b50604082015160028201805460ff19166001836007811115610a6d57610a6d6135e2565b0217905550606082015160028201805461ff001916610100836005811115610a9757610a976135e2565b02179055506080820151600382015560a0820151600482015560c0820151600582015560e08201516006820155610100808301516007830180546101208601516001600160a81b0319909116921515610100600160a81b031916929092176001600160a01b039092169092021790556101408201516008820190610b1b9082613e59565b5090505083600988604051610b309190613f2a565b908152604080519182900360209081018320939093556001600160a01b0389165f818152600a8552918220805460018101825590835293909120909201869055610b7b908990613f2a565b6040518091039020857fb572352480fedae5849f934de35f4a27f1de620f99ef5bf8aa0f9715960be0d28686604051610bb5929190613f61565b60405180910390a4856001600160a01b031687604051610bd59190613f2a565b6040519081900381209086907f707938fe4cfb736423c49b0a184a77cdb042c473c02b5aa794dcf6a8db2dc95d905f90a4509195945050505050565b610c19612147565b600e6106f28282613e59565b610c836040805161016081018252606080825260208201529081015f81526020015f81526020015f81526020015f81526020015f81526020015f81526020015f151581526020015f6001600160a01b03168152602001606081525090565b5f828152600260205260409020546001600160a01b0316610cdb5760405162461bcd60e51b815260206004820152601260248201527110d85d08191bd95cc81b9bdd08195e1a5cdd60721b6044820152606401610773565b5f828152600860205260409081902081516101608101909252805482908290610d0390613dc9565b80601f0160208091040260200160405190810160405280929190818152602001828054610d2f90613dc9565b8015610d7a5780601f10610d5157610100808354040283529160200191610d7a565b820191905f5260205f20905b815481529060010190602001808311610d5d57829003601f168201915b50505050508152602001600182018054610d9390613dc9565b80601f0160208091040260200160405190810160405280929190818152602001828054610dbf90613dc9565b8015610e0a5780601f10610de157610100808354040283529160200191610e0a565b820191905f5260205f20905b815481529060010190602001808311610ded57829003601f168201915b5050509183525050600282015460209091019060ff166007811115610e3157610e316135e2565b6007811115610e4257610e426135e2565b81526020016002820160019054906101000a900460ff166005811115610e6a57610e6a6135e2565b6005811115610e7b57610e7b6135e2565b815260038201546020820152600482015460408201526005820154606082015260068201546080820152600782015460ff8116151560a083015261010090046001600160a01b031660c082015260088201805460e090920191610edd90613dc9565b80601f0160208091040260200160405190810160405280929190818152602001828054610f0990613dc9565b8015610f545780601f10610f2b57610100808354040283529160200191610f54565b820191905f5260205f20905b815481529060010190602001808311610f3757829003601f168201915b5050505050815250509050919050565b5f61055082612102565b5f6001600160a01b038216610f98576040516322718ad960e21b81525f6004820152602401610773565b506001600160a01b03165f9081526003602052604090205490565b610fbb612147565b610fc45f612432565b565b610fce612483565b6001600160a01b0382166110245760405162461bcd60e51b815260206004820152601960248201527f496e76616c6964206e6577206f776e65722061646472657373000000000000006044820152606401610773565b5f6009846040516110359190613f2a565b9081526020016040518091039020549050805f036110855760405162461bcd60e51b815260206004820152600d60248201526c139190c81b9bdd08199bdd5b99609a1b6044820152606401610773565b5f818152600260205260409020546001600160a01b03166110dd5760405162461bcd60e51b815260206004820152601260248201527110d85d08185b1c9958591e48189d5c9b995960721b6044820152606401610773565b5f818152600860205260408120906110f483610f64565b9050336001600160a01b0382161461114e5760405162461bcd60e51b815260206004820152601b60248201527f4f6e6c7920636174206f776e65722063616e207472616e7366657200000000006044820152606401610773565b61117a8187604051806040016040528060088152602001673a3930b739b332b960c11b815250876124ad565b6111ba5760405162461bcd60e51b8152602060048201526011602482015270496e76616c6964207369676e617475726560781b6044820152606401610773565b6009866040516111ca9190613f2a565b9081526040519081900360200190205f90556007820180546001600160a81b03191690556111f981868561254d565b806001600160a01b0316866040516112119190613f2a565b6040519081900381205f82529085907fde58d70a512a8439b857a4f03cf6a15bfb254a4fd540481c9591a9c786c632fa9060200160405180910390a45050506107f66001600755565b611262612483565b5f6009836040516112739190613f2a565b9081526020016040518091039020549050805f036112c35760405162461bcd60e51b815260206004820152600d60248201526c139190c81b9bdd08199bdd5b99609a1b6044820152606401610773565b5f818152600260205260409020546001600160a01b031661131b5760405162461bcd60e51b815260206004820152601260248201527110d85d08185b1c9958591e48189d5c9b995960721b6044820152606401610773565b5f8181526008602052604081209061133283610f64565b9050336001600160a01b0382161461138c5760405162461bcd60e51b815260206004820152601760248201527f4f6e6c7920636174206f776e65722063616e206275726e0000000000000000006044820152606401610773565b6113b4818660405180604001604052806004815260200163313ab93760e11b815250876124ad565b6113f45760405162461bcd60e51b8152602060048201526011602482015270496e76616c6964207369676e617475726560781b6044820152606401610773565b6113fe81846125fa565b60098560405161140e9190613f2a565b90815260200160405180910390205f9055806001600160a01b0316856040516114379190613f2a565b604051908190038120600182529085907fde58d70a512a8439b857a4f03cf6a15bfb254a4fd540481c9591a9c786c632fa9060200160405180910390a461147d836126b4565b5050506106f26001600755565b60606001805461063f90613dc9565b6106f23383836126ec565b6001600160a01b0381165f908152600a602090815260409182902080548351818402810184019094528084526060939283018282801561150157602002820191905f5260205f20905b8154815260200190600101908083116114ed575b50505050509050919050565b61151884848461074e565b6107d6338585858561278a565b5f6009826040516115369190613f2a565b9081526020016040518091039020549050919050565b5f818152600260205260409020546060906001600160a01b03166115b25760405162461bcd60e51b815260206004820152601f60248201527f55524920717565727920666f72206e6f6e6578697374656e7420746f6b656e006044820152606401610773565b5f82815260086020526040808220815161016081019092528054829082906115d990613dc9565b80601f016020809104026020016040519081016040528092919081815260200182805461160590613dc9565b80156116505780601f1061162757610100808354040283529160200191611650565b820191905f5260205f20905b81548152906001019060200180831161163357829003601f168201915b5050505050815260200160018201805461166990613dc9565b80601f016020809104026020016040519081016040528092919081815260200182805461169590613dc9565b80156116e05780601f106116b7576101008083540402835291602001916116e0565b820191905f5260205f20905b8154815290600101906020018083116116c357829003601f168201915b5050509183525050600282015460209091019060ff166007811115611707576117076135e2565b6007811115611718576117186135e2565b81526020016002820160019054906101000a900460ff166005811115611740576117406135e2565b6005811115611751576117516135e2565b815260038201546020820152600482015460408201526005820154606082015260068201546080820152600782015460ff8116151560a083015261010090046001600160a01b031660c082015260088201805460e0909201916117b390613dc9565b80601f01602080910402602001604051908101604052809291908181526020018280546117df90613dc9565b801561182a5780601f106118015761010080835404028352916020019161182a565b820191905f5260205f20905b81548152906001019060200180831161180d57829003601f168201915b50505050508152505090505f81610140015151111561184e57610140015192915050565b5f6118576128b2565b90505f8151116118755760405180602001604052805f8152506118a0565b8061187f856128c1565b604051602001611890929190613f82565b6040516020818303038152906040525b949350505050565b60086020525f90815260409020805481906118c290613dc9565b80601f01602080910402602001604051908101604052809291908181526020018280546118ee90613dc9565b80156119395780601f1061191057610100808354040283529160200191611939565b820191905f5260205f20905b81548152906001019060200180831161191c57829003601f168201915b50505050509080600101805461194e90613dc9565b80601f016020809104026020016040519081016040528092919081815260200182805461197a90613dc9565b80156119c55780601f1061199c576101008083540402835291602001916119c5565b820191905f5260205f20905b8154815290600101906020018083116119a857829003601f168201915b50505060028401546003850154600486015460058701546006880154600789015460088a018054999a60ff8089169b610100998a900482169b509799509597949693958316946001600160a01b0393049290921692611a2390613dc9565b80601f0160208091040260200160405190810160405280929190818152602001828054611a4f90613dc9565b8015611a9a5780601f10611a7157610100808354040283529160200191611a9a565b820191905f5260205f20905b815481529060010190602001808311611a7d57829003601f168201915b505050505090508b565b611aac612483565b5f600985604051611abd9190613f2a565b90815260200160405180910390205490505f600985604051611adf9190613f2a565b9081526020016040518091039020549050815f03611b325760405162461bcd60e51b815260206004820152601060248201526f135e48139190c81b9bdd08199bdd5b9960821b6044820152606401610773565b805f03611b785760405162461bcd60e51b815260206004820152601460248201527315185c99d95d08139190c81b9bdd08199bdd5b9960621b6044820152606401610773565b808203611bc75760405162461bcd60e51b815260206004820152601d60248201527f43616e6e6f7420696e74657261637420776974682073616d65206361740000006044820152606401610773565b5f82815260086020526040808220838352912033611be485610f64565b6001600160a01b031614611c305760405162461bcd60e51b8152602060048201526013602482015272139bdd081bdddb995c881bd9881b5e4818d85d606a1b6044820152606401610773565b600782015460ff16611c7b5760405162461bcd60e51b81526020600482015260146024820152734d7920636174206973206e6f742061637469766560601b6044820152606401610773565b600781015460ff16611ccf5760405162461bcd60e51b815260206004820152601860248201527f54617267657420636174206973206e6f742061637469766500000000000000006044820152606401610773565b611cda848488612950565b600b5f8581526020019081526020015f206040518060800160405280428152602001611d0586610f64565b6001600160a01b03168152602001886003811115611d2557611d256135e2565b815260209081018890528254600181810185555f94855293829020835160039283029091019081559183015193820180546001600160a01b039095166001600160a01b03198616811782556040850151949593949391926001600160a81b03199092161790600160a01b908490811115611da157611da16135e2565b021790555060608201516002820190611dba9082613e59565b505050600b5f8481526020019081526020015f206040518060800160405280428152602001336001600160a01b03168152602001886003811115611e0057611e006135e2565b815260209081018890528254600181810185555f94855293829020835160039283029091019081559183015193820180546001600160a01b039095166001600160a01b03198616811782556040850151949593949391926001600160a81b03199092161790600160a01b908490811115611e7c57611e7c6135e2565b021790555060608201516002820190611e959082613e59565b505050336001600160a01b031683857fc3753b4aa48c6a79f2e6f3d6bb3ed84f0a29d852530d1dc7e18992b5e76e54cd89604051611ed39190613f96565b60405180910390a4505050506107d66001600755565b6060600b5f8381526020019081526020015f20805480602002602001604051908101604052809291908181526020015f905b82821015612030575f8481526020908190206040805160808101825260038681029093018054825260018101546001600160a01b038116958301959095529093909291840191600160a01b90910460ff1690811115611f7c57611f7c6135e2565b6003811115611f8d57611f8d6135e2565b8152602001600282018054611fa190613dc9565b80601f0160208091040260200160405190810160405280929190818152602001828054611fcd90613dc9565b80156120185780601f10611fef57610100808354040283529160200191612018565b820191905f5260205f20905b815481529060010190602001808311611ffb57829003601f168201915b50505050508152505081526020019060010190611f1b565b505050509050919050565b600a602052815f5260405f208181548110612054575f80fd5b905f5260205f20015f91509150505481565b6001600160a01b039182165f90815260056020908152604080832093909416825291909152205460ff1690565b61209b612147565b6001600160a01b03919091165f908152600c60205260409020805460ff1916911515919091179055565b6120cd612147565b6001600160a01b0381166120f657604051631e4fbdf760e01b81525f6004820152602401610773565b6120ff81612432565b50565b5f818152600260205260408120546001600160a01b03168061055057604051637e27328960e01b815260048101849052602401610773565b6107f683838360016129d3565b6006546001600160a01b03163314610fc45760405163118cdaa760e01b8152336004820152602401610773565b5f828152600260205260408120546001600160a01b031681612197868686612ad7565b90506001600160a01b038216158015906121b957506001600160a01b03861615155b80156121d75750856001600160a01b0316826001600160a01b031614155b1561228a575f8581526008602052604090206007018054610100600160a81b0319166101006001600160a01b0389160217905561221482866125fa565b6001600160a01b0386165f818152600a6020908152604080832080546001810182559084528284200189905588835260089091529081902090516122589190613fa4565b6040519081900381209087907f707938fe4cfb736423c49b0a184a77cdb042c473c02b5aa794dcf6a8db2dc95d905f90a45b9150505b9392505050565b60605f5f5f4244866040516020016122c0939291909283526020830191909152604082015260600190565b60408051601f198184030181529190528051602090910120600f80549192505f916122eb9084614029565b815481106122fb576122fb613e01565b905f5260205f2001805461230e90613dc9565b80601f016020809104026020016040519081016040528092919081815260200182805461233a90613dc9565b80156123855780601f1061235c57610100808354040283529160200191612385565b820191905f5260205f20905b81548152906001019060200180831161236857829003601f168201915b505050505090505f60088361239a9190614029565b60078111156123ab576123ab6135e2565b90505f6123bd6006600886901c614029565b60058111156123ce576123ce6135e2565b92989197509195509350505050565b6106f2828260405180602001604052805f815250612bc9565b606061240183612be0565b61240a83612ddb565b60405160200161241b92919061403c565b604051602081830303815290604052905092915050565b600680546001600160a01b038381166001600160a01b0319831681179093556040519116919082907f8be0079c531659141344cd1fd0a4f28419497f9722a3daafe3b4186f6b6457e0905f90a35050565b6002600754036124a657604051633ee5aeb560e01b815260040160405180910390fd5b6002600755565b5f5f858585466040516020016124c69493929190614097565b60408051601f198184030181529082905280516020918201207f19457468657265756d205369676e6564204d6573736167653a0a33320000000091830191909152603c820152605c016040516020818303038152906040528051906020012090505f6125328285612f60565b6001600160a01b039081169088161492505050949350505050565b6001600160a01b03821661257657604051633250574960e11b81525f6004820152602401610773565b5f61258283835f612174565b90506001600160a01b0381166125ae57604051637e27328960e01b815260048101839052602401610773565b836001600160a01b0316816001600160a01b0316146107d6576040516364283d7b60e01b81526001600160a01b0380861660048301526024820184905282166044820152606401610773565b6001600160a01b0382165f908152600a60205260408120905b81548110156107d6578282828154811061262f5761262f613e01565b905f5260205f200154036126ac578154829061264d906001906140d2565b8154811061265d5761265d613e01565b905f5260205f20015482828154811061267857612678613e01565b905f5260205f20018190555081805480612694576126946140e5565b600190038181905f5260205f20015f905590556107d6565b600101612613565b5f6126c05f835f612174565b90506001600160a01b0381166106f257604051637e27328960e01b815260048101839052602401610773565b6001600160a01b03821661271e57604051630b61174360e31b81526001600160a01b0383166004820152602401610773565b6001600160a01b038381165f81815260056020908152604080832094871680845294825291829020805460ff191686151590811790915591519182527f17307eab39ab6107e8899845ad3d59bd9653f200f220920489ca2b5937696c31910160405180910390a3505050565b6001600160a01b0383163b156128ab57604051630a85bd0160e11b81526001600160a01b0384169063150b7a02906127cc9088908890879087906004016140f9565b6020604051808303815f875af1925050508015612806575060408051601f3d908101601f191682019092526128039181019061412b565b60015b61286d573d808015612833576040519150601f19603f3d011682016040523d82523d5f602084013e612838565b606091505b5080515f0361286557604051633250574960e11b81526001600160a01b0385166004820152602401610773565b805160208201fd5b6001600160e01b03198116630a85bd0160e11b146128a957604051633250574960e11b81526001600160a01b0385166004820152602401610773565b505b5050505050565b6060600e805461063f90613dc9565b60605f6128cd836130a0565b60010190505f816001600160401b038111156128eb576128eb6136e2565b6040519080825280601f01601f191660200182016040528015612915576020820181803683370190505b5090508181016020015b5f19016f181899199a1a9b1b9c1cb0b131b232b360811b600a86061a8153600a850494508461291f57509392505050565b5f83815260086020526040808220848352908220600482018054929391929161297883613f49565b9091555050600481018054905f61298e83613f49565b90915550504260058084018290558201555f6129a984613177565b90506129b58682613203565b6129bf8582613203565b6129c98685613296565b6128a98585613296565b80806129e757506001600160a01b03821615155b15612aa8575f6129f684612102565b90506001600160a01b03831615801590612a225750826001600160a01b0316816001600160a01b031614155b8015612a355750612a338184612066565b155b15612a5e5760405163a9fbf51f60e01b81526001600160a01b0384166004820152602401610773565b8115612aa65783856001600160a01b0316826001600160a01b03167f8c5be1e5ebec7d5bd14f71427d1e84f3dd0314c0f7b2291e5b200ac8c7c3b92560405160405180910390a45b505b50505f90815260046020526040902080546001600160a01b0319166001600160a01b0392909216919091179055565b5f828152600260205260408120546001600160a01b0390811690831615612b0357612b03818486613365565b6001600160a01b03811615612b3d57612b1e5f855f5f6129d3565b6001600160a01b0381165f90815260036020526040902080545f190190555b6001600160a01b03851615612b6b576001600160a01b0385165f908152600360205260409020805460010190555b5f8481526002602052604080822080546001600160a01b0319166001600160a01b0389811691821790925591518793918516917fddf252ad1be2c89b69c2b068fc378daa952ba7f163c4a11628f55a4df523b3ef91a4949350505050565b612bd383836133c9565b6107f6335f85858561278a565b60605f826007811115612bf557612bf56135e2565b03612c1b575050604080518082019091526005815264746162627960d81b602082015290565b6001826007811115612c2f57612c2f6135e2565b03612c575750506040805180820190915260078152663832b939b4b0b760c91b602082015290565b6002826007811115612c6b57612c6b6135e2565b03612c935750506040805180820190915260078152667369616d65736560c81b602082015290565b6003826007811115612ca757612ca76135e2565b03612cce5750506040805180820190915260068152656f72616e676560d01b602082015290565b6004826007811115612ce257612ce26135e2565b03612d0957505060408051808201909152600681526574757865646f60d01b602082015290565b6005826007811115612d1d57612d1d6135e2565b03612d4457505060408051808201909152600681526563616c69636f60d01b602082015290565b6006826007811115612d5857612d586135e2565b03612d805750506040805180820190915260078152661c9859d91bdb1b60ca1b602082015290565b6007826007811115612d9457612d946135e2565b03612dba5750506040805180820190915260058152646d61696e6560d81b602082015290565b5050604080518082019091526005815264746162627960d81b602082015290565b60605f826005811115612df057612df06135e2565b03612e16575050604080518082019091526005815264686170707960d81b602082015290565b6001826005811115612e2a57612e2a6135e2565b03612e51575050604080518082019091526006815265736c6565707960d01b602082015290565b6002826005811115612e6557612e656135e2565b03612e8d5750506040805180820190915260078152661c1b185e599d5b60ca1b602082015290565b6003826005811115612ea157612ea16135e2565b03612ec85750506040805180820190915260068152656772756d707960d01b602082015290565b6004826005811115612edc57612edc6135e2565b03612f0357505060408051808201909152600681526568756e67727960d01b602082015290565b6005826005811115612f1757612f176135e2565b03612f3f575050604080518082019091526007815266637572696f757360c81b602082015290565b5050604080518082019091526005815264686170707960d81b602082015290565b5f8151604114612fb25760405162461bcd60e51b815260206004820152601860248201527f496e76616c6964207369676e6174757265206c656e67746800000000000000006044820152606401610773565b6020820151604083015160608401515f1a601b811015612fda57612fd7601b82614146565b90505b8060ff16601b1480612fef57508060ff16601c145b61303b5760405162461bcd60e51b815260206004820152601960248201527f496e76616c6964207369676e617475726520762076616c7565000000000000006044820152606401610773565b604080515f81526020810180835288905260ff831691810191909152606081018490526080810183905260019060a0016020604051602081039080840390855afa15801561308b573d5f5f3e3d5ffd5b5050604051601f190151979650505050505050565b5f8072184f03e93ff9f4daa797ed6e38ed64bf6a1f0160401b83106130de5772184f03e93ff9f4daa797ed6e38ed64bf6a1f0160401b830492506040015b6d04ee2d6d415b85acef8100000000831061310a576d04ee2d6d415b85acef8100000000830492506020015b662386f26fc10000831061312857662386f26fc10000830492506010015b6305f5e1008310613140576305f5e100830492506008015b612710831061315457612710830492506004015b60648310613166576064830492506002015b600a83106105505760010192915050565b5f8082600381111561318b5761318b6135e2565b0361319857506002919050565b60018260038111156131ac576131ac6135e2565b036131b957506003919050565b60028260038111156131cd576131cd6135e2565b036131da57506004919050565b60038260038111156131ee576131ee6135e2565b036131fb57506001919050565b506001919050565b5f828152600860205260408120600381015460048201549192909161322a90600a9061415f565b613235906001614172565b9050600a8111156132445750600a5b818111156128ab5760038301819055604080518381526020810183905286917faefc4404c99910a54a31beff547b0149f649bdd77df080bbf35907a20342a38e91015b60405180910390a25050505050565b5f8281526008602052604081206002810154909161010090910460ff16906132be848361342a565b90508160058111156132d2576132d26135e2565b8160058111156132e4576132e46135e2565b146128ab5760028301805482919061ff00191661010083600581111561330c5761330c6135e2565b021790555060028301546133239060ff16826123f6565b60088401906133329082613e59565b50847f68afb1e694173246d57c636a10e1a6f924b7469caaa744e857813384577acf7e8383604051613287929190614185565b613370838383613531565b6107f6576001600160a01b03831661339e57604051637e27328960e01b815260048101829052602401610773565b60405163177e802f60e01b81526001600160a01b038316600482015260248101829052604401610773565b6001600160a01b0382166133f257604051633250574960e11b81525f6004820152602401610773565b5f6133fe83835f612174565b90506001600160a01b038116156107f6576040516339e3563760e11b81525f6004820152602401610773565b5f5f6064424460405160200161344a929190918252602082015260400190565b604051602081830303815290604052805190602001205f1c61346c9190614029565b90505f846003811115613481576134816135e2565b0361349f5760468110613495576001613497565b5f5b915050610550565b60018460038111156134b3576134b36135e2565b036134d057603c81106134c6575f613497565b6002915050610550565b60028460038111156134e4576134e46135e2565b036134f85760508110613495576001613497565b600384600381111561350c5761350c6135e2565b03613529576032811061351f5782613497565b6005915050610550565b509092915050565b5f6001600160a01b038316158015906118a05750826001600160a01b0316846001600160a01b0316148061356a575061356a8484612066565b806118a05750505f908152600460205260409020546001600160a01b03908116911614919050565b6001600160e01b0319811681146120ff575f5ffd5b5f602082840312156135b7575f5ffd5b813561228e81613592565b5f5f604083850312156135d3575f5ffd5b50508035926020909101359150565b634e487b7160e01b5f52602160045260245ffd5b60048110613606576136066135e2565b9052565b5f81518084528060208401602086015e5f602082860101526020601f19601f83011685010191505092915050565b8481526001600160a01b038416602082015261365760408201846135f6565b608060608201525f61366c608083018461360a565b9695505050505050565b602081525f61228e602083018461360a565b5f60208284031215613698575f5ffd5b5035919050565b80356001600160a01b03811681146136b5575f5ffd5b919050565b5f5f604083850312156136cb575f5ffd5b6136d48361369f565b946020939093013593505050565b634e487b7160e01b5f52604160045260245ffd5b604051601f8201601f191681016001600160401b038111828210171561371e5761371e6136e2565b604052919050565b5f82601f830112613735575f5ffd5b8135602083015f5f6001600160401b03841115613754576137546136e2565b50601f8301601f1916602001613769816136f6565b91505082815285838301111561377d575f5ffd5b828260208301375f92810160200192909252509392505050565b5f602082840312156137a7575f5ffd5b81356001600160401b038111156137bc575f5ffd5b8201601f810184136137cc575f5ffd5b80356001600160401b038111156137e5576137e56136e2565b8060051b6137f5602082016136f6565b91825260208184018101929081019087841115613810575f5ffd5b6020850192505b838310156138555782356001600160401b03811115613834575f5ffd5b61384389602083890101613726565b83525060209283019290910190613817565b979650505050505050565b5f5f5f60608486031215613872575f5ffd5b61387b8461369f565b92506138896020850161369f565b929592945050506040919091013590565b5f5f604083850312156138ab575f5ffd5b82356001600160401b038111156138c0575f5ffd5b6138cc85828601613726565b9250506138db6020840161369f565b90509250929050565b5f602082840312156138f4575f5ffd5b81356001600160401b03811115613909575f5ffd5b6118a084828501613726565b60088110613606576136066135e2565b60068110613606576136066135e2565b602081525f8251610160602084015261395261018084018261360a565b90506020840151601f1984830301604085015261396f828261360a565b91505060408401516139846060850182613915565b5060608401516139976080850182613925565b50608084015160a084015260a084015160c084015260c084015160e084015260e08401516101008401526101008401516139d661012085018215159052565b506101208401516001600160a01b03811661014085015250610140840151838203601f1901610160850152613a0b828261360a565b95945050505050565b5f60208284031215613a24575f5ffd5b61228e8261369f565b5f5f5f60608486031215613a3f575f5ffd5b83356001600160401b03811115613a54575f5ffd5b613a6086828701613726565b935050613a6f6020850161369f565b915060408401356001600160401b03811115613a89575f5ffd5b613a9586828701613726565b9150509250925092565b5f5f60408385031215613ab0575f5ffd5b82356001600160401b03811115613ac5575f5ffd5b613ad185828601613726565b92505060208301356001600160401b03811115613aec575f5ffd5b613af885828601613726565b9150509250929050565b5f5f60408385031215613b13575f5ffd5b613b1c8361369f565b915060208301358015158114613b30575f5ffd5b809150509250929050565b602080825282518282018190525f918401906040840190835b81811015613b72578351835260209384019390920191600101613b54565b509095945050505050565b5f5f5f5f60808587031215613b90575f5ffd5b613b998561369f565b9350613ba76020860161369f565b92506040850135915060608501356001600160401b03811115613bc8575f5ffd5b613bd487828801613726565b91505092959194509250565b61016081525f613bf461016083018e61360a565b8281036020840152613c06818e61360a565b9050613c15604084018d613915565b613c22606084018c613925565b8960808401528860a08401528760c08401528660e084015285151561010084015260018060a01b038516610120840152828103610140840152613c65818561360a565b9e9d5050505050505050505050505050565b5f5f5f5f60808587031215613c8a575f5ffd5b84356001600160401b03811115613c9f575f5ffd5b613cab87828801613726565b94505060208501356001600160401b03811115613cc6575f5ffd5b613cd287828801613726565b935050604085013560048110613ce6575f5ffd5b915060608501356001600160401b03811115613bc8575f5ffd5b5f602082016020835280845180835260408501915060408160051b8601019250602086015f5b82811015613d9557868503603f190184528151805186526020808201516001600160a01b03169087015260408082015190613d63908801826135f6565b506060810151905060806060870152613d7f608087018261360a565b9550506020938401939190910190600101613d26565b50929695505050505050565b5f5f60408385031215613db2575f5ffd5b613dbb8361369f565b91506138db6020840161369f565b600181811c90821680613ddd57607f821691505b602082108103613dfb57634e487b7160e01b5f52602260045260245ffd5b50919050565b634e487b7160e01b5f52603260045260245ffd5b601f8211156107f657805f5260205f20601f840160051c81016020851015613e3a5750805b601f840160051c820191505b818110156128ab575f8155600101613e46565b81516001600160401b03811115613e7257613e726136e2565b613e8681613e808454613dc9565b84613e15565b6020601f821160018114613eb8575f8315613ea15750848201515b5f19600385901b1c1916600184901b1784556128ab565b5f84815260208120601f198516915b82811015613ee75787850151825560209485019460019092019101613ec7565b5084821015613f0457868401515f19600387901b60f8161c191681555b50505050600190811b01905550565b5f81518060208401855e5f93019283525090919050565b5f61228e8284613f13565b634e487b7160e01b5f52601160045260245ffd5b5f60018201613f5a57613f5a613f35565b5060010190565b604081525f613f73604083018561360a565b905061228e6020830184613915565b5f6118a0613f908386613f13565b84613f13565b6020810161055082846135f6565b5f5f8354613fb181613dc9565b600182168015613fc85760018114613fdd5761400a565b60ff198316865281151582028601935061400a565b865f5260205f205f5b8381101561400257815488820152600190910190602001613fe6565b505081860193505b509195945050505050565b634e487b7160e01b5f52601260045260245ffd5b5f8261403757614037614015565b500690565b7f68747470733a2f2f6170692e63617463617264732e66756e2f696d616765732f81525f61406d6020830185613f13565b602f60f81b81526140816001820185613f13565b632e706e6760e01b815260040195945050505050565b6bffffffffffffffffffffffff198560601b1681525f6140c36140bd6014840187613f13565b85613f13565b92835250506020019392505050565b8181038181111561055057610550613f35565b634e487b7160e01b5f52603160045260245ffd5b6001600160a01b03858116825284166020820152604081018390526080606082018190525f9061366c9083018461360a565b5f6020828403121561413b575f5ffd5b815161228e81613592565b60ff818116838216019081111561055057610550613f35565b5f8261416d5761416d614015565b500490565b8082018082111561055057610550613f35565b604081016141938285613925565b61228e602083018461392556fea26469706673582212205e42fb1ddbe72c4c11b4a289a98155bf7ed87536f56346207d047420df848b0364736f6c634300081e0033","linkReferences":{}},"methodIdentifiers":{"addCatNames(string[])":"2225e0e7","approve(address,uint256)":"095ea7b3","authorizedMinters(address)":"aa2fe91b","balanceOf(address)":"70a08231","burn(uint256)":"42966c68","catCards(uint256)":"cf9c5023","catInteractions(uint256,uint256)":"04762ff7","getApproved(uint256)":"081812fc","getCatInfo(uint256)":"5de32ef5","getCatInteractions(uint256)":"de883cf7","getTokenIdByNFC(string)":"ba32122e","getWalletCats(address)":"aa76e2ee","interactWithCat(string,string,uint8,string)":"dafa13f0","isApprovedForAll(address,address)":"e985e9c5","mintCatCard(string,address)":"4b762990","name()":"06fdde03","nfcToTokenId(string)":"b236f197","owner()":"8da5cb5b","ownerOf(uint256)":"6352211e","renounceOwnership()":"715018a6","safeTransferFrom(address,address,uint256)":"42842e0e","safeTransferFrom(address,address,uint256,bytes)":"b88d4fde","setApprovalForAll(address,bool)":"a22cb465","setAuthorizedMinter(address,bool)":"ed58bad8","setBaseURI(string)":"55f804b3","supportsInterface(bytes4)":"01ffc9a7","symbol()":"95d89b41","tokenURI(uint256)":"c87b56dd","transferFrom(address,address,uint256)":"23b872dd","transferOwnership(address)":"f2fde38b","unbindAndBurnCat(string,bytes)":"924fd8ab","unbindAndTransferCat(string,address,bytes)":"7e894f52","walletCats(address,uint256)":"e3d1eb96"},"id":18}