{"abi":[{"type":"constructor","inputs":[{"name":"_nfcRegistry","type":"address","internalType":"address"}],"stateMutability":"nonpayable"},{"type":"function","name":"MAX_DOMAIN_LENGTH","inputs":[],"outputs":[{"name":"","type":"uint256","internalType":"uint256"}],"stateMutability":"view"},{"type":"function","name":"MIN_DOMAIN_LENGTH","inputs":[],"outputs":[{"name":"","type":"uint256","internalType":"uint256"}],"stateMutability":"view"},{"type":"function","name":"approve","inputs":[{"name":"to","type":"address","internalType":"address"},{"name":"tokenId","type":"uint256","internalType":"uint256"}],"outputs":[],"stateMutability":"nonpayable"},{"type":"function","name":"authorizeNewNFCUser","inputs":[{"name":"nfcUID","type":"string","internalType":"string"},{"name":"userWallet","type":"address","internalType":"address"}],"outputs":[],"stateMutability":"nonpayable"},{"type":"function","name":"authorizedOperators","inputs":[{"name":"","type":"address","internalType":"address"}],"outputs":[{"name":"","type":"bool","internalType":"bool"}],"stateMutability":"view"},{"type":"function","name":"balanceOf","inputs":[{"name":"owner","type":"address","internalType":"address"}],"outputs":[{"name":"","type":"uint256","internalType":"uint256"}],"stateMutability":"view"},{"type":"function","name":"batchSetAuthorizedOperators","inputs":[{"name":"operators","type":"address[]","internalType":"address[]"},{"name":"authorizations","type":"bool[]","internalType":"bool[]"}],"outputs":[],"stateMutability":"nonpayable"},{"type":"function","name":"domainInfos","inputs":[{"name":"","type":"uint256","internalType":"uint256"}],"outputs":[{"name":"domainName","type":"string","internalType":"string"},{"name":"owner","type":"address","internalType":"address"},{"name":"nfcUID","type":"string","internalType":"string"},{"name":"registeredAt","type":"uint256","internalType":"uint256"},{"name":"isActive","type":"bool","internalType":"bool"},{"name":"metadata","type":"string","internalType":"string"}],"stateMutability":"view"},{"type":"function","name":"domainToTokenId","inputs":[{"name":"","type":"string","internalType":"string"}],"outputs":[{"name":"","type":"uint256","internalType":"uint256"}],"stateMutability":"view"},{"type":"function","name":"emergencyFreezeDomain","inputs":[{"name":"tokenId","type":"uint256","internalType":"uint256"}],"outputs":[],"stateMutability":"nonpayable"},{"type":"function","name":"getApproved","inputs":[{"name":"tokenId","type":"uint256","internalType":"uint256"}],"outputs":[{"name":"","type":"address","internalType":"address"}],"stateMutability":"view"},{"type":"function","name":"getDomainInfo","inputs":[{"name":"tokenId","type":"uint256","internalType":"uint256"}],"outputs":[{"name":"","type":"tuple","internalType":"struct INJDomainNFT.DomainInfo","components":[{"name":"domainName","type":"string","internalType":"string"},{"name":"owner","type":"address","internalType":"address"},{"name":"nfcUID","type":"string","internalType":"string"},{"name":"registeredAt","type":"uint256","internalType":"uint256"},{"name":"isActive","type":"bool","internalType":"bool"},{"name":"metadata","type":"string","internalType":"string"}]}],"stateMutability":"view"},{"type":"function","name":"getTokenIdByDomain","inputs":[{"name":"domain","type":"string","internalType":"string"}],"outputs":[{"name":"","type":"uint256","internalType":"uint256"}],"stateMutability":"view"},{"type":"function","name":"getTokenIdByNFC","inputs":[{"name":"nfcUID","type":"string","internalType":"string"}],"outputs":[{"name":"","type":"uint256","internalType":"uint256"}],"stateMutability":"view"},{"type":"function","name":"getUserTokenIds","inputs":[{"name":"user","type":"address","internalType":"address"}],"outputs":[{"name":"","type":"uint256[]","internalType":"uint256[]"}],"stateMutability":"view"},{"type":"function","name":"isApprovedForAll","inputs":[{"name":"owner","type":"address","internalType":"address"},{"name":"operator","type":"address","internalType":"address"}],"outputs":[{"name":"","type":"bool","internalType":"bool"}],"stateMutability":"view"},{"type":"function","name":"isDomainAvailable","inputs":[{"name":"domainSuffix","type":"string","internalType":"string"}],"outputs":[{"name":"","type":"bool","internalType":"bool"}],"stateMutability":"view"},{"type":"function","name":"mintDomainNFT","inputs":[{"name":"domainSuffix","type":"string","internalType":"string"},{"name":"nfcUID","type":"string","internalType":"string"},{"name":"metadataURI","type":"string","internalType":"string"}],"outputs":[],"stateMutability":"payable"},{"type":"function","name":"name","inputs":[],"outputs":[{"name":"","type":"string","internalType":"string"}],"stateMutability":"view"},{"type":"function","name":"nfcRegistry","inputs":[],"outputs":[{"name":"","type":"address","internalType":"contract INFCWalletRegistry"}],"stateMutability":"view"},{"type":"function","name":"nfcToTokenId","inputs":[{"name":"","type":"string","internalType":"string"}],"outputs":[{"name":"","type":"uint256","internalType":"uint256"}],"stateMutability":"view"},{"type":"function","name":"owner","inputs":[],"outputs":[{"name":"","type":"address","internalType":"address"}],"stateMutability":"view"},{"type":"function","name":"ownerOf","inputs":[{"name":"tokenId","type":"uint256","internalType":"uint256"}],"outputs":[{"name":"","type":"address","internalType":"address"}],"stateMutability":"view"},{"type":"function","name":"primaryDomainTokenId","inputs":[{"name":"","type":"address","internalType":"address"}],"outputs":[{"name":"","type":"uint256","internalType":"uint256"}],"stateMutability":"view"},{"type":"function","name":"registrationFee","inputs":[],"outputs":[{"name":"","type":"uint256","internalType":"uint256"}],"stateMutability":"view"},{"type":"function","name":"renounceOwnership","inputs":[],"outputs":[],"stateMutability":"nonpayable"},{"type":"function","name":"resolveDomain","inputs":[{"name":"domain","type":"string","internalType":"string"}],"outputs":[{"name":"","type":"address","internalType":"address"}],"stateMutability":"view"},{"type":"function","name":"reverseResolve","inputs":[{"name":"addr","type":"address","internalType":"address"}],"outputs":[{"name":"","type":"string","internalType":"string"}],"stateMutability":"view"},{"type":"function","name":"safeTransferFrom","inputs":[{"name":"from","type":"address","internalType":"address"},{"name":"to","type":"address","internalType":"address"},{"name":"tokenId","type":"uint256","internalType":"uint256"}],"outputs":[],"stateMutability":"nonpayable"},{"type":"function","name":"safeTransferFrom","inputs":[{"name":"from","type":"address","internalType":"address"},{"name":"to","type":"address","internalType":"address"},{"name":"tokenId","type":"uint256","internalType":"uint256"},{"name":"data","type":"bytes","internalType":"bytes"}],"outputs":[],"stateMutability":"nonpayable"},{"type":"function","name":"setApprovalForAll","inputs":[{"name":"operator","type":"address","internalType":"address"},{"name":"approved","type":"bool","internalType":"bool"}],"outputs":[],"stateMutability":"nonpayable"},{"type":"function","name":"setAuthorizedOperator","inputs":[{"name":"operator","type":"address","internalType":"address"},{"name":"authorized","type":"bool","internalType":"bool"}],"outputs":[],"stateMutability":"nonpayable"},{"type":"function","name":"setNFCRegistry","inputs":[{"name":"_nfcRegistry","type":"address","internalType":"address"}],"outputs":[],"stateMutability":"nonpayable"},{"type":"function","name":"setPrimaryDomain","inputs":[{"name":"tokenId","type":"uint256","internalType":"uint256"}],"outputs":[],"stateMutability":"nonpayable"},{"type":"function","name":"setRegistrationFee","inputs":[{"name":"newFee","type":"uint256","internalType":"uint256"}],"outputs":[],"stateMutability":"nonpayable"},{"type":"function","name":"supportsInterface","inputs":[{"name":"interfaceId","type":"bytes4","internalType":"bytes4"}],"outputs":[{"name":"","type":"bool","internalType":"bool"}],"stateMutability":"view"},{"type":"function","name":"symbol","inputs":[],"outputs":[{"name":"","type":"string","internalType":"string"}],"stateMutability":"view"},{"type":"function","name":"tokenURI","inputs":[{"name":"tokenId","type":"uint256","internalType":"uint256"}],"outputs":[{"name":"","type":"string","internalType":"string"}],"stateMutability":"view"},{"type":"function","name":"transferFrom","inputs":[{"name":"from","type":"address","internalType":"address"},{"name":"to","type":"address","internalType":"address"},{"name":"tokenId","type":"uint256","internalType":"uint256"}],"outputs":[],"stateMutability":"nonpayable"},{"type":"function","name":"transferOwnership","inputs":[{"name":"newOwner","type":"address","internalType":"address"}],"outputs":[],"stateMutability":"nonpayable"},{"type":"function","name":"unbindAndTransferDomain","inputs":[{"name":"nfcUID","type":"string","internalType":"string"},{"name":"newOwner","type":"address","internalType":"address"}],"outputs":[],"stateMutability":"nonpayable"},{"type":"function","name":"unfreezeDomain","inputs":[{"name":"tokenId","type":"uint256","internalType":"uint256"}],"outputs":[],"stateMutability":"nonpayable"},{"type":"function","name":"updateDomainMetadata","inputs":[{"name":"tokenId","type":"uint256","internalType":"uint256"},{"name":"metadata","type":"string","internalType":"string"}],"outputs":[],"stateMutability":"nonpayable"},{"type":"function","name":"userTokenIds","inputs":[{"name":"","type":"address","internalType":"address"},{"name":"","type":"uint256","internalType":"uint256"}],"outputs":[{"name":"","type":"uint256","internalType":"uint256"}],"stateMutability":"view"},{"type":"function","name":"withdraw","inputs":[],"outputs":[],"stateMutability":"nonpayable"},{"type":"event","name":"Approval","inputs":[{"name":"owner","type":"address","indexed":true,"internalType":"address"},{"name":"approved","type":"address","indexed":true,"internalType":"address"},{"name":"tokenId","type":"uint256","indexed":true,"internalType":"uint256"}],"anonymous":false},{"type":"event","name":"ApprovalForAll","inputs":[{"name":"owner","type":"address","indexed":true,"internalType":"address"},{"name":"operator","type":"address","indexed":true,"internalType":"address"},{"name":"approved","type":"bool","indexed":false,"internalType":"bool"}],"anonymous":false},{"type":"event","name":"BatchMetadataUpdate","inputs":[{"name":"_fromTokenId","type":"uint256","indexed":false,"internalType":"uint256"},{"name":"_toTokenId","type":"uint256","indexed":false,"internalType":"uint256"}],"anonymous":false},{"type":"event","name":"DomainMetadataUpdated","inputs":[{"name":"tokenId","type":"uint256","indexed":true,"internalType":"uint256"},{"name":"domain","type":"string","indexed":true,"internalType":"string"},{"name":"metadata","type":"string","indexed":false,"internalType":"string"}],"anonymous":false},{"type":"event","name":"DomainNFTMinted","inputs":[{"name":"tokenId","type":"uint256","indexed":true,"internalType":"uint256"},{"name":"domain","type":"string","indexed":true,"internalType":"string"},{"name":"owner","type":"address","indexed":true,"internalType":"address"},{"name":"registeredAt","type":"uint256","indexed":false,"internalType":"uint256"}],"anonymous":false},{"type":"event","name":"DomainNFTTransferred","inputs":[{"name":"tokenId","type":"uint256","indexed":true,"internalType":"uint256"},{"name":"domain","type":"string","indexed":true,"internalType":"string"},{"name":"from","type":"address","indexed":true,"internalType":"address"},{"name":"to","type":"address","indexed":false,"internalType":"address"}],"anonymous":false},{"type":"event","name":"MetadataUpdate","inputs":[{"name":"_tokenId","type":"uint256","indexed":false,"internalType":"uint256"}],"anonymous":false},{"type":"event","name":"NFCRegistryUpdated","inputs":[{"name":"oldRegistry","type":"address","indexed":true,"internalType":"address"},{"name":"newRegistry","type":"address","indexed":true,"internalType":"address"}],"anonymous":false},{"type":"event","name":"OperatorAuthorized","inputs":[{"name":"operator","type":"address","indexed":true,"internalType":"address"},{"name":"authorized","type":"bool","indexed":false,"internalType":"bool"}],"anonymous":false},{"type":"event","name":"OwnershipTransferred","inputs":[{"name":"previousOwner","type":"address","indexed":true,"internalType":"address"},{"name":"newOwner","type":"address","indexed":true,"internalType":"address"}],"anonymous":false},{"type":"event","name":"PrimaryDomainSet","inputs":[{"name":"user","type":"address","indexed":true,"internalType":"address"},{"name":"tokenId","type":"uint256","indexed":true,"internalType":"uint256"},{"name":"domain","type":"string","indexed":true,"internalType":"string"}],"anonymous":false},{"type":"event","name":"Transfer","inputs":[{"name":"from","type":"address","indexed":true,"internalType":"address"},{"name":"to","type":"address","indexed":true,"internalType":"address"},{"name":"tokenId","type":"uint256","indexed":true,"internalType":"uint256"}],"anonymous":false},{"type":"error","name":"ERC721IncorrectOwner","inputs":[{"name":"sender","type":"address","internalType":"address"},{"name":"tokenId","type":"uint256","internalType":"uint256"},{"name":"owner","type":"address","internalType":"address"}]},{"type":"error","name":"ERC721InsufficientApproval","inputs":[{"name":"operator","type":"address","internalType":"address"},{"name":"tokenId","type":"uint256","internalType":"uint256"}]},{"type":"error","name":"ERC721InvalidApprover","inputs":[{"name":"approver","type":"address","internalType":"address"}]},{"type":"error","name":"ERC721InvalidOperator","inputs":[{"name":"operator","type":"address","internalType":"address"}]},{"type":"error","name":"ERC721InvalidOwner","inputs":[{"name":"owner","type":"address","internalType":"address"}]},{"type":"error","name":"ERC721InvalidReceiver","inputs":[{"name":"receiver","type":"address","internalType":"address"}]},{"type":"error","name":"ERC721InvalidSender","inputs":[{"name":"sender","type":"address","internalType":"address"}]},{"type":"error","name":"ERC721NonexistentToken","inputs":[{"name":"tokenId","type":"uint256","internalType":"uint256"}]},{"type":"error","name":"OwnableInvalidOwner","inputs":[{"name":"owner","type":"address","internalType":"address"}]},{"type":"error","name":"OwnableUnauthorizedAccount","inputs":[{"name":"account","type":"address","internalType":"address"}]},{"type":"error","name":"ReentrancyGuardReentrantCall","inputs":[]}],"bytecode":{"object":"0x60806040525f600f55348015610013575f5ffd5b50604051613e64380380613e64833981016040819052610032916101b8565b336040518060400160405280600e81526020016d12539288111bdb585a5b8813919560921b8152506040518060400160405280600581526020016424a725222760d91b815250815f9081610086919061027d565b506001610093828261027d565b5050506001600160a01b0381166100c457604051631e4fbdf760e01b81525f60048201526024015b60405180910390fd5b6100cd81610167565b5060016008556001600160a01b0381166101295760405162461bcd60e51b815260206004820152601c60248201527f496e76616c6964204e464320726567697374727920616464726573730000000060448201526064016100bb565b601080546001600160a01b0319166001600160a01b0392909216919091179055335f908152601160205260409020805460ff19166001179055610337565b600780546001600160a01b038381166001600160a01b0319831681179093556040519116919082907f8be0079c531659141344cd1fd0a4f28419497f9722a3daafe3b4186f6b6457e0905f90a35050565b5f602082840312156101c8575f5ffd5b81516001600160a01b03811681146101de575f5ffd5b9392505050565b634e487b7160e01b5f52604160045260245ffd5b600181811c9082168061020d57607f821691505b60208210810361022b57634e487b7160e01b5f52602260045260245ffd5b50919050565b601f82111561027857805f5260205f20601f840160051c810160208510156102565750805b601f840160051c820191505b81811015610275575f8155600101610262565b50505b505050565b81516001600160401b03811115610296576102966101e5565b6102aa816102a484546101f9565b84610231565b6020601f8211600181146102dc575f83156102c55750848201515b5f19600385901b1c1916600184901b178455610275565b5f84815260208120601f198516915b8281101561030b57878501518255602094850194600190920191016102eb565b508482101561032857868401515f19600387901b60f8161c191681555b50505050600190811b01905550565b613b20806103445f395ff3fe60806040526004361061026a575f3560e01c8063750104b41161014a578063a22cb465116100be578063c320c72711610078578063c320c7271461078e578063c87b56dd146107ad578063cc17e15d146107cc578063e985e9c5146107eb578063f0eec37a1461080a578063f2fde38b14610829575f5ffd5b8063a22cb465146106af578063b236f197146106ce578063b5301ced14610705578063b88d4fde14610719578063ba32122e14610738578063bca6eec414610757575f5ffd5b80638afbab7c1161010f5780638afbab7c146105f55780638da5cb5b146106145780638df2de251461063157806392ddf23c1461065057806395d89b411461067c5780639af8b7aa14610690575f5ffd5b8063750104b41461054d578063788f737d1461056c5780637908976b1461058b5780637d760cac146105aa578063879709a1146105d6575f5ffd5b806332752b09116101e15780635ec9b71b116101a65780635ec9b71b146104925780635f06b0eb146104b15780636352211e146104dc5780636f58a882146104fb57806370a082311461051a578063715018a614610539575f5ffd5b806332752b0914610402578063364460f3146104215780633a06831c146104405780633ccfd60b1461045f57806342842e0e14610473575f5ffd5b806314c44e091161023257806314c44e091461033a578063181d989b1461035d5780631e2ca61e1461038b57806323b872dd1461039e5780632661017b146103bd57806329aa4f51146103ee575f5ffd5b806301ffc9a71461026e57806306fdde03146102a2578063081812fc146102c3578063095ea7b3146102fa5780630d537e8d1461031b575b5f5ffd5b348015610279575f5ffd5b5061028d61028836600461303b565b610848565b60405190151581526020015b60405180910390f35b3480156102ad575f5ffd5b506102b6610858565b6040516102999190613084565b3480156102ce575f5ffd5b506102e26102dd366004613096565b6108e7565b6040516001600160a01b039091168152602001610299565b348015610305575f5ffd5b506103196103143660046130c1565b61090e565b005b348015610326575f5ffd5b50610319610335366004613096565b61091d565b348015610345575f5ffd5b5061034f600f5481565b604051908152602001610299565b348015610368575f5ffd5b5061028d6103773660046130eb565b60116020525f908152604090205460ff1681565b6103196103993660046131f1565b610a0a565b3480156103a9575f5ffd5b506103196103b836600461327c565b610fb0565b3480156103c8575f5ffd5b506103dc6103d7366004613096565b611039565b604051610299969594939291906132ba565b3480156103f9575f5ffd5b5061034f600181565b34801561040d575f5ffd5b5061028d61041c36600461331c565b611215565b34801561042c575f5ffd5b506102e261043b36600461331c565b611291565b34801561044b575f5ffd5b506010546102e2906001600160a01b031681565b34801561046a575f5ffd5b506103196112f9565b34801561047e575f5ffd5b5061031961048d36600461327c565b61133a565b34801561049d575f5ffd5b506103196104ac36600461334d565b611354565b3480156104bc575f5ffd5b5061034f6104cb3660046130eb565b600e6020525f908152604090205481565b3480156104e7575f5ffd5b506102e26104f6366004613096565b611548565b348015610506575f5ffd5b50610319610515366004613096565b611552565b348015610525575f5ffd5b5061034f6105343660046130eb565b6115a7565b348015610544575f5ffd5b506103196115ec565b348015610558575f5ffd5b5061031961056736600461339b565b6115ff565b348015610577575f5ffd5b506103196105863660046133eb565b6116fb565b348015610596575f5ffd5b506103196105a536600461334d565b61175a565b3480156105b5575f5ffd5b506105c96105c4366004613096565b611ad2565b6040516102999190613417565b3480156105e1575f5ffd5b506103196105f0366004613529565b611d45565b348015610600575f5ffd5b5061031961060f366004613096565b611e8c565b34801561061f575f5ffd5b506007546001600160a01b03166102e2565b34801561063c575f5ffd5b5061031961064b3660046130eb565b611ede565b34801561065b575f5ffd5b5061066f61066a3660046130eb565b611f7f565b60405161029991906135e2565b348015610687575f5ffd5b506102b6611fe8565b34801561069b575f5ffd5b506102b66106aa3660046130eb565b611ff7565b3480156106ba575f5ffd5b506103196106c93660046133eb565b6120d2565b3480156106d9575f5ffd5b5061034f6106e836600461331c565b8051602081830181018051600c8252928201919093012091525481565b348015610710575f5ffd5b5061034f601e81565b348015610724575f5ffd5b50610319610733366004613624565b6120dd565b348015610743575f5ffd5b5061034f61075236600461331c565b6120f5565b348015610762575f5ffd5b5061034f61077136600461331c565b8051602081830181018051600b8252928201919093012091525481565b348015610799575f5ffd5b506103196107a8366004613096565b612171565b3480156107b8575f5ffd5b506102b66107c7366004613096565b61217e565b3480156107d7575f5ffd5b5061034f6107e63660046130c1565b612189565b3480156107f6575f5ffd5b5061028d61080536600461369e565b6121b4565b348015610815575f5ffd5b5061034f61082436600461331c565b6121e1565b348015610834575f5ffd5b506103196108433660046130eb565b61223f565b5f61085282612279565b92915050565b60605f8054610866906136ca565b80601f0160208091040260200160405190810160405280929190818152602001828054610892906136ca565b80156108dd5780601f106108b4576101008083540402835291602001916108dd565b820191905f5260205f20905b8154815290600101906020018083116108c057829003601f168201915b5050505050905090565b5f6108f18261229d565b505f828152600460205260409020546001600160a01b0316610852565b6109198282336122d4565b5050565b5f610927826122e1565b6001600160a01b0316036109565760405162461bcd60e51b815260040161094d90613702565b60405180910390fd5b3361096082611548565b6001600160a01b0316146109a85760405162461bcd60e51b815260206004820152600f60248201526e2737ba103a37b5b2b71037bbb732b960891b604482015260640161094d565b335f908152600e60209081526040808320849055838352600a9091529081902090516109d49190613730565b60405190819003812090829033907f1833e702c6de975c9005d56f858c258def9c7dba4364b1c2c08623d366c8b9cf905f90a450565b610a126122fd565b335f9081526011602052604090205460ff1680610a3957506007546001600160a01b031633145b610a7f5760405162461bcd60e51b81526020600482015260176024820152762737ba1030baba3437b934bd32b21037b832b930ba37b960491b604482015260640161094d565b600f54341015610ad15760405162461bcd60e51b815260206004820152601d60248201527f496e73756666696369656e7420726567697374726174696f6e20666565000000604482015260640161094d565b610ada83612327565b610b1e5760405162461bcd60e51b8152602060048201526015602482015274092dcecc2d8d2c840c8dedac2d2dc40e6eaccccd2f605b1b604482015260640161094d565b5f825111610b605760405162461bcd60e51b815260206004820152600f60248201526e125b9d985b1a5908139190c8155251608a1b604482015260640161094d565b610b69826124b6565b15610bb65760405162461bcd60e51b815260206004820152601b60248201527f4e464320616c726561647920626f756e6420746f20646f6d61696e0000000000604482015260640161094d565b601054604051630af9711360e21b81526001600160a01b0390911690632be5c44c90610be6908590600401613084565b602060405180830381865afa158015610c01573d5f5f3e3d5ffd5b505050506040513d601f19601f82011682018060405250810190610c2591906137a1565b610c665760405162461bcd60e51b8152602060048201526012602482015271139190c81b9bdd081c9959da5cdd195c995960721b604482015260640161094d565b60105460405163b5fcabc560e01b81525f916001600160a01b03169063b5fcabc590610c96908690600401613084565b5f60405180830381865afa158015610cb0573d5f5f3e3d5ffd5b505050506040513d5f823e601f3d908101601f19168201604052610cd79190810190613809565b80519091506001600160a01b03163314610d2c5760405162461bcd60e51b8152602060048201526016602482015275596f7520646f6e2774206f776e2074686973204e464360501b604482015260640161094d565b5f84604051602001610d3e91906138d7565b60405160208183030381529060405290505f81604051602001610d6191906138f0565b6040516020818303038152906040529050610d7b816124df565b15610dc85760405162461bcd60e51b815260206004820152601960248201527f446f6d61696e20616c7265616479207265676973746572656400000000000000604482015260640161094d565b60098054905f610dd783613923565b90915550506009546040805160c0810182528381523360208083019190915281830189905242606083015260016080830152825180820184525f80825260a0840191909152848152600a9091529190912081518190610e36908261397f565b5060208201516001820180546001600160a01b0319166001600160a01b0390921691909117905560408201516002820190610e71908261397f565b5060608201516003820155608082015160048201805460ff191691151591909117905560a08201516005820190610ea8908261397f565b5090505080600b83604051610ebd9190613a39565b90815260200160405180910390208190555080600c87604051610ee09190613a39565b908152604080516020928190038301902092909255335f818152600d8352838120805460018101825590825283822001859055908152600e909152908120549003610f3757335f908152600e602052604090208190555b610f4133826124f0565b610f4b8186612509565b6040513390610f5b908490613a39565b6040518091039020827f2a81f1813f9c87ff8a1fbe001d7d1c81c68f55a834702a5ca7190df5df0d311642604051610f9591815260200190565b60405180910390a450505050610fab6001600855565b505050565b6001600160a01b038216610fd957604051633250574960e11b81525f600482015260240161094d565b5f610fe5838333612558565b9050836001600160a01b0316816001600160a01b031614611033576040516364283d7b60e01b81526001600160a01b038086166004830152602482018490528216604482015260640161094d565b50505050565b600a6020525f9081526040902080548190611053906136ca565b80601f016020809104026020016040519081016040528092919081815260200182805461107f906136ca565b80156110ca5780601f106110a1576101008083540402835291602001916110ca565b820191905f5260205f20905b8154815290600101906020018083116110ad57829003601f168201915b505050600184015460028501805494956001600160a01b039092169491935091506110f4906136ca565b80601f0160208091040260200160405190810160405280929190818152602001828054611120906136ca565b801561116b5780601f106111425761010080835404028352916020019161116b565b820191905f5260205f20905b81548152906001019060200180831161114e57829003601f168201915b50505050600383015460048401546005850180549495929460ff909216935090611194906136ca565b80601f01602080910402602001604051908101604052809291908181526020018280546111c0906136ca565b801561120b5780601f106111e25761010080835404028352916020019161120b565b820191905f5260205f20905b8154815290600101906020018083116111ee57829003601f168201915b5050505050905086565b5f61121f82612327565b61122a57505f919050565b5f8260405160200161123c91906138d7565b60405160208183030381529060405290505f8160405160200161125f91906138f0565b6040516020818303038152906040529050611279816124df565b15806112895750611289816125e9565b949350505050565b5f61129b826124df565b15806112ab57506112ab826125e9565b156112b757505f919050565b5f600b836040516112c89190613a39565b9081526040805160209281900383019020545f908152600a9092529020600101546001600160a01b03169392505050565b611301612625565b6007546040516001600160a01b03909116904780156108fc02915f818181858888f19350505050158015611337573d5f5f3e3d5ffd5b50565b610fab83838360405180602001604052805f8152506120dd565b6010546001600160a01b031633146113ae5760405162461bcd60e51b815260206004820152601a60248201527f4f6e6c79204e46432072656769737472792063616e2063616c6c000000000000604482015260640161094d565b6001600160a01b0381166113fd5760405162461bcd60e51b8152602060048201526016602482015275496e76616c69642077616c6c6574206164647265737360501b604482015260640161094d565b5f82511161143f5760405162461bcd60e51b815260206004820152600f60248201526e125b9d985b1a5908139190c8155251608a1b604482015260640161094d565b601054604051630af9711360e21b81526001600160a01b0390911690632be5c44c9061146f908590600401613084565b602060405180830381865afa15801561148a573d5f5f3e3d5ffd5b505050506040513d601f19601f820116820180604052508101906114ae91906137a1565b6114ea5760405162461bcd60e51b815260206004820152600d60248201526c139190c81b9bdd08189bdd5b99609a1b604482015260640161094d565b6001600160a01b0381165f81815260116020908152604091829020805460ff1916600190811790915591519182527fc176fcf7d48a6aca0d96d3b3201f7add47c4af04ce9a51f5f4eb15d528c46e2191015b60405180910390a25050565b5f6108528261229d565b61155a612625565b5f611564826122e1565b6001600160a01b03160361158a5760405162461bcd60e51b815260040161094d90613702565b5f908152600a60205260409020600401805460ff19166001179055565b5f6001600160a01b0382166115d1576040516322718ad960e21b81525f600482015260240161094d565b506001600160a01b03165f9081526003602052604090205490565b6115f4612625565b6115fd5f612652565b565b5f611609836122e1565b6001600160a01b03160361162f5760405162461bcd60e51b815260040161094d90613702565b3361163983611548565b6001600160a01b0316146116815760405162461bcd60e51b815260206004820152600f60248201526e2737ba103a37b5b2b71037bbb732b960891b604482015260640161094d565b5f828152600a6020526040902060050161169b828261397f565b505f828152600a60205260409081902090516116b79190613730565b6040518091039020827f219d2dab803787033f8713df7150f14f172a1aa66b584e0a7be792d7e2673024836040516116ef9190613084565b60405180910390a35050565b611703612625565b6001600160a01b0382165f81815260116020908152604091829020805460ff191685151590811790915591519182527fc176fcf7d48a6aca0d96d3b3201f7add47c4af04ce9a51f5f4eb15d528c46e21910161153c565b6117626122fd565b335f9081526011602052604090205460ff168061178957506007546001600160a01b031633145b6117cf5760405162461bcd60e51b81526020600482015260176024820152762737ba1030baba3437b934bd32b21037b832b930ba37b960491b604482015260640161094d565b6001600160a01b0381166118255760405162461bcd60e51b815260206004820152601960248201527f496e76616c6964206e6577206f776e6572206164647265737300000000000000604482015260640161094d565b5f600c836040516118369190613a39565b9081526020016040518091039020549050805f036118865760405162461bcd60e51b815260206004820152600d60248201526c139190c81b9bdd08199bdd5b99609a1b604482015260640161094d565b5f611890826122e1565b6001600160a01b0316036118e65760405162461bcd60e51b815260206004820152601960248201527f446f6d61696e204e465420646f6573206e6f7420657869737400000000000000604482015260640161094d565b5f818152600a60205260408120906118fd83611548565b9050336001600160a01b038216146119575760405162461bcd60e51b815260206004820152601e60248201527f4f6e6c7920646f6d61696e206f776e65722063616e207472616e736665720000604482015260640161094d565b600c856040516119679190613a39565b90815260200160405180910390205f905560405180602001604052805f815250826002019081611997919061397f565b5060048201805460ff191690556119af8185856126a3565b6001820180546001600160a01b0319166001600160a01b0386161790556119d68184612750565b6001600160a01b038085165f908152600d602090815260408083208054600181018255908452828420018790559284168252600e90522054839003611a2e576001600160a01b0381165f908152600e60205260408120555b6001600160a01b0384165f908152600e60205260408120549003611a67576001600160a01b0384165f908152600e602052604090208390555b6040516001600160a01b03821690611a80908490613730565b6040519081900381206001600160a01b03871682529085907f070ecc15c634e51350b3fd29489e2ca3690d9d1e5995308091afea2249bdcfe79060200160405180910390a45050506109196001600855565b611b136040518060c00160405280606081526020015f6001600160a01b03168152602001606081526020015f81526020015f15158152602001606081525090565b5f611b1d836122e1565b6001600160a01b031603611b435760405162461bcd60e51b815260040161094d90613702565b5f828152600a602052604090819020815160c08101909252805482908290611b6a906136ca565b80601f0160208091040260200160405190810160405280929190818152602001828054611b96906136ca565b8015611be15780601f10611bb857610100808354040283529160200191611be1565b820191905f5260205f20905b815481529060010190602001808311611bc457829003601f168201915b505050918352505060018201546001600160a01b03166020820152600282018054604090920191611c11906136ca565b80601f0160208091040260200160405190810160405280929190818152602001828054611c3d906136ca565b8015611c885780601f10611c5f57610100808354040283529160200191611c88565b820191905f5260205f20905b815481529060010190602001808311611c6b57829003601f168201915b505050918352505060038201546020820152600482015460ff1615156040820152600582018054606090920191611cbe906136ca565b80601f0160208091040260200160405190810160405280929190818152602001828054611cea906136ca565b8015611d355780601f10611d0c57610100808354040283529160200191611d35565b820191905f5260205f20905b815481529060010190602001808311611d1857829003601f168201915b5050505050815250509050919050565b611d4d612625565b8051825114611d965760405162461bcd60e51b8152602060048201526015602482015274082e4e4c2f240d8cadccee8d040dad2e6dac2e8c6d605b1b604482015260640161094d565b5f5b8251811015610fab57818181518110611db357611db3613a44565b602002602001015160115f858481518110611dd057611dd0613a44565b60200260200101516001600160a01b03166001600160a01b031681526020019081526020015f205f6101000a81548160ff021916908315150217905550828181518110611e1f57611e1f613a44565b60200260200101516001600160a01b03167fc176fcf7d48a6aca0d96d3b3201f7add47c4af04ce9a51f5f4eb15d528c46e21838381518110611e6357611e63613a44565b6020026020010151604051611e7c911515815260200190565b60405180910390a2600101611d98565b611e94612625565b5f611e9e826122e1565b6001600160a01b031603611ec45760405162461bcd60e51b815260040161094d90613702565b5f908152600a60205260409020600401805460ff19169055565b611ee6612625565b6001600160a01b038116611f2e5760405162461bcd60e51b815260206004820152600f60248201526e496e76616c6964206164647265737360881b604482015260640161094d565b601080546001600160a01b038381166001600160a01b0319831681179093556040519116919082907fc88229f1d8e54d31f640a733927bc56d9fcbb8cf9c2b6b87f81fc713c49bc647905f90a35050565b6001600160a01b0381165f908152600d6020908152604091829020805483518184028101840190945280845260609392830182828015611fdc57602002820191905f5260205f20905b815481526020019060010190808311611fc8575b50505050509050919050565b606060018054610866906136ca565b6001600160a01b0381165f908152600e602052604090205460609080158061201c57505f5b1561203657505060408051602081019091525f8152919050565b5f818152600a60205260409020805461204e906136ca565b80601f016020809104026020016040519081016040528092919081815260200182805461207a906136ca565b80156120c55780601f1061209c576101008083540402835291602001916120c5565b820191905f5260205f20905b8154815290600101906020018083116120a857829003601f168201915b5050505050915050919050565b61091933838361280a565b6120e8848484610fb0565b61103333858585856128a8565b5f6120ff826124b6565b61214b5760405162461bcd60e51b815260206004820152601760248201527f4e4643206e6f7420626f756e6420746f20646f6d61696e000000000000000000604482015260640161094d565b600c8260405161215b9190613a39565b9081526020016040518091039020549050919050565b612179612625565b600f55565b6060610852826129d0565b600d602052815f5260405f2081815481106121a2575f80fd5b905f5260205f20015f91509150505481565b6001600160a01b039182165f90815260056020908152604080832093909416825291909152205460ff1690565b5f6121eb826124df565b61222f5760405162461bcd60e51b8152602060048201526015602482015274111bdb585a5b88191bd95cc81b9bdd08195e1a5cdd605a1b604482015260640161094d565b600b8260405161215b9190613a39565b612247612625565b6001600160a01b03811661227057604051631e4fbdf760e01b81525f600482015260240161094d565b61133781612652565b5f6001600160e01b03198216632483248360e11b1480610852575061085282612ad3565b5f5f6122a8836122e1565b90506001600160a01b03811661085257604051637e27328960e01b81526004810184905260240161094d565b610fab8383836001612b22565b5f818152600260205260408120546001600160a01b0316610852565b60026008540361232057604051633ee5aeb560e01b815260040160405180910390fd5b6002600855565b80515f908290600181108061234657506123436005601e613a58565b81115b1561235457505f9392505050565b5f5b818110156124ab575f83828151811061237157612371613a44565b01602001516001600160f81b0319169050606160f81b81108015906123a45750603d60f91b6001600160f81b0319821611155b806123d65750600360fc1b6001600160f81b03198216108015906123d65750603960f81b6001600160f81b0319821611155b806123ee5750602d60f81b6001600160f81b03198216145b6123fd57505f95945050505050565b8115806124135750612410600184613a58565b82145b801561242c5750602d60f81b6001600160f81b03198216145b1561243c57505f95945050505050565b5f821180156124585750602d60f81b6001600160f81b03198216145b801561249257508361246b600184613a58565b8151811061247b5761247b613a44565b6020910101516001600160f81b031916602d60f81b145b156124a257505f95945050505050565b50600101612356565b506001949350505050565b5f600c826040516124c79190613a39565b90815260405190819003602001902054151592915050565b5f600b826040516124c79190613a39565b610919828260405180602001604052805f815250612c26565b5f828152600660205260409020612520828261397f565b506040518281527ff8e1a15aba9398e019f0b49df1a4fde98ee17ae345cb5f6b5e2c27f5033e8ce79060200160405180910390a15050565b5f5f612563846122e1565b90505f612571868686612c3d565b90506001600160a01b0382161580159061259357506001600160a01b03861615155b80156125b15750856001600160a01b0316826001600160a01b031614155b156125e0575f858152600a6020526040902060010180546001600160a01b0319166001600160a01b0388161790555b95945050505050565b5f5f600b836040516125fb9190613a39565b9081526020016040518091039020549050805f0361261c5750600192915050565b5f5b9392505050565b6007546001600160a01b031633146115fd5760405163118cdaa760e01b815233600482015260240161094d565b600780546001600160a01b038381166001600160a01b0319831681179093556040519116919082907f8be0079c531659141344cd1fd0a4f28419497f9722a3daafe3b4186f6b6457e0905f90a35050565b6001600160a01b0382166126cc57604051633250574960e11b81525f600482015260240161094d565b5f6126d883835f612558565b90506001600160a01b03811661270457604051637e27328960e01b81526004810183905260240161094d565b836001600160a01b0316816001600160a01b031614611033576040516364283d7b60e01b81526001600160a01b038086166004830152602482018490528216604482015260640161094d565b6001600160a01b0382165f908152600d60205260408120905b8154811015611033578282828154811061278557612785613a44565b905f5260205f2001540361280257815482906127a390600190613a58565b815481106127b3576127b3613a44565b905f5260205f2001548282815481106127ce576127ce613a44565b905f5260205f200181905550818054806127ea576127ea613a6b565b600190038181905f5260205f20015f90559055611033565b600101612769565b6001600160a01b03821661283c57604051630b61174360e31b81526001600160a01b038316600482015260240161094d565b6001600160a01b038381165f81815260056020908152604080832094871680845294825291829020805460ff191686151590811790915591519182527f17307eab39ab6107e8899845ad3d59bd9653f200f220920489ca2b5937696c31910160405180910390a3505050565b6001600160a01b0383163b156129c957604051630a85bd0160e11b81526001600160a01b0384169063150b7a02906128ea908890889087908790600401613a7f565b6020604051808303815f875af1925050508015612924575060408051601f3d908101601f1916820190925261292191810190613abb565b60015b61298b573d808015612951576040519150601f19603f3d011682016040523d82523d5f602084013e612956565b606091505b5080515f0361298357604051633250574960e11b81526001600160a01b038516600482015260240161094d565b805160208201fd5b6001600160e01b03198116630a85bd0160e11b146129c757604051633250574960e11b81526001600160a01b038516600482015260240161094d565b505b5050505050565b60606129db8261229d565b505f82815260066020526040812080546129f4906136ca565b80601f0160208091040260200160405190810160405280929190818152602001828054612a20906136ca565b8015612a6b5780601f10612a4257610100808354040283529160200191612a6b565b820191905f5260205f20905b815481529060010190602001808311612a4e57829003601f168201915b505050505090505f612a8760408051602081019091525f815290565b905080515f03612a98575092915050565b815115612aca578082604051602001612ab2929190613ad6565b60405160208183030381529060405292505050919050565b61128984612d2a565b5f6001600160e01b031982166380ac58cd60e01b1480612b0357506001600160e01b03198216635b5e139f60e01b145b8061085257506301ffc9a760e01b6001600160e01b0319831614610852565b8080612b3657506001600160a01b03821615155b15612bf7575f612b458461229d565b90506001600160a01b03831615801590612b715750826001600160a01b0316816001600160a01b031614155b8015612b845750612b8281846121b4565b155b15612bad5760405163a9fbf51f60e01b81526001600160a01b038416600482015260240161094d565b8115612bf55783856001600160a01b0316826001600160a01b03167f8c5be1e5ebec7d5bd14f71427d1e84f3dd0314c0f7b2291e5b200ac8c7c3b92560405160405180910390a45b505b50505f90815260046020526040902080546001600160a01b0319166001600160a01b0392909216919091179055565b612c308383612d9a565b610fab335f8585856128a8565b5f5f612c48846122e1565b90506001600160a01b03831615612c6457612c64818486612dfb565b6001600160a01b03811615612c9e57612c7f5f855f5f612b22565b6001600160a01b0381165f90815260036020526040902080545f190190555b6001600160a01b03851615612ccc576001600160a01b0385165f908152600360205260409020805460010190555b5f8481526002602052604080822080546001600160a01b0319166001600160a01b0389811691821790925591518793918516917fddf252ad1be2c89b69c2b068fc378daa952ba7f163c4a11628f55a4df523b3ef91a4949350505050565b6060612d358261229d565b505f612d4b60408051602081019091525f815290565b90505f815111612d695760405180602001604052805f81525061261e565b80612d7384612e5f565b604051602001612d84929190613ad6565b6040516020818303038152906040529392505050565b6001600160a01b038216612dc357604051633250574960e11b81525f600482015260240161094d565b5f612dcf83835f612558565b90506001600160a01b03811615610fab576040516339e3563760e11b81525f600482015260240161094d565b612e06838383612eee565b610fab576001600160a01b038316612e3457604051637e27328960e01b81526004810182905260240161094d565b60405163177e802f60e01b81526001600160a01b03831660048201526024810182905260440161094d565b60605f612e6b83612f4f565b60010190505f816001600160401b03811115612e8957612e89613106565b6040519080825280601f01601f191660200182016040528015612eb3576020820181803683370190505b5090508181016020015b5f19016f181899199a1a9b1b9c1cb0b131b232b360811b600a86061a8153600a8504945084612ebd57509392505050565b5f6001600160a01b038316158015906112895750826001600160a01b0316846001600160a01b03161480612f275750612f2784846121b4565b806112895750505f908152600460205260409020546001600160a01b03908116911614919050565b5f8072184f03e93ff9f4daa797ed6e38ed64bf6a1f0160401b8310612f8d5772184f03e93ff9f4daa797ed6e38ed64bf6a1f0160401b830492506040015b6d04ee2d6d415b85acef81000000008310612fb9576d04ee2d6d415b85acef8100000000830492506020015b662386f26fc100008310612fd757662386f26fc10000830492506010015b6305f5e1008310612fef576305f5e100830492506008015b612710831061300357612710830492506004015b60648310613015576064830492506002015b600a83106108525760010192915050565b6001600160e01b031981168114611337575f5ffd5b5f6020828403121561304b575f5ffd5b813561261e81613026565b5f81518084528060208401602086015e5f602082860101526020601f19601f83011685010191505092915050565b602081525f61261e6020830184613056565b5f602082840312156130a6575f5ffd5b5035919050565b6001600160a01b0381168114611337575f5ffd5b5f5f604083850312156130d2575f5ffd5b82356130dd816130ad565b946020939093013593505050565b5f602082840312156130fb575f5ffd5b813561261e816130ad565b634e487b7160e01b5f52604160045260245ffd5b60405160c081016001600160401b038111828210171561313c5761313c613106565b60405290565b604051601f8201601f191681016001600160401b038111828210171561316a5761316a613106565b604052919050565b5f6001600160401b0382111561318a5761318a613106565b50601f01601f191660200190565b5f6131aa6131a584613172565b613142565b90508281528383830111156131bd575f5ffd5b828260208301375f602084830101529392505050565b5f82601f8301126131e2575f5ffd5b61261e83833560208501613198565b5f5f5f60608486031215613203575f5ffd5b83356001600160401b03811115613218575f5ffd5b613224868287016131d3565b93505060208401356001600160401b0381111561323f575f5ffd5b61324b868287016131d3565b92505060408401356001600160401b03811115613266575f5ffd5b613272868287016131d3565b9150509250925092565b5f5f5f6060848603121561328e575f5ffd5b8335613299816130ad565b925060208401356132a9816130ad565b929592945050506040919091013590565b60c081525f6132cc60c0830189613056565b6001600160a01b038816602084015282810360408401526132ed8188613056565b9050856060840152841515608084015282810360a084015261330f8185613056565b9998505050505050505050565b5f6020828403121561332c575f5ffd5b81356001600160401b03811115613341575f5ffd5b611289848285016131d3565b5f5f6040838503121561335e575f5ffd5b82356001600160401b03811115613373575f5ffd5b61337f858286016131d3565b9250506020830135613390816130ad565b809150509250929050565b5f5f604083850312156133ac575f5ffd5b8235915060208301356001600160401b038111156133c8575f5ffd5b6133d4858286016131d3565b9150509250929050565b8015158114611337575f5ffd5b5f5f604083850312156133fc575f5ffd5b8235613407816130ad565b91506020830135613390816133de565b602081525f825160c0602084015261343260e0840182613056565b60208501516001600160a01b0316604085810191909152850151848203601f190160608601529091506134658282613056565b915050606084015160808401526080840151151560a084015260a0840151601f198483030160c08501526125e08282613056565b5f6001600160401b038211156134b1576134b1613106565b5060051b60200190565b5f82601f8301126134ca575f5ffd5b81356134d86131a582613499565b8082825260208201915060208360051b8601019250858311156134f9575f5ffd5b602085015b8381101561351f578035613511816133de565b8352602092830192016134fe565b5095945050505050565b5f5f6040838503121561353a575f5ffd5b82356001600160401b0381111561354f575f5ffd5b8301601f8101851361355f575f5ffd5b803561356d6131a582613499565b8082825260208201915060208360051b85010192508783111561358e575f5ffd5b6020840193505b828410156135b95783356135a8816130ad565b825260209384019390910190613595565b945050505060208301356001600160401b038111156135d6575f5ffd5b6133d4858286016134bb565b602080825282518282018190525f918401906040840190835b818110156136195783518352602093840193909201916001016135fb565b509095945050505050565b5f5f5f5f60808587031215613637575f5ffd5b8435613642816130ad565b93506020850135613652816130ad565b92506040850135915060608501356001600160401b03811115613673575f5ffd5b8501601f81018713613683575f5ffd5b61369287823560208401613198565b91505092959194509250565b5f5f604083850312156136af575f5ffd5b82356136ba816130ad565b91506020830135613390816130ad565b600181811c908216806136de57607f821691505b6020821081036136fc57634e487b7160e01b5f52602260045260245ffd5b50919050565b602080825260149082015273151bdad95b88191bd95cc81b9bdd08195e1a5cdd60621b604082015260600190565b5f5f835461373d816136ca565b600182168015613754576001811461376957613796565b60ff1983168652811515820286019350613796565b865f5260205f205f5b8381101561378e57815488820152600190910190602001613772565b505081860193505b509195945050505050565b5f602082840312156137b1575f5ffd5b815161261e816133de565b5f82601f8301126137cb575f5ffd5b81516137d96131a582613172565b8181528460208386010111156137ed575f5ffd5b8160208501602083015e5f918101602001919091529392505050565b5f60208284031215613819575f5ffd5b81516001600160401b0381111561382e575f5ffd5b820160c0818503121561383f575f5ffd5b61384761311a565b8151613852816130ad565b815260208281015190820152604080830151908201526060820151613876816133de565b60608201526080820151613889816133de565b608082015260a08201516001600160401b038111156138a6575f5ffd5b6138b2868285016137bc565b60a083015250949350505050565b5f81518060208401855e5f93019283525090919050565b64616476782d60d81b81525f61261e60058301846138c0565b5f6138fb82846138c0565b631734b73560e11b81526004019392505050565b634e487b7160e01b5f52601160045260245ffd5b5f600182016139345761393461390f565b5060010190565b601f821115610fab57805f5260205f20601f840160051c810160208510156139605750805b601f840160051c820191505b818110156129c9575f815560010161396c565b81516001600160401b0381111561399857613998613106565b6139ac816139a684546136ca565b8461393b565b6020601f8211600181146139de575f83156139c75750848201515b5f19600385901b1c1916600184901b1784556129c9565b5f84815260208120601f198516915b82811015613a0d57878501518255602094850194600190920191016139ed565b5084821015613a2a57868401515f19600387901b60f8161c191681555b50505050600190811b01905550565b5f61261e82846138c0565b634e487b7160e01b5f52603260045260245ffd5b818103818111156108525761085261390f565b634e487b7160e01b5f52603160045260245ffd5b6001600160a01b03858116825284166020820152604081018390526080606082018190525f90613ab190830184613056565b9695505050505050565b5f60208284031215613acb575f5ffd5b815161261e81613026565b5f611289613ae483866138c0565b846138c056fea264697066735822122006904d7d2339a45f84873c5a1408a5257365bc8caec0802d35539c0634f378c264736f6c634300081e0033","linkReferences":{}},"methodIdentifiers":{"MAX_DOMAIN_LENGTH()":"b5301ced","MIN_DOMAIN_LENGTH()":"29aa4f51","approve(address,uint256)":"095ea7b3","authorizeNewNFCUser(string,address)":"5ec9b71b","authorizedOperators(address)":"181d989b","balanceOf(address)":"70a08231","batchSetAuthorizedOperators(address[],bool[])":"879709a1","domainInfos(uint256)":"2661017b","domainToTokenId(string)":"bca6eec4","emergencyFreezeDomain(uint256)":"8afbab7c","getApproved(uint256)":"081812fc","getDomainInfo(uint256)":"7d760cac","getTokenIdByDomain(string)":"f0eec37a","getTokenIdByNFC(string)":"ba32122e","getUserTokenIds(address)":"92ddf23c","isApprovedForAll(address,address)":"e985e9c5","isDomainAvailable(string)":"32752b09","mintDomainNFT(string,string,string)":"1e2ca61e","name()":"06fdde03","nfcRegistry()":"3a06831c","nfcToTokenId(string)":"b236f197","owner()":"8da5cb5b","ownerOf(uint256)":"6352211e","primaryDomainTokenId(address)":"5f06b0eb","registrationFee()":"14c44e09","renounceOwnership()":"715018a6","resolveDomain(string)":"364460f3","reverseResolve(address)":"9af8b7aa","safeTransferFrom(address,address,uint256)":"42842e0e","safeTransferFrom(address,address,uint256,bytes)":"b88d4fde","setApprovalForAll(address,bool)":"a22cb465","setAuthorizedOperator(address,bool)":"788f737d","setNFCRegistry(address)":"8df2de25","setPrimaryDomain(uint256)":"0d537e8d","setRegistrationFee(uint256)":"c320c727","supportsInterface(bytes4)":"01ffc9a7","symbol()":"95d89b41","tokenURI(uint256)":"c87b56dd","transferFrom(address,address,uint256)":"23b872dd","transferOwnership(address)":"f2fde38b","unbindAndTransferDomain(string,address)":"7908976b","unfreezeDomain(uint256)":"6f58a882","updateDomainMetadata(uint256,string)":"750104b4","userTokenIds(address,uint256)":"cc17e15d","withdraw()":"3ccfd60b"},"id":43}