{"abi":[{"type":"constructor","inputs":[{"name":"_nfcRegistry","type":"address","internalType":"address"}],"stateMutability":"nonpayable"},{"type":"function","name":"MAX_DOMAIN_LENGTH","inputs":[],"outputs":[{"name":"","type":"uint256","internalType":"uint256"}],"stateMutability":"view"},{"type":"function","name":"MIN_DOMAIN_LENGTH","inputs":[],"outputs":[{"name":"","type":"uint256","internalType":"uint256"}],"stateMutability":"view"},{"type":"function","name":"approve","inputs":[{"name":"to","type":"address","internalType":"address"},{"name":"tokenId","type":"uint256","internalType":"uint256"}],"outputs":[],"stateMutability":"nonpayable"},{"type":"function","name":"authorizeNewNFCUser","inputs":[{"name":"nfcUID","type":"string","internalType":"string"},{"name":"userWallet","type":"address","internalType":"address"}],"outputs":[],"stateMutability":"nonpayable"},{"type":"function","name":"authorizedOperators","inputs":[{"name":"","type":"address","internalType":"address"}],"outputs":[{"name":"","type":"bool","internalType":"bool"}],"stateMutability":"view"},{"type":"function","name":"balanceOf","inputs":[{"name":"owner","type":"address","internalType":"address"}],"outputs":[{"name":"","type":"uint256","internalType":"uint256"}],"stateMutability":"view"},{"type":"function","name":"batchSetAuthorizedOperators","inputs":[{"name":"operators","type":"address[]","internalType":"address[]"},{"name":"authorizations","type":"bool[]","internalType":"bool[]"}],"outputs":[],"stateMutability":"nonpayable"},{"type":"function","name":"domainInfos","inputs":[{"name":"","type":"uint256","internalType":"uint256"}],"outputs":[{"name":"domainName","type":"string","internalType":"string"},{"name":"owner","type":"address","internalType":"address"},{"name":"nfcUID","type":"string","internalType":"string"},{"name":"registeredAt","type":"uint256","internalType":"uint256"},{"name":"isActive","type":"bool","internalType":"bool"},{"name":"metadata","type":"string","internalType":"string"}],"stateMutability":"view"},{"type":"function","name":"domainToTokenId","inputs":[{"name":"","type":"string","internalType":"string"}],"outputs":[{"name":"","type":"uint256","internalType":"uint256"}],"stateMutability":"view"},{"type":"function","name":"emergencyFreezeDomain","inputs":[{"name":"tokenId","type":"uint256","internalType":"uint256"}],"outputs":[],"stateMutability":"nonpayable"},{"type":"function","name":"getApproved","inputs":[{"name":"tokenId","type":"uint256","internalType":"uint256"}],"outputs":[{"name":"","type":"address","internalType":"address"}],"stateMutability":"view"},{"type":"function","name":"getDomainInfo","inputs":[{"name":"tokenId","type":"uint256","internalType":"uint256"}],"outputs":[{"name":"","type":"tuple","internalType":"struct INJDomainNFT.DomainInfo","components":[{"name":"domainName","type":"string","internalType":"string"},{"name":"owner","type":"address","internalType":"address"},{"name":"nfcUID","type":"string","internalType":"string"},{"name":"registeredAt","type":"uint256","internalType":"uint256"},{"name":"isActive","type":"bool","internalType":"bool"},{"name":"metadata","type":"string","internalType":"string"}]}],"stateMutability":"view"},{"type":"function","name":"getTokenIdByDomain","inputs":[{"name":"domain","type":"string","internalType":"string"}],"outputs":[{"name":"","type":"uint256","internalType":"uint256"}],"stateMutability":"view"},{"type":"function","name":"getTokenIdByNFC","inputs":[{"name":"nfcUID","type":"string","internalType":"string"}],"outputs":[{"name":"","type":"uint256","internalType":"uint256"}],"stateMutability":"view"},{"type":"function","name":"getUserTokenIds","inputs":[{"name":"user","type":"address","internalType":"address"}],"outputs":[{"name":"","type":"uint256[]","internalType":"uint256[]"}],"stateMutability":"view"},{"type":"function","name":"isApprovedForAll","inputs":[{"name":"owner","type":"address","internalType":"address"},{"name":"operator","type":"address","internalType":"address"}],"outputs":[{"name":"","type":"bool","internalType":"bool"}],"stateMutability":"view"},{"type":"function","name":"isDomainAvailable","inputs":[{"name":"domainSuffix","type":"string","internalType":"string"}],"outputs":[{"name":"","type":"bool","internalType":"bool"}],"stateMutability":"view"},{"type":"function","name":"mintDomainNFT","inputs":[{"name":"domainSuffix","type":"string","internalType":"string"},{"name":"nfcUID","type":"string","internalType":"string"},{"name":"metadataURI","type":"string","internalType":"string"}],"outputs":[],"stateMutability":"payable"},{"type":"function","name":"name","inputs":[],"outputs":[{"name":"","type":"string","internalType":"string"}],"stateMutability":"view"},{"type":"function","name":"nfcRegistry","inputs":[],"outputs":[{"name":"","type":"address","internalType":"contract INFCWalletRegistry"}],"stateMutability":"view"},{"type":"function","name":"nfcToTokenId","inputs":[{"name":"","type":"string","internalType":"string"}],"outputs":[{"name":"","type":"uint256","internalType":"uint256"}],"stateMutability":"view"},{"type":"function","name":"owner","inputs":[],"outputs":[{"name":"","type":"address","internalType":"address"}],"stateMutability":"view"},{"type":"function","name":"ownerOf","inputs":[{"name":"tokenId","type":"uint256","internalType":"uint256"}],"outputs":[{"name":"","type":"address","internalType":"address"}],"stateMutability":"view"},{"type":"function","name":"primaryDomainTokenId","inputs":[{"name":"","type":"address","internalType":"address"}],"outputs":[{"name":"","type":"uint256","internalType":"uint256"}],"stateMutability":"view"},{"type":"function","name":"registrationFee","inputs":[],"outputs":[{"name":"","type":"uint256","internalType":"uint256"}],"stateMutability":"view"},{"type":"function","name":"renounceOwnership","inputs":[],"outputs":[],"stateMutability":"nonpayable"},{"type":"function","name":"resolveDomain","inputs":[{"name":"domain","type":"string","internalType":"string"}],"outputs":[{"name":"","type":"address","internalType":"address"}],"stateMutability":"view"},{"type":"function","name":"reverseResolve","inputs":[{"name":"addr","type":"address","internalType":"address"}],"outputs":[{"name":"","type":"string","internalType":"string"}],"stateMutability":"view"},{"type":"function","name":"safeTransferFrom","inputs":[{"name":"from","type":"address","internalType":"address"},{"name":"to","type":"address","internalType":"address"},{"name":"tokenId","type":"uint256","internalType":"uint256"}],"outputs":[],"stateMutability":"nonpayable"},{"type":"function","name":"safeTransferFrom","inputs":[{"name":"from","type":"address","internalType":"address"},{"name":"to","type":"address","internalType":"address"},{"name":"tokenId","type":"uint256","internalType":"uint256"},{"name":"data","type":"bytes","internalType":"bytes"}],"outputs":[],"stateMutability":"nonpayable"},{"type":"function","name":"setApprovalForAll","inputs":[{"name":"operator","type":"address","internalType":"address"},{"name":"approved","type":"bool","internalType":"bool"}],"outputs":[],"stateMutability":"nonpayable"},{"type":"function","name":"setAuthorizedOperator","inputs":[{"name":"operator","type":"address","internalType":"address"},{"name":"authorized","type":"bool","internalType":"bool"}],"outputs":[],"stateMutability":"nonpayable"},{"type":"function","name":"setNFCRegistry","inputs":[{"name":"_nfcRegistry","type":"address","internalType":"address"}],"outputs":[],"stateMutability":"nonpayable"},{"type":"function","name":"setPrimaryDomain","inputs":[{"name":"tokenId","type":"uint256","internalType":"uint256"}],"outputs":[],"stateMutability":"nonpayable"},{"type":"function","name":"setRegistrationFee","inputs":[{"name":"newFee","type":"uint256","internalType":"uint256"}],"outputs":[],"stateMutability":"nonpayable"},{"type":"function","name":"supportsInterface","inputs":[{"name":"interfaceId","type":"bytes4","internalType":"bytes4"}],"outputs":[{"name":"","type":"bool","internalType":"bool"}],"stateMutability":"view"},{"type":"function","name":"symbol","inputs":[],"outputs":[{"name":"","type":"string","internalType":"string"}],"stateMutability":"view"},{"type":"function","name":"tokenURI","inputs":[{"name":"tokenId","type":"uint256","internalType":"uint256"}],"outputs":[{"name":"","type":"string","internalType":"string"}],"stateMutability":"view"},{"type":"function","name":"transferFrom","inputs":[{"name":"from","type":"address","internalType":"address"},{"name":"to","type":"address","internalType":"address"},{"name":"tokenId","type":"uint256","internalType":"uint256"}],"outputs":[],"stateMutability":"nonpayable"},{"type":"function","name":"transferOwnership","inputs":[{"name":"newOwner","type":"address","internalType":"address"}],"outputs":[],"stateMutability":"nonpayable"},{"type":"function","name":"unbindAndTransferDomain","inputs":[{"name":"nfcUID","type":"string","internalType":"string"},{"name":"newOwner","type":"address","internalType":"address"}],"outputs":[],"stateMutability":"nonpayable"},{"type":"function","name":"unfreezeDomain","inputs":[{"name":"tokenId","type":"uint256","internalType":"uint256"}],"outputs":[],"stateMutability":"nonpayable"},{"type":"function","name":"updateDomainMetadata","inputs":[{"name":"tokenId","type":"uint256","internalType":"uint256"},{"name":"metadata","type":"string","internalType":"string"}],"outputs":[],"stateMutability":"nonpayable"},{"type":"function","name":"userTokenIds","inputs":[{"name":"","type":"address","internalType":"address"},{"name":"","type":"uint256","internalType":"uint256"}],"outputs":[{"name":"","type":"uint256","internalType":"uint256"}],"stateMutability":"view"},{"type":"function","name":"withdraw","inputs":[],"outputs":[],"stateMutability":"nonpayable"},{"type":"event","name":"Approval","inputs":[{"name":"owner","type":"address","indexed":true,"internalType":"address"},{"name":"approved","type":"address","indexed":true,"internalType":"address"},{"name":"tokenId","type":"uint256","indexed":true,"internalType":"uint256"}],"anonymous":false},{"type":"event","name":"ApprovalForAll","inputs":[{"name":"owner","type":"address","indexed":true,"internalType":"address"},{"name":"operator","type":"address","indexed":true,"internalType":"address"},{"name":"approved","type":"bool","indexed":false,"internalType":"bool"}],"anonymous":false},{"type":"event","name":"BatchMetadataUpdate","inputs":[{"name":"_fromTokenId","type":"uint256","indexed":false,"internalType":"uint256"},{"name":"_toTokenId","type":"uint256","indexed":false,"internalType":"uint256"}],"anonymous":false},{"type":"event","name":"DomainMetadataUpdated","inputs":[{"name":"tokenId","type":"uint256","indexed":true,"internalType":"uint256"},{"name":"domain","type":"string","indexed":true,"internalType":"string"},{"name":"metadata","type":"string","indexed":false,"internalType":"string"}],"anonymous":false},{"type":"event","name":"DomainNFTMinted","inputs":[{"name":"tokenId","type":"uint256","indexed":true,"internalType":"uint256"},{"name":"domain","type":"string","indexed":true,"internalType":"string"},{"name":"owner","type":"address","indexed":true,"internalType":"address"},{"name":"registeredAt","type":"uint256","indexed":false,"internalType":"uint256"}],"anonymous":false},{"type":"event","name":"DomainNFTTransferred","inputs":[{"name":"tokenId","type":"uint256","indexed":true,"internalType":"uint256"},{"name":"domain","type":"string","indexed":true,"internalType":"string"},{"name":"from","type":"address","indexed":true,"internalType":"address"},{"name":"to","type":"address","indexed":false,"internalType":"address"}],"anonymous":false},{"type":"event","name":"MetadataUpdate","inputs":[{"name":"_tokenId","type":"uint256","indexed":false,"internalType":"uint256"}],"anonymous":false},{"type":"event","name":"NFCRegistryUpdated","inputs":[{"name":"oldRegistry","type":"address","indexed":true,"internalType":"address"},{"name":"newRegistry","type":"address","indexed":true,"internalType":"address"}],"anonymous":false},{"type":"event","name":"OperatorAuthorized","inputs":[{"name":"operator","type":"address","indexed":true,"internalType":"address"},{"name":"authorized","type":"bool","indexed":false,"internalType":"bool"}],"anonymous":false},{"type":"event","name":"OwnershipTransferred","inputs":[{"name":"previousOwner","type":"address","indexed":true,"internalType":"address"},{"name":"newOwner","type":"address","indexed":true,"internalType":"address"}],"anonymous":false},{"type":"event","name":"PrimaryDomainSet","inputs":[{"name":"user","type":"address","indexed":true,"internalType":"address"},{"name":"tokenId","type":"uint256","indexed":true,"internalType":"uint256"},{"name":"domain","type":"string","indexed":true,"internalType":"string"}],"anonymous":false},{"type":"event","name":"Transfer","inputs":[{"name":"from","type":"address","indexed":true,"internalType":"address"},{"name":"to","type":"address","indexed":true,"internalType":"address"},{"name":"tokenId","type":"uint256","indexed":true,"internalType":"uint256"}],"anonymous":false},{"type":"error","name":"ERC721IncorrectOwner","inputs":[{"name":"sender","type":"address","internalType":"address"},{"name":"tokenId","type":"uint256","internalType":"uint256"},{"name":"owner","type":"address","internalType":"address"}]},{"type":"error","name":"ERC721InsufficientApproval","inputs":[{"name":"operator","type":"address","internalType":"address"},{"name":"tokenId","type":"uint256","internalType":"uint256"}]},{"type":"error","name":"ERC721InvalidApprover","inputs":[{"name":"approver","type":"address","internalType":"address"}]},{"type":"error","name":"ERC721InvalidOperator","inputs":[{"name":"operator","type":"address","internalType":"address"}]},{"type":"error","name":"ERC721InvalidOwner","inputs":[{"name":"owner","type":"address","internalType":"address"}]},{"type":"error","name":"ERC721InvalidReceiver","inputs":[{"name":"receiver","type":"address","internalType":"address"}]},{"type":"error","name":"ERC721InvalidSender","inputs":[{"name":"sender","type":"address","internalType":"address"}]},{"type":"error","name":"ERC721NonexistentToken","inputs":[{"name":"tokenId","type":"uint256","internalType":"uint256"}]},{"type":"error","name":"OwnableInvalidOwner","inputs":[{"name":"owner","type":"address","internalType":"address"}]},{"type":"error","name":"OwnableUnauthorizedAccount","inputs":[{"name":"account","type":"address","internalType":"address"}]},{"type":"error","name":"ReentrancyGuardReentrantCall","inputs":[]}],"bytecode":{"object":"0x60806040525f600f55348015610013575f5ffd5b50604051613e04380380613e04833981016040819052610032916101b8565b336040518060400160405280600e81526020016d12539288111bdb585a5b8813919560921b8152506040518060400160405280600581526020016424a725222760d91b815250815f9081610086919061027d565b506001610093828261027d565b5050506001600160a01b0381166100c457604051631e4fbdf760e01b81525f60048201526024015b60405180910390fd5b6100cd81610167565b5060016008556001600160a01b0381166101295760405162461bcd60e51b815260206004820152601c60248201527f496e76616c6964204e464320726567697374727920616464726573730000000060448201526064016100bb565b601080546001600160a01b0319166001600160a01b0392909216919091179055335f908152601160205260409020805460ff19166001179055610337565b600780546001600160a01b038381166001600160a01b0319831681179093556040519116919082907f8be0079c531659141344cd1fd0a4f28419497f9722a3daafe3b4186f6b6457e0905f90a35050565b5f602082840312156101c8575f5ffd5b81516001600160a01b03811681146101de575f5ffd5b9392505050565b634e487b7160e01b5f52604160045260245ffd5b600181811c9082168061020d57607f821691505b60208210810361022b57634e487b7160e01b5f52602260045260245ffd5b50919050565b601f82111561027857805f5260205f20601f840160051c810160208510156102565750805b601f840160051c820191505b81811015610275575f8155600101610262565b50505b505050565b81516001600160401b03811115610296576102966101e5565b6102aa816102a484546101f9565b84610231565b6020601f8211600181146102dc575f83156102c55750848201515b5f19600385901b1c1916600184901b178455610275565b5f84815260208120601f198516915b8281101561030b57878501518255602094850194600190920191016102eb565b508482101561032857868401515f19600387901b60f8161c191681555b50505050600190811b01905550565b613ac0806103445f395ff3fe60806040526004361061026a575f3560e01c8063750104b41161014a578063a22cb465116100be578063c320c72711610078578063c320c7271461078e578063c87b56dd146107ad578063cc17e15d146107cc578063e985e9c5146107eb578063f0eec37a1461080a578063f2fde38b14610829575f5ffd5b8063a22cb465146106af578063b236f197146106ce578063b5301ced14610705578063b88d4fde14610719578063ba32122e14610738578063bca6eec414610757575f5ffd5b80638afbab7c1161010f5780638afbab7c146105f55780638da5cb5b146106145780638df2de251461063157806392ddf23c1461065057806395d89b411461067c5780639af8b7aa14610690575f5ffd5b8063750104b41461054d578063788f737d1461056c5780637908976b1461058b5780637d760cac146105aa578063879709a1146105d6575f5ffd5b806332752b09116101e15780635ec9b71b116101a65780635ec9b71b146104925780635f06b0eb146104b15780636352211e146104dc5780636f58a882146104fb57806370a082311461051a578063715018a614610539575f5ffd5b806332752b0914610402578063364460f3146104215780633a06831c146104405780633ccfd60b1461045f57806342842e0e14610473575f5ffd5b806314c44e091161023257806314c44e091461033a578063181d989b1461035d5780631e2ca61e1461038b57806323b872dd1461039e5780632661017b146103bd57806329aa4f51146103ee575f5ffd5b806301ffc9a71461026e57806306fdde03146102a2578063081812fc146102c3578063095ea7b3146102fa5780630d537e8d1461031b575b5f5ffd5b348015610279575f5ffd5b5061028d610288366004613047565b610848565b60405190151581526020015b60405180910390f35b3480156102ad575f5ffd5b506102b6610858565b6040516102999190613090565b3480156102ce575f5ffd5b506102e26102dd3660046130a2565b6108e7565b6040516001600160a01b039091168152602001610299565b348015610305575f5ffd5b506103196103143660046130cd565b61090e565b005b348015610326575f5ffd5b506103196103353660046130a2565b61091d565b348015610345575f5ffd5b5061034f600f5481565b604051908152602001610299565b348015610368575f5ffd5b5061028d6103773660046130f7565b60116020525f908152604090205460ff1681565b6103196103993660046131d5565b610a0a565b3480156103a9575f5ffd5b506103196103b8366004613260565b610fbc565b3480156103c8575f5ffd5b506103dc6103d73660046130a2565b611045565b6040516102999695949392919061329e565b3480156103f9575f5ffd5b5061034f600181565b34801561040d575f5ffd5b5061028d61041c366004613300565b611221565b34801561042c575f5ffd5b506102e261043b366004613300565b61129d565b34801561044b575f5ffd5b506010546102e2906001600160a01b031681565b34801561046a575f5ffd5b50610319611305565b34801561047e575f5ffd5b5061031961048d366004613260565b611346565b34801561049d575f5ffd5b506103196104ac366004613331565b611360565b3480156104bc575f5ffd5b5061034f6104cb3660046130f7565b600e6020525f908152604090205481565b3480156104e7575f5ffd5b506102e26104f63660046130a2565b611554565b348015610506575f5ffd5b506103196105153660046130a2565b61155e565b348015610525575f5ffd5b5061034f6105343660046130f7565b6115b3565b348015610544575f5ffd5b506103196115f8565b348015610558575f5ffd5b5061031961056736600461337f565b61160b565b348015610577575f5ffd5b506103196105863660046133cf565b611707565b348015610596575f5ffd5b506103196105a5366004613331565b611766565b3480156105b5575f5ffd5b506105c96105c43660046130a2565b611ade565b60405161029991906133fb565b3480156105e1575f5ffd5b506103196105f036600461350d565b611d51565b348015610600575f5ffd5b5061031961060f3660046130a2565b611e98565b34801561061f575f5ffd5b506007546001600160a01b03166102e2565b34801561063c575f5ffd5b5061031961064b3660046130f7565b611eea565b34801561065b575f5ffd5b5061066f61066a3660046130f7565b611f8b565b60405161029991906135c6565b348015610687575f5ffd5b506102b6611ff4565b34801561069b575f5ffd5b506102b66106aa3660046130f7565b612003565b3480156106ba575f5ffd5b506103196106c93660046133cf565b6120de565b3480156106d9575f5ffd5b5061034f6106e8366004613300565b8051602081830181018051600c8252928201919093012091525481565b348015610710575f5ffd5b5061034f601e81565b348015610724575f5ffd5b50610319610733366004613608565b6120e9565b348015610743575f5ffd5b5061034f610752366004613300565b612101565b348015610762575f5ffd5b5061034f610771366004613300565b8051602081830181018051600b8252928201919093012091525481565b348015610799575f5ffd5b506103196107a83660046130a2565b61217d565b3480156107b8575f5ffd5b506102b66107c73660046130a2565b61218a565b3480156107d7575f5ffd5b5061034f6107e63660046130cd565b612195565b3480156107f6575f5ffd5b5061028d610805366004613682565b6121c0565b348015610815575f5ffd5b5061034f610824366004613300565b6121ed565b348015610834575f5ffd5b506103196108433660046130f7565b61224b565b5f61085282612285565b92915050565b60605f8054610866906136ae565b80601f0160208091040260200160405190810160405280929190818152602001828054610892906136ae565b80156108dd5780601f106108b4576101008083540402835291602001916108dd565b820191905f5260205f20905b8154815290600101906020018083116108c057829003601f168201915b5050505050905090565b5f6108f1826122a9565b505f828152600460205260409020546001600160a01b0316610852565b6109198282336122e0565b5050565b5f610927826122ed565b6001600160a01b0316036109565760405162461bcd60e51b815260040161094d906136e6565b60405180910390fd5b3361096082611554565b6001600160a01b0316146109a85760405162461bcd60e51b815260206004820152600f60248201526e2737ba103a37b5b2b71037bbb732b960891b604482015260640161094d565b335f908152600e60209081526040808320849055838352600a9091529081902090516109d49190613714565b60405190819003812090829033907f1833e702c6de975c9005d56f858c258def9c7dba4364b1c2c08623d366c8b9cf905f90a450565b610a12612309565b335f9081526011602052604090205460ff1680610a3957506007546001600160a01b031633145b610a7f5760405162461bcd60e51b81526020600482015260176024820152762737ba1030baba3437b934bd32b21037b832b930ba37b960491b604482015260640161094d565b600f54341015610ad15760405162461bcd60e51b815260206004820152601d60248201527f496e73756666696369656e7420726567697374726174696f6e20666565000000604482015260640161094d565b610ada83612333565b610b1e5760405162461bcd60e51b8152602060048201526015602482015274092dcecc2d8d2c840c8dedac2d2dc40e6eaccccd2f605b1b604482015260640161094d565b5f825111610b605760405162461bcd60e51b815260206004820152600f60248201526e125b9d985b1a5908139190c8155251608a1b604482015260640161094d565b610b69826124c2565b15610bb65760405162461bcd60e51b815260206004820152601b60248201527f4e464320616c726561647920626f756e6420746f20646f6d61696e0000000000604482015260640161094d565b601054604051630af9711360e21b81526001600160a01b0390911690632be5c44c90610be6908590600401613090565b602060405180830381865afa158015610c01573d5f5f3e3d5ffd5b505050506040513d601f19601f82011682018060405250810190610c259190613785565b610c665760405162461bcd60e51b8152602060048201526012602482015271139190c81b9bdd081c9959da5cdd195c995960721b604482015260640161094d565b60105460405163b5fcabc560e01b81525f916001600160a01b03169063b5fcabc590610c96908690600401613090565b5f60405180830381865afa158015610cb0573d5f5f3e3d5ffd5b505050506040513d5f823e601f3d908101601f19168201604052610cd791908101906137a0565b50505050509050806001600160a01b0316336001600160a01b031614610d385760405162461bcd60e51b8152602060048201526016602482015275596f7520646f6e2774206f776e2074686973204e464360501b604482015260640161094d565b5f84604051602001610d4a9190613877565b60405160208183030381529060405290505f81604051602001610d6d9190613890565b6040516020818303038152906040529050610d87816124eb565b15610dd45760405162461bcd60e51b815260206004820152601960248201527f446f6d61696e20616c7265616479207265676973746572656400000000000000604482015260640161094d565b60098054905f610de3836138c3565b90915550506009546040805160c0810182528381523360208083019190915281830189905242606083015260016080830152825180820184525f80825260a0840191909152848152600a9091529190912081518190610e42908261391f565b5060208201516001820180546001600160a01b0319166001600160a01b0390921691909117905560408201516002820190610e7d908261391f565b5060608201516003820155608082015160048201805460ff191691151591909117905560a08201516005820190610eb4908261391f565b5090505080600b83604051610ec991906139d9565b90815260200160405180910390208190555080600c87604051610eec91906139d9565b908152604080516020928190038301902092909255335f818152600d8352838120805460018101825590825283822001859055908152600e909152908120549003610f4357335f908152600e602052604090208190555b610f4d33826124fc565b610f578186612515565b6040513390610f679084906139d9565b6040518091039020827f2a81f1813f9c87ff8a1fbe001d7d1c81c68f55a834702a5ca7190df5df0d311642604051610fa191815260200190565b60405180910390a450505050610fb76001600855565b505050565b6001600160a01b038216610fe557604051633250574960e11b81525f600482015260240161094d565b5f610ff1838333612564565b9050836001600160a01b0316816001600160a01b03161461103f576040516364283d7b60e01b81526001600160a01b038086166004830152602482018490528216604482015260640161094d565b50505050565b600a6020525f908152604090208054819061105f906136ae565b80601f016020809104026020016040519081016040528092919081815260200182805461108b906136ae565b80156110d65780601f106110ad576101008083540402835291602001916110d6565b820191905f5260205f20905b8154815290600101906020018083116110b957829003601f168201915b505050600184015460028501805494956001600160a01b03909216949193509150611100906136ae565b80601f016020809104026020016040519081016040528092919081815260200182805461112c906136ae565b80156111775780601f1061114e57610100808354040283529160200191611177565b820191905f5260205f20905b81548152906001019060200180831161115a57829003601f168201915b50505050600383015460048401546005850180549495929460ff9092169350906111a0906136ae565b80601f01602080910402602001604051908101604052809291908181526020018280546111cc906136ae565b80156112175780601f106111ee57610100808354040283529160200191611217565b820191905f5260205f20905b8154815290600101906020018083116111fa57829003601f168201915b5050505050905086565b5f61122b82612333565b61123657505f919050565b5f826040516020016112489190613877565b60405160208183030381529060405290505f8160405160200161126b9190613890565b6040516020818303038152906040529050611285816124eb565b15806112955750611295816125f5565b949350505050565b5f6112a7826124eb565b15806112b757506112b7826125f5565b156112c357505f919050565b5f600b836040516112d491906139d9565b9081526040805160209281900383019020545f908152600a9092529020600101546001600160a01b03169392505050565b61130d612631565b6007546040516001600160a01b03909116904780156108fc02915f818181858888f19350505050158015611343573d5f5f3e3d5ffd5b50565b610fb783838360405180602001604052805f8152506120e9565b6010546001600160a01b031633146113ba5760405162461bcd60e51b815260206004820152601a60248201527f4f6e6c79204e46432072656769737472792063616e2063616c6c000000000000604482015260640161094d565b6001600160a01b0381166114095760405162461bcd60e51b8152602060048201526016602482015275496e76616c69642077616c6c6574206164647265737360501b604482015260640161094d565b5f82511161144b5760405162461bcd60e51b815260206004820152600f60248201526e125b9d985b1a5908139190c8155251608a1b604482015260640161094d565b601054604051630af9711360e21b81526001600160a01b0390911690632be5c44c9061147b908590600401613090565b602060405180830381865afa158015611496573d5f5f3e3d5ffd5b505050506040513d601f19601f820116820180604052508101906114ba9190613785565b6114f65760405162461bcd60e51b815260206004820152600d60248201526c139190c81b9bdd08189bdd5b99609a1b604482015260640161094d565b6001600160a01b0381165f81815260116020908152604091829020805460ff1916600190811790915591519182527fc176fcf7d48a6aca0d96d3b3201f7add47c4af04ce9a51f5f4eb15d528c46e2191015b60405180910390a25050565b5f610852826122a9565b611566612631565b5f611570826122ed565b6001600160a01b0316036115965760405162461bcd60e51b815260040161094d906136e6565b5f908152600a60205260409020600401805460ff19166001179055565b5f6001600160a01b0382166115dd576040516322718ad960e21b81525f600482015260240161094d565b506001600160a01b03165f9081526003602052604090205490565b611600612631565b6116095f61265e565b565b5f611615836122ed565b6001600160a01b03160361163b5760405162461bcd60e51b815260040161094d906136e6565b3361164583611554565b6001600160a01b03161461168d5760405162461bcd60e51b815260206004820152600f60248201526e2737ba103a37b5b2b71037bbb732b960891b604482015260640161094d565b5f828152600a602052604090206005016116a7828261391f565b505f828152600a60205260409081902090516116c39190613714565b6040518091039020827f219d2dab803787033f8713df7150f14f172a1aa66b584e0a7be792d7e2673024836040516116fb9190613090565b60405180910390a35050565b61170f612631565b6001600160a01b0382165f81815260116020908152604091829020805460ff191685151590811790915591519182527fc176fcf7d48a6aca0d96d3b3201f7add47c4af04ce9a51f5f4eb15d528c46e219101611548565b61176e612309565b335f9081526011602052604090205460ff168061179557506007546001600160a01b031633145b6117db5760405162461bcd60e51b81526020600482015260176024820152762737ba1030baba3437b934bd32b21037b832b930ba37b960491b604482015260640161094d565b6001600160a01b0381166118315760405162461bcd60e51b815260206004820152601960248201527f496e76616c6964206e6577206f776e6572206164647265737300000000000000604482015260640161094d565b5f600c8360405161184291906139d9565b9081526020016040518091039020549050805f036118925760405162461bcd60e51b815260206004820152600d60248201526c139190c81b9bdd08199bdd5b99609a1b604482015260640161094d565b5f61189c826122ed565b6001600160a01b0316036118f25760405162461bcd60e51b815260206004820152601960248201527f446f6d61696e204e465420646f6573206e6f7420657869737400000000000000604482015260640161094d565b5f818152600a602052604081209061190983611554565b9050336001600160a01b038216146119635760405162461bcd60e51b815260206004820152601e60248201527f4f6e6c7920646f6d61696e206f776e65722063616e207472616e736665720000604482015260640161094d565b600c8560405161197391906139d9565b90815260200160405180910390205f905560405180602001604052805f8152508260020190816119a3919061391f565b5060048201805460ff191690556119bb8185856126af565b6001820180546001600160a01b0319166001600160a01b0386161790556119e2818461275c565b6001600160a01b038085165f908152600d602090815260408083208054600181018255908452828420018790559284168252600e90522054839003611a3a576001600160a01b0381165f908152600e60205260408120555b6001600160a01b0384165f908152600e60205260408120549003611a73576001600160a01b0384165f908152600e602052604090208390555b6040516001600160a01b03821690611a8c908490613714565b6040519081900381206001600160a01b03871682529085907f070ecc15c634e51350b3fd29489e2ca3690d9d1e5995308091afea2249bdcfe79060200160405180910390a45050506109196001600855565b611b1f6040518060c00160405280606081526020015f6001600160a01b03168152602001606081526020015f81526020015f15158152602001606081525090565b5f611b29836122ed565b6001600160a01b031603611b4f5760405162461bcd60e51b815260040161094d906136e6565b5f828152600a602052604090819020815160c08101909252805482908290611b76906136ae565b80601f0160208091040260200160405190810160405280929190818152602001828054611ba2906136ae565b8015611bed5780601f10611bc457610100808354040283529160200191611bed565b820191905f5260205f20905b815481529060010190602001808311611bd057829003601f168201915b505050918352505060018201546001600160a01b03166020820152600282018054604090920191611c1d906136ae565b80601f0160208091040260200160405190810160405280929190818152602001828054611c49906136ae565b8015611c945780601f10611c6b57610100808354040283529160200191611c94565b820191905f5260205f20905b815481529060010190602001808311611c7757829003601f168201915b505050918352505060038201546020820152600482015460ff1615156040820152600582018054606090920191611cca906136ae565b80601f0160208091040260200160405190810160405280929190818152602001828054611cf6906136ae565b8015611d415780601f10611d1857610100808354040283529160200191611d41565b820191905f5260205f20905b815481529060010190602001808311611d2457829003601f168201915b5050505050815250509050919050565b611d59612631565b8051825114611da25760405162461bcd60e51b8152602060048201526015602482015274082e4e4c2f240d8cadccee8d040dad2e6dac2e8c6d605b1b604482015260640161094d565b5f5b8251811015610fb757818181518110611dbf57611dbf6139e4565b602002602001015160115f858481518110611ddc57611ddc6139e4565b60200260200101516001600160a01b03166001600160a01b031681526020019081526020015f205f6101000a81548160ff021916908315150217905550828181518110611e2b57611e2b6139e4565b60200260200101516001600160a01b03167fc176fcf7d48a6aca0d96d3b3201f7add47c4af04ce9a51f5f4eb15d528c46e21838381518110611e6f57611e6f6139e4565b6020026020010151604051611e88911515815260200190565b60405180910390a2600101611da4565b611ea0612631565b5f611eaa826122ed565b6001600160a01b031603611ed05760405162461bcd60e51b815260040161094d906136e6565b5f908152600a60205260409020600401805460ff19169055565b611ef2612631565b6001600160a01b038116611f3a5760405162461bcd60e51b815260206004820152600f60248201526e496e76616c6964206164647265737360881b604482015260640161094d565b601080546001600160a01b038381166001600160a01b0319831681179093556040519116919082907fc88229f1d8e54d31f640a733927bc56d9fcbb8cf9c2b6b87f81fc713c49bc647905f90a35050565b6001600160a01b0381165f908152600d6020908152604091829020805483518184028101840190945280845260609392830182828015611fe857602002820191905f5260205f20905b815481526020019060010190808311611fd4575b50505050509050919050565b606060018054610866906136ae565b6001600160a01b0381165f908152600e602052604090205460609080158061202857505f5b1561204257505060408051602081019091525f8152919050565b5f818152600a60205260409020805461205a906136ae565b80601f0160208091040260200160405190810160405280929190818152602001828054612086906136ae565b80156120d15780601f106120a8576101008083540402835291602001916120d1565b820191905f5260205f20905b8154815290600101906020018083116120b457829003601f168201915b5050505050915050919050565b610919338383612816565b6120f4848484610fbc565b61103f33858585856128b4565b5f61210b826124c2565b6121575760405162461bcd60e51b815260206004820152601760248201527f4e4643206e6f7420626f756e6420746f20646f6d61696e000000000000000000604482015260640161094d565b600c8260405161216791906139d9565b9081526020016040518091039020549050919050565b612185612631565b600f55565b6060610852826129dc565b600d602052815f5260405f2081815481106121ae575f80fd5b905f5260205f20015f91509150505481565b6001600160a01b039182165f90815260056020908152604080832093909416825291909152205460ff1690565b5f6121f7826124eb565b61223b5760405162461bcd60e51b8152602060048201526015602482015274111bdb585a5b88191bd95cc81b9bdd08195e1a5cdd605a1b604482015260640161094d565b600b8260405161216791906139d9565b612253612631565b6001600160a01b03811661227c57604051631e4fbdf760e01b81525f600482015260240161094d565b6113438161265e565b5f6001600160e01b03198216632483248360e11b1480610852575061085282612adf565b5f5f6122b4836122ed565b90506001600160a01b03811661085257604051637e27328960e01b81526004810184905260240161094d565b610fb78383836001612b2e565b5f818152600260205260408120546001600160a01b0316610852565b60026008540361232c57604051633ee5aeb560e01b815260040160405180910390fd5b6002600855565b80515f9082906001811080612352575061234f6005601e6139f8565b81115b1561236057505f9392505050565b5f5b818110156124b7575f83828151811061237d5761237d6139e4565b01602001516001600160f81b0319169050606160f81b81108015906123b05750603d60f91b6001600160f81b0319821611155b806123e25750600360fc1b6001600160f81b03198216108015906123e25750603960f81b6001600160f81b0319821611155b806123fa5750602d60f81b6001600160f81b03198216145b61240957505f95945050505050565b81158061241f575061241c6001846139f8565b82145b80156124385750602d60f81b6001600160f81b03198216145b1561244857505f95945050505050565b5f821180156124645750602d60f81b6001600160f81b03198216145b801561249e5750836124776001846139f8565b81518110612487576124876139e4565b6020910101516001600160f81b031916602d60f81b145b156124ae57505f95945050505050565b50600101612362565b506001949350505050565b5f600c826040516124d391906139d9565b90815260405190819003602001902054151592915050565b5f600b826040516124d391906139d9565b610919828260405180602001604052805f815250612c32565b5f82815260066020526040902061252c828261391f565b506040518281527ff8e1a15aba9398e019f0b49df1a4fde98ee17ae345cb5f6b5e2c27f5033e8ce79060200160405180910390a15050565b5f5f61256f846122ed565b90505f61257d868686612c49565b90506001600160a01b0382161580159061259f57506001600160a01b03861615155b80156125bd5750856001600160a01b0316826001600160a01b031614155b156125ec575f858152600a6020526040902060010180546001600160a01b0319166001600160a01b0388161790555b95945050505050565b5f5f600b8360405161260791906139d9565b9081526020016040518091039020549050805f036126285750600192915050565b5f5b9392505050565b6007546001600160a01b031633146116095760405163118cdaa760e01b815233600482015260240161094d565b600780546001600160a01b038381166001600160a01b0319831681179093556040519116919082907f8be0079c531659141344cd1fd0a4f28419497f9722a3daafe3b4186f6b6457e0905f90a35050565b6001600160a01b0382166126d857604051633250574960e11b81525f600482015260240161094d565b5f6126e483835f612564565b90506001600160a01b03811661271057604051637e27328960e01b81526004810183905260240161094d565b836001600160a01b0316816001600160a01b03161461103f576040516364283d7b60e01b81526001600160a01b038086166004830152602482018490528216604482015260640161094d565b6001600160a01b0382165f908152600d60205260408120905b815481101561103f5782828281548110612791576127916139e4565b905f5260205f2001540361280e57815482906127af906001906139f8565b815481106127bf576127bf6139e4565b905f5260205f2001548282815481106127da576127da6139e4565b905f5260205f200181905550818054806127f6576127f6613a0b565b600190038181905f5260205f20015f9055905561103f565b600101612775565b6001600160a01b03821661284857604051630b61174360e31b81526001600160a01b038316600482015260240161094d565b6001600160a01b038381165f81815260056020908152604080832094871680845294825291829020805460ff191686151590811790915591519182527f17307eab39ab6107e8899845ad3d59bd9653f200f220920489ca2b5937696c31910160405180910390a3505050565b6001600160a01b0383163b156129d557604051630a85bd0160e11b81526001600160a01b0384169063150b7a02906128f6908890889087908790600401613a1f565b6020604051808303815f875af1925050508015612930575060408051601f3d908101601f1916820190925261292d91810190613a5b565b60015b612997573d80801561295d576040519150601f19603f3d011682016040523d82523d5f602084013e612962565b606091505b5080515f0361298f57604051633250574960e11b81526001600160a01b038516600482015260240161094d565b805160208201fd5b6001600160e01b03198116630a85bd0160e11b146129d357604051633250574960e11b81526001600160a01b038516600482015260240161094d565b505b5050505050565b60606129e7826122a9565b505f8281526006602052604081208054612a00906136ae565b80601f0160208091040260200160405190810160405280929190818152602001828054612a2c906136ae565b8015612a775780601f10612a4e57610100808354040283529160200191612a77565b820191905f5260205f20905b815481529060010190602001808311612a5a57829003601f168201915b505050505090505f612a9360408051602081019091525f815290565b905080515f03612aa4575092915050565b815115612ad6578082604051602001612abe929190613a76565b60405160208183030381529060405292505050919050565b61129584612d36565b5f6001600160e01b031982166380ac58cd60e01b1480612b0f57506001600160e01b03198216635b5e139f60e01b145b8061085257506301ffc9a760e01b6001600160e01b0319831614610852565b8080612b4257506001600160a01b03821615155b15612c03575f612b51846122a9565b90506001600160a01b03831615801590612b7d5750826001600160a01b0316816001600160a01b031614155b8015612b905750612b8e81846121c0565b155b15612bb95760405163a9fbf51f60e01b81526001600160a01b038416600482015260240161094d565b8115612c015783856001600160a01b0316826001600160a01b03167f8c5be1e5ebec7d5bd14f71427d1e84f3dd0314c0f7b2291e5b200ac8c7c3b92560405160405180910390a45b505b50505f90815260046020526040902080546001600160a01b0319166001600160a01b0392909216919091179055565b612c3c8383612da6565b610fb7335f8585856128b4565b5f5f612c54846122ed565b90506001600160a01b03831615612c7057612c70818486612e07565b6001600160a01b03811615612caa57612c8b5f855f5f612b2e565b6001600160a01b0381165f90815260036020526040902080545f190190555b6001600160a01b03851615612cd8576001600160a01b0385165f908152600360205260409020805460010190555b5f8481526002602052604080822080546001600160a01b0319166001600160a01b0389811691821790925591518793918516917fddf252ad1be2c89b69c2b068fc378daa952ba7f163c4a11628f55a4df523b3ef91a4949350505050565b6060612d41826122a9565b505f612d5760408051602081019091525f815290565b90505f815111612d755760405180602001604052805f81525061262a565b80612d7f84612e6b565b604051602001612d90929190613a76565b6040516020818303038152906040529392505050565b6001600160a01b038216612dcf57604051633250574960e11b81525f600482015260240161094d565b5f612ddb83835f612564565b90506001600160a01b03811615610fb7576040516339e3563760e11b81525f600482015260240161094d565b612e12838383612efa565b610fb7576001600160a01b038316612e4057604051637e27328960e01b81526004810182905260240161094d565b60405163177e802f60e01b81526001600160a01b03831660048201526024810182905260440161094d565b60605f612e7783612f5b565b60010190505f816001600160401b03811115612e9557612e95613112565b6040519080825280601f01601f191660200182016040528015612ebf576020820181803683370190505b5090508181016020015b5f19016f181899199a1a9b1b9c1cb0b131b232b360811b600a86061a8153600a8504945084612ec957509392505050565b5f6001600160a01b038316158015906112955750826001600160a01b0316846001600160a01b03161480612f335750612f3384846121c0565b806112955750505f908152600460205260409020546001600160a01b03908116911614919050565b5f8072184f03e93ff9f4daa797ed6e38ed64bf6a1f0160401b8310612f995772184f03e93ff9f4daa797ed6e38ed64bf6a1f0160401b830492506040015b6d04ee2d6d415b85acef81000000008310612fc5576d04ee2d6d415b85acef8100000000830492506020015b662386f26fc100008310612fe357662386f26fc10000830492506010015b6305f5e1008310612ffb576305f5e100830492506008015b612710831061300f57612710830492506004015b60648310613021576064830492506002015b600a83106108525760010192915050565b6001600160e01b031981168114611343575f5ffd5b5f60208284031215613057575f5ffd5b813561262a81613032565b5f81518084528060208401602086015e5f602082860101526020601f19601f83011685010191505092915050565b602081525f61262a6020830184613062565b5f602082840312156130b2575f5ffd5b5035919050565b6001600160a01b0381168114611343575f5ffd5b5f5f604083850312156130de575f5ffd5b82356130e9816130b9565b946020939093013593505050565b5f60208284031215613107575f5ffd5b813561262a816130b9565b634e487b7160e01b5f52604160045260245ffd5b604051601f8201601f191681016001600160401b038111828210171561314e5761314e613112565b604052919050565b5f6001600160401b0382111561316e5761316e613112565b50601f01601f191660200190565b5f61318e61318984613156565b613126565b90508281528383830111156131a1575f5ffd5b828260208301375f602084830101529392505050565b5f82601f8301126131c6575f5ffd5b61262a8383356020850161317c565b5f5f5f606084860312156131e7575f5ffd5b83356001600160401b038111156131fc575f5ffd5b613208868287016131b7565b93505060208401356001600160401b03811115613223575f5ffd5b61322f868287016131b7565b92505060408401356001600160401b0381111561324a575f5ffd5b613256868287016131b7565b9150509250925092565b5f5f5f60608486031215613272575f5ffd5b833561327d816130b9565b9250602084013561328d816130b9565b929592945050506040919091013590565b60c081525f6132b060c0830189613062565b6001600160a01b038816602084015282810360408401526132d18188613062565b9050856060840152841515608084015282810360a08401526132f38185613062565b9998505050505050505050565b5f60208284031215613310575f5ffd5b81356001600160401b03811115613325575f5ffd5b611295848285016131b7565b5f5f60408385031215613342575f5ffd5b82356001600160401b03811115613357575f5ffd5b613363858286016131b7565b9250506020830135613374816130b9565b809150509250929050565b5f5f60408385031215613390575f5ffd5b8235915060208301356001600160401b038111156133ac575f5ffd5b6133b8858286016131b7565b9150509250929050565b8015158114611343575f5ffd5b5f5f604083850312156133e0575f5ffd5b82356133eb816130b9565b91506020830135613374816133c2565b602081525f825160c0602084015261341660e0840182613062565b60208501516001600160a01b0316604085810191909152850151848203601f190160608601529091506134498282613062565b915050606084015160808401526080840151151560a084015260a0840151601f198483030160c08501526125ec8282613062565b5f6001600160401b0382111561349557613495613112565b5060051b60200190565b5f82601f8301126134ae575f5ffd5b81356134bc6131898261347d565b8082825260208201915060208360051b8601019250858311156134dd575f5ffd5b602085015b838110156135035780356134f5816133c2565b8352602092830192016134e2565b5095945050505050565b5f5f6040838503121561351e575f5ffd5b82356001600160401b03811115613533575f5ffd5b8301601f81018513613543575f5ffd5b80356135516131898261347d565b8082825260208201915060208360051b850101925087831115613572575f5ffd5b6020840193505b8284101561359d57833561358c816130b9565b825260209384019390910190613579565b945050505060208301356001600160401b038111156135ba575f5ffd5b6133b88582860161349f565b602080825282518282018190525f918401906040840190835b818110156135fd5783518352602093840193909201916001016135df565b509095945050505050565b5f5f5f5f6080858703121561361b575f5ffd5b8435613626816130b9565b93506020850135613636816130b9565b92506040850135915060608501356001600160401b03811115613657575f5ffd5b8501601f81018713613667575f5ffd5b6136768782356020840161317c565b91505092959194509250565b5f5f60408385031215613693575f5ffd5b823561369e816130b9565b91506020830135613374816130b9565b600181811c908216806136c257607f821691505b6020821081036136e057634e487b7160e01b5f52602260045260245ffd5b50919050565b602080825260149082015273151bdad95b88191bd95cc81b9bdd08195e1a5cdd60621b604082015260600190565b5f5f8354613721816136ae565b600182168015613738576001811461374d5761377a565b60ff198316865281151582028601935061377a565b865f5260205f205f5b8381101561377257815488820152600190910190602001613756565b505081860193505b509195945050505050565b5f60208284031215613795575f5ffd5b815161262a816133c2565b5f5f5f5f5f5f60c087890312156137b5575f5ffd5b86516137c0816130b9565b6020880151604089015160608a015192985090965094506137e0816133c2565b60808801519093506137f1816133c2565b60a08801519092506001600160401b0381111561380c575f5ffd5b8701601f8101891361381c575f5ffd5b805161382a61318982613156565b8181528a602083850101111561383e575f5ffd5b8160208401602083015e5f602083830101528093505050509295509295509295565b5f81518060208401855e5f93019283525090919050565b64616476782d60d81b81525f61262a6005830184613860565b5f61389b8284613860565b631734b73560e11b81526004019392505050565b634e487b7160e01b5f52601160045260245ffd5b5f600182016138d4576138d46138af565b5060010190565b601f821115610fb757805f5260205f20601f840160051c810160208510156139005750805b601f840160051c820191505b818110156129d5575f815560010161390c565b81516001600160401b0381111561393857613938613112565b61394c8161394684546136ae565b846138db565b6020601f82116001811461397e575f83156139675750848201515b5f19600385901b1c1916600184901b1784556129d5565b5f84815260208120601f198516915b828110156139ad578785015182556020948501946001909201910161398d565b50848210156139ca57868401515f19600387901b60f8161c191681555b50505050600190811b01905550565b5f61262a8284613860565b634e487b7160e01b5f52603260045260245ffd5b81810381811115610852576108526138af565b634e487b7160e01b5f52603160045260245ffd5b6001600160a01b03858116825284166020820152604081018390526080606082018190525f90613a5190830184613062565b9695505050505050565b5f60208284031215613a6b575f5ffd5b815161262a81613032565b5f611295613a848386613860565b8461386056fea26469706673582212205dfc9e260c8ad8522cc1133d279ee5bc7fe0f302bec9f001c7ef3ac615469ea564736f6c634300081e0033","linkReferences":{}},"methodIdentifiers":{"MAX_DOMAIN_LENGTH()":"b5301ced","MIN_DOMAIN_LENGTH()":"29aa4f51","approve(address,uint256)":"095ea7b3","authorizeNewNFCUser(string,address)":"5ec9b71b","authorizedOperators(address)":"181d989b","balanceOf(address)":"70a08231","batchSetAuthorizedOperators(address[],bool[])":"879709a1","domainInfos(uint256)":"2661017b","domainToTokenId(string)":"bca6eec4","emergencyFreezeDomain(uint256)":"8afbab7c","getApproved(uint256)":"081812fc","getDomainInfo(uint256)":"7d760cac","getTokenIdByDomain(string)":"f0eec37a","getTokenIdByNFC(string)":"ba32122e","getUserTokenIds(address)":"92ddf23c","isApprovedForAll(address,address)":"e985e9c5","isDomainAvailable(string)":"32752b09","mintDomainNFT(string,string,string)":"1e2ca61e","name()":"06fdde03","nfcRegistry()":"3a06831c","nfcToTokenId(string)":"b236f197","owner()":"8da5cb5b","ownerOf(uint256)":"6352211e","primaryDomainTokenId(address)":"5f06b0eb","registrationFee()":"14c44e09","renounceOwnership()":"715018a6","resolveDomain(string)":"364460f3","reverseResolve(address)":"9af8b7aa","safeTransferFrom(address,address,uint256)":"42842e0e","safeTransferFrom(address,address,uint256,bytes)":"b88d4fde","setApprovalForAll(address,bool)":"a22cb465","setAuthorizedOperator(address,bool)":"788f737d","setNFCRegistry(address)":"8df2de25","setPrimaryDomain(uint256)":"0d537e8d","setRegistrationFee(uint256)":"c320c727","supportsInterface(bytes4)":"01ffc9a7","symbol()":"95d89b41","tokenURI(uint256)":"c87b56dd","transferFrom(address,address,uint256)":"23b872dd","transferOwnership(address)":"f2fde38b","unbindAndTransferDomain(string,address)":"7908976b","unfreezeDomain(uint256)":"6f58a882","updateDomainMetadata(uint256,string)":"750104b4","userTokenIds(address,uint256)":"cc17e15d","withdraw()":"3ccfd60b"},"id":43}