{
    "abi": [
        {
            "type": "constructor",
            "inputs": [],
            "stateMutability": "nonpayable"
        },
        {
            "type": "function",
            "name": "MAX_DOMAIN_LENGTH",
            "inputs": [],
            "outputs": [
                {
                    "name": "",
                    "type": "uint256",
                    "internalType": "uint256"
                }
            ],
            "stateMutability": "view"
        },
        {
            "type": "function",
            "name": "MIN_DOMAIN_LENGTH",
            "inputs": [],
            "outputs": [
                {
                    "name": "",
                    "type": "uint256",
                    "internalType": "uint256"
                }
            ],
            "stateMutability": "view"
        },
        {
            "type": "function",
            "name": "approve",
            "inputs": [
                {
                    "name": "to",
                    "type": "address",
                    "internalType": "address"
                },
                {
                    "name": "tokenId",
                    "type": "uint256",
                    "internalType": "uint256"
                }
            ],
            "outputs": [],
            "stateMutability": "nonpayable"
        },
        {
            "type": "function",
            "name": "balanceOf",
            "inputs": [
                {
                    "name": "owner",
                    "type": "address",
                    "internalType": "address"
                }
            ],
            "outputs": [
                {
                    "name": "",
                    "type": "uint256",
                    "internalType": "uint256"
                }
            ],
            "stateMutability": "view"
        },
        {
            "type": "function",
            "name": "domainInfos",
            "inputs": [
                {
                    "name": "",
                    "type": "uint256",
                    "internalType": "uint256"
                }
            ],
            "outputs": [
                {
                    "name": "domainName",
                    "type": "string",
                    "internalType": "string"
                },
                {
                    "name": "owner",
                    "type": "address",
                    "internalType": "address"
                },
                {
                    "name": "nfcUID",
                    "type": "string",
                    "internalType": "string"
                },
                {
                    "name": "registeredAt",
                    "type": "uint256",
                    "internalType": "uint256"
                },
                {
                    "name": "isActive",
                    "type": "bool",
                    "internalType": "bool"
                },
                {
                    "name": "metadata",
                    "type": "string",
                    "internalType": "string"
                }
            ],
            "stateMutability": "view"
        },
        {
            "type": "function",
            "name": "domainToTokenId",
            "inputs": [
                {
                    "name": "",
                    "type": "string",
                    "internalType": "string"
                }
            ],
            "outputs": [
                {
                    "name": "",
                    "type": "uint256",
                    "internalType": "uint256"
                }
            ],
            "stateMutability": "view"
        },
        {
            "type": "function",
            "name": "emergencyFreezeDomain",
            "inputs": [
                {
                    "name": "tokenId",
                    "type": "uint256",
                    "internalType": "uint256"
                }
            ],
            "outputs": [],
            "stateMutability": "nonpayable"
        },
        {
            "type": "function",
            "name": "getApproved",
            "inputs": [
                {
                    "name": "tokenId",
                    "type": "uint256",
                    "internalType": "uint256"
                }
            ],
            "outputs": [
                {
                    "name": "",
                    "type": "address",
                    "internalType": "address"
                }
            ],
            "stateMutability": "view"
        },
        {
            "type": "function",
            "name": "getDomainInfo",
            "inputs": [
                {
                    "name": "tokenId",
                    "type": "uint256",
                    "internalType": "uint256"
                }
            ],
            "outputs": [
                {
                    "name": "",
                    "type": "tuple",
                    "internalType": "struct INJDomainNFT.DomainInfo",
                    "components": [
                        {
                            "name": "domainName",
                            "type": "string",
                            "internalType": "string"
                        },
                        {
                            "name": "owner",
                            "type": "address",
                            "internalType": "address"
                        },
                        {
                            "name": "nfcUID",
                            "type": "string",
                            "internalType": "string"
                        },
                        {
                            "name": "registeredAt",
                            "type": "uint256",
                            "internalType": "uint256"
                        },
                        {
                            "name": "isActive",
                            "type": "bool",
                            "internalType": "bool"
                        },
                        {
                            "name": "metadata",
                            "type": "string",
                            "internalType": "string"
                        }
                    ]
                }
            ],
            "stateMutability": "view"
        },
        {
            "type": "function",
            "name": "getTokenIdByDomain",
            "inputs": [
                {
                    "name": "domain",
                    "type": "string",
                    "internalType": "string"
                }
            ],
            "outputs": [
                {
                    "name": "",
                    "type": "uint256",
                    "internalType": "uint256"
                }
            ],
            "stateMutability": "view"
        },
        {
            "type": "function",
            "name": "getTokenIdByNFC",
            "inputs": [
                {
                    "name": "nfcUID",
                    "type": "string",
                    "internalType": "string"
                }
            ],
            "outputs": [
                {
                    "name": "",
                    "type": "uint256",
                    "internalType": "uint256"
                }
            ],
            "stateMutability": "view"
        },
        {
            "type": "function",
            "name": "getUserTokenIds",
            "inputs": [
                {
                    "name": "user",
                    "type": "address",
                    "internalType": "address"
                }
            ],
            "outputs": [
                {
                    "name": "",
                    "type": "uint256[]",
                    "internalType": "uint256[]"
                }
            ],
            "stateMutability": "view"
        },
        {
            "type": "function",
            "name": "isApprovedForAll",
            "inputs": [
                {
                    "name": "owner",
                    "type": "address",
                    "internalType": "address"
                },
                {
                    "name": "operator",
                    "type": "address",
                    "internalType": "address"
                }
            ],
            "outputs": [
                {
                    "name": "",
                    "type": "bool",
                    "internalType": "bool"
                }
            ],
            "stateMutability": "view"
        },
        {
            "type": "function",
            "name": "isDomainAvailable",
            "inputs": [
                {
                    "name": "domainSuffix",
                    "type": "string",
                    "internalType": "string"
                }
            ],
            "outputs": [
                {
                    "name": "",
                    "type": "bool",
                    "internalType": "bool"
                }
            ],
            "stateMutability": "view"
        },
        {
            "type": "function",
            "name": "mintDomainNFT",
            "inputs": [
                {
                    "name": "domainSuffix",
                    "type": "string",
                    "internalType": "string"
                },
                {
                    "name": "nfcUID",
                    "type": "string",
                    "internalType": "string"
                },
                {
                    "name": "metadataURI",
                    "type": "string",
                    "internalType": "string"
                }
            ],
            "outputs": [],
            "stateMutability": "payable"
        },
        {
            "type": "function",
            "name": "name",
            "inputs": [],
            "outputs": [
                {
                    "name": "",
                    "type": "string",
                    "internalType": "string"
                }
            ],
            "stateMutability": "view"
        },
        {
            "type": "function",
            "name": "nfcToTokenId",
            "inputs": [
                {
                    "name": "",
                    "type": "string",
                    "internalType": "string"
                }
            ],
            "outputs": [
                {
                    "name": "",
                    "type": "uint256",
                    "internalType": "uint256"
                }
            ],
            "stateMutability": "view"
        },
        {
            "type": "function",
            "name": "owner",
            "inputs": [],
            "outputs": [
                {
                    "name": "",
                    "type": "address",
                    "internalType": "address"
                }
            ],
            "stateMutability": "view"
        },
        {
            "type": "function",
            "name": "ownerOf",
            "inputs": [
                {
                    "name": "tokenId",
                    "type": "uint256",
                    "internalType": "uint256"
                }
            ],
            "outputs": [
                {
                    "name": "",
                    "type": "address",
                    "internalType": "address"
                }
            ],
            "stateMutability": "view"
        },
        {
            "type": "function",
            "name": "primaryDomainTokenId",
            "inputs": [
                {
                    "name": "",
                    "type": "address",
                    "internalType": "address"
                }
            ],
            "outputs": [
                {
                    "name": "",
                    "type": "uint256",
                    "internalType": "uint256"
                }
            ],
            "stateMutability": "view"
        },
        {
            "type": "function",
            "name": "registrationFee",
            "inputs": [],
            "outputs": [
                {
                    "name": "",
                    "type": "uint256",
                    "internalType": "uint256"
                }
            ],
            "stateMutability": "view"
        },
        {
            "type": "function",
            "name": "renounceOwnership",
            "inputs": [],
            "outputs": [],
            "stateMutability": "nonpayable"
        },
        {
            "type": "function",
            "name": "resolveDomain",
            "inputs": [
                {
                    "name": "domain",
                    "type": "string",
                    "internalType": "string"
                }
            ],
            "outputs": [
                {
                    "name": "",
                    "type": "address",
                    "internalType": "address"
                }
            ],
            "stateMutability": "view"
        },
        {
            "type": "function",
            "name": "reverseResolve",
            "inputs": [
                {
                    "name": "addr",
                    "type": "address",
                    "internalType": "address"
                }
            ],
            "outputs": [
                {
                    "name": "",
                    "type": "string",
                    "internalType": "string"
                }
            ],
            "stateMutability": "view"
        },
        {
            "type": "function",
            "name": "safeTransferFrom",
            "inputs": [
                {
                    "name": "from",
                    "type": "address",
                    "internalType": "address"
                },
                {
                    "name": "to",
                    "type": "address",
                    "internalType": "address"
                },
                {
                    "name": "tokenId",
                    "type": "uint256",
                    "internalType": "uint256"
                }
            ],
            "outputs": [],
            "stateMutability": "nonpayable"
        },
        {
            "type": "function",
            "name": "safeTransferFrom",
            "inputs": [
                {
                    "name": "from",
                    "type": "address",
                    "internalType": "address"
                },
                {
                    "name": "to",
                    "type": "address",
                    "internalType": "address"
                },
                {
                    "name": "tokenId",
                    "type": "uint256",
                    "internalType": "uint256"
                },
                {
                    "name": "data",
                    "type": "bytes",
                    "internalType": "bytes"
                }
            ],
            "outputs": [],
            "stateMutability": "nonpayable"
        },
        {
            "type": "function",
            "name": "setApprovalForAll",
            "inputs": [
                {
                    "name": "operator",
                    "type": "address",
                    "internalType": "address"
                },
                {
                    "name": "approved",
                    "type": "bool",
                    "internalType": "bool"
                }
            ],
            "outputs": [],
            "stateMutability": "nonpayable"
        },
        {
            "type": "function",
            "name": "setPrimaryDomain",
            "inputs": [
                {
                    "name": "tokenId",
                    "type": "uint256",
                    "internalType": "uint256"
                }
            ],
            "outputs": [],
            "stateMutability": "nonpayable"
        },
        {
            "type": "function",
            "name": "setRegistrationFee",
            "inputs": [
                {
                    "name": "newFee",
                    "type": "uint256",
                    "internalType": "uint256"
                }
            ],
            "outputs": [],
            "stateMutability": "nonpayable"
        },
        {
            "type": "function",
            "name": "supportsInterface",
            "inputs": [
                {
                    "name": "interfaceId",
                    "type": "bytes4",
                    "internalType": "bytes4"
                }
            ],
            "outputs": [
                {
                    "name": "",
                    "type": "bool",
                    "internalType": "bool"
                }
            ],
            "stateMutability": "view"
        },
        {
            "type": "function",
            "name": "symbol",
            "inputs": [],
            "outputs": [
                {
                    "name": "",
                    "type": "string",
                    "internalType": "string"
                }
            ],
            "stateMutability": "view"
        },
        {
            "type": "function",
            "name": "tokenURI",
            "inputs": [
                {
                    "name": "tokenId",
                    "type": "uint256",
                    "internalType": "uint256"
                }
            ],
            "outputs": [
                {
                    "name": "",
                    "type": "string",
                    "internalType": "string"
                }
            ],
            "stateMutability": "view"
        },
        {
            "type": "function",
            "name": "transferFrom",
            "inputs": [
                {
                    "name": "from",
                    "type": "address",
                    "internalType": "address"
                },
                {
                    "name": "to",
                    "type": "address",
                    "internalType": "address"
                },
                {
                    "name": "tokenId",
                    "type": "uint256",
                    "internalType": "uint256"
                }
            ],
            "outputs": [],
            "stateMutability": "nonpayable"
        },
        {
            "type": "function",
            "name": "transferOwnership",
            "inputs": [
                {
                    "name": "newOwner",
                    "type": "address",
                    "internalType": "address"
                }
            ],
            "outputs": [],
            "stateMutability": "nonpayable"
        },
        {
            "type": "function",
            "name": "unbindAndTransferDomain",
            "inputs": [
                {
                    "name": "nfcUID",
                    "type": "string",
                    "internalType": "string"
                },
                {
                    "name": "newOwner",
                    "type": "address",
                    "internalType": "address"
                }
            ],
            "outputs": [],
            "stateMutability": "nonpayable"
        },
        {
            "type": "function",
            "name": "unfreezeDomain",
            "inputs": [
                {
                    "name": "tokenId",
                    "type": "uint256",
                    "internalType": "uint256"
                }
            ],
            "outputs": [],
            "stateMutability": "nonpayable"
        },
        {
            "type": "function",
            "name": "updateDomainMetadata",
            "inputs": [
                {
                    "name": "tokenId",
                    "type": "uint256",
                    "internalType": "uint256"
                },
                {
                    "name": "metadata",
                    "type": "string",
                    "internalType": "string"
                }
            ],
            "outputs": [],
            "stateMutability": "nonpayable"
        },
        {
            "type": "function",
            "name": "userTokenIds",
            "inputs": [
                {
                    "name": "",
                    "type": "address",
                    "internalType": "address"
                },
                {
                    "name": "",
                    "type": "uint256",
                    "internalType": "uint256"
                }
            ],
            "outputs": [
                {
                    "name": "",
                    "type": "uint256",
                    "internalType": "uint256"
                }
            ],
            "stateMutability": "view"
        },
        {
            "type": "function",
            "name": "withdraw",
            "inputs": [],
            "outputs": [],
            "stateMutability": "nonpayable"
        },
        {
            "type": "event",
            "name": "Approval",
            "inputs": [
                {
                    "name": "owner",
                    "type": "address",
                    "indexed": true,
                    "internalType": "address"
                },
                {
                    "name": "approved",
                    "type": "address",
                    "indexed": true,
                    "internalType": "address"
                },
                {
                    "name": "tokenId",
                    "type": "uint256",
                    "indexed": true,
                    "internalType": "uint256"
                }
            ],
            "anonymous": false
        },
        {
            "type": "event",
            "name": "ApprovalForAll",
            "inputs": [
                {
                    "name": "owner",
                    "type": "address",
                    "indexed": true,
                    "internalType": "address"
                },
                {
                    "name": "operator",
                    "type": "address",
                    "indexed": true,
                    "internalType": "address"
                },
                {
                    "name": "approved",
                    "type": "bool",
                    "indexed": false,
                    "internalType": "bool"
                }
            ],
            "anonymous": false
        },
        {
            "type": "event",
            "name": "BatchMetadataUpdate",
            "inputs": [
                {
                    "name": "_fromTokenId",
                    "type": "uint256",
                    "indexed": false,
                    "internalType": "uint256"
                },
                {
                    "name": "_toTokenId",
                    "type": "uint256",
                    "indexed": false,
                    "internalType": "uint256"
                }
            ],
            "anonymous": false
        },
        {
            "type": "event",
            "name": "DomainMetadataUpdated",
            "inputs": [
                {
                    "name": "tokenId",
                    "type": "uint256",
                    "indexed": true,
                    "internalType": "uint256"
                },
                {
                    "name": "domain",
                    "type": "string",
                    "indexed": true,
                    "internalType": "string"
                },
                {
                    "name": "metadata",
                    "type": "string",
                    "indexed": false,
                    "internalType": "string"
                }
            ],
            "anonymous": false
        },
        {
            "type": "event",
            "name": "DomainNFTMinted",
            "inputs": [
                {
                    "name": "tokenId",
                    "type": "uint256",
                    "indexed": true,
                    "internalType": "uint256"
                },
                {
                    "name": "domain",
                    "type": "string",
                    "indexed": true,
                    "internalType": "string"
                },
                {
                    "name": "owner",
                    "type": "address",
                    "indexed": true,
                    "internalType": "address"
                },
                {
                    "name": "registeredAt",
                    "type": "uint256",
                    "indexed": false,
                    "internalType": "uint256"
                }
            ],
            "anonymous": false
        },
        {
            "type": "event",
            "name": "DomainNFTTransferred",
            "inputs": [
                {
                    "name": "tokenId",
                    "type": "uint256",
                    "indexed": true,
                    "internalType": "uint256"
                },
                {
                    "name": "domain",
                    "type": "string",
                    "indexed": true,
                    "internalType": "string"
                },
                {
                    "name": "from",
                    "type": "address",
                    "indexed": true,
                    "internalType": "address"
                },
                {
                    "name": "to",
                    "type": "address",
                    "indexed": false,
                    "internalType": "address"
                }
            ],
            "anonymous": false
        },
        {
            "type": "event",
            "name": "MetadataUpdate",
            "inputs": [
                {
                    "name": "_tokenId",
                    "type": "uint256",
                    "indexed": false,
                    "internalType": "uint256"
                }
            ],
            "anonymous": false
        },
        {
            "type": "event",
            "name": "OwnershipTransferred",
            "inputs": [
                {
                    "name": "previousOwner",
                    "type": "address",
                    "indexed": true,
                    "internalType": "address"
                },
                {
                    "name": "newOwner",
                    "type": "address",
                    "indexed": true,
                    "internalType": "address"
                }
            ],
            "anonymous": false
        },
        {
            "type": "event",
            "name": "PrimaryDomainSet",
            "inputs": [
                {
                    "name": "user",
                    "type": "address",
                    "indexed": true,
                    "internalType": "address"
                },
                {
                    "name": "tokenId",
                    "type": "uint256",
                    "indexed": true,
                    "internalType": "uint256"
                },
                {
                    "name": "domain",
                    "type": "string",
                    "indexed": true,
                    "internalType": "string"
                }
            ],
            "anonymous": false
        },
        {
            "type": "event",
            "name": "Transfer",
            "inputs": [
                {
                    "name": "from",
                    "type": "address",
                    "indexed": true,
                    "internalType": "address"
                },
                {
                    "name": "to",
                    "type": "address",
                    "indexed": true,
                    "internalType": "address"
                },
                {
                    "name": "tokenId",
                    "type": "uint256",
                    "indexed": true,
                    "internalType": "uint256"
                }
            ],
            "anonymous": false
        },
        {
            "type": "error",
            "name": "ERC721IncorrectOwner",
            "inputs": [
                {
                    "name": "sender",
                    "type": "address",
                    "internalType": "address"
                },
                {
                    "name": "tokenId",
                    "type": "uint256",
                    "internalType": "uint256"
                },
                {
                    "name": "owner",
                    "type": "address",
                    "internalType": "address"
                }
            ]
        },
        {
            "type": "error",
            "name": "ERC721InsufficientApproval",
            "inputs": [
                {
                    "name": "operator",
                    "type": "address",
                    "internalType": "address"
                },
                {
                    "name": "tokenId",
                    "type": "uint256",
                    "internalType": "uint256"
                }
            ]
        },
        {
            "type": "error",
            "name": "ERC721InvalidApprover",
            "inputs": [
                {
                    "name": "approver",
                    "type": "address",
                    "internalType": "address"
                }
            ]
        },
        {
            "type": "error",
            "name": "ERC721InvalidOperator",
            "inputs": [
                {
                    "name": "operator",
                    "type": "address",
                    "internalType": "address"
                }
            ]
        },
        {
            "type": "error",
            "name": "ERC721InvalidOwner",
            "inputs": [
                {
                    "name": "owner",
                    "type": "address",
                    "internalType": "address"
                }
            ]
        },
        {
            "type": "error",
            "name": "ERC721InvalidReceiver",
            "inputs": [
                {
                    "name": "receiver",
                    "type": "address",
                    "internalType": "address"
                }
            ]
        },
        {
            "type": "error",
            "name": "ERC721InvalidSender",
            "inputs": [
                {
                    "name": "sender",
                    "type": "address",
                    "internalType": "address"
                }
            ]
        },
        {
            "type": "error",
            "name": "ERC721NonexistentToken",
            "inputs": [
                {
                    "name": "tokenId",
                    "type": "uint256",
                    "internalType": "uint256"
                }
            ]
        },
        {
            "type": "error",
            "name": "OwnableInvalidOwner",
            "inputs": [
                {
                    "name": "owner",
                    "type": "address",
                    "internalType": "address"
                }
            ]
        },
        {
            "type": "error",
            "name": "OwnableUnauthorizedAccount",
            "inputs": [
                {
                    "name": "account",
                    "type": "address",
                    "internalType": "address"
                }
            ]
        },
        {
            "type": "error",
            "name": "ReentrancyGuardReentrantCall",
            "inputs": []
        }
    ],
    "bytecode": {
        "object": "0x60806040525f600f55348015610013575f5ffd5b50336040518060400160405280600e81526020016d12539288111bdb585a5b8813919560921b8152506040518060400160405280600581526020016424a725222760d91b815250815f908161006891906101a2565b50600161007582826101a2565b5050506001600160a01b0381166100a557604051631e4fbdf760e01b81525f600482015260240160405180910390fd5b6100ae816100b9565b50600160085561025c565b600780546001600160a01b038381166001600160a01b0319831681179093556040519116919082907f8be0079c531659141344cd1fd0a4f28419497f9722a3daafe3b4186f6b6457e0905f90a35050565b634e487b7160e01b5f52604160045260245ffd5b600181811c9082168061013257607f821691505b60208210810361015057634e487b7160e01b5f52602260045260245ffd5b50919050565b601f82111561019d57805f5260205f20601f840160051c8101602085101561017b5750805b601f840160051c820191505b8181101561019a575f8155600101610187565b50505b505050565b81516001600160401b038111156101bb576101bb61010a565b6101cf816101c9845461011e565b84610156565b6020601f821160018114610201575f83156101ea5750848201515b5f19600385901b1c1916600184901b17845561019a565b5f84815260208120601f198516915b828110156102305787850151825560209485019460019092019101610210565b508482101561024d57868401515f19600387901b60f8161c191681555b50505050600190811b01905550565b6130db806102695f395ff3fe608060405260043610610228575f3560e01c8063750104b411610129578063b5301ced116100a8578063c87b56dd1161006d578063c87b56dd146106a2578063cc17e15d146106c1578063e985e9c5146106e0578063f0eec37a146106ff578063f2fde38b1461071e575f5ffd5b8063b5301ced146105fa578063b88d4fde1461060e578063ba32122e1461062d578063bca6eec41461064c578063c320c72714610683575f5ffd5b806392ddf23c116100ee57806392ddf23c1461054557806395d89b41146105715780639af8b7aa14610585578063a22cb465146105a4578063b236f197146105c3575f5ffd5b8063750104b41461049f5780637908976b146104be5780637d760cac146104dd5780638afbab7c146105095780638da5cb5b14610528575f5ffd5b806329aa4f51116101b55780635f06b0eb1161017a5780635f06b0eb146104035780636352211e1461042e5780636f58a8821461044d57806370a082311461046c578063715018a61461048b575f5ffd5b806329aa4f511461037e57806332752b0914610392578063364460f3146103b15780633ccfd60b146103d057806342842e0e146103e4575f5ffd5b80630d537e8d116101fb5780630d537e8d146102d957806314c44e09146102f85780631e2ca61e1461031b57806323b872dd1461032e5780632661017b1461034d575f5ffd5b806301ffc9a71461022c57806306fdde0314610260578063081812fc14610281578063095ea7b3146102b8575b5f5ffd5b348015610237575f5ffd5b5061024b6102463660046128a5565b61073d565b60405190151581526020015b60405180910390f35b34801561026b575f5ffd5b5061027461074d565b60405161025791906128ee565b34801561028c575f5ffd5b506102a061029b366004612900565b6107dc565b6040516001600160a01b039091168152602001610257565b3480156102c3575f5ffd5b506102d76102d2366004612932565b610803565b005b3480156102e4575f5ffd5b506102d76102f3366004612900565b610812565b348015610303575f5ffd5b5061030d600f5481565b604051908152602001610257565b6102d7610329366004612a03565b6108ff565b348015610339575f5ffd5b506102d7610348366004612a91565b610cc1565b348015610358575f5ffd5b5061036c610367366004612900565b610d4a565b60405161025796959493929190612acb565b348015610389575f5ffd5b5061030d600381565b34801561039d575f5ffd5b5061024b6103ac366004612b2d565b610f26565b3480156103bc575f5ffd5b506102a06103cb366004612b2d565b610fa2565b3480156103db575f5ffd5b506102d761100a565b3480156103ef575f5ffd5b506102d76103fe366004612a91565b61104b565b34801561040e575f5ffd5b5061030d61041d366004612b5f565b600e6020525f908152604090205481565b348015610439575f5ffd5b506102a0610448366004612900565b611065565b348015610458575f5ffd5b506102d7610467366004612900565b61106f565b348015610477575f5ffd5b5061030d610486366004612b5f565b6110c4565b348015610496575f5ffd5b506102d7611109565b3480156104aa575f5ffd5b506102d76104b9366004612b78565b61111c565b3480156104c9575f5ffd5b506102d76104d8366004612bbc565b611218565b3480156104e8575f5ffd5b506104fc6104f7366004612900565b611523565b6040516102579190612c07565b348015610514575f5ffd5b506102d7610523366004612900565b611796565b348015610533575f5ffd5b506007546001600160a01b03166102a0565b348015610550575f5ffd5b5061056461055f366004612b5f565b6117e8565b6040516102579190612c89565b34801561057c575f5ffd5b50610274611851565b348015610590575f5ffd5b5061027461059f366004612b5f565b611860565b3480156105af575f5ffd5b506102d76105be366004612ccb565b61193b565b3480156105ce575f5ffd5b5061030d6105dd366004612b2d565b8051602081830181018051600c8252928201919093012091525481565b348015610605575f5ffd5b5061030d601e81565b348015610619575f5ffd5b506102d7610628366004612d04565b611946565b348015610638575f5ffd5b5061030d610647366004612b2d565b61195e565b348015610657575f5ffd5b5061030d610666366004612b2d565b8051602081830181018051600b8252928201919093012091525481565b34801561068e575f5ffd5b506102d761069d366004612900565b6119da565b3480156106ad575f5ffd5b506102746106bc366004612900565b6119e7565b3480156106cc575f5ffd5b5061030d6106db366004612932565b6119f2565b3480156106eb575f5ffd5b5061024b6106fa366004612d7b565b611a1d565b34801561070a575f5ffd5b5061030d610719366004612b2d565b611a4a565b348015610729575f5ffd5b506102d7610738366004612b5f565b611aa8565b5f61074782611ae2565b92915050565b60605f805461075b90612da3565b80601f016020809104026020016040519081016040528092919081815260200182805461078790612da3565b80156107d25780601f106107a9576101008083540402835291602001916107d2565b820191905f5260205f20905b8154815290600101906020018083116107b557829003601f168201915b5050505050905090565b5f6107e682611b06565b505f828152600460205260409020546001600160a01b0316610747565b61080e828233611b3d565b5050565b5f61081c82611b4a565b6001600160a01b03160361084b5760405162461bcd60e51b815260040161084290612ddb565b60405180910390fd5b3361085582611065565b6001600160a01b03161461089d5760405162461bcd60e51b815260206004820152600f60248201526e2737ba103a37b5b2b71037bbb732b960891b6044820152606401610842565b335f908152600e60209081526040808320849055838352600a9091529081902090516108c99190612e09565b60405190819003812090829033907f1833e702c6de975c9005d56f858c258def9c7dba4364b1c2c08623d366c8b9cf905f90a450565b610907611b66565b600f543410156109595760405162461bcd60e51b815260206004820152601d60248201527f496e73756666696369656e7420726567697374726174696f6e206665650000006044820152606401610842565b61096283611b90565b6109a65760405162461bcd60e51b8152602060048201526015602482015274092dcecc2d8d2c840c8dedac2d2dc40e6eaccccd2f605b1b6044820152606401610842565b5f8251116109e85760405162461bcd60e51b815260206004820152600f60248201526e125b9d985b1a5908139190c8155251608a1b6044820152606401610842565b6109f182611d1f565b15610a3e5760405162461bcd60e51b815260206004820152601b60248201527f4e464320616c726561647920626f756e6420746f20646f6d61696e00000000006044820152606401610842565b5f83604051602001610a509190612e91565b60405160208183030381529060405290505f81604051602001610a739190612eaa565b6040516020818303038152906040529050610a8d81611d48565b15610ada5760405162461bcd60e51b815260206004820152601960248201527f446f6d61696e20616c72656164792072656769737465726564000000000000006044820152606401610842565b60098054905f610ae983612edd565b90915550506009546040805160c0810182528381523360208083019190915281830188905242606083015260016080830152825180820184525f80825260a0840191909152848152600a9091529190912081518190610b489082612f39565b5060208201516001820180546001600160a01b0319166001600160a01b0390921691909117905560408201516002820190610b839082612f39565b5060608201516003820155608082015160048201805460ff191691151591909117905560a08201516005820190610bba9082612f39565b5090505080600b83604051610bcf9190612ff4565b90815260200160405180910390208190555080600c86604051610bf29190612ff4565b908152604080516020928190038301902092909255335f818152600d8352838120805460018101825590825283822001859055908152600e909152908120549003610c4957335f908152600e602052604090208190555b610c533382611d59565b610c5d8185611d72565b6040513390610c6d908490612ff4565b6040518091039020827f2a81f1813f9c87ff8a1fbe001d7d1c81c68f55a834702a5ca7190df5df0d311642604051610ca791815260200190565b60405180910390a4505050610cbc6001600855565b505050565b6001600160a01b038216610cea57604051633250574960e11b81525f6004820152602401610842565b5f610cf6838333611dc1565b9050836001600160a01b0316816001600160a01b031614610d44576040516364283d7b60e01b81526001600160a01b0380861660048301526024820184905282166044820152606401610842565b50505050565b600a6020525f9081526040902080548190610d6490612da3565b80601f0160208091040260200160405190810160405280929190818152602001828054610d9090612da3565b8015610ddb5780601f10610db257610100808354040283529160200191610ddb565b820191905f5260205f20905b815481529060010190602001808311610dbe57829003601f168201915b505050600184015460028501805494956001600160a01b03909216949193509150610e0590612da3565b80601f0160208091040260200160405190810160405280929190818152602001828054610e3190612da3565b8015610e7c5780601f10610e5357610100808354040283529160200191610e7c565b820191905f5260205f20905b815481529060010190602001808311610e5f57829003601f168201915b50505050600383015460048401546005850180549495929460ff909216935090610ea590612da3565b80601f0160208091040260200160405190810160405280929190818152602001828054610ed190612da3565b8015610f1c5780601f10610ef357610100808354040283529160200191610f1c565b820191905f5260205f20905b815481529060010190602001808311610eff57829003601f168201915b5050505050905086565b5f610f3082611b90565b610f3b57505f919050565b5f82604051602001610f4d9190612e91565b60405160208183030381529060405290505f81604051602001610f709190612eaa565b6040516020818303038152906040529050610f8a81611d48565b1580610f9a5750610f9a81611e52565b949350505050565b5f610fac82611d48565b1580610fbc5750610fbc82611e52565b15610fc857505f919050565b5f600b83604051610fd99190612ff4565b9081526040805160209281900383019020545f908152600a9092529020600101546001600160a01b03169392505050565b611012611e8e565b6007546040516001600160a01b03909116904780156108fc02915f818181858888f19350505050158015611048573d5f5f3e3d5ffd5b50565b610cbc83838360405180602001604052805f815250611946565b5f61074782611b06565b611077611e8e565b5f61108182611b4a565b6001600160a01b0316036110a75760405162461bcd60e51b815260040161084290612ddb565b5f908152600a60205260409020600401805460ff19166001179055565b5f6001600160a01b0382166110ee576040516322718ad960e21b81525f6004820152602401610842565b506001600160a01b03165f9081526003602052604090205490565b611111611e8e565b61111a5f611ebb565b565b5f61112683611b4a565b6001600160a01b03160361114c5760405162461bcd60e51b815260040161084290612ddb565b3361115683611065565b6001600160a01b03161461119e5760405162461bcd60e51b815260206004820152600f60248201526e2737ba103a37b5b2b71037bbb732b960891b6044820152606401610842565b5f828152600a602052604090206005016111b88282612f39565b505f828152600a60205260409081902090516111d49190612e09565b6040518091039020827f219d2dab803787033f8713df7150f14f172a1aa66b584e0a7be792d7e26730248360405161120c91906128ee565b60405180910390a35050565b611220611b66565b6001600160a01b0381166112765760405162461bcd60e51b815260206004820152601960248201527f496e76616c6964206e6577206f776e65722061646472657373000000000000006044820152606401610842565b5f600c836040516112879190612ff4565b9081526020016040518091039020549050805f036112d75760405162461bcd60e51b815260206004820152600d60248201526c139190c81b9bdd08199bdd5b99609a1b6044820152606401610842565b5f6112e182611b4a565b6001600160a01b0316036113375760405162461bcd60e51b815260206004820152601960248201527f446f6d61696e204e465420646f6573206e6f74206578697374000000000000006044820152606401610842565b5f818152600a602052604081209061134e83611065565b9050336001600160a01b038216146113a85760405162461bcd60e51b815260206004820152601e60248201527f4f6e6c7920646f6d61696e206f776e65722063616e207472616e7366657200006044820152606401610842565b600c856040516113b89190612ff4565b90815260200160405180910390205f905560405180602001604052805f8152508260020190816113e89190612f39565b5060048201805460ff19169055611400818585611f0c565b6001820180546001600160a01b0319166001600160a01b0386161790556114278184611fb9565b6001600160a01b038085165f908152600d602090815260408083208054600181018255908452828420018790559284168252600e9052205483900361147f576001600160a01b0381165f908152600e60205260408120555b6001600160a01b0384165f908152600e602052604081205490036114b8576001600160a01b0384165f908152600e602052604090208390555b6040516001600160a01b038216906114d1908490612e09565b6040519081900381206001600160a01b03871682529085907f070ecc15c634e51350b3fd29489e2ca3690d9d1e5995308091afea2249bdcfe79060200160405180910390a450505061080e6001600855565b6115646040518060c00160405280606081526020015f6001600160a01b03168152602001606081526020015f81526020015f15158152602001606081525090565b5f61156e83611b4a565b6001600160a01b0316036115945760405162461bcd60e51b815260040161084290612ddb565b5f828152600a602052604090819020815160c081019092528054829082906115bb90612da3565b80601f01602080910402602001604051908101604052809291908181526020018280546115e790612da3565b80156116325780601f1061160957610100808354040283529160200191611632565b820191905f5260205f20905b81548152906001019060200180831161161557829003601f168201915b505050918352505060018201546001600160a01b0316602082015260028201805460409092019161166290612da3565b80601f016020809104026020016040519081016040528092919081815260200182805461168e90612da3565b80156116d95780601f106116b0576101008083540402835291602001916116d9565b820191905f5260205f20905b8154815290600101906020018083116116bc57829003601f168201915b505050918352505060038201546020820152600482015460ff161515604082015260058201805460609092019161170f90612da3565b80601f016020809104026020016040519081016040528092919081815260200182805461173b90612da3565b80156117865780601f1061175d57610100808354040283529160200191611786565b820191905f5260205f20905b81548152906001019060200180831161176957829003601f168201915b5050505050815250509050919050565b61179e611e8e565b5f6117a882611b4a565b6001600160a01b0316036117ce5760405162461bcd60e51b815260040161084290612ddb565b5f908152600a60205260409020600401805460ff19169055565b6001600160a01b0381165f908152600d602090815260409182902080548351818402810184019094528084526060939283018282801561184557602002820191905f5260205f20905b815481526020019060010190808311611831575b50505050509050919050565b60606001805461075b90612da3565b6001600160a01b0381165f908152600e602052604090205460609080158061188557505f5b1561189f57505060408051602081019091525f8152919050565b5f818152600a6020526040902080546118b790612da3565b80601f01602080910402602001604051908101604052809291908181526020018280546118e390612da3565b801561192e5780601f106119055761010080835404028352916020019161192e565b820191905f5260205f20905b81548152906001019060200180831161191157829003601f168201915b5050505050915050919050565b61080e338383612073565b611951848484610cc1565b610d443385858585612111565b5f61196882611d1f565b6119b45760405162461bcd60e51b815260206004820152601760248201527f4e4643206e6f7420626f756e6420746f20646f6d61696e0000000000000000006044820152606401610842565b600c826040516119c49190612ff4565b9081526020016040518091039020549050919050565b6119e2611e8e565b600f55565b606061074782612239565b600d602052815f5260405f208181548110611a0b575f80fd5b905f5260205f20015f91509150505481565b6001600160a01b039182165f90815260056020908152604080832093909416825291909152205460ff1690565b5f611a5482611d48565b611a985760405162461bcd60e51b8152602060048201526015602482015274111bdb585a5b88191bd95cc81b9bdd08195e1a5cdd605a1b6044820152606401610842565b600b826040516119c49190612ff4565b611ab0611e8e565b6001600160a01b038116611ad957604051631e4fbdf760e01b81525f6004820152602401610842565b61104881611ebb565b5f6001600160e01b03198216632483248360e11b148061074757506107478261233c565b5f5f611b1183611b4a565b90506001600160a01b03811661074757604051637e27328960e01b815260048101849052602401610842565b610cbc838383600161238b565b5f818152600260205260408120546001600160a01b0316610747565b600260085403611b8957604051633ee5aeb560e01b815260040160405180910390fd5b6002600855565b80515f9082906001811080611baf5750611bac6005601e612fff565b81115b15611bbd57505f9392505050565b5f5b81811015611d14575f838281518110611bda57611bda613012565b01602001516001600160f81b0319169050606160f81b8110801590611c0d5750603d60f91b6001600160f81b0319821611155b80611c3f5750600360fc1b6001600160f81b0319821610801590611c3f5750603960f81b6001600160f81b0319821611155b80611c575750602d60f81b6001600160f81b03198216145b611c6657505f95945050505050565b811580611c7c5750611c79600184612fff565b82145b8015611c955750602d60f81b6001600160f81b03198216145b15611ca557505f95945050505050565b5f82118015611cc15750602d60f81b6001600160f81b03198216145b8015611cfb575083611cd4600184612fff565b81518110611ce457611ce4613012565b6020910101516001600160f81b031916602d60f81b145b15611d0b57505f95945050505050565b50600101611bbf565b506001949350505050565b5f600c82604051611d309190612ff4565b90815260405190819003602001902054151592915050565b5f600b82604051611d309190612ff4565b61080e828260405180602001604052805f81525061248f565b5f828152600660205260409020611d898282612f39565b506040518281527ff8e1a15aba9398e019f0b49df1a4fde98ee17ae345cb5f6b5e2c27f5033e8ce79060200160405180910390a15050565b5f5f611dcc84611b4a565b90505f611dda8686866124a6565b90506001600160a01b03821615801590611dfc57506001600160a01b03861615155b8015611e1a5750856001600160a01b0316826001600160a01b031614155b15611e49575f858152600a6020526040902060010180546001600160a01b0319166001600160a01b0388161790555b95945050505050565b5f5f600b83604051611e649190612ff4565b9081526020016040518091039020549050805f03611e855750600192915050565b5f5b9392505050565b6007546001600160a01b0316331461111a5760405163118cdaa760e01b8152336004820152602401610842565b600780546001600160a01b038381166001600160a01b0319831681179093556040519116919082907f8be0079c531659141344cd1fd0a4f28419497f9722a3daafe3b4186f6b6457e0905f90a35050565b6001600160a01b038216611f3557604051633250574960e11b81525f6004820152602401610842565b5f611f4183835f611dc1565b90506001600160a01b038116611f6d57604051637e27328960e01b815260048101839052602401610842565b836001600160a01b0316816001600160a01b031614610d44576040516364283d7b60e01b81526001600160a01b0380861660048301526024820184905282166044820152606401610842565b6001600160a01b0382165f908152600d60205260408120905b8154811015610d445782828281548110611fee57611fee613012565b905f5260205f2001540361206b578154829061200c90600190612fff565b8154811061201c5761201c613012565b905f5260205f20015482828154811061203757612037613012565b905f5260205f2001819055508180548061205357612053613026565b600190038181905f5260205f20015f90559055610d44565b600101611fd2565b6001600160a01b0382166120a557604051630b61174360e31b81526001600160a01b0383166004820152602401610842565b6001600160a01b038381165f81815260056020908152604080832094871680845294825291829020805460ff191686151590811790915591519182527f17307eab39ab6107e8899845ad3d59bd9653f200f220920489ca2b5937696c31910160405180910390a3505050565b6001600160a01b0383163b1561223257604051630a85bd0160e11b81526001600160a01b0384169063150b7a029061215390889088908790879060040161303a565b6020604051808303815f875af192505050801561218d575060408051601f3d908101601f1916820190925261218a91810190613076565b60015b6121f4573d8080156121ba576040519150601f19603f3d011682016040523d82523d5f602084013e6121bf565b606091505b5080515f036121ec57604051633250574960e11b81526001600160a01b0385166004820152602401610842565b805160208201fd5b6001600160e01b03198116630a85bd0160e11b1461223057604051633250574960e11b81526001600160a01b0385166004820152602401610842565b505b5050505050565b606061224482611b06565b505f828152600660205260408120805461225d90612da3565b80601f016020809104026020016040519081016040528092919081815260200182805461228990612da3565b80156122d45780601f106122ab576101008083540402835291602001916122d4565b820191905f5260205f20905b8154815290600101906020018083116122b757829003601f168201915b505050505090505f6122f060408051602081019091525f815290565b905080515f03612301575092915050565b81511561233357808260405160200161231b929190613091565b60405160208183030381529060405292505050919050565b610f9a84612593565b5f6001600160e01b031982166380ac58cd60e01b148061236c57506001600160e01b03198216635b5e139f60e01b145b8061074757506301ffc9a760e01b6001600160e01b0319831614610747565b808061239f57506001600160a01b03821615155b15612460575f6123ae84611b06565b90506001600160a01b038316158015906123da5750826001600160a01b0316816001600160a01b031614155b80156123ed57506123eb8184611a1d565b155b156124165760405163a9fbf51f60e01b81526001600160a01b0384166004820152602401610842565b811561245e5783856001600160a01b0316826001600160a01b03167f8c5be1e5ebec7d5bd14f71427d1e84f3dd0314c0f7b2291e5b200ac8c7c3b92560405160405180910390a45b505b50505f90815260046020526040902080546001600160a01b0319166001600160a01b0392909216919091179055565b6124998383612603565b610cbc335f858585612111565b5f5f6124b184611b4a565b90506001600160a01b038316156124cd576124cd818486612664565b6001600160a01b03811615612507576124e85f855f5f61238b565b6001600160a01b0381165f90815260036020526040902080545f190190555b6001600160a01b03851615612535576001600160a01b0385165f908152600360205260409020805460010190555b5f8481526002602052604080822080546001600160a01b0319166001600160a01b0389811691821790925591518793918516917fddf252ad1be2c89b69c2b068fc378daa952ba7f163c4a11628f55a4df523b3ef91a4949350505050565b606061259e82611b06565b505f6125b460408051602081019091525f815290565b90505f8151116125d25760405180602001604052805f815250611e87565b806125dc846126c8565b6040516020016125ed929190613091565b6040516020818303038152906040529392505050565b6001600160a01b03821661262c57604051633250574960e11b81525f6004820152602401610842565b5f61263883835f611dc1565b90506001600160a01b03811615610cbc576040516339e3563760e11b81525f6004820152602401610842565b61266f838383612758565b610cbc576001600160a01b03831661269d57604051637e27328960e01b815260048101829052602401610842565b60405163177e802f60e01b81526001600160a01b038316600482015260248101829052604401610842565b60605f6126d4836127b9565b60010190505f8167ffffffffffffffff8111156126f3576126f361295a565b6040519080825280601f01601f19166020018201604052801561271d576020820181803683370190505b5090508181016020015b5f19016f181899199a1a9b1b9c1cb0b131b232b360811b600a86061a8153600a850494508461272757509392505050565b5f6001600160a01b03831615801590610f9a5750826001600160a01b0316846001600160a01b0316148061279157506127918484611a1d565b80610f9a5750505f908152600460205260409020546001600160a01b03908116911614919050565b5f8072184f03e93ff9f4daa797ed6e38ed64bf6a1f0160401b83106127f75772184f03e93ff9f4daa797ed6e38ed64bf6a1f0160401b830492506040015b6d04ee2d6d415b85acef81000000008310612823576d04ee2d6d415b85acef8100000000830492506020015b662386f26fc10000831061284157662386f26fc10000830492506010015b6305f5e1008310612859576305f5e100830492506008015b612710831061286d57612710830492506004015b6064831061287f576064830492506002015b600a83106107475760010192915050565b6001600160e01b031981168114611048575f5ffd5b5f602082840312156128b5575f5ffd5b8135611e8781612890565b5f81518084528060208401602086015e5f602082860101526020601f19601f83011685010191505092915050565b602081525f611e8760208301846128c0565b5f60208284031215612910575f5ffd5b5035919050565b80356001600160a01b038116811461292d575f5ffd5b919050565b5f5f60408385031215612943575f5ffd5b61294c83612917565b946020939093013593505050565b634e487b7160e01b5f52604160045260245ffd5b5f5f67ffffffffffffffff8411156129885761298861295a565b50604051601f19601f85018116603f0116810181811067ffffffffffffffff821117156129b7576129b761295a565b6040528381529050808284018510156129ce575f5ffd5b838360208301375f60208583010152509392505050565b5f82601f8301126129f4575f5ffd5b611e878383356020850161296e565b5f5f5f60608486031215612a15575f5ffd5b833567ffffffffffffffff811115612a2b575f5ffd5b612a37868287016129e5565b935050602084013567ffffffffffffffff811115612a53575f5ffd5b612a5f868287016129e5565b925050604084013567ffffffffffffffff811115612a7b575f5ffd5b612a87868287016129e5565b9150509250925092565b5f5f5f60608486031215612aa3575f5ffd5b612aac84612917565b9250612aba60208501612917565b929592945050506040919091013590565b60c081525f612add60c08301896128c0565b6001600160a01b03881660208401528281036040840152612afe81886128c0565b9050856060840152841515608084015282810360a0840152612b2081856128c0565b9998505050505050505050565b5f60208284031215612b3d575f5ffd5b813567ffffffffffffffff811115612b53575f5ffd5b610f9a848285016129e5565b5f60208284031215612b6f575f5ffd5b611e8782612917565b5f5f60408385031215612b89575f5ffd5b82359150602083013567ffffffffffffffff811115612ba6575f5ffd5b612bb2858286016129e5565b9150509250929050565b5f5f60408385031215612bcd575f5ffd5b823567ffffffffffffffff811115612be3575f5ffd5b612bef858286016129e5565b925050612bfe60208401612917565b90509250929050565b602081525f825160c06020840152612c2260e08401826128c0565b60208501516001600160a01b0316604085810191909152850151848203601f19016060860152909150612c5582826128c0565b915050606084015160808401526080840151151560a084015260a0840151601f198483030160c0850152611e4982826128c0565b602080825282518282018190525f918401906040840190835b81811015612cc0578351835260209384019390920191600101612ca2565b509095945050505050565b5f5f60408385031215612cdc575f5ffd5b612ce583612917565b915060208301358015158114612cf9575f5ffd5b809150509250929050565b5f5f5f5f60808587031215612d17575f5ffd5b612d2085612917565b9350612d2e60208601612917565b925060408501359150606085013567ffffffffffffffff811115612d50575f5ffd5b8501601f81018713612d60575f5ffd5b612d6f8782356020840161296e565b91505092959194509250565b5f5f60408385031215612d8c575f5ffd5b612d9583612917565b9150612bfe60208401612917565b600181811c90821680612db757607f821691505b602082108103612dd557634e487b7160e01b5f52602260045260245ffd5b50919050565b602080825260149082015273151bdad95b88191bd95cc81b9bdd08195e1a5cdd60621b604082015260600190565b5f5f8354612e1681612da3565b600182168015612e2d5760018114612e4257612e6f565b60ff1983168652811515820286019350612e6f565b865f5260205f205f5b83811015612e6757815488820152600190910190602001612e4b565b505081860193505b509195945050505050565b5f81518060208401855e5f93019283525090919050565b64616476782d60d81b81525f611e876005830184612e7a565b5f612eb58284612e7a565b631734b73560e11b81526004019392505050565b634e487b7160e01b5f52601160045260245ffd5b5f60018201612eee57612eee612ec9565b5060010190565b601f821115610cbc57805f5260205f20601f840160051c81016020851015612f1a5750805b601f840160051c820191505b81811015612232575f8155600101612f26565b815167ffffffffffffffff811115612f5357612f5361295a565b612f6781612f618454612da3565b84612ef5565b6020601f821160018114612f99575f8315612f825750848201515b5f19600385901b1c1916600184901b178455612232565b5f84815260208120601f198516915b82811015612fc85787850151825560209485019460019092019101612fa8565b5084821015612fe557868401515f19600387901b60f8161c191681555b50505050600190811b01905550565b5f611e878284612e7a565b8181038181111561074757610747612ec9565b634e487b7160e01b5f52603260045260245ffd5b634e487b7160e01b5f52603160045260245ffd5b6001600160a01b03858116825284166020820152604081018390526080606082018190525f9061306c908301846128c0565b9695505050505050565b5f60208284031215613086575f5ffd5b8151611e8781612890565b5f610f9a61309f8386612e7a565b84612e7a56fea26469706673582212208ca4c059470a28aa6d21ef9e5eab4ed042d269cea630c8346c9ddfcf832cedfc64736f6c634300081e0033",
        "linkReferences": {}
    },
    "methodIdentifiers": {
        "MAX_DOMAIN_LENGTH()": "b5301ced",
        "MIN_DOMAIN_LENGTH()": "29aa4f51",
        "approve(address,uint256)": "095ea7b3",
        "balanceOf(address)": "70a08231",
        "domainInfos(uint256)": "2661017b",
        "domainToTokenId(string)": "bca6eec4",
        "emergencyFreezeDomain(uint256)": "8afbab7c",
        "getApproved(uint256)": "081812fc",
        "getDomainInfo(uint256)": "7d760cac",
        "getTokenIdByDomain(string)": "f0eec37a",
        "getTokenIdByNFC(string)": "ba32122e",
        "getUserTokenIds(address)": "92ddf23c",
        "isApprovedForAll(address,address)": "e985e9c5",
        "isDomainAvailable(string)": "32752b09",
        "mintDomainNFT(string,string,string)": "1e2ca61e",
        "name()": "06fdde03",
        "nfcToTokenId(string)": "b236f197",
        "owner()": "8da5cb5b",
        "ownerOf(uint256)": "6352211e",
        "primaryDomainTokenId(address)": "5f06b0eb",
        "registrationFee()": "14c44e09",
        "renounceOwnership()": "715018a6",
        "resolveDomain(string)": "364460f3",
        "reverseResolve(address)": "9af8b7aa",
        "safeTransferFrom(address,address,uint256)": "42842e0e",
        "safeTransferFrom(address,address,uint256,bytes)": "b88d4fde",
        "setApprovalForAll(address,bool)": "a22cb465",
        "setPrimaryDomain(uint256)": "0d537e8d",
        "setRegistrationFee(uint256)": "c320c727",
        "supportsInterface(bytes4)": "01ffc9a7",
        "symbol()": "95d89b41",
        "tokenURI(uint256)": "c87b56dd",
        "transferFrom(address,address,uint256)": "23b872dd",
        "transferOwnership(address)": "f2fde38b",
        "unbindAndTransferDomain(string,address)": "7908976b",
        "unfreezeDomain(uint256)": "6f58a882",
        "updateDomainMetadata(uint256,string)": "750104b4",
        "userTokenIds(address,uint256)": "cc17e15d",
        "withdraw()": "3ccfd60b"
    },
    "id": 42
}