{"abi":[{"type":"constructor","inputs":[],"stateMutability":"nonpayable"},{"type":"function","name":"authorizeOperator","inputs":[{"name":"operatorId","type":"string","internalType":"string"},{"name":"authorized","type":"bool","internalType":"bool"}],"outputs":[],"stateMutability":"nonpayable"},{"type":"function","name":"authorizedOperators","inputs":[{"name":"","type":"string","internalType":"string"}],"outputs":[{"name":"","type":"bool","internalType":"bool"}],"stateMutability":"view"},{"type":"function","name":"batchDetectBlankCards","inputs":[{"name":"nfcUIDs","type":"string[]","internalType":"string[]"},{"name":"walletAddresses","type":"address[]","internalType":"address[]"}],"outputs":[{"name":"","type":"uint256","internalType":"uint256"}],"stateMutability":"nonpayable"},{"type":"function","name":"catNFTContract","inputs":[],"outputs":[{"name":"","type":"address","internalType":"contract ICatNFT"}],"stateMutability":"view"},{"type":"function","name":"detectAndBindBlankCard","inputs":[{"name":"nfcUID","type":"string","internalType":"string"},{"name":"newWalletAddress","type":"address","internalType":"address"}],"outputs":[{"name":"","type":"bool","internalType":"bool"}],"stateMutability":"nonpayable"},{"type":"function","name":"domainNFTContract","inputs":[],"outputs":[{"name":"","type":"address","internalType":"contract IINJDomainNFT"}],"stateMutability":"view"},{"type":"function","name":"emergencyUnbindNFCWallet","inputs":[{"name":"nfcUID","type":"string","internalType":"string"}],"outputs":[],"stateMutability":"nonpayable"},{"type":"function","name":"getNFCBinding","inputs":[{"name":"nfcUID","type":"string","internalType":"string"}],"outputs":[{"name":"","type":"tuple","internalType":"struct NFCWalletRegistry.NFCBinding","components":[{"name":"walletAddress","type":"address","internalType":"address"},{"name":"boundAt","type":"uint256","internalType":"uint256"},{"name":"unboundAt","type":"uint256","internalType":"uint256"},{"name":"isActive","type":"bool","internalType":"bool"},{"name":"isBlank","type":"bool","internalType":"bool"},{"name":"metadata","type":"string","internalType":"string"}]}],"stateMutability":"view"},{"type":"function","name":"getNFCHistory","inputs":[{"name":"nfcUID","type":"string","internalType":"string"}],"outputs":[{"name":"","type":"tuple[]","internalType":"struct NFCWalletRegistry.NFCBinding[]","components":[{"name":"walletAddress","type":"address","internalType":"address"},{"name":"boundAt","type":"uint256","internalType":"uint256"},{"name":"unboundAt","type":"uint256","internalType":"uint256"},{"name":"isActive","type":"bool","internalType":"bool"},{"name":"isBlank","type":"bool","internalType":"bool"},{"name":"metadata","type":"string","internalType":"string"}]}],"stateMutability":"view"},{"type":"function","name":"getWalletNFC","inputs":[{"name":"walletAddress","type":"address","internalType":"address"}],"outputs":[{"name":"","type":"string","internalType":"string"}],"stateMutability":"view"},{"type":"function","name":"initializeBlankCard","inputs":[{"name":"nfcUID","type":"string","internalType":"string"},{"name":"initMetadata","type":"string","internalType":"string"}],"outputs":[],"stateMutability":"nonpayable"},{"type":"function","name":"isAuthorizedOperator","inputs":[{"name":"operatorId","type":"string","internalType":"string"}],"outputs":[{"name":"","type":"bool","internalType":"bool"}],"stateMutability":"view"},{"type":"function","name":"isBlankCard","inputs":[{"name":"nfcUID","type":"string","internalType":"string"}],"outputs":[{"name":"","type":"bool","internalType":"bool"}],"stateMutability":"view"},{"type":"function","name":"isNFCBound","inputs":[{"name":"nfcUID","type":"string","internalType":"string"}],"outputs":[{"name":"","type":"bool","internalType":"bool"}],"stateMutability":"view"},{"type":"function","name":"isWalletBound","inputs":[{"name":"walletAddress","type":"address","internalType":"address"}],"outputs":[{"name":"","type":"bool","internalType":"bool"}],"stateMutability":"view"},{"type":"function","name":"nfcBindings","inputs":[{"name":"","type":"string","internalType":"string"}],"outputs":[{"name":"walletAddress","type":"address","internalType":"address"},{"name":"boundAt","type":"uint256","internalType":"uint256"},{"name":"unboundAt","type":"uint256","internalType":"uint256"},{"name":"isActive","type":"bool","internalType":"bool"},{"name":"isBlank","type":"bool","internalType":"bool"},{"name":"metadata","type":"string","internalType":"string"}],"stateMutability":"view"},{"type":"function","name":"nfcHistory","inputs":[{"name":"","type":"string","internalType":"string"},{"name":"","type":"uint256","internalType":"uint256"}],"outputs":[{"name":"walletAddress","type":"address","internalType":"address"},{"name":"boundAt","type":"uint256","internalType":"uint256"},{"name":"unboundAt","type":"uint256","internalType":"uint256"},{"name":"isActive","type":"bool","internalType":"bool"},{"name":"isBlank","type":"bool","internalType":"bool"},{"name":"metadata","type":"string","internalType":"string"}],"stateMutability":"view"},{"type":"function","name":"owner","inputs":[],"outputs":[{"name":"","type":"address","internalType":"address"}],"stateMutability":"view"},{"type":"function","name":"renounceOwnership","inputs":[],"outputs":[],"stateMutability":"nonpayable"},{"type":"function","name":"setCatNFTContract","inputs":[{"name":"_catNFTContract","type":"address","internalType":"address"}],"outputs":[],"stateMutability":"nonpayable"},{"type":"function","name":"setDomainNFTContract","inputs":[{"name":"_domainNFTContract","type":"address","internalType":"address"}],"outputs":[],"stateMutability":"nonpayable"},{"type":"function","name":"totalBindings","inputs":[],"outputs":[{"name":"","type":"uint256","internalType":"uint256"}],"stateMutability":"view"},{"type":"function","name":"totalUnbindings","inputs":[],"outputs":[{"name":"","type":"uint256","internalType":"uint256"}],"stateMutability":"view"},{"type":"function","name":"transferOwnership","inputs":[{"name":"newOwner","type":"address","internalType":"address"}],"outputs":[],"stateMutability":"nonpayable"},{"type":"function","name":"unbindNFCWallet","inputs":[{"name":"nfcUID","type":"string","internalType":"string"},{"name":"ownerSignature","type":"bytes","internalType":"bytes"}],"outputs":[],"stateMutability":"nonpayable"},{"type":"function","name":"updateNFCMetadata","inputs":[{"name":"nfcUID","type":"string","internalType":"string"},{"name":"metadata","type":"string","internalType":"string"}],"outputs":[],"stateMutability":"nonpayable"},{"type":"function","name":"walletToNFC","inputs":[{"name":"","type":"address","internalType":"address"}],"outputs":[{"name":"","type":"string","internalType":"string"}],"stateMutability":"view"},{"type":"event","name":"BlankCardDetected","inputs":[{"name":"nfcUID","type":"string","indexed":true,"internalType":"string"},{"name":"newWallet","type":"address","indexed":true,"internalType":"address"},{"name":"timestamp","type":"uint256","indexed":false,"internalType":"uint256"}],"anonymous":false},{"type":"event","name":"CardInitialized","inputs":[{"name":"nfcUID","type":"string","indexed":true,"internalType":"string"},{"name":"walletAddress","type":"address","indexed":true,"internalType":"address"},{"name":"timestamp","type":"uint256","indexed":false,"internalType":"uint256"}],"anonymous":false},{"type":"event","name":"NFCCardReset","inputs":[{"name":"nfcUID","type":"string","indexed":true,"internalType":"string"},{"name":"previousWallet","type":"address","indexed":true,"internalType":"address"},{"name":"resetAt","type":"uint256","indexed":false,"internalType":"uint256"}],"anonymous":false},{"type":"event","name":"NFCMetadataUpdated","inputs":[{"name":"nfcUID","type":"string","indexed":true,"internalType":"string"},{"name":"metadata","type":"string","indexed":false,"internalType":"string"}],"anonymous":false},{"type":"event","name":"NFCWalletBound","inputs":[{"name":"nfcUID","type":"string","indexed":true,"internalType":"string"},{"name":"walletAddress","type":"address","indexed":true,"internalType":"address"},{"name":"boundAt","type":"uint256","indexed":false,"internalType":"uint256"}],"anonymous":false},{"type":"event","name":"NFCWalletUnbound","inputs":[{"name":"nfcUID","type":"string","indexed":true,"internalType":"string"},{"name":"walletAddress","type":"address","indexed":true,"internalType":"address"},{"name":"unboundAt","type":"uint256","indexed":false,"internalType":"uint256"},{"name":"cardReset","type":"bool","indexed":false,"internalType":"bool"}],"anonymous":false},{"type":"event","name":"OperatorAuthorized","inputs":[{"name":"operatorId","type":"string","indexed":true,"internalType":"string"},{"name":"authorized","type":"bool","indexed":false,"internalType":"bool"}],"anonymous":false},{"type":"event","name":"OwnershipTransferred","inputs":[{"name":"previousOwner","type":"address","indexed":true,"internalType":"address"},{"name":"newOwner","type":"address","indexed":true,"internalType":"address"}],"anonymous":false},{"type":"error","name":"OwnableInvalidOwner","inputs":[{"name":"owner","type":"address","internalType":"address"}]},{"type":"error","name":"OwnableUnauthorizedAccount","inputs":[{"name":"account","type":"address","internalType":"address"}]},{"type":"error","name":"StringsInsufficientHexLength","inputs":[{"name":"value","type":"uint256","internalType":"uint256"},{"name":"length","type":"uint256","internalType":"uint256"}]}],"bytecode":{"object":"0x6080604052348015600e575f5ffd5b503380603357604051631e4fbdf760e01b81525f600482015260240160405180910390fd5b603a81603f565b50608e565b5f80546001600160a01b038381166001600160a01b0319831681178455604051919092169283917f8be0079c531659141344cd1fd0a4f28419497f9722a3daafe3b4186f6b6457e09190a35050565b61246b8061009b5f395ff3fe608060405234801561000f575f5ffd5b50600436106101a1575f3560e01c8063815d79f5116100f3578063c8b211f211610093578063db19d1981161006e578063db19d198146103d3578063e4a97b94146103e6578063eb588834146103ef578063f2fde38b14610402575f5ffd5b8063c8b211f2146103a4578063d52bb1d9146103b7578063d7aff146146103ca575f5ffd5b80639104f2e8116100ce5780639104f2e8146103305780639fd3b7881461035e578063b5fcabc514610371578063b9aafc8114610391575f5ffd5b8063815d79f5146102ed5780638aff019a1461030d5780638da5cb5b14610320575f5ffd5b8063379e31061161015e578063500c80e911610139578063500c80e9146102ac57806351893662146102bf578063715018a6146102d25780637ccef9de146102da575f5ffd5b8063379e31061461026557806339797b261461027857806340749ba814610299575f5ffd5b8063076b1457146101a557806314b8f1e4146101d55780631d46d6e8146101f8578063220bef291461021d5780632be5c44c146102325780632c23ff5e14610245575b5f5ffd5b6008546101b8906001600160a01b031681565b6040516001600160a01b0390911681526020015b60405180910390f35b6101e86101e3366004611b63565b610415565b60405190151581526020016101cc565b61020b610206366004611c3d565b610444565b6040516101cc96959493929190611cac565b61023061022b366004611cf4565b610540565b005b6101e8610240366004611d57565b6106fb565b610258610253366004611b63565b610728565b6040516101cc9190611d88565b61020b610273366004611d57565b6107bf565b61028b610286366004611e2d565b61081d565b6040519081526020016101cc565b6102306102a7366004611efc565b61092f565b6101e86102ba366004611f4e565b6109b5565b6102306102cd366004611f98565b610e81565b610230610ff7565b6101e86102e8366004611d57565b61100a565b6103006102fb366004611d57565b611052565b6040516101cc9190612056565b6007546101b8906001600160a01b031681565b5f546001600160a01b03166101b8565b6101e861033e366004611d57565b805160208183018101805160048252928201919093012091525460ff1681565b61023061036c366004611d57565b6111a7565b61038461037f366004611d57565b6112fe565b6040516101cc91906120b9565b61025861039f366004611b63565b61146c565b6102306103b2366004611b63565b611515565b6102306103c5366004611b63565b611590565b61028b60065481565b6101e86103e1366004611d57565b61160b565b61028b60055481565b6102306103fd366004611cf4565b611635565b610230610410366004611b63565b611729565b6001600160a01b0381165f908152600360205260408120805482919061043a906120cb565b9050119050919050565b8151602081840181018051600282529282019185019190912091905280548290811061046e575f80fd5b5f918252602090912060059091020180546001820154600283015460038401546004850180546001600160a01b039095169750929550909360ff80831694610100909304169290916104bf906120cb565b80601f01602080910402602001604051908101604052809291908181526020018280546104eb906120cb565b80156105365780601f1061050d57610100808354040283529160200191610536565b820191905f5260205f20905b81548152906001019060200180831161051957829003601f168201915b5050505050905086565b600461054b33611766565b604051610558919061211a565b9081526040519081900360200190205460ff168061057f57505f546001600160a01b031633145b6105a45760405162461bcd60e51b815260040161059b90612125565b60405180910390fd5b6105ad826106fb565b6105c95760405162461bcd60e51b815260040161059b9061215c565b5f6001836040516105da919061211a565b908152604051908190036020019020600381015490915060ff6101009091041661063a5760405162461bcd60e51b815260206004820152601160248201527043617264206973206e6f7420626c616e6b60781b604482015260640161059b565b600381015460ff166106835760405162461bcd60e51b815260206004820152601260248201527143617264206973206e6f742061637469766560701b604482015260640161059b565b60038101805461ff00191690556004810161069e83826121cf565b5080546040516001600160a01b03909116906106bb90859061211a565b604051908190038120428252907f71ac2ce3ef0847e3c0817e3591c32b6e8a9a14d9aed5bc69f6ef1e0f717d6619906020015b60405180910390a3505050565b5f60018260405161070c919061211a565b9081526040519081900360200190206003015460ff1692915050565b60036020525f908152604090208054610740906120cb565b80601f016020809104026020016040519081016040528092919081815260200182805461076c906120cb565b80156107b75780601f1061078e576101008083540402835291602001916107b7565b820191905f5260205f20905b81548152906001019060200180831161079a57829003601f168201915b505050505081565b805160208183018101805160018083529383019290940191909120929052815490820154600283015460038401546004850180546001600160a01b03909516959394929360ff8084169461010090940416929091906104bf906120cb565b5f600461082933611766565b604051610836919061211a565b9081526040519081900360200190205460ff168061085d57505f546001600160a01b031633145b6108795760405162461bcd60e51b815260040161059b90612125565b81518351146108c25760405162461bcd60e51b8152602060048201526015602482015274082e4e4c2f240d8cadccee8d040dad2e6dac2e8c6d605b1b604482015260640161059b565b5f805b84518110156109255761090a8582815181106108e3576108e361228c565b60200260200101518583815181106108fd576108fd61228c565b60200260200101516109b5565b1561091d5781610919816122b4565b9250505b6001016108c5565b5090505b92915050565b61093761177c565b80600483604051610948919061211a565b908152604051908190036020018120805492151560ff199093169290921790915561097490839061211a565b6040519081900381208215158252907f852cbaee805afba09bc1c03514961a5637e381de998af7fbfb21c890e3e1429e906020015b60405180910390a25050565b5f60046109c133611766565b6040516109ce919061211a565b9081526040519081900360200190205460ff16806109f557505f546001600160a01b031633145b610a115760405162461bcd60e51b815260040161059b90612125565b5f835111610a535760405162461bcd60e51b815260206004820152600f60248201526e125b9d985b1a5908139190c8155251608a1b604482015260640161059b565b6001600160a01b038216610aa25760405162461bcd60e51b8152602060048201526016602482015275496e76616c69642077616c6c6574206164647265737360501b604482015260640161059b565b610aab836106fb565b15610ab757505f610929565b6001600160a01b0382165f9081526003602052604081208054610ad9906120cb565b90501115610ae857505f610929565b6040518060c00160405280836001600160a01b031681526020014281526020015f81526020016001151581526020016001151581526020016040518060400160405280600c81526020016b185d5d1bd7d8dc99585d195960a21b815250815250600184604051610b58919061211a565b90815260408051918290036020908101909220835181546001600160a01b039091166001600160a01b031990911617815591830151600183015582015160028201556060820151600382018054608085015115156101000261ff00199315159390931661ffff199091161791909117905560a08201516004820190610bdd90826121cf565b50905050600283604051610bf1919061211a565b9081526020016040518091039020600184604051610c0f919061211a565b9081526040519081900360209081019091208254600181810185555f94855292909320815460059094020180546001600160a01b0319166001600160a01b0390941693909317835581810154918301919091556002808201549083015560038082018054918401805460ff938416151560ff19821681178355925461010090819004909416151590930261ff001990921661ffff199093169290921717905590600480820190610cc1908401826122cc565b5050506001600160a01b0382165f908152600360205260409020610ce584826121cf565b5060058054905f610cf5836122b4565b90915550506007546001600160a01b031615610d6757600754604051635ec9b71b60e01b81526001600160a01b0390911690635ec9b71b90610d3d9086908690600401612398565b5f604051808303815f87803b158015610d54575f5ffd5b505af1925050508015610d65575060015b505b6008546001600160a01b031615610dd457600854604051635ec9b71b60e01b81526001600160a01b0390911690635ec9b71b90610daa9086908690600401612398565b5f604051808303815f87803b158015610dc1575f5ffd5b505af1925050508015610dd2575060015b505b816001600160a01b031683604051610dec919061211a565b604051908190038120428252907fad7f881728ad0b1e28f5d90b6c6072865873a8cf9e08deda8ec28bc61328915e9060200160405180910390a3816001600160a01b031683604051610e3e919061211a565b604051908190038120428252907ff30957385097ba7655e849d7b0140a25c8e1d7d9f461023d39f531ee8fafe22f9060200160405180910390a350600192915050565b610e8a826106fb565b610ea65760405162461bcd60e51b815260040161059b9061215c565b5f600183604051610eb7919061211a565b908152604080519182900360209081018320805484840190935260068452651d5b989a5b9960d21b9184019190915292506001600160a01b031690610f009082908690866117a8565b610f405760405162461bcd60e51b8152602060048201526011602482015270496e76616c6964207369676e617475726560781b604482015260640161059b565b6001600160a01b0381165f908152600360205260408120610f6091611afe565b60038201805460ff1916905542600283015560058054905f610f81836123c1565b909155505060068054905f610f95836122b4565b9190505550806001600160a01b031684604051610fb2919061211a565b604080519182900382204283525f6020840152917fd07f8b0971f74b862e44be709af68f70f3ca6d797015825b2dd12f126cc899fa910160405180910390a350505050565b610fff61177c565b6110085f6118c5565b565b5f611014826106fb565b61102057506001919050565b600182604051611030919061211a565b9081526040519081900360200190206003015460ff6101009091041692915050565b6060600282604051611064919061211a565b9081526020016040518091039020805480602002602001604051908101604052809291908181526020015f905b8282101561119c575f8481526020908190206040805160c0810182526005860290920180546001600160a01b03168352600181015493830193909352600283015490820152600382015460ff80821615156060840152610100909104161515608082015260048201805491929160a08401919061110d906120cb565b80601f0160208091040260200160405190810160405280929190818152602001828054611139906120cb565b80156111845780601f1061115b57610100808354040283529160200191611184565b820191905f5260205f20905b81548152906001019060200180831161116757829003601f168201915b50505050508152505081526020019060010190611091565b505050509050919050565b60046111b233611766565b6040516111bf919061211a565b9081526040519081900360200190205460ff16806111e657505f546001600160a01b031633145b6112025760405162461bcd60e51b815260040161059b90612125565b61120b816106fb565b6112275760405162461bcd60e51b815260040161059b9061215c565b5f600182604051611238919061211a565b908152604080516020928190038301902080546001600160a01b03165f8181526003909452918320909350909161126f9190611afe565b60038201805460ff1916905542600283015560058054905f611290836123c1565b909155505060068054905f6112a4836122b4565b9190505550806001600160a01b0316836040516112c1919061211a565b6040805191829003822042835260016020840152917fd07f8b0971f74b862e44be709af68f70f3ca6d797015825b2dd12f126cc899fa91016106ee565b61133f6040518060c001604052805f6001600160a01b031681526020015f81526020015f81526020015f151581526020015f15158152602001606081525090565b611348826106fb565b6113645760405162461bcd60e51b815260040161059b9061215c565b600182604051611374919061211a565b90815260408051918290036020908101832060c08401835280546001600160a01b03168452600181015491840191909152600281015491830191909152600381015460ff80821615156060850152610100909104161515608083015260048101805460a0840191906113e5906120cb565b80601f0160208091040260200160405190810160405280929190818152602001828054611411906120cb565b801561145c5780601f106114335761010080835404028352916020019161145c565b820191905f5260205f20905b81548152906001019060200180831161143f57829003601f168201915b5050505050815250509050919050565b6001600160a01b0381165f908152600360205260409020805460609190611492906120cb565b80601f01602080910402602001604051908101604052809291908181526020018280546114be906120cb565b80156115095780601f106114e057610100808354040283529160200191611509565b820191905f5260205f20905b8154815290600101906020018083116114ec57829003601f168201915b50505050509050919050565b61151d61177c565b6001600160a01b03811661156e5760405162461bcd60e51b8152602060048201526018602482015277496e76616c696420636f6e7472616374206164647265737360401b604482015260640161059b565b600880546001600160a01b0319166001600160a01b0392909216919091179055565b61159861177c565b6001600160a01b0381166115e95760405162461bcd60e51b8152602060048201526018602482015277496e76616c696420636f6e7472616374206164647265737360401b604482015260640161059b565b600780546001600160a01b0319166001600160a01b0392909216919091179055565b5f60048260405161161c919061211a565b9081526040519081900360200190205460ff1692915050565b600461164033611766565b60405161164d919061211a565b9081526040519081900360200190205460ff168061167457505f546001600160a01b031633145b6116905760405162461bcd60e51b815260040161059b90612125565b611699826106fb565b6116b55760405162461bcd60e51b815260040161059b9061215c565b806001836040516116c6919061211a565b908152602001604051809103902060040190816116e391906121cf565b50816040516116f2919061211a565b60405180910390207f0908d7e46fe6ac93e152e3a396caf8b829364d342ce6ba6d3ff29e36f5e177b1826040516109a99190611d88565b61173161177c565b6001600160a01b03811661175a57604051631e4fbdf760e01b81525f600482015260240161059b565b611763816118c5565b50565b6060610929826001600160a01b03166014611914565b5f546001600160a01b031633146110085760405163118cdaa760e01b815233600482015260240161059b565b5f5f8585856040516020016117bf939291906123d6565b6040516020818303038152906040528051906020012090505f8160405160200161181591907f19457468657265756d205369676e6564204d6573736167653a0a3332000000008152601c810191909152603c0190565b6040516020818303038152906040528051906020012090505f5f5f61183987611a8d565b9250925092505f6001858386866040515f815260200160405260405161187b949392919093845260ff9290921660208401526040830152606082015260800190565b6020604051602081039080840390855afa15801561189b573d5f5f3e3d5ffd5b5050604051601f1901516001600160a01b03908116908d1614975050505050505050949350505050565b5f80546001600160a01b038381166001600160a01b0319831681178455604051919092169283917f8be0079c531659141344cd1fd0a4f28419497f9722a3daafe3b4186f6b6457e09190a35050565b6060825f61192384600261240b565b61192e906002612422565b6001600160401b0381111561194557611945611b83565b6040519080825280601f01601f19166020018201604052801561196f576020820181803683370190505b509050600360fc1b815f815181106119895761198961228c565b60200101906001600160f81b03191690815f1a905350600f60fb1b816001815181106119b7576119b761228c565b60200101906001600160f81b03191690815f1a9053505f6119d985600261240b565b6119e4906001612422565b90505b6001811115611a5b576f181899199a1a9b1b9c1cb0b131b232b360811b83600f1660108110611a1857611a1861228c565b1a60f81b828281518110611a2e57611a2e61228c565b60200101906001600160f81b03191690815f1a90535060049290921c91611a54816123c1565b90506119e7565b508115611a855760405163e22e27eb60e01b8152600481018690526024810185905260440161059b565b949350505050565b5f5f5f8351604114611ae15760405162461bcd60e51b815260206004820152601860248201527f496e76616c6964207369676e6174757265206c656e6774680000000000000000604482015260640161059b565b5050506020810151604082015160609092015190925f9190911a90565b508054611b0a906120cb565b5f825580601f10611b19575050565b601f0160209004905f5260205f209081019061176391905b80821115611b44575f8155600101611b31565b5090565b80356001600160a01b0381168114611b5e575f5ffd5b919050565b5f60208284031215611b73575f5ffd5b611b7c82611b48565b9392505050565b634e487b7160e01b5f52604160045260245ffd5b604051601f8201601f191681016001600160401b0381118282101715611bbf57611bbf611b83565b604052919050565b5f5f6001600160401b03841115611be057611be0611b83565b50601f8301601f1916602001611bf581611b97565b915050828152838383011115611c09575f5ffd5b828260208301375f602084830101529392505050565b5f82601f830112611c2e575f5ffd5b611b7c83833560208501611bc7565b5f5f60408385031215611c4e575f5ffd5b82356001600160401b03811115611c63575f5ffd5b611c6f85828601611c1f565b95602094909401359450505050565b5f81518084528060208401602086015e5f602082860101526020601f19601f83011685010191505092915050565b60018060a01b03871681528560208201528460408201528315156060820152821515608082015260c060a08201525f611ce860c0830184611c7e565b98975050505050505050565b5f5f60408385031215611d05575f5ffd5b82356001600160401b03811115611d1a575f5ffd5b611d2685828601611c1f565b92505060208301356001600160401b03811115611d41575f5ffd5b611d4d85828601611c1f565b9150509250929050565b5f60208284031215611d67575f5ffd5b81356001600160401b03811115611d7c575f5ffd5b611a8584828501611c1f565b602081525f611b7c6020830184611c7e565b5f6001600160401b03821115611db257611db2611b83565b5060051b60200190565b5f82601f830112611dcb575f5ffd5b8135611dde611dd982611d9a565b611b97565b8082825260208201915060208360051b860101925085831115611dff575f5ffd5b602085015b83811015611e2357611e1581611b48565b835260209283019201611e04565b5095945050505050565b5f5f60408385031215611e3e575f5ffd5b82356001600160401b03811115611e53575f5ffd5b8301601f81018513611e63575f5ffd5b8035611e71611dd982611d9a565b8082825260208201915060208360051b850101925087831115611e92575f5ffd5b602084015b83811015611ed25780356001600160401b03811115611eb4575f5ffd5b611ec38a602083890101611c1f565b84525060209283019201611e97565b50945050505060208301356001600160401b03811115611ef0575f5ffd5b611d4d85828601611dbc565b5f5f60408385031215611f0d575f5ffd5b82356001600160401b03811115611f22575f5ffd5b611f2e85828601611c1f565b92505060208301358015158114611f43575f5ffd5b809150509250929050565b5f5f60408385031215611f5f575f5ffd5b82356001600160401b03811115611f74575f5ffd5b611f8085828601611c1f565b925050611f8f60208401611b48565b90509250929050565b5f5f60408385031215611fa9575f5ffd5b82356001600160401b03811115611fbe575f5ffd5b611fca85828601611c1f565b92505060208301356001600160401b03811115611fe5575f5ffd5b8301601f81018513611ff5575f5ffd5b611d4d85823560208401611bc7565b60018060a01b03815116825260208101516020830152604081015160408301526060810151151560608301526080810151151560808301525f60a082015160c060a0850152611a8560c0850182611c7e565b5f602082016020835280845180835260408501915060408160051b8601019250602086015f5b828110156120ad57603f19878603018452612098858351612004565b9450602093840193919091019060010161207c565b50929695505050505050565b602081525f611b7c6020830184612004565b600181811c908216806120df57607f821691505b6020821081036120fd57634e487b7160e01b5f52602260045260245ffd5b50919050565b5f81518060208401855e5f93019283525090919050565b5f611b7c8284612103565b60208082526017908201527f4e6f7420617574686f72697a6564206f70657261746f72000000000000000000604082015260600190565b6020808252600d908201526c139190c81b9bdd08189bdd5b99609a1b604082015260600190565b601f8211156121ca57805f5260205f20601f840160051c810160208510156121a85750805b601f840160051c820191505b818110156121c7575f81556001016121b4565b50505b505050565b81516001600160401b038111156121e8576121e8611b83565b6121fc816121f684546120cb565b84612183565b6020601f821160018114612231575f83156122175750848201515b600184901b5f19600386901b1c198216175b8555506121c7565b5f84815260208120601f198516915b828110156122605787850151825560209485019460019092019101612240565b508482101561227d57868401515f19600387901b60f8161c191681555b50505050600190811b01905550565b634e487b7160e01b5f52603260045260245ffd5b634e487b7160e01b5f52601160045260245ffd5b5f600182016122c5576122c56122a0565b5060010190565b8181036122d7575050565b6122e182546120cb565b6001600160401b038111156122f8576122f8611b83565b612306816121f684546120cb565b5f601f821160018114612335575f8315612217575081850154600184901b5f19600386901b1c19821617612229565b5f8581526020808220868352908220601f198616925b8381101561236b578286015482556001958601959091019060200161234b565b508583101561238857818501545f19600388901b60f8161c191681555b5050505050600190811b01905550565b604081525f6123aa6040830185611c7e565b905060018060a01b03831660208301529392505050565b5f816123cf576123cf6122a0565b505f190190565b6bffffffffffffffffffffffff198460601b1681525f6124026123fc6014840186612103565b84612103565b95945050505050565b8082028115828204841417610929576109296122a0565b80820180821115610929576109296122a056fea2646970667358221220530357d64c9bc76c89e0d76a5db09fb75c23decd3ce8723850b442c60e051e2a64736f6c634300081e0033","linkReferences":{}},"methodIdentifiers":{"authorizeOperator(string,bool)":"40749ba8","authorizedOperators(string)":"9104f2e8","batchDetectBlankCards(string[],address[])":"39797b26","catNFTContract()":"8aff019a","detectAndBindBlankCard(string,address)":"500c80e9","domainNFTContract()":"076b1457","emergencyUnbindNFCWallet(string)":"9fd3b788","getNFCBinding(string)":"b5fcabc5","getNFCHistory(string)":"815d79f5","getWalletNFC(address)":"b9aafc81","initializeBlankCard(string,string)":"220bef29","isAuthorizedOperator(string)":"db19d198","isBlankCard(string)":"7ccef9de","isNFCBound(string)":"2be5c44c","isWalletBound(address)":"14b8f1e4","nfcBindings(string)":"379e3106","nfcHistory(string,uint256)":"1d46d6e8","owner()":"8da5cb5b","renounceOwnership()":"715018a6","setCatNFTContract(address)":"d52bb1d9","setDomainNFTContract(address)":"c8b211f2","totalBindings()":"e4a97b94","totalUnbindings()":"d7aff146","transferOwnership(address)":"f2fde38b","unbindNFCWallet(string,bytes)":"51893662","updateNFCMetadata(string,string)":"eb588834","walletToNFC(address)":"2c23ff5e"},"id":44}