{"abi":[{"type":"constructor","inputs":[],"stateMutability":"nonpayable"},{"type":"function","name":"authorizedOperators","inputs":[{"name":"","type":"string","internalType":"string"}],"outputs":[{"name":"","type":"bool","internalType":"bool"}],"stateMutability":"view"},{"type":"function","name":"batchBindNFCs","inputs":[{"name":"nfcUIDs","type":"string[]","internalType":"string[]"},{"name":"walletAddresses","type":"address[]","internalType":"address[]"}],"outputs":[],"stateMutability":"nonpayable"},{"type":"function","name":"batchDetectBlankCards","inputs":[{"name":"nfcUIDs","type":"string[]","internalType":"string[]"},{"name":"walletAddresses","type":"address[]","internalType":"address[]"}],"outputs":[{"name":"","type":"uint256","internalType":"uint256"}],"stateMutability":"nonpayable"},{"type":"function","name":"bindNFCWallet","inputs":[{"name":"nfcUID","type":"string","internalType":"string"},{"name":"walletAddress","type":"address","internalType":"address"}],"outputs":[],"stateMutability":"nonpayable"},{"type":"function","name":"detectAndBindBlankCard","inputs":[{"name":"nfcUID","type":"string","internalType":"string"},{"name":"newWalletAddress","type":"address","internalType":"address"}],"outputs":[{"name":"","type":"bool","internalType":"bool"}],"stateMutability":"nonpayable"},{"type":"function","name":"emergencyFreezeNFC","inputs":[{"name":"nfcUID","type":"string","internalType":"string"}],"outputs":[],"stateMutability":"nonpayable"},{"type":"function","name":"emergencyUnbindNFCWallet","inputs":[{"name":"nfcUID","type":"string","internalType":"string"}],"outputs":[],"stateMutability":"nonpayable"},{"type":"function","name":"getNFCBinding","inputs":[{"name":"nfcUID","type":"string","internalType":"string"}],"outputs":[{"name":"","type":"tuple","internalType":"struct NFCWalletRegistry.NFCBinding","components":[{"name":"walletAddress","type":"address","internalType":"address"},{"name":"boundAt","type":"uint256","internalType":"uint256"},{"name":"unboundAt","type":"uint256","internalType":"uint256"},{"name":"isActive","type":"bool","internalType":"bool"},{"name":"isBlank","type":"bool","internalType":"bool"},{"name":"metadata","type":"string","internalType":"string"}]}],"stateMutability":"view"},{"type":"function","name":"getNFCWallet","inputs":[{"name":"nfcUID","type":"string","internalType":"string"}],"outputs":[{"name":"","type":"address","internalType":"address"}],"stateMutability":"view"},{"type":"function","name":"getStats","inputs":[],"outputs":[{"name":"","type":"uint256","internalType":"uint256"}],"stateMutability":"view"},{"type":"function","name":"getWalletActiveNFCs","inputs":[{"name":"walletAddress","type":"address","internalType":"address"}],"outputs":[{"name":"","type":"string[]","internalType":"string[]"}],"stateMutability":"view"},{"type":"function","name":"getWalletCardStats","inputs":[{"name":"walletAddress","type":"address","internalType":"address"}],"outputs":[{"name":"totalCards","type":"uint256","internalType":"uint256"},{"name":"activeCards","type":"uint256","internalType":"uint256"},{"name":"blankCards","type":"uint256","internalType":"uint256"}],"stateMutability":"view"},{"type":"function","name":"getWalletNFCs","inputs":[{"name":"walletAddress","type":"address","internalType":"address"}],"outputs":[{"name":"","type":"string[]","internalType":"string[]"}],"stateMutability":"view"},{"type":"function","name":"initializeBlankCard","inputs":[{"name":"nfcUID","type":"string","internalType":"string"},{"name":"initMetadata","type":"string","internalType":"string"}],"outputs":[],"stateMutability":"nonpayable"},{"type":"function","name":"isBlankCard","inputs":[{"name":"nfcUID","type":"string","internalType":"string"}],"outputs":[{"name":"","type":"bool","internalType":"bool"}],"stateMutability":"view"},{"type":"function","name":"isNFCBound","inputs":[{"name":"nfcUID","type":"string","internalType":"string"}],"outputs":[{"name":"","type":"bool","internalType":"bool"}],"stateMutability":"view"},{"type":"function","name":"nfcBindings","inputs":[{"name":"","type":"string","internalType":"string"}],"outputs":[{"name":"walletAddress","type":"address","internalType":"address"},{"name":"boundAt","type":"uint256","internalType":"uint256"},{"name":"unboundAt","type":"uint256","internalType":"uint256"},{"name":"isActive","type":"bool","internalType":"bool"},{"name":"isBlank","type":"bool","internalType":"bool"},{"name":"metadata","type":"string","internalType":"string"}],"stateMutability":"view"},{"type":"function","name":"nfcHistory","inputs":[{"name":"","type":"string","internalType":"string"},{"name":"","type":"uint256","internalType":"uint256"}],"outputs":[{"name":"walletAddress","type":"address","internalType":"address"},{"name":"boundAt","type":"uint256","internalType":"uint256"},{"name":"unboundAt","type":"uint256","internalType":"uint256"},{"name":"isActive","type":"bool","internalType":"bool"},{"name":"isBlank","type":"bool","internalType":"bool"},{"name":"metadata","type":"string","internalType":"string"}],"stateMutability":"view"},{"type":"function","name":"owner","inputs":[],"outputs":[{"name":"","type":"address","internalType":"address"}],"stateMutability":"view"},{"type":"function","name":"renounceOwnership","inputs":[],"outputs":[],"stateMutability":"nonpayable"},{"type":"function","name":"setOperatorAuthorization","inputs":[{"name":"operatorId","type":"string","internalType":"string"},{"name":"authorized","type":"bool","internalType":"bool"}],"outputs":[],"stateMutability":"nonpayable"},{"type":"function","name":"totalBindings","inputs":[],"outputs":[{"name":"","type":"uint256","internalType":"uint256"}],"stateMutability":"view"},{"type":"function","name":"totalUnbindings","inputs":[],"outputs":[{"name":"","type":"uint256","internalType":"uint256"}],"stateMutability":"view"},{"type":"function","name":"transferOwnership","inputs":[{"name":"newOwner","type":"address","internalType":"address"}],"outputs":[],"stateMutability":"nonpayable"},{"type":"function","name":"unbindNFCWallet","inputs":[{"name":"nfcUID","type":"string","internalType":"string"},{"name":"ownerSignature","type":"bytes","internalType":"bytes"}],"outputs":[],"stateMutability":"nonpayable"},{"type":"function","name":"unfreezeNFC","inputs":[{"name":"nfcUID","type":"string","internalType":"string"}],"outputs":[],"stateMutability":"nonpayable"},{"type":"function","name":"updateNFCMetadata","inputs":[{"name":"nfcUID","type":"string","internalType":"string"},{"name":"metadata","type":"string","internalType":"string"}],"outputs":[],"stateMutability":"nonpayable"},{"type":"function","name":"walletToNFCs","inputs":[{"name":"","type":"address","internalType":"address"},{"name":"","type":"uint256","internalType":"uint256"}],"outputs":[{"name":"","type":"string","internalType":"string"}],"stateMutability":"view"},{"type":"event","name":"BlankCardDetected","inputs":[{"name":"nfcUID","type":"string","indexed":true,"internalType":"string"},{"name":"newWallet","type":"address","indexed":true,"internalType":"address"},{"name":"timestamp","type":"uint256","indexed":false,"internalType":"uint256"}],"anonymous":false},{"type":"event","name":"CardInitialized","inputs":[{"name":"nfcUID","type":"string","indexed":true,"internalType":"string"},{"name":"walletAddress","type":"address","indexed":true,"internalType":"address"},{"name":"timestamp","type":"uint256","indexed":false,"internalType":"uint256"}],"anonymous":false},{"type":"event","name":"NFCCardReset","inputs":[{"name":"nfcUID","type":"string","indexed":true,"internalType":"string"},{"name":"previousWallet","type":"address","indexed":true,"internalType":"address"},{"name":"resetAt","type":"uint256","indexed":false,"internalType":"uint256"}],"anonymous":false},{"type":"event","name":"NFCMetadataUpdated","inputs":[{"name":"nfcUID","type":"string","indexed":true,"internalType":"string"},{"name":"metadata","type":"string","indexed":false,"internalType":"string"}],"anonymous":false},{"type":"event","name":"NFCWalletBound","inputs":[{"name":"nfcUID","type":"string","indexed":true,"internalType":"string"},{"name":"walletAddress","type":"address","indexed":true,"internalType":"address"},{"name":"boundAt","type":"uint256","indexed":false,"internalType":"uint256"}],"anonymous":false},{"type":"event","name":"NFCWalletUnbound","inputs":[{"name":"nfcUID","type":"string","indexed":true,"internalType":"string"},{"name":"walletAddress","type":"address","indexed":true,"internalType":"address"},{"name":"unboundAt","type":"uint256","indexed":false,"internalType":"uint256"},{"name":"cardReset","type":"bool","indexed":false,"internalType":"bool"}],"anonymous":false},{"type":"event","name":"OperatorAuthorized","inputs":[{"name":"operatorId","type":"string","indexed":true,"internalType":"string"},{"name":"authorized","type":"bool","indexed":false,"internalType":"bool"}],"anonymous":false},{"type":"event","name":"OwnershipTransferred","inputs":[{"name":"previousOwner","type":"address","indexed":true,"internalType":"address"},{"name":"newOwner","type":"address","indexed":true,"internalType":"address"}],"anonymous":false},{"type":"error","name":"OwnableInvalidOwner","inputs":[{"name":"owner","type":"address","internalType":"address"}]},{"type":"error","name":"OwnableUnauthorizedAccount","inputs":[{"name":"account","type":"address","internalType":"address"}]},{"type":"error","name":"StringsInsufficientHexLength","inputs":[{"name":"value","type":"uint256","internalType":"uint256"},{"name":"length","type":"uint256","internalType":"uint256"}]}],"bytecode":{"object":"0x6080604052348015600e575f5ffd5b503380603357604051631e4fbdf760e01b81525f600482015260240160405180910390fd5b603a81603f565b50608e565b5f80546001600160a01b038381166001600160a01b0319831681178455604051919092169283917f8be0079c531659141344cd1fd0a4f28419497f9722a3daafe3b4186f6b6457e09190a35050565b612e148061009b5f395ff3fe608060405234801561000f575f5ffd5b50600436106101bb575f3560e01c80638da5cb5b116100f3578063d7aff14611610093578063e4a97b941161006e578063e4a97b941461040c578063eb58883414610415578063ee8d52a514610428578063f2fde38b1461043b575f5ffd5b8063d7aff146146103d0578063da855e9f146103d9578063e1bc2742146103f9575f5ffd5b80639fd3b788116100ce5780639fd3b78814610382578063b5fcabc514610395578063c59d4847146103b5578063d533afe0146103bd575f5ffd5b80638da5cb5b1461031d5780639104f2e814610341578063917f5cf21461036f575f5ffd5b806339797b261161015e578063500c80e911610139578063500c80e9146102dc57806351893662146102ef578063715018a6146103025780637ccef9de1461030a575f5ffd5b806339797b26146102885780634732730e146102a95780634fca3098146102bc575f5ffd5b80631d46d6e8116101995780631d46d6e81461021a578063220bef291461023f5780632be5c44c14610252578063379e310614610275575f5ffd5b806305384c6d146101bf578063077d447d146101d45780631c40b0cf146101e7575b5f5ffd5b6101d26101cd366004612509565b61044e565b005b6101d26101e2366004612555565b6104bb565b6101fa6101f536600461259f565b61074c565b604080519384526020840192909252908201526060015b60405180910390f35b61022d6102283660046125b8565b6109af565b60405161021196959493929190612627565b6101d261024d36600461266f565b610aab565b610265610260366004612509565b610c3b565b6040519015158152602001610211565b61022d610283366004612509565b610ca5565b61029b610296366004612765565b610d03565b604051908152602001610211565b6101d26102b7366004612509565b610df1565b6102cf6102ca366004612834565b610e7b565b604051610211919061285c565b6102656102ea366004612555565b610f2c565b6101d26102fd36600461286e565b6112db565b6101d261143b565b610265610318366004612509565b61144e565b5f546001600160a01b03165b6040516001600160a01b039091168152602001610211565b61026561034f366004612509565b805160208183018101805160048252928201919093012091525460ff1681565b6101d261037d3660046128da565b611496565b6101d2610390366004612509565b61151c565b6103a86103a3366004612509565b611641565b604051610211919061292c565b60055461029b565b6103296103cb366004612509565b61178a565b61029b60065481565b6103ec6103e736600461259f565b6117ce565b6040516102119190612984565b6101d2610407366004612765565b611a12565b61029b60055481565b6101d261042336600461266f565b611cfe565b6103ec61043636600461259f565b611dd0565b6101d261044936600461259f565b611eba565b610456611ef7565b61045f81610c3b565b6104845760405162461bcd60e51b815260040161047b906129e7565b60405180910390fd5b5f6001826040516104959190612a25565b908152604051908190036020019020600301805491151560ff1990921691909117905550565b6104c433611f23565b806104d857505f546001600160a01b031633145b6104f45760405162461bcd60e51b815260040161047b90612a30565b5f8251116105365760405162461bcd60e51b815260206004820152600f60248201526e125b9d985b1a5908139190c8155251608a1b604482015260640161047b565b6001600160a01b0381166105855760405162461bcd60e51b8152602060048201526016602482015275496e76616c69642077616c6c6574206164647265737360501b604482015260640161047b565b61058e82610c3b565b156105cf5760405162461bcd60e51b8152602060048201526011602482015270139190c8185b1c9958591e48189bdd5b99607a1b604482015260640161047b565b6040518060c00160405280826001600160a01b031681526020014281526020015f81526020016001151581526020015f1515815260200160405180602001604052805f8152508152506001836040516106289190612a25565b90815260408051918290036020908101909220835181546001600160a01b039091166001600160a01b031990911617815591830151600183015582015160028201556060820151600382018054608085015115156101000261ff00199315159390931661ffff199091161791909117905560a082015160048201906106ad9082612aea565b5050506001600160a01b0381165f908152600360209081526040822080546001810182559083529120016106e18382612aea565b5060058054905f6106f183612bbb565b9190505550806001600160a01b03168260405161070e9190612a25565b604051908190038120428252907ff30957385097ba7655e849d7b0140a25c8e1d7d9f461023d39f531ee8fafe22f9060200160405180910390a35050565b5f5f5f5f60035f866001600160a01b03166001600160a01b031681526020019081526020015f20805480602002602001604051908101604052809291908181526020015f905b8282101561083a578382905f5260205f200180546107af90612a67565b80601f01602080910402602001604051908101604052809291908181526020018280546107db90612a67565b80156108265780601f106107fd57610100808354040283529160200191610826565b820191905f5260205f20905b81548152906001019060200180831161080957829003601f168201915b505050505081526020019060010190610792565b5050825196509192505f9150505b81518110156109a6575f600183838151811061086657610866612bd3565b602002602001015160405161087b9190612a25565b90815260408051918290036020908101832060c08401835280546001600160a01b03168452600181015491840191909152600281015491830191909152600381015460ff80821615156060850152610100909104161515608083015260048101805460a0840191906108ec90612a67565b80601f016020809104026020016040519081016040528092919081815260200182805461091890612a67565b80156109635780601f1061093a57610100808354040283529160200191610963565b820191905f5260205f20905b81548152906001019060200180831161094657829003601f168201915b505050505081525050905080606001511561099d578461098281612bbb565b95505080608001511561099d578361099981612bbb565b9450505b50600101610848565b50509193909250565b815160208184018101805160028252928201918501919091209190528054829081106109d9575f80fd5b5f918252602090912060059091020180546001820154600283015460038401546004850180546001600160a01b039095169750929550909360ff8083169461010090930416929091610a2a90612a67565b80601f0160208091040260200160405190810160405280929190818152602001828054610a5690612a67565b8015610aa15780601f10610a7857610100808354040283529160200191610aa1565b820191905f5260205f20905b815481529060010190602001808311610a8457829003601f168201915b5050505050905086565b610ab433611f23565b80610ac857505f546001600160a01b031633145b610ae45760405162461bcd60e51b815260040161047b90612a30565b610aed82610c3b565b610b095760405162461bcd60e51b815260040161047b906129e7565b5f600183604051610b1a9190612a25565b908152604051908190036020019020600381015490915060ff61010090910416610b7a5760405162461bcd60e51b815260206004820152601160248201527043617264206973206e6f7420626c616e6b60781b604482015260640161047b565b600381015460ff16610bc35760405162461bcd60e51b815260206004820152601260248201527143617264206973206e6f742061637469766560701b604482015260640161047b565b60038101805461ff001916905560048101610bde8382612aea565b5080546040516001600160a01b0390911690610bfb908590612a25565b604051908190038120428252907f71ac2ce3ef0847e3c0817e3591c32b6e8a9a14d9aed5bc69f6ef1e0f717d6619906020015b60405180910390a3505050565b5f5f6001600160a01b0316600183604051610c569190612a25565b908152604051908190036020019020546001600160a01b031614801590610c9f5750600182604051610c889190612a25565b9081526040519081900360200190206003015460ff165b92915050565b805160208183018101805160018083529383019290940191909120929052815490820154600283015460038401546004850180546001600160a01b03909516959394929360ff808416946101009094041692909190610a2a90612a67565b5f610d0d33611f23565b80610d2157505f546001600160a01b031633145b610d3d5760405162461bcd60e51b815260040161047b90612a30565b8151835114610d865760405162461bcd60e51b8152602060048201526015602482015274082e4e4c2f240d8cadccee8d040dad2e6dac2e8c6d605b1b604482015260640161047b565b5f805b8451811015610de957610dce858281518110610da757610da7612bd3565b6020026020010151858381518110610dc157610dc1612bd3565b6020026020010151610f2c565b15610de15781610ddd81612bbb565b9250505b600101610d89565b509392505050565b610df9611ef7565b5f6001600160a01b0316600182604051610e139190612a25565b908152604051908190036020019020546001600160a01b031603610e6a5760405162461bcd60e51b815260206004820152600e60248201526d4e4643206e6f742065786973747360901b604482015260640161047b565b600180826040516104959190612a25565b6003602052815f5260405f208181548110610e94575f80fd5b905f5260205f20015f91509150508054610ead90612a67565b80601f0160208091040260200160405190810160405280929190818152602001828054610ed990612a67565b8015610f245780601f10610efb57610100808354040283529160200191610f24565b820191905f5260205f20905b815481529060010190602001808311610f0757829003601f168201915b505050505081565b5f610f3633611f23565b80610f4a57505f546001600160a01b031633145b610f665760405162461bcd60e51b815260040161047b90612a30565b5f835111610fa85760405162461bcd60e51b815260206004820152600f60248201526e125b9d985b1a5908139190c8155251608a1b604482015260640161047b565b6001600160a01b038216610ff75760405162461bcd60e51b8152602060048201526016602482015275496e76616c69642077616c6c6574206164647265737360501b604482015260640161047b565b61100083610c3b565b1561100c57505f610c9f565b6040518060c00160405280836001600160a01b031681526020014281526020015f81526020016001151581526020016001151581526020016040518060400160405280600c81526020016b185d5d1bd7d8dc99585d195960a21b81525081525060018460405161107c9190612a25565b90815260408051918290036020908101909220835181546001600160a01b039091166001600160a01b031990911617815591830151600183015582015160028201556060820151600382018054608085015115156101000261ff00199315159390931661ffff199091161791909117905560a082015160048201906111019082612aea565b509050506002836040516111159190612a25565b90815260200160405180910390206001846040516111339190612a25565b9081526040519081900360209081019091208254600181810185555f94855292909320815460059094020180546001600160a01b0319166001600160a01b0390941693909317835581810154918301919091556002808201549083015560038082018054918401805460ff938416151560ff19821681178355925461010090819004909416151590930261ff001990921661ffff1990931692909217179055906004808201906111e590840182612be7565b5050506001600160a01b0382165f908152600360209081526040822080546001810182559083529120016112198482612aea565b5060058054905f61122983612bbb565b9190505550816001600160a01b0316836040516112469190612a25565b604051908190038120428252907fad7f881728ad0b1e28f5d90b6c6072865873a8cf9e08deda8ec28bc61328915e9060200160405180910390a3816001600160a01b0316836040516112989190612a25565b604051908190038120428252907ff30957385097ba7655e849d7b0140a25c8e1d7d9f461023d39f531ee8fafe22f9060200160405180910390a350600192915050565b6112e482610c3b565b6113005760405162461bcd60e51b815260040161047b906129e7565b5f6001836040516113119190612a25565b908152604080519182900360209081018320805484840190935260068452651d5b989a5b9960d21b9184019190915292506001600160a01b03169061135a908290869086611f60565b61139a5760405162461bcd60e51b8152602060048201526011602482015270496e76616c6964207369676e617475726560781b604482015260640161047b565b6113a4818561200b565b60038201805460ff1916905542600283015560058054905f6113c583612cb3565b909155505060068054905f6113d983612bbb565b9190505550806001600160a01b0316846040516113f69190612a25565b604080519182900382204283525f6020840152917fd07f8b0971f74b862e44be709af68f70f3ca6d797015825b2dd12f126cc899fa910160405180910390a350505050565b611443611ef7565b61144c5f6120f6565b565b5f61145882610c3b565b61146457506001919050565b6001826040516114749190612a25565b9081526040519081900360200190206003015460ff6101009091041692915050565b61149e611ef7565b806004836040516114af9190612a25565b908152604051908190036020018120805492151560ff19909316929092179091556114db908390612a25565b6040519081900381208215158252907f852cbaee805afba09bc1c03514961a5637e381de998af7fbfb21c890e3e1429e906020015b60405180910390a25050565b61152533611f23565b8061153957505f546001600160a01b031633145b6115555760405162461bcd60e51b815260040161047b90612a30565b61155e81610c3b565b61157a5760405162461bcd60e51b815260040161047b906129e7565b5f60018260405161158b9190612a25565b90815260405190819003602001902080549091506001600160a01b03166115b2818461200b565b60038201805460ff1916905542600283015560058054905f6115d383612cb3565b909155505060068054905f6115e783612bbb565b9190505550806001600160a01b0316836040516116049190612a25565b6040805191829003822042835260016020840152917fd07f8b0971f74b862e44be709af68f70f3ca6d797015825b2dd12f126cc899fa9101610c2e565b6116826040518060c001604052805f6001600160a01b031681526020015f81526020015f81526020015f151581526020015f15158152602001606081525090565b6001826040516116929190612a25565b90815260408051918290036020908101832060c08401835280546001600160a01b03168452600181015491840191909152600281015491830191909152600381015460ff80821615156060850152610100909104161515608083015260048101805460a08401919061170390612a67565b80601f016020809104026020016040519081016040528092919081815260200182805461172f90612a67565b801561177a5780601f106117515761010080835404028352916020019161177a565b820191905f5260205f20905b81548152906001019060200180831161175d57829003601f168201915b5050505050815250509050919050565b5f61179482610c3b565b61179f57505f919050565b6001826040516117af9190612a25565b908152604051908190036020019020546001600160a01b031692915050565b6001600160a01b0381165f908152600360209081526040808320805482518185028101850190935280835260609493849084015b828210156118aa578382905f5260205f2001805461181f90612a67565b80601f016020809104026020016040519081016040528092919081815260200182805461184b90612a67565b80156118965780601f1061186d57610100808354040283529160200191611896565b820191905f5260205f20905b81548152906001019060200180831161187957829003601f168201915b505050505081526020019060010190611802565b509293505f9250829150505b82518110156119195760018382815181106118d3576118d3612bd3565b60200260200101516040516118e89190612a25565b9081526040519081900360200190206003015460ff1615611911578161190d81612bbb565b9250505b6001016118b6565b505f816001600160401b0381111561193357611933612448565b60405190808252806020026020018201604052801561196657816020015b60608152602001906001900390816119515790505b5090505f805b8451811015611a0757600185828151811061198957611989612bd3565b602002602001015160405161199e9190612a25565b9081526040519081900360200190206003015460ff16156119ff578481815181106119cb576119cb612bd3565b60200260200101518383815181106119e5576119e5612bd3565b602002602001018190525081806119fb90612bbb565b9250505b60010161196c565b509095945050505050565b611a1a611ef7565b8051825114611a635760405162461bcd60e51b8152602060048201526015602482015274082e4e4c2f240d8cadccee8d040dad2e6dac2e8c6d605b1b604482015260640161047b565b5f5b8251811015611cf957611a90838281518110611a8357611a83612bd3565b6020026020010151610c3b565b158015611ac857505f6001600160a01b0316828281518110611ab457611ab4612bd3565b60200260200101516001600160a01b031614155b15611cf1576040518060c00160405280838381518110611aea57611aea612bd3565b60200260200101516001600160a01b031681526020014281526020015f81526020016001151581526020015f1515815260200160405180602001604052805f8152508152506001848381518110611b4357611b43612bd3565b6020026020010151604051611b589190612a25565b90815260408051918290036020908101909220835181546001600160a01b039091166001600160a01b031990911617815591830151600183015582015160028201556060820151600382018054608085015115156101000261ff00199315159390931661ffff199091161791909117905560a08201516004820190611bdd9082612aea565b5090505060035f838381518110611bf657611bf6612bd3565b60200260200101516001600160a01b03166001600160a01b031681526020019081526020015f20838281518110611c2f57611c2f612bd3565b60209081029190910181015182546001810184555f938452919092200190611c579082612aea565b5060058054905f611c6783612bbb565b9190505550818181518110611c7e57611c7e612bd3565b60200260200101516001600160a01b0316838281518110611ca157611ca1612bd3565b6020026020010151604051611cb69190612a25565b604051908190038120428252907ff30957385097ba7655e849d7b0140a25c8e1d7d9f461023d39f531ee8fafe22f9060200160405180910390a35b600101611a65565b505050565b611d0733611f23565b80611d1b57505f546001600160a01b031633145b611d375760405162461bcd60e51b815260040161047b90612a30565b611d4082610c3b565b611d5c5760405162461bcd60e51b815260040161047b906129e7565b80600183604051611d6d9190612a25565b90815260200160405180910390206004019081611d8a9190612aea565b5081604051611d999190612a25565b60405180910390207f0908d7e46fe6ac93e152e3a396caf8b829364d342ce6ba6d3ff29e36f5e177b182604051611510919061285c565b6001600160a01b0381165f908152600360209081526040808320805482518185028101850190935280835260609492939192909184015b82821015611eaf578382905f5260205f20018054611e2490612a67565b80601f0160208091040260200160405190810160405280929190818152602001828054611e5090612a67565b8015611e9b5780601f10611e7257610100808354040283529160200191611e9b565b820191905f5260205f20905b815481529060010190602001808311611e7e57829003601f168201915b505050505081526020019060010190611e07565b505050509050919050565b611ec2611ef7565b6001600160a01b038116611eeb57604051631e4fbdf760e01b81525f600482015260240161047b565b611ef4816120f6565b50565b5f546001600160a01b0316331461144c5760405163118cdaa760e01b815233600482015260240161047b565b5f6004611f3a836001600160a01b03166014612145565b604051611f479190612a25565b9081526040519081900360200190205460ff1692915050565b5f5f85858546604051602001611f799493929190612cc8565b60408051601f198184030181529082905280516020918201207f19457468657265756d205369676e6564204d6573736167653a0a0000000000009183019190915261199960f11b603a830152603c820152605c016040516020818303038152906040528051906020012090505f611ff082856122be565b6001600160a01b039081169088161492505050949350505050565b6001600160a01b0382165f908152600360205260408120905b81548110156120f057828051906020012082828154811061204757612047612bd3565b905f5260205f200160405161205c9190612d03565b6040518091039020036120e8578154829061207990600190612d74565b8154811061208957612089612bd3565b905f5260205f20018282815481106120a3576120a3612bd3565b905f5260205f200190816120b79190612be7565b50818054806120c8576120c8612d87565b600190038181905f5260205f20015f6120e191906123fe565b90556120f0565b600101612024565b50505050565b5f80546001600160a01b038381166001600160a01b0319831681178455604051919092169283917f8be0079c531659141344cd1fd0a4f28419497f9722a3daafe3b4186f6b6457e09190a35050565b6060825f612154846002612d9b565b61215f906002612db2565b6001600160401b0381111561217657612176612448565b6040519080825280601f01601f1916602001820160405280156121a0576020820181803683370190505b509050600360fc1b815f815181106121ba576121ba612bd3565b60200101906001600160f81b03191690815f1a905350600f60fb1b816001815181106121e8576121e8612bd3565b60200101906001600160f81b03191690815f1a9053505f61220a856002612d9b565b612215906001612db2565b90505b600181111561228c576f181899199a1a9b1b9c1cb0b131b232b360811b83600f166010811061224957612249612bd3565b1a60f81b82828151811061225f5761225f612bd3565b60200101906001600160f81b03191690815f1a90535060049290921c9161228581612cb3565b9050612218565b5081156122b65760405163e22e27eb60e01b8152600481018690526024810185905260440161047b565b949350505050565b5f81516041146123105760405162461bcd60e51b815260206004820152601860248201527f496e76616c6964207369676e6174757265206c656e6774680000000000000000604482015260640161047b565b6020820151604083015160608401515f1a601b81101561233857612335601b82612dc5565b90505b8060ff16601b148061234d57508060ff16601c145b6123995760405162461bcd60e51b815260206004820152601960248201527f496e76616c6964207369676e617475726520762076616c756500000000000000604482015260640161047b565b604080515f81526020810180835288905260ff831691810191909152606081018490526080810183905260019060a0016020604051602081039080840390855afa1580156123e9573d5f5f3e3d5ffd5b5050604051601f190151979650505050505050565b50805461240a90612a67565b5f825580601f10612419575050565b601f0160209004905f5260205f2090810190611ef491905b80821115612444575f8155600101612431565b5090565b634e487b7160e01b5f52604160045260245ffd5b604051601f8201601f191681016001600160401b038111828210171561248457612484612448565b604052919050565b5f5f6001600160401b038411156124a5576124a5612448565b50601f8301601f19166020016124ba8161245c565b9150508281528383830111156124ce575f5ffd5b828260208301375f602084830101529392505050565b5f82601f8301126124f3575f5ffd5b6125028383356020850161248c565b9392505050565b5f60208284031215612519575f5ffd5b81356001600160401b0381111561252e575f5ffd5b6122b6848285016124e4565b80356001600160a01b0381168114612550575f5ffd5b919050565b5f5f60408385031215612566575f5ffd5b82356001600160401b0381111561257b575f5ffd5b612587858286016124e4565b9250506125966020840161253a565b90509250929050565b5f602082840312156125af575f5ffd5b6125028261253a565b5f5f604083850312156125c9575f5ffd5b82356001600160401b038111156125de575f5ffd5b6125ea858286016124e4565b95602094909401359450505050565b5f81518084528060208401602086015e5f602082860101526020601f19601f83011685010191505092915050565b60018060a01b03871681528560208201528460408201528315156060820152821515608082015260c060a08201525f61266360c08301846125f9565b98975050505050505050565b5f5f60408385031215612680575f5ffd5b82356001600160401b03811115612695575f5ffd5b6126a1858286016124e4565b92505060208301356001600160401b038111156126bc575f5ffd5b6126c8858286016124e4565b9150509250929050565b5f6001600160401b038211156126ea576126ea612448565b5060051b60200190565b5f82601f830112612703575f5ffd5b8135612716612711826126d2565b61245c565b8082825260208201915060208360051b860101925085831115612737575f5ffd5b602085015b8381101561275b5761274d8161253a565b83526020928301920161273c565b5095945050505050565b5f5f60408385031215612776575f5ffd5b82356001600160401b0381111561278b575f5ffd5b8301601f8101851361279b575f5ffd5b80356127a9612711826126d2565b8082825260208201915060208360051b8501019250878311156127ca575f5ffd5b602084015b8381101561280a5780356001600160401b038111156127ec575f5ffd5b6127fb8a6020838901016124e4565b845250602092830192016127cf565b50945050505060208301356001600160401b03811115612828575f5ffd5b6126c8858286016126f4565b5f5f60408385031215612845575f5ffd5b61284e8361253a565b946020939093013593505050565b602081525f61250260208301846125f9565b5f5f6040838503121561287f575f5ffd5b82356001600160401b03811115612894575f5ffd5b6128a0858286016124e4565b92505060208301356001600160401b038111156128bb575f5ffd5b8301601f810185136128cb575f5ffd5b6126c88582356020840161248c565b5f5f604083850312156128eb575f5ffd5b82356001600160401b03811115612900575f5ffd5b61290c858286016124e4565b92505060208301358015158114612921575f5ffd5b809150509250929050565b6020815260018060a01b03825116602082015260208201516040820152604082015160608201526060820151151560808201526080820151151560a08201525f60a083015160c0808401526122b660e08401826125f9565b5f602082016020835280845180835260408501915060408160051b8601019250602086015f5b828110156129db57603f198786030184526129c68583516125f9565b945060209384019391909101906001016129aa565b50929695505050505050565b6020808252600d908201526c139190c81b9bdd08189bdd5b99609a1b604082015260600190565b5f81518060208401855e5f93019283525090919050565b5f6125028284612a0e565b60208082526017908201527f4e6f7420617574686f72697a6564206f70657261746f72000000000000000000604082015260600190565b600181811c90821680612a7b57607f821691505b602082108103612a9957634e487b7160e01b5f52602260045260245ffd5b50919050565b601f821115611cf957805f5260205f20601f840160051c81016020851015612ac45750805b601f840160051c820191505b81811015612ae3575f8155600101612ad0565b5050505050565b81516001600160401b03811115612b0357612b03612448565b612b1781612b118454612a67565b84612a9f565b6020601f821160018114612b4c575f8315612b325750848201515b600184901b5f19600386901b1c198216175b855550612ae3565b5f84815260208120601f198516915b82811015612b7b5787850151825560209485019460019092019101612b5b565b5084821015612b9857868401515f19600387901b60f8161c191681555b50505050600190811b01905550565b634e487b7160e01b5f52601160045260245ffd5b5f60018201612bcc57612bcc612ba7565b5060010190565b634e487b7160e01b5f52603260045260245ffd5b818103612bf2575050565b612bfc8254612a67565b6001600160401b03811115612c1357612c13612448565b612c2181612b118454612a67565b5f601f821160018114612c50575f8315612b32575081850154600184901b5f19600386901b1c19821617612b44565b5f8581526020808220868352908220601f198616925b83811015612c865782860154825560019586019590910190602001612c66565b5085831015612ca357818501545f19600388901b60f8161c191681555b5050505050600190811b01905550565b5f81612cc157612cc1612ba7565b505f190190565b6bffffffffffffffffffffffff198560601b1681525f612cf4612cee6014840187612a0e565b85612a0e565b92835250506020019392505050565b5f5f8354612d1081612a67565b600182168015612d275760018114612d3c57612d69565b60ff1983168652811515820286019350612d69565b865f5260205f205f5b83811015612d6157815488820152600190910190602001612d45565b505081860193505b509195945050505050565b81810381811115610c9f57610c9f612ba7565b634e487b7160e01b5f52603160045260245ffd5b8082028115828204841417610c9f57610c9f612ba7565b80820180821115610c9f57610c9f612ba7565b60ff8181168382160190811115610c9f57610c9f612ba756fea2646970667358221220cf0a41cccb5d39dae92041532975c731a72ef1a61a8866781f2c138413980efd64736f6c634300081e0033","linkReferences":{}},"methodIdentifiers":{"authorizedOperators(string)":"9104f2e8","batchBindNFCs(string[],address[])":"e1bc2742","batchDetectBlankCards(string[],address[])":"39797b26","bindNFCWallet(string,address)":"077d447d","detectAndBindBlankCard(string,address)":"500c80e9","emergencyFreezeNFC(string)":"05384c6d","emergencyUnbindNFCWallet(string)":"9fd3b788","getNFCBinding(string)":"b5fcabc5","getNFCWallet(string)":"d533afe0","getStats()":"c59d4847","getWalletActiveNFCs(address)":"da855e9f","getWalletCardStats(address)":"1c40b0cf","getWalletNFCs(address)":"ee8d52a5","initializeBlankCard(string,string)":"220bef29","isBlankCard(string)":"7ccef9de","isNFCBound(string)":"2be5c44c","nfcBindings(string)":"379e3106","nfcHistory(string,uint256)":"1d46d6e8","owner()":"8da5cb5b","renounceOwnership()":"715018a6","setOperatorAuthorization(string,bool)":"917f5cf2","totalBindings()":"e4a97b94","totalUnbindings()":"d7aff146","transferOwnership(address)":"f2fde38b","unbindNFCWallet(string,bytes)":"51893662","unfreezeNFC(string)":"4732730e","updateNFCMetadata(string,string)":"eb588834","walletToNFCs(address,uint256)":"4fca3098"},"id":7}