{"abi":[{"type":"constructor","inputs":[{"name":"_nfcRegistry","type":"address","internalType":"address"}],"stateMutability":"nonpayable"},{"type":"function","name":"MAX_CATS_PER_USER","inputs":[],"outputs":[{"name":"","type":"uint256","internalType":"uint256"}],"stateMutability":"view"},{"type":"function","name":"R_PROBABILITY","inputs":[],"outputs":[{"name":"","type":"uint256","internalType":"uint256"}],"stateMutability":"view"},{"type":"function","name":"SR_PROBABILITY","inputs":[],"outputs":[{"name":"","type":"uint256","internalType":"uint256"}],"stateMutability":"view"},{"type":"function","name":"SSR_PROBABILITY","inputs":[],"outputs":[{"name":"","type":"uint256","internalType":"uint256"}],"stateMutability":"view"},{"type":"function","name":"UR_PROBABILITY","inputs":[],"outputs":[{"name":"","type":"uint256","internalType":"uint256"}],"stateMutability":"view"},{"type":"function","name":"approve","inputs":[{"name":"to","type":"address","internalType":"address"},{"name":"tokenId","type":"uint256","internalType":"uint256"}],"outputs":[],"stateMutability":"nonpayable"},{"type":"function","name":"authorizedOperators","inputs":[{"name":"","type":"address","internalType":"address"}],"outputs":[{"name":"","type":"bool","internalType":"bool"}],"stateMutability":"view"},{"type":"function","name":"balanceOf","inputs":[{"name":"owner","type":"address","internalType":"address"}],"outputs":[{"name":"","type":"uint256","internalType":"uint256"}],"stateMutability":"view"},{"type":"function","name":"batchSetAuthorizedOperators","inputs":[{"name":"operators","type":"address[]","internalType":"address[]"},{"name":"authorizations","type":"bool[]","internalType":"bool[]"}],"outputs":[],"stateMutability":"nonpayable"},{"type":"function","name":"catInfos","inputs":[{"name":"","type":"uint256","internalType":"uint256"}],"outputs":[{"name":"name","type":"string","internalType":"string"},{"name":"rarity","type":"uint8","internalType":"enum CatNFT.CatRarity"},{"name":"color","type":"string","internalType":"string"},{"name":"mintedAt","type":"uint256","internalType":"uint256"},{"name":"metadata","type":"string","internalType":"string"}],"stateMutability":"view"},{"type":"function","name":"drawCatNFT","inputs":[{"name":"catName","type":"string","internalType":"string"}],"outputs":[],"stateMutability":"payable"},{"type":"function","name":"drawCounts","inputs":[{"name":"","type":"string","internalType":"string"}],"outputs":[{"name":"","type":"uint256","internalType":"uint256"}],"stateMutability":"view"},{"type":"function","name":"drawFee","inputs":[],"outputs":[{"name":"","type":"uint256","internalType":"uint256"}],"stateMutability":"view"},{"type":"function","name":"emergencyPause","inputs":[],"outputs":[],"stateMutability":"nonpayable"},{"type":"function","name":"emergencyResetInteraction","inputs":[{"name":"nfc1","type":"string","internalType":"string"},{"name":"nfc2","type":"string","internalType":"string"}],"outputs":[],"stateMutability":"nonpayable"},{"type":"function","name":"emergencyResume","inputs":[],"outputs":[],"stateMutability":"nonpayable"},{"type":"function","name":"getApproved","inputs":[{"name":"tokenId","type":"uint256","internalType":"uint256"}],"outputs":[{"name":"","type":"address","internalType":"address"}],"stateMutability":"view"},{"type":"function","name":"getCatInfo","inputs":[{"name":"tokenId","type":"uint256","internalType":"uint256"}],"outputs":[{"name":"","type":"tuple","internalType":"struct CatNFT.CatInfo","components":[{"name":"name","type":"string","internalType":"string"},{"name":"rarity","type":"uint8","internalType":"enum CatNFT.CatRarity"},{"name":"color","type":"string","internalType":"string"},{"name":"mintedAt","type":"uint256","internalType":"uint256"},{"name":"metadata","type":"string","internalType":"string"}]}],"stateMutability":"view"},{"type":"function","name":"getDrawCount","inputs":[{"name":"nfcUID","type":"string","internalType":"string"}],"outputs":[{"name":"","type":"uint256","internalType":"uint256"}],"stateMutability":"view"},{"type":"function","name":"getInteractedNFCs","inputs":[{"name":"nfcUID","type":"string","internalType":"string"}],"outputs":[{"name":"","type":"string[]","internalType":"string[]"}],"stateMutability":"view"},{"type":"function","name":"getRainbowCatTokenId","inputs":[],"outputs":[{"name":"","type":"uint256","internalType":"uint256"}],"stateMutability":"view"},{"type":"function","name":"getRarityCounts","inputs":[],"outputs":[{"name":"rCount","type":"uint256","internalType":"uint256"},{"name":"srCount","type":"uint256","internalType":"uint256"},{"name":"ssrCount","type":"uint256","internalType":"uint256"},{"name":"urCount","type":"uint256","internalType":"uint256"}],"stateMutability":"view"},{"type":"function","name":"getSocialBonus","inputs":[{"name":"nfcUID","type":"string","internalType":"string"}],"outputs":[{"name":"","type":"uint256","internalType":"uint256"}],"stateMutability":"view"},{"type":"function","name":"getUserCats","inputs":[{"name":"user","type":"address","internalType":"address"}],"outputs":[{"name":"","type":"uint256[]","internalType":"uint256[]"}],"stateMutability":"view"},{"type":"function","name":"hasInteracted","inputs":[{"name":"nfc1","type":"string","internalType":"string"},{"name":"nfc2","type":"string","internalType":"string"}],"outputs":[{"name":"","type":"bool","internalType":"bool"}],"stateMutability":"view"},{"type":"function","name":"interactedNFCs","inputs":[{"name":"","type":"string","internalType":"string"},{"name":"","type":"uint256","internalType":"uint256"}],"outputs":[{"name":"","type":"string","internalType":"string"}],"stateMutability":"view"},{"type":"function","name":"isApprovedForAll","inputs":[{"name":"owner","type":"address","internalType":"address"},{"name":"operator","type":"address","internalType":"address"}],"outputs":[{"name":"","type":"bool","internalType":"bool"}],"stateMutability":"view"},{"type":"function","name":"isColorUsed","inputs":[{"name":"color","type":"string","internalType":"string"}],"outputs":[{"name":"","type":"bool","internalType":"bool"}],"stateMutability":"view"},{"type":"function","name":"isNameUsed","inputs":[{"name":"name","type":"string","internalType":"string"}],"outputs":[{"name":"","type":"bool","internalType":"bool"}],"stateMutability":"view"},{"type":"function","name":"isRainbowCatMinted","inputs":[],"outputs":[{"name":"","type":"bool","internalType":"bool"}],"stateMutability":"view"},{"type":"function","name":"name","inputs":[],"outputs":[{"name":"","type":"string","internalType":"string"}],"stateMutability":"view"},{"type":"function","name":"nfcRegistry","inputs":[],"outputs":[{"name":"","type":"address","internalType":"contract INFCWalletRegistry"}],"stateMutability":"view"},{"type":"function","name":"owner","inputs":[],"outputs":[{"name":"","type":"address","internalType":"address"}],"stateMutability":"view"},{"type":"function","name":"ownerOf","inputs":[{"name":"tokenId","type":"uint256","internalType":"uint256"}],"outputs":[{"name":"","type":"address","internalType":"address"}],"stateMutability":"view"},{"type":"function","name":"rainbowCatMinted","inputs":[],"outputs":[{"name":"","type":"bool","internalType":"bool"}],"stateMutability":"view"},{"type":"function","name":"rainbowCatTokenId","inputs":[],"outputs":[{"name":"","type":"uint256","internalType":"uint256"}],"stateMutability":"view"},{"type":"function","name":"rarityCounts","inputs":[{"name":"","type":"uint8","internalType":"enum CatNFT.CatRarity"}],"outputs":[{"name":"","type":"uint256","internalType":"uint256"}],"stateMutability":"view"},{"type":"function","name":"renounceOwnership","inputs":[],"outputs":[],"stateMutability":"nonpayable"},{"type":"function","name":"safeTransferFrom","inputs":[{"name":"from","type":"address","internalType":"address"},{"name":"to","type":"address","internalType":"address"},{"name":"tokenId","type":"uint256","internalType":"uint256"}],"outputs":[],"stateMutability":"nonpayable"},{"type":"function","name":"safeTransferFrom","inputs":[{"name":"from","type":"address","internalType":"address"},{"name":"to","type":"address","internalType":"address"},{"name":"tokenId","type":"uint256","internalType":"uint256"},{"name":"data","type":"bytes","internalType":"bytes"}],"outputs":[],"stateMutability":"nonpayable"},{"type":"function","name":"setApprovalForAll","inputs":[{"name":"operator","type":"address","internalType":"address"},{"name":"approved","type":"bool","internalType":"bool"}],"outputs":[],"stateMutability":"nonpayable"},{"type":"function","name":"setAuthorizedOperator","inputs":[{"name":"operator","type":"address","internalType":"address"},{"name":"authorized","type":"bool","internalType":"bool"}],"outputs":[],"stateMutability":"nonpayable"},{"type":"function","name":"setDrawFee","inputs":[{"name":"newFee","type":"uint256","internalType":"uint256"}],"outputs":[],"stateMutability":"nonpayable"},{"type":"function","name":"setNFCRegistry","inputs":[{"name":"_nfcRegistry","type":"address","internalType":"address"}],"outputs":[],"stateMutability":"nonpayable"},{"type":"function","name":"socialDrawCatNFT","inputs":[{"name":"myNFC","type":"string","internalType":"string"},{"name":"otherNFC","type":"string","internalType":"string"},{"name":"catName","type":"string","internalType":"string"}],"outputs":[],"stateMutability":"payable"},{"type":"function","name":"socialInteractions","inputs":[{"name":"","type":"string","internalType":"string"},{"name":"","type":"string","internalType":"string"}],"outputs":[{"name":"","type":"bool","internalType":"bool"}],"stateMutability":"view"},{"type":"function","name":"supportsInterface","inputs":[{"name":"interfaceId","type":"bytes4","internalType":"bytes4"}],"outputs":[{"name":"","type":"bool","internalType":"bool"}],"stateMutability":"view"},{"type":"function","name":"symbol","inputs":[],"outputs":[{"name":"","type":"string","internalType":"string"}],"stateMutability":"view"},{"type":"function","name":"tokenURI","inputs":[{"name":"tokenId","type":"uint256","internalType":"uint256"}],"outputs":[{"name":"","type":"string","internalType":"string"}],"stateMutability":"view"},{"type":"function","name":"transferCatNFT","inputs":[{"name":"tokenId","type":"uint256","internalType":"uint256"},{"name":"to","type":"address","internalType":"address"}],"outputs":[],"stateMutability":"nonpayable"},{"type":"function","name":"transferFrom","inputs":[{"name":"from","type":"address","internalType":"address"},{"name":"to","type":"address","internalType":"address"},{"name":"tokenId","type":"uint256","internalType":"uint256"}],"outputs":[],"stateMutability":"nonpayable"},{"type":"function","name":"transferOwnership","inputs":[{"name":"newOwner","type":"address","internalType":"address"}],"outputs":[],"stateMutability":"nonpayable"},{"type":"function","name":"updateCatMetadata","inputs":[{"name":"tokenId","type":"uint256","internalType":"uint256"},{"name":"metadata","type":"string","internalType":"string"}],"outputs":[],"stateMutability":"nonpayable"},{"type":"function","name":"usedCatNames","inputs":[{"name":"","type":"string","internalType":"string"}],"outputs":[{"name":"","type":"bool","internalType":"bool"}],"stateMutability":"view"},{"type":"function","name":"usedColors","inputs":[{"name":"","type":"string","internalType":"string"}],"outputs":[{"name":"","type":"bool","internalType":"bool"}],"stateMutability":"view"},{"type":"function","name":"userCats","inputs":[{"name":"","type":"address","internalType":"address"},{"name":"","type":"uint256","internalType":"uint256"}],"outputs":[{"name":"","type":"uint256","internalType":"uint256"}],"stateMutability":"view"},{"type":"function","name":"withdraw","inputs":[],"outputs":[],"stateMutability":"nonpayable"},{"type":"event","name":"Approval","inputs":[{"name":"owner","type":"address","indexed":true,"internalType":"address"},{"name":"approved","type":"address","indexed":true,"internalType":"address"},{"name":"tokenId","type":"uint256","indexed":true,"internalType":"uint256"}],"anonymous":false},{"type":"event","name":"ApprovalForAll","inputs":[{"name":"owner","type":"address","indexed":true,"internalType":"address"},{"name":"operator","type":"address","indexed":true,"internalType":"address"},{"name":"approved","type":"bool","indexed":false,"internalType":"bool"}],"anonymous":false},{"type":"event","name":"BatchMetadataUpdate","inputs":[{"name":"_fromTokenId","type":"uint256","indexed":false,"internalType":"uint256"},{"name":"_toTokenId","type":"uint256","indexed":false,"internalType":"uint256"}],"anonymous":false},{"type":"event","name":"CatNFTMinted","inputs":[{"name":"tokenId","type":"uint256","indexed":true,"internalType":"uint256"},{"name":"name","type":"string","indexed":true,"internalType":"string"},{"name":"rarity","type":"uint8","indexed":false,"internalType":"enum CatNFT.CatRarity"},{"name":"color","type":"string","indexed":false,"internalType":"string"},{"name":"owner","type":"address","indexed":true,"internalType":"address"},{"name":"mintedAt","type":"uint256","indexed":false,"internalType":"uint256"}],"anonymous":false},{"type":"event","name":"CatNFTTransferred","inputs":[{"name":"tokenId","type":"uint256","indexed":true,"internalType":"uint256"},{"name":"name","type":"string","indexed":true,"internalType":"string"},{"name":"from","type":"address","indexed":true,"internalType":"address"},{"name":"to","type":"address","indexed":false,"internalType":"address"}],"anonymous":false},{"type":"event","name":"MetadataUpdate","inputs":[{"name":"_tokenId","type":"uint256","indexed":false,"internalType":"uint256"}],"anonymous":false},{"type":"event","name":"NFCRegistryUpdated","inputs":[{"name":"oldRegistry","type":"address","indexed":true,"internalType":"address"},{"name":"newRegistry","type":"address","indexed":true,"internalType":"address"}],"anonymous":false},{"type":"event","name":"OperatorAuthorized","inputs":[{"name":"operator","type":"address","indexed":true,"internalType":"address"},{"name":"authorized","type":"bool","indexed":false,"internalType":"bool"}],"anonymous":false},{"type":"event","name":"OwnershipTransferred","inputs":[{"name":"previousOwner","type":"address","indexed":true,"internalType":"address"},{"name":"newOwner","type":"address","indexed":true,"internalType":"address"}],"anonymous":false},{"type":"event","name":"RainbowCatFound","inputs":[{"name":"tokenId","type":"uint256","indexed":true,"internalType":"uint256"},{"name":"name","type":"string","indexed":true,"internalType":"string"},{"name":"finder","type":"address","indexed":true,"internalType":"address"},{"name":"mintedAt","type":"uint256","indexed":false,"internalType":"uint256"}],"anonymous":false},{"type":"event","name":"SocialDrawCompleted","inputs":[{"name":"myNFC","type":"string","indexed":true,"internalType":"string"},{"name":"otherNFC","type":"string","indexed":true,"internalType":"string"},{"name":"tokenId","type":"uint256","indexed":true,"internalType":"uint256"},{"name":"catName","type":"string","indexed":false,"internalType":"string"},{"name":"rarity","type":"uint8","indexed":false,"internalType":"enum CatNFT.CatRarity"},{"name":"color","type":"string","indexed":false,"internalType":"string"},{"name":"drawCount","type":"uint256","indexed":false,"internalType":"uint256"}],"anonymous":false},{"type":"event","name":"Transfer","inputs":[{"name":"from","type":"address","indexed":true,"internalType":"address"},{"name":"to","type":"address","indexed":true,"internalType":"address"},{"name":"tokenId","type":"uint256","indexed":true,"internalType":"uint256"}],"anonymous":false},{"type":"error","name":"ERC721IncorrectOwner","inputs":[{"name":"sender","type":"address","internalType":"address"},{"name":"tokenId","type":"uint256","internalType":"uint256"},{"name":"owner","type":"address","internalType":"address"}]},{"type":"error","name":"ERC721InsufficientApproval","inputs":[{"name":"operator","type":"address","internalType":"address"},{"name":"tokenId","type":"uint256","internalType":"uint256"}]},{"type":"error","name":"ERC721InvalidApprover","inputs":[{"name":"approver","type":"address","internalType":"address"}]},{"type":"error","name":"ERC721InvalidOperator","inputs":[{"name":"operator","type":"address","internalType":"address"}]},{"type":"error","name":"ERC721InvalidOwner","inputs":[{"name":"owner","type":"address","internalType":"address"}]},{"type":"error","name":"ERC721InvalidReceiver","inputs":[{"name":"receiver","type":"address","internalType":"address"}]},{"type":"error","name":"ERC721InvalidSender","inputs":[{"name":"sender","type":"address","internalType":"address"}]},{"type":"error","name":"ERC721NonexistentToken","inputs":[{"name":"tokenId","type":"uint256","internalType":"uint256"}]},{"type":"error","name":"OwnableInvalidOwner","inputs":[{"name":"owner","type":"address","internalType":"address"}]},{"type":"error","name":"OwnableUnauthorizedAccount","inputs":[{"name":"account","type":"address","internalType":"address"}]},{"type":"error","name":"ReentrancyGuardReentrantCall","inputs":[]}],"bytecode":{"object":"0x608060405267016345785d8a00006012556015805460ff19169055348015610025575f5ffd5b506040516146fc3803806146fc833981016040819052610044916101c1565b336040518060400160405280600781526020016610d85d0813919560ca1b8152506040518060400160405280600381526020016210d05560ea1b815250815f908161008f9190610286565b50600161009c8282610286565b5050506001600160a01b0381166100cd57604051631e4fbdf760e01b81525f60048201526024015b60405180910390fd5b6100d681610170565b5060016008556001600160a01b0381166101325760405162461bcd60e51b815260206004820152601c60248201527f496e76616c6964204e464320726567697374727920616464726573730000000060448201526064016100c4565b601380546001600160a01b0319166001600160a01b0392909216919091179055335f908152601460205260409020805460ff19166001179055610340565b600780546001600160a01b038381166001600160a01b0319831681179093556040519116919082907f8be0079c531659141344cd1fd0a4f28419497f9722a3daafe3b4186f6b6457e0905f90a35050565b5f602082840312156101d1575f5ffd5b81516001600160a01b03811681146101e7575f5ffd5b9392505050565b634e487b7160e01b5f52604160045260245ffd5b600181811c9082168061021657607f821691505b60208210810361023457634e487b7160e01b5f52602260045260245ffd5b50919050565b601f82111561028157805f5260205f20601f840160051c8101602085101561025f5750805b601f840160051c820191505b8181101561027e575f815560010161026b565b50505b505050565b81516001600160401b0381111561029f5761029f6101ee565b6102b3816102ad8454610202565b8461023a565b6020601f8211600181146102e5575f83156102ce5750848201515b5f19600385901b1c1916600184901b17845561027e565b5f84815260208120601f198516915b8281101561031457878501518255602094850194600190920191016102f4565b508482101561033157868401515f19600387901b60f8161c191681555b50505050600190811b01905550565b6143af8061034d5f395ff3fe608060405260043610610366575f3560e01c8063715018a6116101c8578063c75da8d5116100fd578063e985e9c51161009d578063f968e8001161006d578063f968e80014610a54578063f9be195514610a73578063faca830514610aaa578063fe28c67514610ad6575f5ffd5b8063e985e9c5146109e4578063ec75d62214610a03578063f2fde38b14610a22578063f55426ee14610a41575f5ffd5b8063d4924afc116100d8578063d4924afc14610972578063d75e30cf14610991578063e0ac3d3c146109a6578063e7697265146109c5575f5ffd5b8063c75da8d51461091d578063c87b56dd1461093c578063ce5d79301461095b575f5ffd5b806393c87f0311610168578063a3fbbb7411610143578063a3fbbb741461087a578063a4fc1a13146108a5578063b88d4fde146108c4578063c08ee6ca146108e3575f5ffd5b806393c87f03146106c457806395d89b4114610847578063a22cb4651461085b575f5ffd5b806386d17084116101a357806386d17084146106b0578063879709a1146107ec5780638da5cb5b1461080b5780638df2de2514610828575f5ffd5b8063715018a6146107a057806374f796ce146107b4578063788f737d146107cd575f5ffd5b80633a06831c1161029e578063554d19521161023e5780636352211e116102195780636352211e1461072e5780636c569d581461074d5780636c5ef2dc1461076257806370a0823114610781575f5ffd5b8063554d1952146106d8578063594fd73c146106ed5780635de32ef514610702575f5ffd5b80633ed24510116102795780633ed245101461067257806342842e0e1461069157806348c5f80e146106b057806351858e27146106c4575f5ffd5b80633a06831c1461062c5780633a1efd0c1461064b5780633ccfd60b1461065e575f5ffd5b80631f71bab411610309578063310c71ae116102e4578063310c71ae1461059d578063320b27cb146105c957806333ce3dbe146105e857806334ded72d14610618575f5ffd5b80631f71bab4146104a25780631fa0783e1461055f57806323b872dd1461057e575f5ffd5b8063095ea7b311610344578063095ea7b3146103f65780631083f8c2146104175780631715b8c614610451578063181d989b14610474575f5ffd5b806301ffc9a71461036a57806306fdde031461039e578063081812fc146103bf575b5f5ffd5b348015610375575f5ffd5b5061038961038436600461379d565b610b2d565b60405190151581526020015b60405180910390f35b3480156103a9575f5ffd5b506103b2610b3d565b60405161039591906137e6565b3480156103ca575f5ffd5b506103de6103d93660046137f8565b610bcc565b6040516001600160a01b039091168152602001610395565b348015610401575f5ffd5b50610415610410366004613823565b610bf3565b005b348015610422575f5ffd5b50610389610431366004613910565b8051602081830181018051600d8252928201919093012091525460ff1681565b34801561045c575f5ffd5b5061046661177081565b604051908152602001610395565b34801561047f575f5ffd5b5061038961048e366004613941565b60146020525f908152604090205460ff1681565b3480156104ad575f5ffd5b50600c6020527f13649b2456f1b42fef0f0040b3aaeabcd21a76a0f3f5defd4f583839455116e8547fd421a5181c571bba3f01190c922c3b2a896fc1d84e86c9f17ac10e67ebef8b5c547f5d6016397a73f5e079297ac5a36fef17b4d9c3831618e63ab105738020ddd7205460035f527fc0da782485e77ae272268ae0a3ff44c1552ecb60b3743924de17a815e0a3cfd754604080519485526020850193909352918301526060820152608001610395565b34801561056a575f5ffd5b5061041561057936600461395c565b610c02565b348015610589575f5ffd5b506104156105983660046139bf565b610ca8565b3480156105a8575f5ffd5b506105bc6105b7366004613941565b610d36565b60405161039591906139fd565b3480156105d4575f5ffd5b506103b26105e3366004613a3f565b610d9f565b3480156105f3575f5ffd5b506106076106023660046137f8565b610e61565b604051610395959493929190613ab4565b348015610623575f5ffd5b50610466611029565b348015610637575f5ffd5b506013546103de906001600160a01b031681565b610415610659366004613b0b565b611084565b348015610669575f5ffd5b50610415611a57565b34801561067d575f5ffd5b5061041561068c366004613b96565b611a98565b34801561069c575f5ffd5b506104156106ab3660046139bf565b611b5e565b3480156106bb575f5ffd5b50610466606481565b3480156106cf575f5ffd5b50610415611b78565b3480156106e3575f5ffd5b50610466610bb881565b3480156106f8575f5ffd5b5061046660165481565b34801561070d575f5ffd5b5061072161071c3660046137f8565b611b82565b6040516103959190613bc3565b348015610739575f5ffd5b506103de6107483660046137f8565b611e1a565b348015610758575f5ffd5b5061046661038481565b34801561076d575f5ffd5b5061046661077c366004613910565b611e24565b34801561078c575f5ffd5b5061046661079b366004613941565b611e50565b3480156107ab575f5ffd5b50610415611e95565b3480156107bf575f5ffd5b506015546103899060ff1681565b3480156107d8575f5ffd5b506104156107e7366004613c43565b611ea6565b3480156107f7575f5ffd5b50610415610806366004613d0a565b611f0c565b348015610816575f5ffd5b506007546001600160a01b03166103de565b348015610833575f5ffd5b50610415610842366004613941565b612053565b348015610852575f5ffd5b506103b26120f4565b348015610866575f5ffd5b50610415610875366004613c43565b612103565b348015610885575f5ffd5b50610466610894366004613dc3565b600c6020525f908152604090205481565b3480156108b0575f5ffd5b506104666108bf366004613823565b61210e565b3480156108cf575f5ffd5b506104156108de366004613de1565b612139565b3480156108ee575f5ffd5b506103896108fd366004613910565b8051602081830181018051600e8252928201919093012091525460ff1681565b348015610928575f5ffd5b506104156109373660046137f8565b612151565b348015610947575f5ffd5b506103b26109563660046137f8565b61215e565b348015610966575f5ffd5b5060155460ff16610389565b34801561097d575f5ffd5b5061038961098c366004613910565b612169565b34801561099c575f5ffd5b5061046660125481565b3480156109b1575f5ffd5b506103896109c036600461395c565b612193565b3480156109d0575f5ffd5b506104156109df366004613e5b565b6121db565b3480156109ef575f5ffd5b506103896109fe366004613e7e565b612374565b348015610a0e575f5ffd5b50610389610a1d366004613910565b6123a1565b348015610a2d575f5ffd5b50610415610a3c366004613941565b6123b2565b610415610a4f366004613910565b6123ec565b348015610a5f575f5ffd5b50610466610a6e366004613910565b6127ef565b348015610a7e575f5ffd5b50610466610a8d366004613910565b805160208183018101805160108252928201919093012091525481565b348015610ab5575f5ffd5b50610ac9610ac4366004613910565b612816565b6040516103959190613eaa565b348015610ae1575f5ffd5b50610389610af036600461395c565b8151602081840181018051600f82529282019482019490942091909352815180830184018051928152908401929093019190912091525460ff1681565b5f610b3782612908565b92915050565b60605f8054610b4b90613f0d565b80601f0160208091040260200160405190810160405280929190818152602001828054610b7790613f0d565b8015610bc25780601f10610b9957610100808354040283529160200191610bc2565b820191905f5260205f20905b815481529060010190602001808311610ba557829003601f168201915b5050505050905090565b5f610bd68261292c565b505f828152600460205260409020546001600160a01b0316610b37565b610bfe828233612964565b5050565b610c0a612971565b5f600f83604051610c1b9190613f5c565b908152602001604051809103902082604051610c379190613f5c565b908152604051908190036020018120805492151560ff19909316929092179091555f90600f90610c68908490613f5c565b908152602001604051809103902083604051610c849190613f5c565b908152604051908190036020019020805491151560ff199092169190911790555050565b6001600160a01b038216610cd657604051633250574960e11b81525f60048201526024015b60405180910390fd5b5f610ce283833361299e565b9050836001600160a01b0316816001600160a01b031614610d30576040516364283d7b60e01b81526001600160a01b0380861660048301526024820184905282166044820152606401610ccd565b50505050565b6001600160a01b0381165f908152600b6020908152604091829020805483518184028101840190945280845260609392830182828015610d9357602002820191905f5260205f20905b815481526020019060010190808311610d7f575b50505050509050919050565b81516020818401810180516011825292820191850191909120919052805482908110610dc9575f80fd5b905f5260205f20015f91509150508054610de290613f0d565b80601f0160208091040260200160405190810160405280929190818152602001828054610e0e90613f0d565b8015610e595780601f10610e3057610100808354040283529160200191610e59565b820191905f5260205f20905b815481529060010190602001808311610e3c57829003601f168201915b505050505081565b600a6020525f9081526040902080548190610e7b90613f0d565b80601f0160208091040260200160405190810160405280929190818152602001828054610ea790613f0d565b8015610ef25780601f10610ec957610100808354040283529160200191610ef2565b820191905f5260205f20905b815481529060010190602001808311610ed557829003601f168201915b5050506001840154600285018054949560ff909216949193509150610f1690613f0d565b80601f0160208091040260200160405190810160405280929190818152602001828054610f4290613f0d565b8015610f8d5780601f10610f6457610100808354040283529160200191610f8d565b820191905f5260205f20905b815481529060010190602001808311610f7057829003601f168201915b505050505090806003015490806004018054610fa890613f0d565b80601f0160208091040260200160405190810160405280929190818152602001828054610fd490613f0d565b801561101f5780601f10610ff65761010080835404028352916020019161101f565b820191905f5260205f20905b81548152906001019060200180831161100257829003601f168201915b5050505050905085565b6015545f9060ff1661107d5760405162461bcd60e51b815260206004820152601a60248201527f5261696e626f7720636174206e6f74206d696e746564207965740000000000006044820152606401610ccd565b5060165490565b61108c612a90565b335f9081526014602052604090205460ff16806110b357506007546001600160a01b031633145b6110ff5760405162461bcd60e51b815260206004820152601760248201527f4e6f7420617574686f72697a6564206f70657261746f720000000000000000006044820152606401610ccd565b6012543410156111495760405162461bcd60e51b8152602060048201526015602482015274496e73756666696369656e7420647261772066656560581b6044820152606401610ccd565b5f8151116111945760405162461bcd60e51b8152602060048201526018602482015277436174206e616d652063616e6e6f7420626520656d70747960401b6044820152606401610ccd565b600d816040516111a49190613f5c565b9081526040519081900360200190205460ff16156111fc5760405162461bcd60e51b815260206004820152601560248201527410d85d081b985b5948185b1c9958591e481d5cd959605a1b6044820152606401610ccd565b5f8351116112415760405162461bcd60e51b8152602060048201526012602482015271125b9d985b1a59081b5e48139190c815525160721b6044820152606401610ccd565b5f8251116112895760405162461bcd60e51b8152602060048201526015602482015274125b9d985b1a59081bdd1a195c88139190c8155251605a1b6044820152606401610ccd565b81805190602001208380519060200120036112e65760405162461bcd60e51b815260206004820152601d60248201527f43616e6e6f7420696e746572616374207769746820796f757273656c660000006044820152606401610ccd565b601354604051630af9711360e21b81526001600160a01b0390911690632be5c44c906113169086906004016137e6565b602060405180830381865afa158015611331573d5f5f3e3d5ffd5b505050506040513d601f19601f820116820180604052508101906113559190613f67565b6113995760405162461bcd60e51b8152602060048201526015602482015274135e48139190c81b9bdd081c9959da5cdd195c9959605a1b6044820152606401610ccd565b601354604051630af9711360e21b81526001600160a01b0390911690632be5c44c906113c99085906004016137e6565b602060405180830381865afa1580156113e4573d5f5f3e3d5ffd5b505050506040513d601f19601f820116820180604052508101906114089190613f67565b6114545760405162461bcd60e51b815260206004820152601860248201527f4f74686572204e4643206e6f74207265676973746572656400000000000000006044820152606401610ccd565b600f836040516114649190613f5c565b9081526020016040518091039020826040516114809190613f5c565b9081526040519081900360200190205460ff16156114e05760405162461bcd60e51b815260206004820181905260248201527f416c726561647920696e746572616374656420776974682074686973204e46436044820152606401610ccd565b60135460405163b5fcabc560e01b81525f916001600160a01b03169063b5fcabc5906115109087906004016137e6565b5f60405180830381865afa15801561152a573d5f5f3e3d5ffd5b505050506040513d5f823e601f3d908101601f191682016040526115519190810190613f82565b505050506001600160a01b0382165f908152600b6020526040902054919250506064116115b05760405162461bcd60e51b815260206004820152600d60248201526c546f6f206d616e79206361747360981b6044820152606401610ccd565b6001600f856040516115c29190613f5c565b9081526020016040518091039020846040516115de9190613f5c565b908152604051908190036020018120805492151560ff1990931692909217909155600190600f90611610908690613f5c565b90815260200160405180910390208560405161162c9190613f5c565b908152604051908190036020018120805492151560ff199093169290921790915560119061165b908690613f5c565b9081526040516020918190038201902080546001810182555f918252919020016116858482614086565b506011836040516116969190613f5c565b9081526040516020918190038201902080546001810182555f918252919020016116c08582614086565b506010846040516116d19190613f5c565b9081526040519081900360200190208054905f6116ed83614154565b909155505060098054905f61170183614154565b90915550506009545f61171386612aba565b90505f61171f82612bb8565b90505f6040518060a0016040528087815260200184600381111561174557611745613a80565b815260200183815260200142815260200188604051602001611767919061416c565b60408051601f1981840301815291815291525f868152600a602052208151919250829181906117969082614086565b50602082015160018083018054909160ff19909116908360038111156117be576117be613a80565b0217905550604082015160028201906117d79082614086565b5060608201516003820155608082015160048201906117f69082614086565b509050506001600d8760405161180c9190613f5c565b908152604051908190036020018120805492151560ff1990931692909217909155600190600e9061183e908590613f5c565b908152604051908190036020019020805491151560ff19909216919091179055600c5f84600381111561187357611873613a80565b600381111561188457611884613a80565b81526020019081526020015f205f8154809291906118a190614154565b90915550600390508360038111156118bb576118bb613a80565b0361192e576015805460ff1916600117905560168490556040516001600160a01b038616906118eb908890613f5c565b6040518091039020857fce53851d0b68acd266655e2f0c7a26243add74023bec372a5a47e2745c25bf034260405161192591815260200190565b60405180910390a45b6001600160a01b0385165f908152600b60209081526040822080546001810182559083529120018490556119628585612d30565b83876040516119719190613f5c565b6040518091039020896040516119879190613f5c565b60405180910390207fb28ff3e98b0e3a63d5e1bff20c6d1b8929bf990c454f536fb4cda1e331997a8589878760108f6040516119c39190613f5c565b908152604051908190036020018120546119df9493929161418c565b60405180910390a4846001600160a01b0316866040516119ff9190613f5c565b6040518091039020857ff145aeb4d3ef6c948b8d380f8388039a29cbdccdc94f7a7c1ad2f4fe318eea63868642604051611a3b939291906141cf565b60405180910390a45050505050611a526001600855565b505050565b611a5f612971565b6007546040516001600160a01b03909116904780156108fc02915f818181858888f19350505050158015611a95573d5f5f3e3d5ffd5b50565b5f828152600260205260409020546001600160a01b0316611af25760405162461bcd60e51b8152602060048201526014602482015273151bdad95b88191bd95cc81b9bdd08195e1a5cdd60621b6044820152606401610ccd565b33611afc83611e1a565b6001600160a01b031614611b445760405162461bcd60e51b815260206004820152600f60248201526e2737ba103a37b5b2b71037bbb732b960891b6044820152606401610ccd565b5f828152600a60205260409020600401611a528282614086565b611a5283838360405180602001604052805f815250612139565b611b80612971565b565b611bb36040805160a0810190915260608152602081015f8152602001606081526020015f8152602001606081525090565b5f828152600260205260409020546001600160a01b0316611c0f5760405162461bcd60e51b815260206004820152601660248201527510d85d0813919508191bd95cc81b9bdd08195e1a5cdd60521b6044820152606401610ccd565b5f828152600a602052604090819020815160a08101909252805482908290611c3690613f0d565b80601f0160208091040260200160405190810160405280929190818152602001828054611c6290613f0d565b8015611cad5780601f10611c8457610100808354040283529160200191611cad565b820191905f5260205f20905b815481529060010190602001808311611c9057829003601f168201915b5050509183525050600182015460209091019060ff166003811115611cd457611cd4613a80565b6003811115611ce557611ce5613a80565b8152602001600282018054611cf990613f0d565b80601f0160208091040260200160405190810160405280929190818152602001828054611d2590613f0d565b8015611d705780601f10611d4757610100808354040283529160200191611d70565b820191905f5260205f20905b815481529060010190602001808311611d5357829003601f168201915b5050505050815260200160038201548152602001600482018054611d9390613f0d565b80601f0160208091040260200160405190810160405280929190818152602001828054611dbf90613f0d565b8015611e0a5780601f10611de157610100808354040283529160200191611e0a565b820191905f5260205f20905b815481529060010190602001808311611ded57829003601f168201915b5050505050815250509050919050565b5f610b378261292c565b5f601082604051611e359190613f5c565b9081526020016040518091039020546032610b3791906141fe565b5f6001600160a01b038216611e7a576040516322718ad960e21b81525f6004820152602401610ccd565b506001600160a01b03165f9081526003602052604090205490565b611e9d612971565b611b805f612d49565b611eae612971565b6001600160a01b0382165f81815260146020908152604091829020805460ff191685151590811790915591519182527fc176fcf7d48a6aca0d96d3b3201f7add47c4af04ce9a51f5f4eb15d528c46e21910160405180910390a25050565b611f14612971565b8051825114611f5d5760405162461bcd60e51b8152602060048201526015602482015274082e4e4c2f240d8cadccee8d040dad2e6dac2e8c6d605b1b6044820152606401610ccd565b5f5b8251811015611a5257818181518110611f7a57611f7a614215565b602002602001015160145f858481518110611f9757611f97614215565b60200260200101516001600160a01b03166001600160a01b031681526020019081526020015f205f6101000a81548160ff021916908315150217905550828181518110611fe657611fe6614215565b60200260200101516001600160a01b03167fc176fcf7d48a6aca0d96d3b3201f7add47c4af04ce9a51f5f4eb15d528c46e2183838151811061202a5761202a614215565b6020026020010151604051612043911515815260200190565b60405180910390a2600101611f5f565b61205b612971565b6001600160a01b0381166120a35760405162461bcd60e51b815260206004820152600f60248201526e496e76616c6964206164647265737360881b6044820152606401610ccd565b601380546001600160a01b038381166001600160a01b0319831681179093556040519116919082907fc88229f1d8e54d31f640a733927bc56d9fcbb8cf9c2b6b87f81fc713c49bc647905f90a35050565b606060018054610b4b90613f0d565b610bfe338383612d9a565b600b602052815f5260405f208181548110612127575f80fd5b905f5260205f20015f91509150505481565b612144848484610ca8565b610d303385858585612e38565b612159612971565b601255565b6060610b3782612f60565b5f600e8260405161217a9190613f5c565b9081526040519081900360200190205460ff1692915050565b5f600f836040516121a49190613f5c565b9081526020016040518091039020826040516121c09190613f5c565b9081526040519081900360200190205460ff16905092915050565b5f828152600260205260409020546001600160a01b03166122375760405162461bcd60e51b815260206004820152601660248201527510d85d0813919508191bd95cc81b9bdd08195e1a5cdd60521b6044820152606401610ccd565b3361224183611e1a565b6001600160a01b0316146122875760405162461bcd60e51b815260206004820152600d60248201526c2737ba103a34329037bbb732b960991b6044820152606401610ccd565b6001600160a01b0381166122d15760405162461bcd60e51b8152602060048201526011602482015270125b9d985b1a59081c9958da5c1a595b9d607a1b6044820152606401610ccd565b6122dc33828461306b565b6122e63383613118565b6001600160a01b0381165f908152600b60209081526040808320805460018101825590845282842001859055848352600a909152908190209051339161232b91614229565b6040519081900381206001600160a01b03841682529084907f3cb5a656d154c15807b50e1a587c8f4c709d373a2a18d4e676d13e29af0bd3dd9060200160405180910390a45050565b6001600160a01b039182165f90815260056020908152604080832093909416825291909152205460ff1690565b5f600d8260405161217a9190613f5c565b6123ba612971565b6001600160a01b0381166123e357604051631e4fbdf760e01b81525f6004820152602401610ccd565b611a9581612d49565b6123f4612a90565b60125434101561243e5760405162461bcd60e51b8152602060048201526015602482015274496e73756666696369656e7420647261772066656560581b6044820152606401610ccd565b5f8151116124895760405162461bcd60e51b8152602060048201526018602482015277436174206e616d652063616e6e6f7420626520656d70747960401b6044820152606401610ccd565b600d816040516124999190613f5c565b9081526040519081900360200190205460ff16156124f15760405162461bcd60e51b815260206004820152601560248201527410d85d081b985b5948185b1c9958591e481d5cd959605a1b6044820152606401610ccd565b335f908152600b602052604090205460641161253f5760405162461bcd60e51b815260206004820152600d60248201526c546f6f206d616e79206361747360981b6044820152606401610ccd565b60098054905f61254e83614154565b90915550506009545f61255f6131d2565b90505f61256b82612bb8565b90505f6040518060a0016040528086815260200184600381111561259157612591613a80565b8152602080820185905242604080840191909152805180830182525f808252606090940152878352600a90915290208151919250829181906125d39082614086565b50602082015160018083018054909160ff19909116908360038111156125fb576125fb613a80565b0217905550604082015160028201906126149082614086565b5060608201516003820155608082015160048201906126339082614086565b509050506001600d866040516126499190613f5c565b908152604051908190036020018120805492151560ff1990931692909217909155600190600e9061267b908590613f5c565b908152604051908190036020019020805491151560ff19909216919091179055600c5f8460038111156126b0576126b0613a80565b60038111156126c1576126c1613a80565b81526020019081526020015f205f8154809291906126de90614154565b90915550600390508360038111156126f8576126f8613a80565b03612762576015805460ff191660011790556016849055604051339061271f908790613f5c565b6040518091039020857fce53851d0b68acd266655e2f0c7a26243add74023bec372a5a47e2745c25bf034260405161275991815260200190565b60405180910390a45b335f818152600b602090815260408220805460018101825590835291200185905561278d9085612d30565b604051339061279d908790613f5c565b6040518091039020857ff145aeb4d3ef6c948b8d380f8388039a29cbdccdc94f7a7c1ad2f4fe318eea638686426040516127d9939291906141cf565b60405180910390a450505050611a956001600855565b5f6010826040516128009190613f5c565b9081526020016040518091039020549050919050565b60606011826040516128289190613f5c565b9081526020016040518091039020805480602002602001604051908101604052809291908181526020015f905b828210156128fd578382905f5260205f2001805461287290613f0d565b80601f016020809104026020016040519081016040528092919081815260200182805461289e90613f0d565b80156128e95780601f106128c0576101008083540402835291602001916128e9565b820191905f5260205f20905b8154815290600101906020018083116128cc57829003601f168201915b505050505081526020019060010190612855565b505050509050919050565b5f6001600160e01b03198216632483248360e11b1480610b375750610b3782613250565b5f818152600260205260408120546001600160a01b031680610b3757604051637e27328960e01b815260048101849052602401610ccd565b611a52838383600161329f565b6007546001600160a01b03163314611b805760405163118cdaa760e01b8152336004820152602401610ccd565b5f828152600260205260408120546001600160a01b03908116908316156129ca576129ca8184866133a3565b6001600160a01b03811615612a04576129e55f855f5f61329f565b6001600160a01b0381165f90815260036020526040902080545f190190555b6001600160a01b03851615612a32576001600160a01b0385165f908152600360205260409020805460010190555b5f8481526002602052604080822080546001600160a01b0319166001600160a01b0389811691821790925591518793918516917fddf252ad1be2c89b69c2b068fc378daa952ba7f163c4a11628f55a4df523b3ef91a4949350505050565b600260085403612ab357604051633ee5aeb560e01b815260040160405180910390fd5b6002600855565b5f5f601083604051612acc9190613f5c565b9081526020016040518091039020546032612ae791906141fe565b90505f612af76001612710613407565b90505f612b056004846142ae565b612b109060646142c1565b90505f612b1e6002856142ae565b612b2a906103846142c1565b90505f612b3985610bb86142c1565b9050828411612b675760155460ff1615612b5a575060029695505050505050565b5060039695505050505050565b612b7182846142c1565b8411612b84575060029695505050505050565b80612b8f83856142c1565b612b9991906142c1565b8411612bac575060019695505050505050565b505f9695505050505050565b60606003826003811115612bce57612bce613a80565b03612bf65750506040805180820190915260078152667261696e626f7760c81b602082015290565b6002826003811115612c0a57612c0a613a80565b03612c6f575f612c1c60016002613407565b905080600114612c485760405180604001604052806004815260200163626c756560e01b815250612c68565b60405180604001604052806006815260200165707572706c6560d01b8152505b9392505050565b6001826003811115612c8357612c83613a80565b03612d0f575f612c9560016003613407565b905080600103612cc257505060408051808201909152600581526433b932b2b760d91b6020820152919050565b80600203612ceb5750506040805180820190915260038152621c995960ea1b6020820152919050565b50506040805180820190915260068152656f72616e676560d01b6020820152919050565b5050604080518082019091526005815264626c61636b60d81b602082015290565b610bfe828260405180602001604052805f8152506134d9565b600780546001600160a01b038381166001600160a01b0319831681179093556040519116919082907f8be0079c531659141344cd1fd0a4f28419497f9722a3daafe3b4186f6b6457e0905f90a35050565b6001600160a01b038216612dcc57604051630b61174360e31b81526001600160a01b0383166004820152602401610ccd565b6001600160a01b038381165f81815260056020908152604080832094871680845294825291829020805460ff191686151590811790915591519182527f17307eab39ab6107e8899845ad3d59bd9653f200f220920489ca2b5937696c31910160405180910390a3505050565b6001600160a01b0383163b15612f5957604051630a85bd0160e11b81526001600160a01b0384169063150b7a0290612e7a9088908890879087906004016142d4565b6020604051808303815f875af1925050508015612eb4575060408051601f3d908101601f19168201909252612eb191810190614310565b60015b612f1b573d808015612ee1576040519150601f19603f3d011682016040523d82523d5f602084013e612ee6565b606091505b5080515f03612f1357604051633250574960e11b81526001600160a01b0385166004820152602401610ccd565b805160208201fd5b6001600160e01b03198116630a85bd0160e11b14612f5757604051633250574960e11b81526001600160a01b0385166004820152602401610ccd565b505b5050505050565b6060612f6b8261292c565b505f8281526006602052604081208054612f8490613f0d565b80601f0160208091040260200160405190810160405280929190818152602001828054612fb090613f0d565b8015612ffb5780601f10612fd257610100808354040283529160200191612ffb565b820191905f5260205f20905b815481529060010190602001808311612fde57829003601f168201915b505050505090505f61301760408051602081019091525f815290565b905080515f03613028575092915050565b81511561305a57808260405160200161304292919061432b565b60405160208183030381529060405292505050919050565b613063846134f0565b949350505050565b6001600160a01b03821661309457604051633250574960e11b81525f6004820152602401610ccd565b5f6130a083835f61299e565b90506001600160a01b0381166130cc57604051637e27328960e01b815260048101839052602401610ccd565b836001600160a01b0316816001600160a01b031614610d30576040516364283d7b60e01b81526001600160a01b0380861660048301526024820184905282166044820152606401610ccd565b6001600160a01b0382165f908152600b60205260408120905b8154811015610d30578282828154811061314d5761314d614215565b905f5260205f200154036131ca578154829061316b9060019061433f565b8154811061317b5761317b614215565b905f5260205f20015482828154811061319657613196614215565b905f5260205f200181905550818054806131b2576131b2614352565b600190038181905f5260205f20015f90559055610d30565b600101613131565b5f5f6131e16001612710613407565b9050606481116132065760155460ff16156131fe57600291505090565b600391505090565b61321361038460646142c1565b811161322157600291505090565b610bb861323161038460646142c1565b61323b91906142c1565b811161324957600191505090565b5f91505090565b5f6001600160e01b031982166380ac58cd60e01b148061328057506001600160e01b03198216635b5e139f60e01b145b80610b3757506301ffc9a760e01b6001600160e01b0319831614610b37565b80806132b357506001600160a01b03821615155b15613374575f6132c28461292c565b90506001600160a01b038316158015906132ee5750826001600160a01b0316816001600160a01b031614155b801561330157506132ff8184612374565b155b1561332a5760405163a9fbf51f60e01b81526001600160a01b0384166004820152602401610ccd565b81156133725783856001600160a01b0316826001600160a01b03167f8c5be1e5ebec7d5bd14f71427d1e84f3dd0314c0f7b2291e5b200ac8c7c3b92560405160405180910390a45b505b50505f90815260046020526040902080546001600160a01b0319166001600160a01b0392909216919091179055565b6133ae838383613560565b611a52576001600160a01b0383166133dc57604051637e27328960e01b815260048101829052602401610ccd565b60405163177e802f60e01b81526001600160a01b038316600482015260248101829052604401610ccd565b5f8282116134475760405162461bcd60e51b815260206004820152600d60248201526c496e76616c69642072616e676560981b6044820152606401610ccd565b5f613452848461433f565b61345d9060016142c1565b90505f4244336009546040516020016134a19493929190938452602084019290925260601b6bffffffffffffffffffffffff19166040830152605482015260740190565b60408051601f1981840301815291905280516020909101209050846134c68383614366565b6134d091906142c1565b95945050505050565b6134e383836135c1565b611a52335f858585612e38565b60606134fb8261292c565b505f61351160408051602081019091525f815290565b90505f81511161352f5760405180602001604052805f815250612c68565b8061353984613622565b60405160200161354a92919061432b565b6040516020818303038152906040529392505050565b5f6001600160a01b038316158015906130635750826001600160a01b0316846001600160a01b0316148061359957506135998484612374565b806130635750505f908152600460205260409020546001600160a01b03908116911614919050565b6001600160a01b0382166135ea57604051633250574960e11b81525f6004820152602401610ccd565b5f6135f683835f61299e565b90506001600160a01b03811615611a52576040516339e3563760e11b81525f6004820152602401610ccd565b60605f61362e836136b1565b60010190505f816001600160401b0381111561364c5761364c61384d565b6040519080825280601f01601f191660200182016040528015613676576020820181803683370190505b5090508181016020015b5f19016f181899199a1a9b1b9c1cb0b131b232b360811b600a86061a8153600a850494508461368057509392505050565b5f8072184f03e93ff9f4daa797ed6e38ed64bf6a1f0160401b83106136ef5772184f03e93ff9f4daa797ed6e38ed64bf6a1f0160401b830492506040015b6d04ee2d6d415b85acef8100000000831061371b576d04ee2d6d415b85acef8100000000830492506020015b662386f26fc10000831061373957662386f26fc10000830492506010015b6305f5e1008310613751576305f5e100830492506008015b612710831061376557612710830492506004015b60648310613777576064830492506002015b600a8310610b375760010192915050565b6001600160e01b031981168114611a95575f5ffd5b5f602082840312156137ad575f5ffd5b8135612c6881613788565b5f81518084528060208401602086015e5f602082860101526020601f19601f83011685010191505092915050565b602081525f612c6860208301846137b8565b5f60208284031215613808575f5ffd5b5035919050565b6001600160a01b0381168114611a95575f5ffd5b5f5f60408385031215613834575f5ffd5b823561383f8161380f565b946020939093013593505050565b634e487b7160e01b5f52604160045260245ffd5b604051601f8201601f191681016001600160401b03811182821017156138895761388961384d565b604052919050565b5f6001600160401b038211156138a9576138a961384d565b50601f01601f191660200190565b5f6138c96138c484613891565b613861565b90508281528383830111156138dc575f5ffd5b828260208301375f602084830101529392505050565b5f82601f830112613901575f5ffd5b612c68838335602085016138b7565b5f60208284031215613920575f5ffd5b81356001600160401b03811115613935575f5ffd5b613063848285016138f2565b5f60208284031215613951575f5ffd5b8135612c688161380f565b5f5f6040838503121561396d575f5ffd5b82356001600160401b03811115613982575f5ffd5b61398e858286016138f2565b92505060208301356001600160401b038111156139a9575f5ffd5b6139b5858286016138f2565b9150509250929050565b5f5f5f606084860312156139d1575f5ffd5b83356139dc8161380f565b925060208401356139ec8161380f565b929592945050506040919091013590565b602080825282518282018190525f918401906040840190835b81811015613a34578351835260209384019390920191600101613a16565b509095945050505050565b5f5f60408385031215613a50575f5ffd5b82356001600160401b03811115613a65575f5ffd5b613a71858286016138f2565b95602094909401359450505050565b634e487b7160e01b5f52602160045260245ffd5b60048110613ab057634e487b7160e01b5f52602160045260245ffd5b9052565b60a081525f613ac660a08301886137b8565b613ad36020840188613a94565b8281036040840152613ae581876137b8565b90508460608401528281036080840152613aff81856137b8565b98975050505050505050565b5f5f5f60608486031215613b1d575f5ffd5b83356001600160401b03811115613b32575f5ffd5b613b3e868287016138f2565b93505060208401356001600160401b03811115613b59575f5ffd5b613b65868287016138f2565b92505060408401356001600160401b03811115613b80575f5ffd5b613b8c868287016138f2565b9150509250925092565b5f5f60408385031215613ba7575f5ffd5b8235915060208301356001600160401b038111156139a9575f5ffd5b602081525f825160a06020840152613bde60c08401826137b8565b90506020840151613bf26040850182613a94565b506040840151838203601f19016060850152613c0e82826137b8565b915050606084015160808401526080840151601f198483030160a08501526134d082826137b8565b8015158114611a95575f5ffd5b5f5f60408385031215613c54575f5ffd5b8235613c5f8161380f565b91506020830135613c6f81613c36565b809150509250929050565b5f6001600160401b03821115613c9257613c9261384d565b5060051b60200190565b5f82601f830112613cab575f5ffd5b8135613cb96138c482613c7a565b8082825260208201915060208360051b860101925085831115613cda575f5ffd5b602085015b83811015613d00578035613cf281613c36565b835260209283019201613cdf565b5095945050505050565b5f5f60408385031215613d1b575f5ffd5b82356001600160401b03811115613d30575f5ffd5b8301601f81018513613d40575f5ffd5b8035613d4e6138c482613c7a565b8082825260208201915060208360051b850101925087831115613d6f575f5ffd5b6020840193505b82841015613d9a578335613d898161380f565b825260209384019390910190613d76565b945050505060208301356001600160401b03811115613db7575f5ffd5b6139b585828601613c9c565b5f60208284031215613dd3575f5ffd5b813560048110612c68575f5ffd5b5f5f5f5f60808587031215613df4575f5ffd5b8435613dff8161380f565b93506020850135613e0f8161380f565b92506040850135915060608501356001600160401b03811115613e30575f5ffd5b8501601f81018713613e40575f5ffd5b613e4f878235602084016138b7565b91505092959194509250565b5f5f60408385031215613e6c575f5ffd5b823591506020830135613c6f8161380f565b5f5f60408385031215613e8f575f5ffd5b8235613e9a8161380f565b91506020830135613c6f8161380f565b5f602082016020835280845180835260408501915060408160051b8601019250602086015f5b82811015613f0157603f19878603018452613eec8583516137b8565b94506020938401939190910190600101613ed0565b50929695505050505050565b600181811c90821680613f2157607f821691505b602082108103613f3f57634e487b7160e01b5f52602260045260245ffd5b50919050565b5f81518060208401855e5f93019283525090919050565b5f612c688284613f45565b5f60208284031215613f77575f5ffd5b8151612c6881613c36565b5f5f5f5f5f5f60c08789031215613f97575f5ffd5b8651613fa28161380f565b6020880151604089015160608a01519298509096509450613fc281613c36565b6080880151909350613fd381613c36565b60a08801519092506001600160401b03811115613fee575f5ffd5b8701601f81018913613ffe575f5ffd5b805161400c6138c482613891565b8181528a6020838501011115614020575f5ffd5b8160208401602083015e5f602083830101528093505050509295509295509295565b601f821115611a5257805f5260205f20601f840160051c810160208510156140675750805b601f840160051c820191505b81811015612f59575f8155600101614073565b81516001600160401b0381111561409f5761409f61384d565b6140b3816140ad8454613f0d565b84614042565b6020601f8211600181146140e5575f83156140ce5750848201515b5f19600385901b1c1916600184901b178455612f59565b5f84815260208120601f198516915b8281101561411457878501518255602094850194600190920191016140f4565b508482101561413157868401515f19600387901b60f8161c191681555b50505050600190811b01905550565b634e487b7160e01b5f52601160045260245ffd5b5f6001820161416557614165614140565b5060010190565b6b39b7b1b4b0b62fb23930bb9d60a11b81525f612c68600c830184613f45565b608081525f61419e60808301876137b8565b6141ab6020840187613a94565b82810360408401526141bd81866137b8565b91505082606083015295945050505050565b6141d98185613a94565b606060208201525f6141ee60608301856137b8565b9050826040830152949350505050565b8082028115828204841417610b3757610b37614140565b634e487b7160e01b5f52603260045260245ffd5b5f5f835461423681613f0d565b60018216801561424d57600181146142625761428f565b60ff198316865281151582028601935061428f565b865f5260205f205f5b838110156142875781548882015260019091019060200161426b565b505081860193505b509195945050505050565b634e487b7160e01b5f52601260045260245ffd5b5f826142bc576142bc61429a565b500490565b80820180821115610b3757610b37614140565b6001600160a01b03858116825284166020820152604081018390526080606082018190525f90614306908301846137b8565b9695505050505050565b5f60208284031215614320575f5ffd5b8151612c6881613788565b5f6130636143398386613f45565b84613f45565b81810381811115610b3757610b37614140565b634e487b7160e01b5f52603160045260245ffd5b5f826143745761437461429a565b50069056fea264697066735822122077d866c6965d93d9088c34da5bb485fde84ed8399eb2a7c7471ac1d60cce930e64736f6c634300081e0033","linkReferences":{}},"methodIdentifiers":{"MAX_CATS_PER_USER()":"48c5f80e","R_PROBABILITY()":"1715b8c6","SR_PROBABILITY()":"554d1952","SSR_PROBABILITY()":"6c569d58","UR_PROBABILITY()":"86d17084","approve(address,uint256)":"095ea7b3","authorizedOperators(address)":"181d989b","balanceOf(address)":"70a08231","batchSetAuthorizedOperators(address[],bool[])":"879709a1","catInfos(uint256)":"33ce3dbe","drawCatNFT(string)":"f55426ee","drawCounts(string)":"f9be1955","drawFee()":"d75e30cf","emergencyPause()":"51858e27","emergencyResetInteraction(string,string)":"1fa0783e","emergencyResume()":"93c87f03","getApproved(uint256)":"081812fc","getCatInfo(uint256)":"5de32ef5","getDrawCount(string)":"f968e800","getInteractedNFCs(string)":"faca8305","getRainbowCatTokenId()":"34ded72d","getRarityCounts()":"1f71bab4","getSocialBonus(string)":"6c5ef2dc","getUserCats(address)":"310c71ae","hasInteracted(string,string)":"e0ac3d3c","interactedNFCs(string,uint256)":"320b27cb","isApprovedForAll(address,address)":"e985e9c5","isColorUsed(string)":"d4924afc","isNameUsed(string)":"ec75d622","isRainbowCatMinted()":"ce5d7930","name()":"06fdde03","nfcRegistry()":"3a06831c","owner()":"8da5cb5b","ownerOf(uint256)":"6352211e","rainbowCatMinted()":"74f796ce","rainbowCatTokenId()":"594fd73c","rarityCounts(uint8)":"a3fbbb74","renounceOwnership()":"715018a6","safeTransferFrom(address,address,uint256)":"42842e0e","safeTransferFrom(address,address,uint256,bytes)":"b88d4fde","setApprovalForAll(address,bool)":"a22cb465","setAuthorizedOperator(address,bool)":"788f737d","setDrawFee(uint256)":"c75da8d5","setNFCRegistry(address)":"8df2de25","socialDrawCatNFT(string,string,string)":"3a1efd0c","socialInteractions(string,string)":"fe28c675","supportsInterface(bytes4)":"01ffc9a7","symbol()":"95d89b41","tokenURI(uint256)":"c87b56dd","transferCatNFT(uint256,address)":"e7697265","transferFrom(address,address,uint256)":"23b872dd","transferOwnership(address)":"f2fde38b","updateCatMetadata(uint256,string)":"3ed24510","usedCatNames(string)":"1083f8c2","usedColors(string)":"c08ee6ca","userCats(address,uint256)":"a4fc1a13","withdraw()":"3ccfd60b"},"id":42}