{"abi":[{"type":"function","name":"increment","inputs":[{"name":"num","type":"uint256","internalType":"uint256"}],"outputs":[],"stateMutability":"nonpayable"},{"type":"function","name":"value","inputs":[],"outputs":[{"name":"","type":"uint256","internalType":"uint256"}],"stateMutability":"view"}],"bytecode":{"object":"0x60806040525f5f553480156011575f5ffd5b5060e48061001e5f395ff3fe6080604052348015600e575f5ffd5b50600436106030575f3560e01c80633fa4f2451460345780637cf5dab014604d575b5f5ffd5b603b5f5481565b60405190815260200160405180910390f35b605c60583660046074565b605e565b005b805f5f828254606c9190608a565b909155505050565b5f602082840312156083575f5ffd5b5035919050565b8082018082111560a857634e487b7160e01b5f52601160045260245ffd5b9291505056fea2646970667358221220e714703fb90e889c2afacc5f6105da882093a5b1c4e80db575e2bda2bd95212664736f6c634300081c0033","linkReferences":{}},"methodIdentifiers":{"increment(uint256)":"7cf5dab0","value()":"3fa4f245"},"id":19}