{"abi":[{"type":"constructor","inputs":[],"stateMutability":"nonpayable"},{"type":"function","name":"DOMAIN_DURATION","inputs":[],"outputs":[{"name":"","type":"uint256","internalType":"uint256"}],"stateMutability":"view"},{"type":"function","name":"MAX_DOMAIN_LENGTH","inputs":[],"outputs":[{"name":"","type":"uint256","internalType":"uint256"}],"stateMutability":"view"},{"type":"function","name":"MIN_DOMAIN_LENGTH","inputs":[],"outputs":[{"name":"","type":"uint256","internalType":"uint256"}],"stateMutability":"view"},{"type":"function","name":"domainToAddress","inputs":[{"name":"","type":"string","internalType":"string"}],"outputs":[{"name":"","type":"address","internalType":"address"}],"stateMutability":"view"},{"type":"function","name":"domains","inputs":[{"name":"","type":"string","internalType":"string"}],"outputs":[{"name":"owner","type":"address","internalType":"address"},{"name":"registeredAt","type":"uint256","internalType":"uint256"},{"name":"expiresAt","type":"uint256","internalType":"uint256"},{"name":"isActive","type":"bool","internalType":"bool"},{"name":"metadata","type":"string","internalType":"string"}],"stateMutability":"view"},{"type":"function","name":"emergencyFreezeDomain","inputs":[{"name":"domain","type":"string","internalType":"string"}],"outputs":[],"stateMutability":"nonpayable"},{"type":"function","name":"getDomainInfo","inputs":[{"name":"domain","type":"string","internalType":"string"}],"outputs":[{"name":"","type":"tuple","internalType":"struct INJDomainRegistry.DomainInfo","components":[{"name":"owner","type":"address","internalType":"address"},{"name":"registeredAt","type":"uint256","internalType":"uint256"},{"name":"expiresAt","type":"uint256","internalType":"uint256"},{"name":"isActive","type":"bool","internalType":"bool"},{"name":"metadata","type":"string","internalType":"string"}]}],"stateMutability":"view"},{"type":"function","name":"getUserDomains","inputs":[{"name":"user","type":"address","internalType":"address"}],"outputs":[{"name":"","type":"string[]","internalType":"string[]"}],"stateMutability":"view"},{"type":"function","name":"isDomainAvailable","inputs":[{"name":"domainPrefix","type":"string","internalType":"string"}],"outputs":[{"name":"","type":"bool","internalType":"bool"}],"stateMutability":"view"},{"type":"function","name":"owner","inputs":[],"outputs":[{"name":"","type":"address","internalType":"address"}],"stateMutability":"view"},{"type":"function","name":"primaryDomains","inputs":[{"name":"","type":"address","internalType":"address"}],"outputs":[{"name":"","type":"string","internalType":"string"}],"stateMutability":"view"},{"type":"function","name":"register","inputs":[{"name":"domainPrefix","type":"string","internalType":"string"}],"outputs":[],"stateMutability":"payable"},{"type":"function","name":"registrationFee","inputs":[],"outputs":[{"name":"","type":"uint256","internalType":"uint256"}],"stateMutability":"view"},{"type":"function","name":"renewDomain","inputs":[{"name":"domain","type":"string","internalType":"string"}],"outputs":[],"stateMutability":"payable"},{"type":"function","name":"renewalFee","inputs":[],"outputs":[{"name":"","type":"uint256","internalType":"uint256"}],"stateMutability":"view"},{"type":"function","name":"renounceOwnership","inputs":[],"outputs":[],"stateMutability":"nonpayable"},{"type":"function","name":"resolveDomain","inputs":[{"name":"domain","type":"string","internalType":"string"}],"outputs":[{"name":"","type":"address","internalType":"address"}],"stateMutability":"view"},{"type":"function","name":"reverseResolve","inputs":[{"name":"addr","type":"address","internalType":"address"}],"outputs":[{"name":"","type":"string","internalType":"string"}],"stateMutability":"view"},{"type":"function","name":"setPrimaryDomain","inputs":[{"name":"domain","type":"string","internalType":"string"}],"outputs":[],"stateMutability":"nonpayable"},{"type":"function","name":"setRegistrationFee","inputs":[{"name":"newFee","type":"uint256","internalType":"uint256"}],"outputs":[],"stateMutability":"nonpayable"},{"type":"function","name":"setRenewalFee","inputs":[{"name":"newFee","type":"uint256","internalType":"uint256"}],"outputs":[],"stateMutability":"nonpayable"},{"type":"function","name":"transferDomain","inputs":[{"name":"domain","type":"string","internalType":"string"},{"name":"to","type":"address","internalType":"address"}],"outputs":[],"stateMutability":"nonpayable"},{"type":"function","name":"transferOwnership","inputs":[{"name":"newOwner","type":"address","internalType":"address"}],"outputs":[],"stateMutability":"nonpayable"},{"type":"function","name":"unfreezeDomain","inputs":[{"name":"domain","type":"string","internalType":"string"}],"outputs":[],"stateMutability":"nonpayable"},{"type":"function","name":"updateDomainMetadata","inputs":[{"name":"domain","type":"string","internalType":"string"},{"name":"metadata","type":"string","internalType":"string"}],"outputs":[],"stateMutability":"nonpayable"},{"type":"function","name":"userDomains","inputs":[{"name":"","type":"address","internalType":"address"},{"name":"","type":"uint256","internalType":"uint256"}],"outputs":[{"name":"","type":"string","internalType":"string"}],"stateMutability":"view"},{"type":"function","name":"withdraw","inputs":[],"outputs":[],"stateMutability":"nonpayable"},{"type":"event","name":"DomainMetadataUpdated","inputs":[{"name":"domain","type":"string","indexed":true,"internalType":"string"},{"name":"metadata","type":"string","indexed":false,"internalType":"string"}],"anonymous":false},{"type":"event","name":"DomainRegistered","inputs":[{"name":"domain","type":"string","indexed":true,"internalType":"string"},{"name":"owner","type":"address","indexed":true,"internalType":"address"},{"name":"registeredAt","type":"uint256","indexed":false,"internalType":"uint256"},{"name":"expiresAt","type":"uint256","indexed":false,"internalType":"uint256"}],"anonymous":false},{"type":"event","name":"DomainRenewed","inputs":[{"name":"domain","type":"string","indexed":true,"internalType":"string"},{"name":"owner","type":"address","indexed":true,"internalType":"address"},{"name":"newExpiresAt","type":"uint256","indexed":false,"internalType":"uint256"}],"anonymous":false},{"type":"event","name":"DomainTransferred","inputs":[{"name":"domain","type":"string","indexed":true,"internalType":"string"},{"name":"from","type":"address","indexed":true,"internalType":"address"},{"name":"to","type":"address","indexed":true,"internalType":"address"}],"anonymous":false},{"type":"event","name":"OwnershipTransferred","inputs":[{"name":"previousOwner","type":"address","indexed":true,"internalType":"address"},{"name":"newOwner","type":"address","indexed":true,"internalType":"address"}],"anonymous":false},{"type":"event","name":"PrimaryDomainSet","inputs":[{"name":"user","type":"address","indexed":true,"internalType":"address"},{"name":"domain","type":"string","indexed":true,"internalType":"string"}],"anonymous":false},{"type":"error","name":"OwnableInvalidOwner","inputs":[{"name":"owner","type":"address","internalType":"address"}]},{"type":"error","name":"OwnableUnauthorizedAccount","inputs":[{"name":"account","type":"address","internalType":"address"}]},{"type":"error","name":"ReentrancyGuardReentrantCall","inputs":[]}],"bytecode":{"object":"0x608060405266038d7ea4c680006006556601c6bf526340006007553480156024575f5ffd5b503380604957604051631e4fbdf760e01b81525f600482015260240160405180910390fd5b6050816059565b506001805560a8565b5f80546001600160a01b038381166001600160a01b0319831681178455604051919092169283917f8be0079c531659141344cd1fd0a4f28419497f9722a3daafe3b4186f6b6457e09190a35050565b611fd5806100b55f395ff3fe608060405260043610610195575f3560e01c80636b9a0ee9116100e7578063b5301ced11610087578063f2c298be11610062578063f2c298be146104b1578063f2fde38b146104c4578063f5fb9de3146104e3578063fd7cce0d146104f6575f5ffd5b8063b5301ced1461045f578063b6364cc114610473578063c320c72714610492575f5ffd5b80638da5cb5b116100c25780638da5cb5b146103d95780639af8b7aa146103f55780639f4cb8f014610421578063b0ccca1314610440575f5ffd5b80636b9a0ee914610387578063715018a6146103a657806380c6b0c2146103ba575f5ffd5b806329aa4f51116101525780633ccfd60b1161012d5780633ccfd60b146103115780634889e19214610325578063514e804c14610351578063544edcbe14610368575f5ffd5b806329aa4f51146102af57806332752b09146102c3578063364460f3146102f2575f5ffd5b80630183196b14610199578063080b301e146101ce578063105bcb57146101f157806314c44e091461024957806319fbe87e1461025e578063264492351461027f575b5f5ffd5b3480156101a4575f5ffd5b506101b86101b33660046118ec565b610515565b6040516101c59190611933565b60405180910390f35b3480156101d9575f5ffd5b506101e360075481565b6040519081526020016101c5565b3480156101fc575f5ffd5b5061023161020b366004611a35565b80516020818301810180516005825292820191909301209152546001600160a01b031681565b6040516001600160a01b0390911681526020016101c5565b348015610254575f5ffd5b506101e360065481565b348015610269575f5ffd5b5061027d610278366004611a6f565b6105ff565b005b34801561028a575f5ffd5b5061029e610299366004611a35565b6108d2565b6040516101c5959493929190611aba565b3480156102ba575f5ffd5b506101e3600381565b3480156102ce575f5ffd5b506102e26102dd366004611a35565b6109a5565b60405190151581526020016101c5565b3480156102fd575f5ffd5b5061023161030c366004611a35565b6109fd565b34801561031c575f5ffd5b5061027d610a52565b348015610330575f5ffd5b5061034461033f366004611a35565b610a94565b6040516101c59190611af9565b34801561035c575f5ffd5b506101e36301e1338081565b348015610373575f5ffd5b5061027d610382366004611a35565b610bc5565b348015610392575f5ffd5b5061027d6103a1366004611a35565b610c2a565b3480156103b1575f5ffd5b5061027d610d20565b3480156103c5575f5ffd5b5061027d6103d4366004611b45565b610d33565b3480156103e4575f5ffd5b505f546001600160a01b0316610231565b348015610400575f5ffd5b5061041461040f3660046118ec565b610d40565b6040516101c59190611b5c565b34801561042c575f5ffd5b5061041461043b366004611b6e565b610e18565b34801561044b575f5ffd5b5061027d61045a366004611b96565b610ec9565b34801561046a575f5ffd5b506101e3601e81565b34801561047e575f5ffd5b5061027d61048d366004611a35565b610fe4565b34801561049d575f5ffd5b5061027d6104ac366004611b45565b611022565b61027d6104bf366004611a35565b61102f565b3480156104cf575f5ffd5b5061027d6104de3660046118ec565b61131b565b61027d6104f1366004611a35565b611355565b348015610501575f5ffd5b506104146105103660046118ec565b6114d0565b6001600160a01b0381165f908152600460209081526040808320805482518185028101850190935280835260609492939192909184015b828210156105f4578382905f5260205f2001805461056990611bfb565b80601f016020809104026020016040519081016040528092919081815260200182805461059590611bfb565b80156105e05780601f106105b7576101008083540402835291602001916105e0565b820191905f5260205f20905b8154815290600101906020018083116105c357829003601f168201915b50505050508152602001906001019061054c565b505050509050919050565b610608826114e8565b61062d5760405162461bcd60e51b815260040161062490611c33565b60405180910390fd5b336001600160a01b03166002836040516106479190611c79565b908152604051908190036020019020546001600160a01b03161461067d5760405162461bcd60e51b815260040161062490611c84565b6001600160a01b0381166106d35760405162461bcd60e51b815260206004820152601960248201527f496e76616c696420726563697069656e742061646472657373000000000000006044820152606401610624565b6106dc82611524565b156106f95760405162461bcd60e51b815260040161062490611cae565b5f3390508160028460405161070e9190611c79565b90815260405190819003602001812080546001600160a01b03939093166001600160a01b031990931692909217909155829060059061074e908690611c79565b90815260405190819003602001902080546001600160a01b03929092166001600160a01b03199092169190911790556107878184611572565b6001600160a01b0382165f908152600460209081526040822080546001810182559083529120016107b88482611d22565b50828051906020012060035f836001600160a01b03166001600160a01b031681526020019081526020015f206040516107f19190611de0565b60405180910390200361082f5760408051602080820183525f8083526001600160a01b03851681526003909152919091209061082d9082611d22565b505b6001600160a01b0382165f908152600360205260409020805461085190611bfb565b90505f0361087c576001600160a01b0382165f90815260036020526040902061087a8482611d22565b505b816001600160a01b0316816001600160a01b03168460405161089e9190611c79565b604051908190038120907fb93e5ab0838892891d936aa278bd882aaa1c862433c9ff605a2fb0cd0b9d4e11905f90a4505050565b805160208183018101805160028083529383019290940191909120929052815460018301549183015460038401546004850180546001600160a01b0390941695929360ff909216929161092490611bfb565b80601f016020809104026020016040519081016040528092919081815260200182805461095090611bfb565b801561099b5780601f106109725761010080835404028352916020019161099b565b820191905f5260205f20905b81548152906001019060200180831161097e57829003601f168201915b5050505050905085565b5f6109af8261165d565b6109ba57505f919050565b5f826040516020016109cc9190611e51565b60405160208183030381529060405290506109e6816114e8565b15806109f657506109f681611524565b9392505050565b5f610a07826114e8565b1580610a175750610a1782611524565b15610a2357505f919050565b600282604051610a339190611c79565b908152604051908190036020019020546001600160a01b031692915050565b610a5a6117e2565b5f80546040516001600160a01b03909116914780156108fc02929091818181858888f19350505050158015610a91573d5f5f3e3d5ffd5b50565b610acd6040518060a001604052805f6001600160a01b031681526020015f81526020015f81526020015f15158152602001606081525090565b600282604051610add9190611c79565b90815260408051918290036020908101832060a08401835280546001600160a01b03168452600181015491840191909152600281015491830191909152600381015460ff1615156060830152600481018054608084019190610b3e90611bfb565b80601f0160208091040260200160405190810160405280929190818152602001828054610b6a90611bfb565b8015610bb55780601f10610b8c57610100808354040283529160200191610bb5565b820191905f5260205f20905b815481529060010190602001808311610b9857829003601f168201915b5050505050815250509050919050565b610bcd6117e2565b610bd6816114e8565b610bf25760405162461bcd60e51b815260040161062490611c33565b6001600282604051610c049190611c79565b908152604051908190036020019020600301805491151560ff1990921691909117905550565b610c33816114e8565b610c4f5760405162461bcd60e51b815260040161062490611c33565b336001600160a01b0316600282604051610c699190611c79565b908152604051908190036020019020546001600160a01b031614610c9f5760405162461bcd60e51b815260040161062490611c84565b610ca881611524565b15610cc55760405162461bcd60e51b815260040161062490611cae565b335f908152600360205260409020610cdd8282611d22565b5080604051610cec9190611c79565b6040519081900381209033907f44a4610faf9ab0c5cd795892a1cdb4b9d487671479d9a7328447150801b121fa905f90a350565b610d286117e2565b610d315f61180e565b565b610d3b6117e2565b600755565b6001600160a01b0381165f90815260036020526040812080546060929190610d6790611bfb565b80601f0160208091040260200160405190810160405280929190818152602001828054610d9390611bfb565b8015610dde5780601f10610db557610100808354040283529160200191610dde565b820191905f5260205f20905b815481529060010190602001808311610dc157829003601f168201915b5050505050905080515f1480610df85750610df881611524565b15610e1257505060408051602081019091525f8152919050565b92915050565b6004602052815f5260405f208181548110610e31575f80fd5b905f5260205f20015f91509150508054610e4a90611bfb565b80601f0160208091040260200160405190810160405280929190818152602001828054610e7690611bfb565b8015610ec15780601f10610e9857610100808354040283529160200191610ec1565b820191905f5260205f20905b815481529060010190602001808311610ea457829003601f168201915b505050505081565b610ed2826114e8565b610eee5760405162461bcd60e51b815260040161062490611c33565b336001600160a01b0316600283604051610f089190611c79565b908152604051908190036020019020546001600160a01b031614610f3e5760405162461bcd60e51b815260040161062490611c84565b610f4782611524565b15610f645760405162461bcd60e51b815260040161062490611cae565b80600283604051610f759190611c79565b90815260200160405180910390206004019081610f929190611d22565b5081604051610fa19190611c79565b60405180910390207f983743029bc793ef9f03a191f88b2e37c8d95e2b03edca12dae69944b53a26d382604051610fd89190611b5c565b60405180910390a25050565b610fec6117e2565b610ff5816114e8565b6110115760405162461bcd60e51b815260040161062490611c33565b5f600282604051610c049190611c79565b61102a6117e2565b600655565b61103761185d565b6006543410156110895760405162461bcd60e51b815260206004820152601d60248201527f496e73756666696369656e7420726567697374726174696f6e206665650000006044820152606401610624565b6110928161165d565b6110d65760405162461bcd60e51b8152602060048201526015602482015274092dcecc2d8d2c840c8dedac2d2dc40e0e4caccd2f605b1b6044820152606401610624565b5f816040516020016110e89190611e51565b6040516020818303038152906040529050611102816114e8565b1561114f5760405162461bcd60e51b815260206004820152601960248201527f446f6d61696e20616c72656164792072656769737465726564000000000000006044820152606401610624565b5f61115e6301e1338042611e84565b90506040518060a00160405280336001600160a01b0316815260200142815260200182815260200160011515815260200160405180602001604052805f8152508152506002836040516111b19190611c79565b9081526040805160209281900383019020835181546001600160a01b0319166001600160a01b039091161781559183015160018301558201516002820155606082015160038201805460ff19169115159190911790556080820151600482019061121b9082611d22565b50905050336005836040516112309190611c79565b908152604080516020928190038301902080546001600160a01b0319166001600160a01b039490941693909317909255335f9081526004825291822080546001810182559083529120016112848382611d22565b50335f908152600360205260409020805461129e90611bfb565b90505f036112c057335f9081526003602052604090206112be8382611d22565b505b60405133906112d0908490611c79565b6040805191829003822042835260208301859052917f87fd548bf5794610496e606965e724cec5c33f621c084067a46c43a81a1887e7910160405180910390a35050610a9160018055565b6113236117e2565b6001600160a01b03811661134c57604051631e4fbdf760e01b81525f6004820152602401610624565b610a918161180e565b61135d61185d565b6007543410156113af5760405162461bcd60e51b815260206004820152601860248201527f496e73756666696369656e742072656e6577616c2066656500000000000000006044820152606401610624565b6113b8816114e8565b6113d45760405162461bcd60e51b815260040161062490611c33565b336001600160a01b03166002826040516113ee9190611c79565b908152604051908190036020019020546001600160a01b0316146114245760405162461bcd60e51b815260040161062490611c84565b5f6301e1338060028360405161143a9190611c79565b9081526020016040518091039020600201546114569190611e84565b9050806002836040516114699190611c79565b90815260405190819003602001812060020191909155339061148c908490611c79565b604051908190038120838252907f93b77696dfb877618deeade6a76fd259d63c2600487f64a1bf126886c0db218e9060200160405180910390a350610a9160018055565b60036020525f908152604090208054610e4a90611bfb565b5f5f6001600160a01b03166002836040516115039190611c79565b908152604051908190036020019020546001600160a01b0316141592915050565b5f61152e826114e8565b61153a57506001919050565b5f60028360405161154b9190611c79565b9081526020016040518091039020600201549050805f141580156109f65750421192915050565b6001600160a01b0382165f908152600460205260408120905b81548110156116575782805190602001208282815481106115ae576115ae611e97565b905f5260205f20016040516115c39190611de0565b60405180910390200361164f57815482906115e090600190611eab565b815481106115f0576115f0611e97565b905f5260205f200182828154811061160a5761160a611e97565b905f5260205f2001908161161e9190611ebe565b508180548061162f5761162f611f8b565b600190038181905f5260205f20015f6116489190611887565b9055611657565b60010161158b565b50505050565b80515f90829060038110806116725750601e81115b1561168057505f9392505050565b5f5b818110156117d7575f83828151811061169d5761169d611e97565b01602001516001600160f81b0319169050606160f81b81108015906116d05750603d60f91b6001600160f81b0319821611155b806117025750600360fc1b6001600160f81b03198216108015906117025750603960f81b6001600160f81b0319821611155b8061171a5750602d60f81b6001600160f81b03198216145b61172957505f95945050505050565b81158061173f575061173c600184611eab565b82145b80156117585750602d60f81b6001600160f81b03198216145b1561176857505f95945050505050565b5f821180156117845750602d60f81b6001600160f81b03198216145b80156117be575083611797600184611eab565b815181106117a7576117a7611e97565b6020910101516001600160f81b031916602d60f81b145b156117ce57505f95945050505050565b50600101611682565b506001949350505050565b5f546001600160a01b03163314610d315760405163118cdaa760e01b8152336004820152602401610624565b5f80546001600160a01b038381166001600160a01b0319831681178455604051919092169283917f8be0079c531659141344cd1fd0a4f28419497f9722a3daafe3b4186f6b6457e09190a35050565b60026001540361188057604051633ee5aeb560e01b815260040160405180910390fd5b6002600155565b50805461189390611bfb565b5f825580601f106118a2575050565b601f0160209004905f5260205f2090810190610a9191905b808211156118cd575f81556001016118ba565b5090565b80356001600160a01b03811681146118e7575f5ffd5b919050565b5f602082840312156118fc575f5ffd5b6109f6826118d1565b5f81518084528060208401602086015e5f602082860101526020601f19601f83011685010191505092915050565b5f602082016020835280845180835260408501915060408160051b8601019250602086015f5b8281101561198a57603f19878603018452611975858351611905565b94506020938401939190910190600101611959565b50929695505050505050565b634e487b7160e01b5f52604160045260245ffd5b5f82601f8301126119b9575f5ffd5b813567ffffffffffffffff8111156119d3576119d3611996565b604051601f8201601f19908116603f0116810167ffffffffffffffff81118282101715611a0257611a02611996565b604052818152838201602001851015611a19575f5ffd5b816020850160208301375f918101602001919091529392505050565b5f60208284031215611a45575f5ffd5b813567ffffffffffffffff811115611a5b575f5ffd5b611a67848285016119aa565b949350505050565b5f5f60408385031215611a80575f5ffd5b823567ffffffffffffffff811115611a96575f5ffd5b611aa2858286016119aa565b925050611ab1602084016118d1565b90509250929050565b60018060a01b0386168152846020820152836040820152821515606082015260a060808201525f611aee60a0830184611905565b979650505050505050565b6020815260018060a01b03825116602082015260208201516040820152604082015160608201526060820151151560808201525f608083015160a080840152611a6760c0840182611905565b5f60208284031215611b55575f5ffd5b5035919050565b602081525f6109f66020830184611905565b5f5f60408385031215611b7f575f5ffd5b611b88836118d1565b946020939093013593505050565b5f5f60408385031215611ba7575f5ffd5b823567ffffffffffffffff811115611bbd575f5ffd5b611bc9858286016119aa565b925050602083013567ffffffffffffffff811115611be5575f5ffd5b611bf1858286016119aa565b9150509250929050565b600181811c90821680611c0f57607f821691505b602082108103611c2d57634e487b7160e01b5f52602260045260245ffd5b50919050565b602080825260159082015274111bdb585a5b88191bd95cc81b9bdd08195e1a5cdd605a1b604082015260600190565b5f81518060208401855e5f93019283525090919050565b5f6109f68284611c62565b60208082526010908201526f2737ba103237b6b0b4b71037bbb732b960811b604082015260600190565b6020808252600e908201526d111bdb585a5b88195e1c1a5c995960921b604082015260600190565b601f821115611d1d57805f5260205f20601f840160051c81016020851015611cfb5750805b601f840160051c820191505b81811015611d1a575f8155600101611d07565b50505b505050565b815167ffffffffffffffff811115611d3c57611d3c611996565b611d5081611d4a8454611bfb565b84611cd6565b6020601f821160018114611d85575f8315611d6b5750848201515b600184901b5f19600386901b1c198216175b855550611d1a565b5f84815260208120601f198516915b82811015611db45787850151825560209485019460019092019101611d94565b5084821015611dd157868401515f19600387901b60f8161c191681555b50505050600190811b01905550565b5f5f8354611ded81611bfb565b600182168015611e045760018114611e1957611e46565b60ff1983168652811515820286019350611e46565b865f5260205f205f5b83811015611e3e57815488820152600190910190602001611e22565b505081860193505b509195945050505050565b5f611e5c8284611c62565b631734b73560e11b81526004019392505050565b634e487b7160e01b5f52601160045260245ffd5b80820180821115610e1257610e12611e70565b634e487b7160e01b5f52603260045260245ffd5b81810381811115610e1257610e12611e70565b818103611ec9575050565b611ed38254611bfb565b67ffffffffffffffff811115611eeb57611eeb611996565b611ef981611d4a8454611bfb565b5f601f821160018114611f28575f8315611d6b575081850154600184901b5f19600386901b1c19821617611d7d565b5f8581526020808220868352908220601f198616925b83811015611f5e5782860154825560019586019590910190602001611f3e565b5085831015611f7b57818501545f19600388901b60f8161c191681555b5050505050600190811b01905550565b634e487b7160e01b5f52603160045260245ffdfea2646970667358221220d1d156a82d69769f9919a99358197e0133eb511618b1002a1381e51055c6d33a64736f6c634300081e0033","linkReferences":{}},"methodIdentifiers":{"DOMAIN_DURATION()":"514e804c","MAX_DOMAIN_LENGTH()":"b5301ced","MIN_DOMAIN_LENGTH()":"29aa4f51","domainToAddress(string)":"105bcb57","domains(string)":"26449235","emergencyFreezeDomain(string)":"b6364cc1","getDomainInfo(string)":"4889e192","getUserDomains(address)":"0183196b","isDomainAvailable(string)":"32752b09","owner()":"8da5cb5b","primaryDomains(address)":"fd7cce0d","register(string)":"f2c298be","registrationFee()":"14c44e09","renewDomain(string)":"f5fb9de3","renewalFee()":"080b301e","renounceOwnership()":"715018a6","resolveDomain(string)":"364460f3","reverseResolve(address)":"9af8b7aa","setPrimaryDomain(string)":"6b9a0ee9","setRegistrationFee(uint256)":"c320c727","setRenewalFee(uint256)":"80c6b0c2","transferDomain(string,address)":"19fbe87e","transferOwnership(address)":"f2fde38b","unfreezeDomain(string)":"544edcbe","updateDomainMetadata(string,string)":"b0ccca13","userDomains(address,uint256)":"9f4cb8f0","withdraw()":"3ccfd60b"},"id":17}