{"abi":[{"type":"constructor","inputs":[],"stateMutability":"nonpayable"},{"type":"function","name":"authorizeOperator","inputs":[{"name":"operatorId","type":"string","internalType":"string"},{"name":"authorized","type":"bool","internalType":"bool"}],"outputs":[],"stateMutability":"nonpayable"},{"type":"function","name":"authorizedOperators","inputs":[{"name":"","type":"string","internalType":"string"}],"outputs":[{"name":"","type":"bool","internalType":"bool"}],"stateMutability":"view"},{"type":"function","name":"batchDetectBlankCards","inputs":[{"name":"nfcUIDs","type":"string[]","internalType":"string[]"},{"name":"walletAddresses","type":"address[]","internalType":"address[]"}],"outputs":[{"name":"","type":"uint256","internalType":"uint256"}],"stateMutability":"nonpayable"},{"type":"function","name":"detectAndBindBlankCard","inputs":[{"name":"nfcUID","type":"string","internalType":"string"},{"name":"newWalletAddress","type":"address","internalType":"address"}],"outputs":[{"name":"","type":"bool","internalType":"bool"}],"stateMutability":"nonpayable"},{"type":"function","name":"emergencyUnbindNFCWallet","inputs":[{"name":"nfcUID","type":"string","internalType":"string"}],"outputs":[],"stateMutability":"nonpayable"},{"type":"function","name":"getNFCBinding","inputs":[{"name":"nfcUID","type":"string","internalType":"string"}],"outputs":[{"name":"","type":"tuple","internalType":"struct NFCWalletRegistry.NFCBinding","components":[{"name":"walletAddress","type":"address","internalType":"address"},{"name":"boundAt","type":"uint256","internalType":"uint256"},{"name":"unboundAt","type":"uint256","internalType":"uint256"},{"name":"isActive","type":"bool","internalType":"bool"},{"name":"isBlank","type":"bool","internalType":"bool"},{"name":"metadata","type":"string","internalType":"string"}]}],"stateMutability":"view"},{"type":"function","name":"getNFCHistory","inputs":[{"name":"nfcUID","type":"string","internalType":"string"}],"outputs":[{"name":"","type":"tuple[]","internalType":"struct NFCWalletRegistry.NFCBinding[]","components":[{"name":"walletAddress","type":"address","internalType":"address"},{"name":"boundAt","type":"uint256","internalType":"uint256"},{"name":"unboundAt","type":"uint256","internalType":"uint256"},{"name":"isActive","type":"bool","internalType":"bool"},{"name":"isBlank","type":"bool","internalType":"bool"},{"name":"metadata","type":"string","internalType":"string"}]}],"stateMutability":"view"},{"type":"function","name":"getWalletNFC","inputs":[{"name":"walletAddress","type":"address","internalType":"address"}],"outputs":[{"name":"","type":"string","internalType":"string"}],"stateMutability":"view"},{"type":"function","name":"initializeBlankCard","inputs":[{"name":"nfcUID","type":"string","internalType":"string"},{"name":"initMetadata","type":"string","internalType":"string"}],"outputs":[],"stateMutability":"nonpayable"},{"type":"function","name":"isAuthorizedOperator","inputs":[{"name":"operatorId","type":"string","internalType":"string"}],"outputs":[{"name":"","type":"bool","internalType":"bool"}],"stateMutability":"view"},{"type":"function","name":"isBlankCard","inputs":[{"name":"nfcUID","type":"string","internalType":"string"}],"outputs":[{"name":"","type":"bool","internalType":"bool"}],"stateMutability":"view"},{"type":"function","name":"isNFCBound","inputs":[{"name":"nfcUID","type":"string","internalType":"string"}],"outputs":[{"name":"","type":"bool","internalType":"bool"}],"stateMutability":"view"},{"type":"function","name":"isWalletBound","inputs":[{"name":"walletAddress","type":"address","internalType":"address"}],"outputs":[{"name":"","type":"bool","internalType":"bool"}],"stateMutability":"view"},{"type":"function","name":"nfcBindings","inputs":[{"name":"","type":"string","internalType":"string"}],"outputs":[{"name":"walletAddress","type":"address","internalType":"address"},{"name":"boundAt","type":"uint256","internalType":"uint256"},{"name":"unboundAt","type":"uint256","internalType":"uint256"},{"name":"isActive","type":"bool","internalType":"bool"},{"name":"isBlank","type":"bool","internalType":"bool"},{"name":"metadata","type":"string","internalType":"string"}],"stateMutability":"view"},{"type":"function","name":"nfcHistory","inputs":[{"name":"","type":"string","internalType":"string"},{"name":"","type":"uint256","internalType":"uint256"}],"outputs":[{"name":"walletAddress","type":"address","internalType":"address"},{"name":"boundAt","type":"uint256","internalType":"uint256"},{"name":"unboundAt","type":"uint256","internalType":"uint256"},{"name":"isActive","type":"bool","internalType":"bool"},{"name":"isBlank","type":"bool","internalType":"bool"},{"name":"metadata","type":"string","internalType":"string"}],"stateMutability":"view"},{"type":"function","name":"owner","inputs":[],"outputs":[{"name":"","type":"address","internalType":"address"}],"stateMutability":"view"},{"type":"function","name":"renounceOwnership","inputs":[],"outputs":[],"stateMutability":"nonpayable"},{"type":"function","name":"totalBindings","inputs":[],"outputs":[{"name":"","type":"uint256","internalType":"uint256"}],"stateMutability":"view"},{"type":"function","name":"totalUnbindings","inputs":[],"outputs":[{"name":"","type":"uint256","internalType":"uint256"}],"stateMutability":"view"},{"type":"function","name":"transferOwnership","inputs":[{"name":"newOwner","type":"address","internalType":"address"}],"outputs":[],"stateMutability":"nonpayable"},{"type":"function","name":"unbindNFCWallet","inputs":[{"name":"nfcUID","type":"string","internalType":"string"},{"name":"ownerSignature","type":"bytes","internalType":"bytes"}],"outputs":[],"stateMutability":"nonpayable"},{"type":"function","name":"updateNFCMetadata","inputs":[{"name":"nfcUID","type":"string","internalType":"string"},{"name":"metadata","type":"string","internalType":"string"}],"outputs":[],"stateMutability":"nonpayable"},{"type":"function","name":"walletToNFC","inputs":[{"name":"","type":"address","internalType":"address"}],"outputs":[{"name":"","type":"string","internalType":"string"}],"stateMutability":"view"},{"type":"event","name":"BlankCardDetected","inputs":[{"name":"nfcUID","type":"string","indexed":true,"internalType":"string"},{"name":"newWallet","type":"address","indexed":true,"internalType":"address"},{"name":"timestamp","type":"uint256","indexed":false,"internalType":"uint256"}],"anonymous":false},{"type":"event","name":"CardInitialized","inputs":[{"name":"nfcUID","type":"string","indexed":true,"internalType":"string"},{"name":"walletAddress","type":"address","indexed":true,"internalType":"address"},{"name":"timestamp","type":"uint256","indexed":false,"internalType":"uint256"}],"anonymous":false},{"type":"event","name":"NFCCardReset","inputs":[{"name":"nfcUID","type":"string","indexed":true,"internalType":"string"},{"name":"previousWallet","type":"address","indexed":true,"internalType":"address"},{"name":"resetAt","type":"uint256","indexed":false,"internalType":"uint256"}],"anonymous":false},{"type":"event","name":"NFCMetadataUpdated","inputs":[{"name":"nfcUID","type":"string","indexed":true,"internalType":"string"},{"name":"metadata","type":"string","indexed":false,"internalType":"string"}],"anonymous":false},{"type":"event","name":"NFCWalletBound","inputs":[{"name":"nfcUID","type":"string","indexed":true,"internalType":"string"},{"name":"walletAddress","type":"address","indexed":true,"internalType":"address"},{"name":"boundAt","type":"uint256","indexed":false,"internalType":"uint256"}],"anonymous":false},{"type":"event","name":"NFCWalletUnbound","inputs":[{"name":"nfcUID","type":"string","indexed":true,"internalType":"string"},{"name":"walletAddress","type":"address","indexed":true,"internalType":"address"},{"name":"unboundAt","type":"uint256","indexed":false,"internalType":"uint256"},{"name":"cardReset","type":"bool","indexed":false,"internalType":"bool"}],"anonymous":false},{"type":"event","name":"OperatorAuthorized","inputs":[{"name":"operatorId","type":"string","indexed":true,"internalType":"string"},{"name":"authorized","type":"bool","indexed":false,"internalType":"bool"}],"anonymous":false},{"type":"event","name":"OwnershipTransferred","inputs":[{"name":"previousOwner","type":"address","indexed":true,"internalType":"address"},{"name":"newOwner","type":"address","indexed":true,"internalType":"address"}],"anonymous":false},{"type":"error","name":"OwnableInvalidOwner","inputs":[{"name":"owner","type":"address","internalType":"address"}]},{"type":"error","name":"OwnableUnauthorizedAccount","inputs":[{"name":"account","type":"address","internalType":"address"}]},{"type":"error","name":"StringsInsufficientHexLength","inputs":[{"name":"value","type":"uint256","internalType":"uint256"},{"name":"length","type":"uint256","internalType":"uint256"}]}],"bytecode":{"object":"0x6080604052348015600e575f5ffd5b503380603357604051631e4fbdf760e01b81525f600482015260240160405180910390fd5b603a81603f565b50608e565b5f80546001600160a01b038381166001600160a01b0319831681178455604051919092169283917f8be0079c531659141344cd1fd0a4f28419497f9722a3daafe3b4186f6b6457e09190a35050565b6121bf8061009b5f395ff3fe608060405234801561000f575f5ffd5b5060043610610148575f3560e01c80637ccef9de116100bf578063b9aafc8111610079578063b9aafc8114610304578063d7aff14614610317578063db19d19814610320578063e4a97b9414610333578063eb5888341461033c578063f2fde38b1461034f575f5ffd5b80637ccef9de14610256578063815d79f5146102695780638da5cb5b146102895780639104f2e8146102a35780639fd3b788146102d1578063b5fcabc5146102e4575f5ffd5b8063379e310611610110578063379e3106146101e157806339797b26146101f457806340749ba814610215578063500c80e914610228578063518936621461023b578063715018a61461024e575f5ffd5b806314b8f1e41461014c5780631d46d6e814610174578063220bef29146101995780632be5c44c146101ae5780632c23ff5e146101c1575b5f5ffd5b61015f61015a3660046118e0565b610362565b60405190151581526020015b60405180910390f35b6101876101823660046119ba565b610391565b60405161016b96959493929190611a29565b6101ac6101a7366004611a71565b61048d565b005b61015f6101bc366004611ad4565b610648565b6101d46101cf3660046118e0565b610675565b60405161016b9190611b05565b6101876101ef366004611ad4565b61070c565b610207610202366004611baa565b61076a565b60405190815260200161016b565b6101ac610223366004611c79565b61087c565b61015f610236366004611ccb565b610902565b6101ac610249366004611d15565b610cf4565b6101ac610e6a565b61015f610264366004611ad4565b610e7d565b61027c610277366004611ad4565b610ec5565b60405161016b9190611dd3565b5f546040516001600160a01b03909116815260200161016b565b61015f6102b1366004611ad4565b805160208183018101805160048252928201919093012091525460ff1681565b6101ac6102df366004611ad4565b61101a565b6102f76102f2366004611ad4565b611171565b60405161016b9190611e36565b6101d46103123660046118e0565b6112df565b61020760065481565b61015f61032e366004611ad4565b611388565b61020760055481565b6101ac61034a366004611a71565b6113b2565b6101ac61035d3660046118e0565b6114a6565b6001600160a01b0381165f908152600360205260408120805482919061038790611e48565b9050119050919050565b815160208184018101805160028252928201918501919091209190528054829081106103bb575f80fd5b5f918252602090912060059091020180546001820154600283015460038401546004850180546001600160a01b039095169750929550909360ff808316946101009093041692909161040c90611e48565b80601f016020809104026020016040519081016040528092919081815260200182805461043890611e48565b80156104835780601f1061045a57610100808354040283529160200191610483565b820191905f5260205f20905b81548152906001019060200180831161046657829003601f168201915b5050505050905086565b6004610498336114e3565b6040516104a59190611e97565b9081526040519081900360200190205460ff16806104cc57505f546001600160a01b031633145b6104f15760405162461bcd60e51b81526004016104e890611ea2565b60405180910390fd5b6104fa82610648565b6105165760405162461bcd60e51b81526004016104e890611ed9565b5f6001836040516105279190611e97565b908152604051908190036020019020600381015490915060ff610100909104166105875760405162461bcd60e51b815260206004820152601160248201527043617264206973206e6f7420626c616e6b60781b60448201526064016104e8565b600381015460ff166105d05760405162461bcd60e51b815260206004820152601260248201527143617264206973206e6f742061637469766560701b60448201526064016104e8565b60038101805461ff0019169055600481016105eb8382611f4c565b5080546040516001600160a01b0390911690610608908590611e97565b604051908190038120428252907f71ac2ce3ef0847e3c0817e3591c32b6e8a9a14d9aed5bc69f6ef1e0f717d6619906020015b60405180910390a3505050565b5f6001826040516106599190611e97565b9081526040519081900360200190206003015460ff1692915050565b60036020525f90815260409020805461068d90611e48565b80601f01602080910402602001604051908101604052809291908181526020018280546106b990611e48565b80156107045780601f106106db57610100808354040283529160200191610704565b820191905f5260205f20905b8154815290600101906020018083116106e757829003601f168201915b505050505081565b805160208183018101805160018083529383019290940191909120929052815490820154600283015460038401546004850180546001600160a01b03909516959394929360ff80841694610100909404169290919061040c90611e48565b5f6004610776336114e3565b6040516107839190611e97565b9081526040519081900360200190205460ff16806107aa57505f546001600160a01b031633145b6107c65760405162461bcd60e51b81526004016104e890611ea2565b815183511461080f5760405162461bcd60e51b8152602060048201526015602482015274082e4e4c2f240d8cadccee8d040dad2e6dac2e8c6d605b1b60448201526064016104e8565b5f805b84518110156108725761085785828151811061083057610830612009565b602002602001015185838151811061084a5761084a612009565b6020026020010151610902565b1561086a578161086681612031565b9250505b600101610812565b5090505b92915050565b6108846114f9565b806004836040516108959190611e97565b908152604051908190036020018120805492151560ff19909316929092179091556108c1908390611e97565b6040519081900381208215158252907f852cbaee805afba09bc1c03514961a5637e381de998af7fbfb21c890e3e1429e906020015b60405180910390a25050565b5f600461090e336114e3565b60405161091b9190611e97565b9081526040519081900360200190205460ff168061094257505f546001600160a01b031633145b61095e5760405162461bcd60e51b81526004016104e890611ea2565b5f8351116109a05760405162461bcd60e51b815260206004820152600f60248201526e125b9d985b1a5908139190c8155251608a1b60448201526064016104e8565b6001600160a01b0382166109ef5760405162461bcd60e51b8152602060048201526016602482015275496e76616c69642077616c6c6574206164647265737360501b60448201526064016104e8565b6109f883610648565b15610a0457505f610876565b6001600160a01b0382165f9081526003602052604081208054610a2690611e48565b90501115610a3557505f610876565b6040518060c00160405280836001600160a01b031681526020014281526020015f81526020016001151581526020016001151581526020016040518060400160405280600c81526020016b185d5d1bd7d8dc99585d195960a21b815250815250600184604051610aa59190611e97565b90815260408051918290036020908101909220835181546001600160a01b039091166001600160a01b031990911617815591830151600183015582015160028201556060820151600382018054608085015115156101000261ff00199315159390931661ffff199091161791909117905560a08201516004820190610b2a9082611f4c565b50905050600283604051610b3e9190611e97565b9081526020016040518091039020600184604051610b5c9190611e97565b9081526040519081900360209081019091208254600181810185555f94855292909320815460059094020180546001600160a01b0319166001600160a01b0390941693909317835581810154918301919091556002808201549083015560038082018054918401805460ff938416151560ff19821681178355925461010090819004909416151590930261ff001990921661ffff199093169290921717905590600480820190610c0e90840182612049565b5050506001600160a01b0382165f908152600360205260409020610c328482611f4c565b5060058054905f610c4283612031565b9190505550816001600160a01b031683604051610c5f9190611e97565b604051908190038120428252907fad7f881728ad0b1e28f5d90b6c6072865873a8cf9e08deda8ec28bc61328915e9060200160405180910390a3816001600160a01b031683604051610cb19190611e97565b604051908190038120428252907ff30957385097ba7655e849d7b0140a25c8e1d7d9f461023d39f531ee8fafe22f9060200160405180910390a350600192915050565b610cfd82610648565b610d195760405162461bcd60e51b81526004016104e890611ed9565b5f600183604051610d2a9190611e97565b908152604080519182900360209081018320805484840190935260068452651d5b989a5b9960d21b9184019190915292506001600160a01b031690610d73908290869086611525565b610db35760405162461bcd60e51b8152602060048201526011602482015270496e76616c6964207369676e617475726560781b60448201526064016104e8565b6001600160a01b0381165f908152600360205260408120610dd39161187b565b60038201805460ff1916905542600283015560058054905f610df483612115565b909155505060068054905f610e0883612031565b9190505550806001600160a01b031684604051610e259190611e97565b604080519182900382204283525f6020840152917fd07f8b0971f74b862e44be709af68f70f3ca6d797015825b2dd12f126cc899fa910160405180910390a350505050565b610e726114f9565b610e7b5f611642565b565b5f610e8782610648565b610e9357506001919050565b600182604051610ea39190611e97565b9081526040519081900360200190206003015460ff6101009091041692915050565b6060600282604051610ed79190611e97565b9081526020016040518091039020805480602002602001604051908101604052809291908181526020015f905b8282101561100f575f8481526020908190206040805160c0810182526005860290920180546001600160a01b03168352600181015493830193909352600283015490820152600382015460ff80821615156060840152610100909104161515608082015260048201805491929160a084019190610f8090611e48565b80601f0160208091040260200160405190810160405280929190818152602001828054610fac90611e48565b8015610ff75780601f10610fce57610100808354040283529160200191610ff7565b820191905f5260205f20905b815481529060010190602001808311610fda57829003601f168201915b50505050508152505081526020019060010190610f04565b505050509050919050565b6004611025336114e3565b6040516110329190611e97565b9081526040519081900360200190205460ff168061105957505f546001600160a01b031633145b6110755760405162461bcd60e51b81526004016104e890611ea2565b61107e81610648565b61109a5760405162461bcd60e51b81526004016104e890611ed9565b5f6001826040516110ab9190611e97565b908152604080516020928190038301902080546001600160a01b03165f818152600390945291832090935090916110e2919061187b565b60038201805460ff1916905542600283015560058054905f61110383612115565b909155505060068054905f61111783612031565b9190505550806001600160a01b0316836040516111349190611e97565b6040805191829003822042835260016020840152917fd07f8b0971f74b862e44be709af68f70f3ca6d797015825b2dd12f126cc899fa910161063b565b6111b26040518060c001604052805f6001600160a01b031681526020015f81526020015f81526020015f151581526020015f15158152602001606081525090565b6111bb82610648565b6111d75760405162461bcd60e51b81526004016104e890611ed9565b6001826040516111e79190611e97565b90815260408051918290036020908101832060c08401835280546001600160a01b03168452600181015491840191909152600281015491830191909152600381015460ff80821615156060850152610100909104161515608083015260048101805460a08401919061125890611e48565b80601f016020809104026020016040519081016040528092919081815260200182805461128490611e48565b80156112cf5780601f106112a6576101008083540402835291602001916112cf565b820191905f5260205f20905b8154815290600101906020018083116112b257829003601f168201915b5050505050815250509050919050565b6001600160a01b0381165f90815260036020526040902080546060919061130590611e48565b80601f016020809104026020016040519081016040528092919081815260200182805461133190611e48565b801561137c5780601f106113535761010080835404028352916020019161137c565b820191905f5260205f20905b81548152906001019060200180831161135f57829003601f168201915b50505050509050919050565b5f6004826040516113999190611e97565b9081526040519081900360200190205460ff1692915050565b60046113bd336114e3565b6040516113ca9190611e97565b9081526040519081900360200190205460ff16806113f157505f546001600160a01b031633145b61140d5760405162461bcd60e51b81526004016104e890611ea2565b61141682610648565b6114325760405162461bcd60e51b81526004016104e890611ed9565b806001836040516114439190611e97565b908152602001604051809103902060040190816114609190611f4c565b508160405161146f9190611e97565b60405180910390207f0908d7e46fe6ac93e152e3a396caf8b829364d342ce6ba6d3ff29e36f5e177b1826040516108f69190611b05565b6114ae6114f9565b6001600160a01b0381166114d757604051631e4fbdf760e01b81525f60048201526024016104e8565b6114e081611642565b50565b6060610876826001600160a01b03166014611691565b5f546001600160a01b03163314610e7b5760405163118cdaa760e01b81523360048201526024016104e8565b5f5f85858560405160200161153c9392919061212a565b6040516020818303038152906040528051906020012090505f8160405160200161159291907f19457468657265756d205369676e6564204d6573736167653a0a3332000000008152601c810191909152603c0190565b6040516020818303038152906040528051906020012090505f5f5f6115b68761180a565b9250925092505f6001858386866040515f81526020016040526040516115f8949392919093845260ff9290921660208401526040830152606082015260800190565b6020604051602081039080840390855afa158015611618573d5f5f3e3d5ffd5b5050604051601f1901516001600160a01b03908116908d1614975050505050505050949350505050565b5f80546001600160a01b038381166001600160a01b0319831681178455604051919092169283917f8be0079c531659141344cd1fd0a4f28419497f9722a3daafe3b4186f6b6457e09190a35050565b6060825f6116a084600261215f565b6116ab906002612176565b6001600160401b038111156116c2576116c2611900565b6040519080825280601f01601f1916602001820160405280156116ec576020820181803683370190505b509050600360fc1b815f8151811061170657611706612009565b60200101906001600160f81b03191690815f1a905350600f60fb1b8160018151811061173457611734612009565b60200101906001600160f81b03191690815f1a9053505f61175685600261215f565b611761906001612176565b90505b60018111156117d8576f181899199a1a9b1b9c1cb0b131b232b360811b83600f166010811061179557611795612009565b1a60f81b8282815181106117ab576117ab612009565b60200101906001600160f81b03191690815f1a90535060049290921c916117d181612115565b9050611764565b5081156118025760405163e22e27eb60e01b815260048101869052602481018590526044016104e8565b949350505050565b5f5f5f835160411461185e5760405162461bcd60e51b815260206004820152601860248201527f496e76616c6964207369676e6174757265206c656e677468000000000000000060448201526064016104e8565b5050506020810151604082015160609092015190925f9190911a90565b50805461188790611e48565b5f825580601f10611896575050565b601f0160209004905f5260205f20908101906114e091905b808211156118c1575f81556001016118ae565b5090565b80356001600160a01b03811681146118db575f5ffd5b919050565b5f602082840312156118f0575f5ffd5b6118f9826118c5565b9392505050565b634e487b7160e01b5f52604160045260245ffd5b604051601f8201601f191681016001600160401b038111828210171561193c5761193c611900565b604052919050565b5f5f6001600160401b0384111561195d5761195d611900565b50601f8301601f191660200161197281611914565b915050828152838383011115611986575f5ffd5b828260208301375f602084830101529392505050565b5f82601f8301126119ab575f5ffd5b6118f983833560208501611944565b5f5f604083850312156119cb575f5ffd5b82356001600160401b038111156119e0575f5ffd5b6119ec8582860161199c565b95602094909401359450505050565b5f81518084528060208401602086015e5f602082860101526020601f19601f83011685010191505092915050565b60018060a01b03871681528560208201528460408201528315156060820152821515608082015260c060a08201525f611a6560c08301846119fb565b98975050505050505050565b5f5f60408385031215611a82575f5ffd5b82356001600160401b03811115611a97575f5ffd5b611aa38582860161199c565b92505060208301356001600160401b03811115611abe575f5ffd5b611aca8582860161199c565b9150509250929050565b5f60208284031215611ae4575f5ffd5b81356001600160401b03811115611af9575f5ffd5b6118028482850161199c565b602081525f6118f960208301846119fb565b5f6001600160401b03821115611b2f57611b2f611900565b5060051b60200190565b5f82601f830112611b48575f5ffd5b8135611b5b611b5682611b17565b611914565b8082825260208201915060208360051b860101925085831115611b7c575f5ffd5b602085015b83811015611ba057611b92816118c5565b835260209283019201611b81565b5095945050505050565b5f5f60408385031215611bbb575f5ffd5b82356001600160401b03811115611bd0575f5ffd5b8301601f81018513611be0575f5ffd5b8035611bee611b5682611b17565b8082825260208201915060208360051b850101925087831115611c0f575f5ffd5b602084015b83811015611c4f5780356001600160401b03811115611c31575f5ffd5b611c408a60208389010161199c565b84525060209283019201611c14565b50945050505060208301356001600160401b03811115611c6d575f5ffd5b611aca85828601611b39565b5f5f60408385031215611c8a575f5ffd5b82356001600160401b03811115611c9f575f5ffd5b611cab8582860161199c565b92505060208301358015158114611cc0575f5ffd5b809150509250929050565b5f5f60408385031215611cdc575f5ffd5b82356001600160401b03811115611cf1575f5ffd5b611cfd8582860161199c565b925050611d0c602084016118c5565b90509250929050565b5f5f60408385031215611d26575f5ffd5b82356001600160401b03811115611d3b575f5ffd5b611d478582860161199c565b92505060208301356001600160401b03811115611d62575f5ffd5b8301601f81018513611d72575f5ffd5b611aca85823560208401611944565b60018060a01b03815116825260208101516020830152604081015160408301526060810151151560608301526080810151151560808301525f60a082015160c060a085015261180260c08501826119fb565b5f602082016020835280845180835260408501915060408160051b8601019250602086015f5b82811015611e2a57603f19878603018452611e15858351611d81565b94506020938401939190910190600101611df9565b50929695505050505050565b602081525f6118f96020830184611d81565b600181811c90821680611e5c57607f821691505b602082108103611e7a57634e487b7160e01b5f52602260045260245ffd5b50919050565b5f81518060208401855e5f93019283525090919050565b5f6118f98284611e80565b60208082526017908201527f4e6f7420617574686f72697a6564206f70657261746f72000000000000000000604082015260600190565b6020808252600d908201526c139190c81b9bdd08189bdd5b99609a1b604082015260600190565b601f821115611f4757805f5260205f20601f840160051c81016020851015611f255750805b601f840160051c820191505b81811015611f44575f8155600101611f31565b50505b505050565b81516001600160401b03811115611f6557611f65611900565b611f7981611f738454611e48565b84611f00565b6020601f821160018114611fae575f8315611f945750848201515b600184901b5f19600386901b1c198216175b855550611f44565b5f84815260208120601f198516915b82811015611fdd5787850151825560209485019460019092019101611fbd565b5084821015611ffa57868401515f19600387901b60f8161c191681555b50505050600190811b01905550565b634e487b7160e01b5f52603260045260245ffd5b634e487b7160e01b5f52601160045260245ffd5b5f600182016120425761204261201d565b5060010190565b818103612054575050565b61205e8254611e48565b6001600160401b0381111561207557612075611900565b61208381611f738454611e48565b5f601f8211600181146120b2575f8315611f94575081850154600184901b5f19600386901b1c19821617611fa6565b5f8581526020808220868352908220601f198616925b838110156120e857828601548255600195860195909101906020016120c8565b508583101561210557818501545f19600388901b60f8161c191681555b5050505050600190811b01905550565b5f816121235761212361201d565b505f190190565b6bffffffffffffffffffffffff198460601b1681525f6121566121506014840186611e80565b84611e80565b95945050505050565b80820281158282048414176108765761087661201d565b808201808211156108765761087661201d56fea26469706673582212200e9e0f7891b7953b457e24a47172371995259dae6b1f45e7466a44cb7fbc84a264736f6c634300081e0033","linkReferences":{}},"methodIdentifiers":{"authorizeOperator(string,bool)":"40749ba8","authorizedOperators(string)":"9104f2e8","batchDetectBlankCards(string[],address[])":"39797b26","detectAndBindBlankCard(string,address)":"500c80e9","emergencyUnbindNFCWallet(string)":"9fd3b788","getNFCBinding(string)":"b5fcabc5","getNFCHistory(string)":"815d79f5","getWalletNFC(address)":"b9aafc81","initializeBlankCard(string,string)":"220bef29","isAuthorizedOperator(string)":"db19d198","isBlankCard(string)":"7ccef9de","isNFCBound(string)":"2be5c44c","isWalletBound(address)":"14b8f1e4","nfcBindings(string)":"379e3106","nfcHistory(string,uint256)":"1d46d6e8","owner()":"8da5cb5b","renounceOwnership()":"715018a6","totalBindings()":"e4a97b94","totalUnbindings()":"d7aff146","transferOwnership(address)":"f2fde38b","unbindNFCWallet(string,bytes)":"51893662","updateNFCMetadata(string,string)":"eb588834","walletToNFC(address)":"2c23ff5e"},"id":44}