{"abi":[{"type":"constructor","inputs":[],"stateMutability":"nonpayable"},{"type":"function","name":"MAX_CATS_PER_USER","inputs":[],"outputs":[{"name":"","type":"uint256","internalType":"uint256"}],"stateMutability":"view"},{"type":"function","name":"R_PROBABILITY","inputs":[],"outputs":[{"name":"","type":"uint256","internalType":"uint256"}],"stateMutability":"view"},{"type":"function","name":"SR_PROBABILITY","inputs":[],"outputs":[{"name":"","type":"uint256","internalType":"uint256"}],"stateMutability":"view"},{"type":"function","name":"SSR_PROBABILITY","inputs":[],"outputs":[{"name":"","type":"uint256","internalType":"uint256"}],"stateMutability":"view"},{"type":"function","name":"UR_PROBABILITY","inputs":[],"outputs":[{"name":"","type":"uint256","internalType":"uint256"}],"stateMutability":"view"},{"type":"function","name":"approve","inputs":[{"name":"to","type":"address","internalType":"address"},{"name":"tokenId","type":"uint256","internalType":"uint256"}],"outputs":[],"stateMutability":"nonpayable"},{"type":"function","name":"balanceOf","inputs":[{"name":"owner","type":"address","internalType":"address"}],"outputs":[{"name":"","type":"uint256","internalType":"uint256"}],"stateMutability":"view"},{"type":"function","name":"catInfos","inputs":[{"name":"","type":"uint256","internalType":"uint256"}],"outputs":[{"name":"name","type":"string","internalType":"string"},{"name":"rarity","type":"uint8","internalType":"enum CatNFT.CatRarity"},{"name":"color","type":"string","internalType":"string"},{"name":"mintedAt","type":"uint256","internalType":"uint256"},{"name":"metadata","type":"string","internalType":"string"}],"stateMutability":"view"},{"type":"function","name":"drawCatNFT","inputs":[{"name":"catName","type":"string","internalType":"string"}],"outputs":[],"stateMutability":"payable"},{"type":"function","name":"drawFee","inputs":[],"outputs":[{"name":"","type":"uint256","internalType":"uint256"}],"stateMutability":"view"},{"type":"function","name":"getApproved","inputs":[{"name":"tokenId","type":"uint256","internalType":"uint256"}],"outputs":[{"name":"","type":"address","internalType":"address"}],"stateMutability":"view"},{"type":"function","name":"getCatInfo","inputs":[{"name":"tokenId","type":"uint256","internalType":"uint256"}],"outputs":[{"name":"","type":"tuple","internalType":"struct CatNFT.CatInfo","components":[{"name":"name","type":"string","internalType":"string"},{"name":"rarity","type":"uint8","internalType":"enum CatNFT.CatRarity"},{"name":"color","type":"string","internalType":"string"},{"name":"mintedAt","type":"uint256","internalType":"uint256"},{"name":"metadata","type":"string","internalType":"string"}]}],"stateMutability":"view"},{"type":"function","name":"getRainbowCatTokenId","inputs":[],"outputs":[{"name":"","type":"uint256","internalType":"uint256"}],"stateMutability":"view"},{"type":"function","name":"getRarityCounts","inputs":[],"outputs":[{"name":"rCount","type":"uint256","internalType":"uint256"},{"name":"srCount","type":"uint256","internalType":"uint256"},{"name":"ssrCount","type":"uint256","internalType":"uint256"},{"name":"urCount","type":"uint256","internalType":"uint256"}],"stateMutability":"view"},{"type":"function","name":"getUserCats","inputs":[{"name":"user","type":"address","internalType":"address"}],"outputs":[{"name":"","type":"uint256[]","internalType":"uint256[]"}],"stateMutability":"view"},{"type":"function","name":"isApprovedForAll","inputs":[{"name":"owner","type":"address","internalType":"address"},{"name":"operator","type":"address","internalType":"address"}],"outputs":[{"name":"","type":"bool","internalType":"bool"}],"stateMutability":"view"},{"type":"function","name":"isColorUsed","inputs":[{"name":"color","type":"string","internalType":"string"}],"outputs":[{"name":"","type":"bool","internalType":"bool"}],"stateMutability":"view"},{"type":"function","name":"isNameUsed","inputs":[{"name":"name","type":"string","internalType":"string"}],"outputs":[{"name":"","type":"bool","internalType":"bool"}],"stateMutability":"view"},{"type":"function","name":"isRainbowCatMinted","inputs":[],"outputs":[{"name":"","type":"bool","internalType":"bool"}],"stateMutability":"view"},{"type":"function","name":"name","inputs":[],"outputs":[{"name":"","type":"string","internalType":"string"}],"stateMutability":"view"},{"type":"function","name":"owner","inputs":[],"outputs":[{"name":"","type":"address","internalType":"address"}],"stateMutability":"view"},{"type":"function","name":"ownerOf","inputs":[{"name":"tokenId","type":"uint256","internalType":"uint256"}],"outputs":[{"name":"","type":"address","internalType":"address"}],"stateMutability":"view"},{"type":"function","name":"rainbowCatMinted","inputs":[],"outputs":[{"name":"","type":"bool","internalType":"bool"}],"stateMutability":"view"},{"type":"function","name":"rainbowCatTokenId","inputs":[],"outputs":[{"name":"","type":"uint256","internalType":"uint256"}],"stateMutability":"view"},{"type":"function","name":"rarityCounts","inputs":[{"name":"","type":"uint8","internalType":"enum CatNFT.CatRarity"}],"outputs":[{"name":"","type":"uint256","internalType":"uint256"}],"stateMutability":"view"},{"type":"function","name":"renounceOwnership","inputs":[],"outputs":[],"stateMutability":"nonpayable"},{"type":"function","name":"safeTransferFrom","inputs":[{"name":"from","type":"address","internalType":"address"},{"name":"to","type":"address","internalType":"address"},{"name":"tokenId","type":"uint256","internalType":"uint256"}],"outputs":[],"stateMutability":"nonpayable"},{"type":"function","name":"safeTransferFrom","inputs":[{"name":"from","type":"address","internalType":"address"},{"name":"to","type":"address","internalType":"address"},{"name":"tokenId","type":"uint256","internalType":"uint256"},{"name":"data","type":"bytes","internalType":"bytes"}],"outputs":[],"stateMutability":"nonpayable"},{"type":"function","name":"setApprovalForAll","inputs":[{"name":"operator","type":"address","internalType":"address"},{"name":"approved","type":"bool","internalType":"bool"}],"outputs":[],"stateMutability":"nonpayable"},{"type":"function","name":"setDrawFee","inputs":[{"name":"newFee","type":"uint256","internalType":"uint256"}],"outputs":[],"stateMutability":"nonpayable"},{"type":"function","name":"supportsInterface","inputs":[{"name":"interfaceId","type":"bytes4","internalType":"bytes4"}],"outputs":[{"name":"","type":"bool","internalType":"bool"}],"stateMutability":"view"},{"type":"function","name":"symbol","inputs":[],"outputs":[{"name":"","type":"string","internalType":"string"}],"stateMutability":"view"},{"type":"function","name":"tokenURI","inputs":[{"name":"tokenId","type":"uint256","internalType":"uint256"}],"outputs":[{"name":"","type":"string","internalType":"string"}],"stateMutability":"view"},{"type":"function","name":"transferCatNFT","inputs":[{"name":"tokenId","type":"uint256","internalType":"uint256"},{"name":"to","type":"address","internalType":"address"}],"outputs":[],"stateMutability":"nonpayable"},{"type":"function","name":"transferFrom","inputs":[{"name":"from","type":"address","internalType":"address"},{"name":"to","type":"address","internalType":"address"},{"name":"tokenId","type":"uint256","internalType":"uint256"}],"outputs":[],"stateMutability":"nonpayable"},{"type":"function","name":"transferOwnership","inputs":[{"name":"newOwner","type":"address","internalType":"address"}],"outputs":[],"stateMutability":"nonpayable"},{"type":"function","name":"updateCatMetadata","inputs":[{"name":"tokenId","type":"uint256","internalType":"uint256"},{"name":"metadata","type":"string","internalType":"string"}],"outputs":[],"stateMutability":"nonpayable"},{"type":"function","name":"usedCatNames","inputs":[{"name":"","type":"string","internalType":"string"}],"outputs":[{"name":"","type":"bool","internalType":"bool"}],"stateMutability":"view"},{"type":"function","name":"usedColors","inputs":[{"name":"","type":"string","internalType":"string"}],"outputs":[{"name":"","type":"bool","internalType":"bool"}],"stateMutability":"view"},{"type":"function","name":"userCats","inputs":[{"name":"","type":"address","internalType":"address"},{"name":"","type":"uint256","internalType":"uint256"}],"outputs":[{"name":"","type":"uint256","internalType":"uint256"}],"stateMutability":"view"},{"type":"function","name":"withdraw","inputs":[],"outputs":[],"stateMutability":"nonpayable"},{"type":"event","name":"Approval","inputs":[{"name":"owner","type":"address","indexed":true,"internalType":"address"},{"name":"approved","type":"address","indexed":true,"internalType":"address"},{"name":"tokenId","type":"uint256","indexed":true,"internalType":"uint256"}],"anonymous":false},{"type":"event","name":"ApprovalForAll","inputs":[{"name":"owner","type":"address","indexed":true,"internalType":"address"},{"name":"operator","type":"address","indexed":true,"internalType":"address"},{"name":"approved","type":"bool","indexed":false,"internalType":"bool"}],"anonymous":false},{"type":"event","name":"BatchMetadataUpdate","inputs":[{"name":"_fromTokenId","type":"uint256","indexed":false,"internalType":"uint256"},{"name":"_toTokenId","type":"uint256","indexed":false,"internalType":"uint256"}],"anonymous":false},{"type":"event","name":"CatNFTMinted","inputs":[{"name":"tokenId","type":"uint256","indexed":true,"internalType":"uint256"},{"name":"name","type":"string","indexed":true,"internalType":"string"},{"name":"rarity","type":"uint8","indexed":false,"internalType":"enum CatNFT.CatRarity"},{"name":"color","type":"string","indexed":false,"internalType":"string"},{"name":"owner","type":"address","indexed":true,"internalType":"address"},{"name":"mintedAt","type":"uint256","indexed":false,"internalType":"uint256"}],"anonymous":false},{"type":"event","name":"CatNFTTransferred","inputs":[{"name":"tokenId","type":"uint256","indexed":true,"internalType":"uint256"},{"name":"name","type":"string","indexed":true,"internalType":"string"},{"name":"from","type":"address","indexed":true,"internalType":"address"},{"name":"to","type":"address","indexed":false,"internalType":"address"}],"anonymous":false},{"type":"event","name":"MetadataUpdate","inputs":[{"name":"_tokenId","type":"uint256","indexed":false,"internalType":"uint256"}],"anonymous":false},{"type":"event","name":"OwnershipTransferred","inputs":[{"name":"previousOwner","type":"address","indexed":true,"internalType":"address"},{"name":"newOwner","type":"address","indexed":true,"internalType":"address"}],"anonymous":false},{"type":"event","name":"RainbowCatFound","inputs":[{"name":"tokenId","type":"uint256","indexed":true,"internalType":"uint256"},{"name":"name","type":"string","indexed":true,"internalType":"string"},{"name":"finder","type":"address","indexed":true,"internalType":"address"},{"name":"mintedAt","type":"uint256","indexed":false,"internalType":"uint256"}],"anonymous":false},{"type":"event","name":"Transfer","inputs":[{"name":"from","type":"address","indexed":true,"internalType":"address"},{"name":"to","type":"address","indexed":true,"internalType":"address"},{"name":"tokenId","type":"uint256","indexed":true,"internalType":"uint256"}],"anonymous":false},{"type":"error","name":"ERC721IncorrectOwner","inputs":[{"name":"sender","type":"address","internalType":"address"},{"name":"tokenId","type":"uint256","internalType":"uint256"},{"name":"owner","type":"address","internalType":"address"}]},{"type":"error","name":"ERC721InsufficientApproval","inputs":[{"name":"operator","type":"address","internalType":"address"},{"name":"tokenId","type":"uint256","internalType":"uint256"}]},{"type":"error","name":"ERC721InvalidApprover","inputs":[{"name":"approver","type":"address","internalType":"address"}]},{"type":"error","name":"ERC721InvalidOperator","inputs":[{"name":"operator","type":"address","internalType":"address"}]},{"type":"error","name":"ERC721InvalidOwner","inputs":[{"name":"owner","type":"address","internalType":"address"}]},{"type":"error","name":"ERC721InvalidReceiver","inputs":[{"name":"receiver","type":"address","internalType":"address"}]},{"type":"error","name":"ERC721InvalidSender","inputs":[{"name":"sender","type":"address","internalType":"address"}]},{"type":"error","name":"ERC721NonexistentToken","inputs":[{"name":"tokenId","type":"uint256","internalType":"uint256"}]},{"type":"error","name":"OwnableInvalidOwner","inputs":[{"name":"owner","type":"address","internalType":"address"}]},{"type":"error","name":"OwnableUnauthorizedAccount","inputs":[{"name":"account","type":"address","internalType":"address"}]},{"type":"error","name":"ReentrancyGuardReentrantCall","inputs":[]}],"bytecode":{"object":"0x608060405267016345785d8a0000600f556010805460ff19169055348015610025575f5ffd5b50336040518060400160405280600781526020016610d85d0813919560ca1b8152506040518060400160405280600381526020016210d05560ea1b815250815f908161007191906101ab565b50600161007e82826101ab565b5050506001600160a01b0381166100ae57604051631e4fbdf760e01b81525f600482015260240160405180910390fd5b6100b7816100c2565b506001600855610265565b600780546001600160a01b038381166001600160a01b0319831681179093556040519116919082907f8be0079c531659141344cd1fd0a4f28419497f9722a3daafe3b4186f6b6457e0905f90a35050565b634e487b7160e01b5f52604160045260245ffd5b600181811c9082168061013b57607f821691505b60208210810361015957634e487b7160e01b5f52602260045260245ffd5b50919050565b601f8211156101a657805f5260205f20601f840160051c810160208510156101845750805b601f840160051c820191505b818110156101a3575f8155600101610190565b50505b505050565b81516001600160401b038111156101c4576101c4610113565b6101d8816101d28454610127565b8461015f565b6020601f82116001811461020a575f83156101f35750848201515b5f19600385901b1c1916600184901b1784556101a3565b5f84815260208120601f198516915b828110156102395787850151825560209485019460019092019101610219565b508482101561025657868401515f19600387901b60f8161c191681555b50505050600190811b01905550565b612bf8806102725f395ff3fe60806040526004361061023e575f3560e01c806370a0823111610134578063c08ee6ca116100b3578063d75e30cf11610078578063d75e30cf1461073b578063e769726514610750578063e985e9c51461076f578063ec75d6221461078e578063f2fde38b146107ad578063f55426ee146107cc575f5ffd5b8063c08ee6ca1461068d578063c75da8d5146106c7578063c87b56dd146106e6578063ce5d793014610705578063d4924afc1461071c575f5ffd5b806395d89b41116100f957806395d89b41146105f1578063a22cb46514610605578063a3fbbb7414610624578063a4fc1a131461064f578063b88d4fde1461066e575f5ffd5b806370a0823114610588578063715018a6146105a757806374f796ce146105bb57806386d17084146104ea5780638da5cb5b146105d4575f5ffd5b806334ded72d116101c0578063554d195211610185578063554d1952146104fe578063594fd73c146105135780635de32ef5146105285780636352211e146105545780636c569d5814610573575f5ffd5b806334ded72d146104845780633ccfd60b146104985780633ed24510146104ac57806342842e0e146104cb57806348c5f80e146104ea575f5ffd5b80631715b8c6116102065780631715b8c6146103295780631f71bab41461034c57806323b872dd14610409578063310c71ae1461042857806333ce3dbe14610454575f5ffd5b806301ffc9a71461024257806306fdde0314610276578063081812fc14610297578063095ea7b3146102ce5780631083f8c2146102ef575b5f5ffd5b34801561024d575f5ffd5b5061026161025c366004612443565b6107df565b60405190151581526020015b60405180910390f35b348015610281575f5ffd5b5061028a6107ef565b60405161026d919061248c565b3480156102a2575f5ffd5b506102b66102b136600461249e565b61087e565b6040516001600160a01b03909116815260200161026d565b3480156102d9575f5ffd5b506102ed6102e83660046124cb565b6108a5565b005b3480156102fa575f5ffd5b5061026161030936600461259c565b8051602081830181018051600d8252928201919093012091525460ff1681565b348015610334575f5ffd5b5061033e61177081565b60405190815260200161026d565b348015610357575f5ffd5b50600c6020527f13649b2456f1b42fef0f0040b3aaeabcd21a76a0f3f5defd4f583839455116e8547fd421a5181c571bba3f01190c922c3b2a896fc1d84e86c9f17ac10e67ebef8b5c547f5d6016397a73f5e079297ac5a36fef17b4d9c3831618e63ab105738020ddd7205460035f527fc0da782485e77ae272268ae0a3ff44c1552ecb60b3743924de17a815e0a3cfd75460408051948552602085019390935291830152606082015260800161026d565b348015610414575f5ffd5b506102ed6104233660046125ce565b6108b4565b348015610433575f5ffd5b50610447610442366004612608565b610942565b60405161026d9190612621565b34801561045f575f5ffd5b5061047361046e36600461249e565b6109ab565b60405161026d959493929190612697565b34801561048f575f5ffd5b5061033e610b73565b3480156104a3575f5ffd5b506102ed610bce565b3480156104b7575f5ffd5b506102ed6104c63660046126ee565b610c0f565b3480156104d6575f5ffd5b506102ed6104e53660046125ce565b610cda565b3480156104f5575f5ffd5b5061033e606481565b348015610509575f5ffd5b5061033e610bb881565b34801561051e575f5ffd5b5061033e60115481565b348015610533575f5ffd5b5061054761054236600461249e565b610cf4565b60405161026d9190612732565b34801561055f575f5ffd5b506102b661056e36600461249e565b610f8c565b34801561057e575f5ffd5b5061033e61038481565b348015610593575f5ffd5b5061033e6105a2366004612608565b610f96565b3480156105b2575f5ffd5b506102ed610fdb565b3480156105c6575f5ffd5b506010546102619060ff1681565b3480156105df575f5ffd5b506007546001600160a01b03166102b6565b3480156105fc575f5ffd5b5061028a610fee565b348015610610575f5ffd5b506102ed61061f3660046127a5565b610ffd565b34801561062f575f5ffd5b5061033e61063e3660046127de565b600c6020525f908152604090205481565b34801561065a575f5ffd5b5061033e6106693660046124cb565b611008565b348015610679575f5ffd5b506102ed6106883660046127fc565b611033565b348015610698575f5ffd5b506102616106a736600461259c565b8051602081830181018051600e8252928201919093012091525460ff1681565b3480156106d2575f5ffd5b506102ed6106e136600461249e565b61104b565b3480156106f1575f5ffd5b5061028a61070036600461249e565b611058565b348015610710575f5ffd5b5060105460ff16610261565b348015610727575f5ffd5b5061026161073636600461259c565b611063565b348015610746575f5ffd5b5061033e600f5481565b34801561075b575f5ffd5b506102ed61076a366004612873565b61108d565b34801561077a575f5ffd5b5061026161078936600461289d565b611226565b348015610799575f5ffd5b506102616107a836600461259c565b611253565b3480156107b8575f5ffd5b506102ed6107c7366004612608565b611264565b6102ed6107da36600461259c565b61129e565b5f6107e9826116a6565b92915050565b60605f80546107fd906128c5565b80601f0160208091040260200160405190810160405280929190818152602001828054610829906128c5565b80156108745780601f1061084b57610100808354040283529160200191610874565b820191905f5260205f20905b81548152906001019060200180831161085757829003601f168201915b5050505050905090565b5f610888826116ca565b505f828152600460205260409020546001600160a01b03166107e9565b6108b0828233611702565b5050565b6001600160a01b0382166108e257604051633250574960e11b81525f60048201526024015b60405180910390fd5b5f6108ee83833361170f565b9050836001600160a01b0316816001600160a01b03161461093c576040516364283d7b60e01b81526001600160a01b03808616600483015260248201849052821660448201526064016108d9565b50505050565b6001600160a01b0381165f908152600b602090815260409182902080548351818402810184019094528084526060939283018282801561099f57602002820191905f5260205f20905b81548152602001906001019080831161098b575b50505050509050919050565b600a6020525f90815260409020805481906109c5906128c5565b80601f01602080910402602001604051908101604052809291908181526020018280546109f1906128c5565b8015610a3c5780601f10610a1357610100808354040283529160200191610a3c565b820191905f5260205f20905b815481529060010190602001808311610a1f57829003601f168201915b5050506001840154600285018054949560ff909216949193509150610a60906128c5565b80601f0160208091040260200160405190810160405280929190818152602001828054610a8c906128c5565b8015610ad75780601f10610aae57610100808354040283529160200191610ad7565b820191905f5260205f20905b815481529060010190602001808311610aba57829003601f168201915b505050505090806003015490806004018054610af2906128c5565b80601f0160208091040260200160405190810160405280929190818152602001828054610b1e906128c5565b8015610b695780601f10610b4057610100808354040283529160200191610b69565b820191905f5260205f20905b815481529060010190602001808311610b4c57829003601f168201915b5050505050905085565b6010545f9060ff16610bc75760405162461bcd60e51b815260206004820152601a60248201527f5261696e626f7720636174206e6f74206d696e7465642079657400000000000060448201526064016108d9565b5060115490565b610bd6611801565b6007546040516001600160a01b03909116904780156108fc02915f818181858888f19350505050158015610c0c573d5f5f3e3d5ffd5b50565b5f828152600260205260409020546001600160a01b0316610c695760405162461bcd60e51b8152602060048201526014602482015273151bdad95b88191bd95cc81b9bdd08195e1a5cdd60621b60448201526064016108d9565b33610c7383610f8c565b6001600160a01b031614610cbb5760405162461bcd60e51b815260206004820152600f60248201526e2737ba103a37b5b2b71037bbb732b960891b60448201526064016108d9565b5f828152600a60205260409020600401610cd58282612941565b505050565b610cd583838360405180602001604052805f815250611033565b610d256040805160a0810190915260608152602081015f8152602001606081526020015f8152602001606081525090565b5f828152600260205260409020546001600160a01b0316610d815760405162461bcd60e51b815260206004820152601660248201527510d85d0813919508191bd95cc81b9bdd08195e1a5cdd60521b60448201526064016108d9565b5f828152600a602052604090819020815160a08101909252805482908290610da8906128c5565b80601f0160208091040260200160405190810160405280929190818152602001828054610dd4906128c5565b8015610e1f5780601f10610df657610100808354040283529160200191610e1f565b820191905f5260205f20905b815481529060010190602001808311610e0257829003601f168201915b5050509183525050600182015460209091019060ff166003811115610e4657610e46612663565b6003811115610e5757610e57612663565b8152602001600282018054610e6b906128c5565b80601f0160208091040260200160405190810160405280929190818152602001828054610e97906128c5565b8015610ee25780601f10610eb957610100808354040283529160200191610ee2565b820191905f5260205f20905b815481529060010190602001808311610ec557829003601f168201915b5050505050815260200160038201548152602001600482018054610f05906128c5565b80601f0160208091040260200160405190810160405280929190818152602001828054610f31906128c5565b8015610f7c5780601f10610f5357610100808354040283529160200191610f7c565b820191905f5260205f20905b815481529060010190602001808311610f5f57829003601f168201915b5050505050815250509050919050565b5f6107e9826116ca565b5f6001600160a01b038216610fc0576040516322718ad960e21b81525f60048201526024016108d9565b506001600160a01b03165f9081526003602052604090205490565b610fe3611801565b610fec5f61182e565b565b6060600180546107fd906128c5565b6108b033838361187f565b600b602052815f5260405f208181548110611021575f80fd5b905f5260205f20015f91509150505481565b61103e8484846108b4565b61093c338585858561191d565b611053611801565b600f55565b60606107e982611a45565b5f600e826040516110749190612a13565b9081526040519081900360200190205460ff1692915050565b5f828152600260205260409020546001600160a01b03166110e95760405162461bcd60e51b815260206004820152601660248201527510d85d0813919508191bd95cc81b9bdd08195e1a5cdd60521b60448201526064016108d9565b336110f383610f8c565b6001600160a01b0316146111395760405162461bcd60e51b815260206004820152600d60248201526c2737ba103a34329037bbb732b960991b60448201526064016108d9565b6001600160a01b0381166111835760405162461bcd60e51b8152602060048201526011602482015270125b9d985b1a59081c9958da5c1a595b9d607a1b60448201526064016108d9565b61118e338284611b50565b6111983383611bfd565b6001600160a01b0381165f908152600b60209081526040808320805460018101825590845282842001859055848352600a90915290819020905133916111dd91612a1e565b6040519081900381206001600160a01b03841682529084907f3cb5a656d154c15807b50e1a587c8f4c709d373a2a18d4e676d13e29af0bd3dd9060200160405180910390a45050565b6001600160a01b039182165f90815260056020908152604080832093909416825291909152205460ff1690565b5f600d826040516110749190612a13565b61126c611801565b6001600160a01b03811661129557604051631e4fbdf760e01b81525f60048201526024016108d9565b610c0c8161182e565b6112a6611cb7565b600f543410156112f05760405162461bcd60e51b8152602060048201526015602482015274496e73756666696369656e7420647261772066656560581b60448201526064016108d9565b5f8151116113405760405162461bcd60e51b815260206004820152601860248201527f436174206e616d652063616e6e6f7420626520656d707479000000000000000060448201526064016108d9565b600d816040516113509190612a13565b9081526040519081900360200190205460ff16156113a85760405162461bcd60e51b815260206004820152601560248201527410d85d081b985b5948185b1c9958591e481d5cd959605a1b60448201526064016108d9565b335f908152600b60205260409020546064116113f65760405162461bcd60e51b815260206004820152600d60248201526c546f6f206d616e79206361747360981b60448201526064016108d9565b60098054905f61140583612aa3565b90915550506009545f611416611ce1565b90505f61142282611d5f565b90505f6040518060a0016040528086815260200184600381111561144857611448612663565b8152602080820185905242604080840191909152805180830182525f808252606090940152878352600a909152902081519192508291819061148a9082612941565b50602082015160018083018054909160ff19909116908360038111156114b2576114b2612663565b0217905550604082015160028201906114cb9082612941565b5060608201516003820155608082015160048201906114ea9082612941565b509050506001600d866040516115009190612a13565b908152604051908190036020018120805492151560ff1990931692909217909155600190600e90611532908590612a13565b908152604051908190036020019020805491151560ff19909216919091179055600c5f84600381111561156757611567612663565b600381111561157857611578612663565b81526020019081526020015f205f81548092919061159590612aa3565b90915550600390508360038111156115af576115af612663565b03611619576010805460ff19166001179055601184905560405133906115d6908790612a13565b6040518091039020857fce53851d0b68acd266655e2f0c7a26243add74023bec372a5a47e2745c25bf034260405161161091815260200190565b60405180910390a45b335f818152600b60209081526040822080546001810182559083529120018590556116449085611edc565b6040513390611654908790612a13565b6040518091039020857ff145aeb4d3ef6c948b8d380f8388039a29cbdccdc94f7a7c1ad2f4fe318eea6386864260405161169093929190612abb565b60405180910390a450505050610c0c6001600855565b5f6001600160e01b03198216632483248360e11b14806107e957506107e982611ef5565b5f818152600260205260408120546001600160a01b0316806107e957604051637e27328960e01b8152600481018490526024016108d9565b610cd58383836001611f44565b5f828152600260205260408120546001600160a01b039081169083161561173b5761173b818486612048565b6001600160a01b03811615611775576117565f855f5f611f44565b6001600160a01b0381165f90815260036020526040902080545f190190555b6001600160a01b038516156117a3576001600160a01b0385165f908152600360205260409020805460010190555b5f8481526002602052604080822080546001600160a01b0319166001600160a01b0389811691821790925591518793918516917fddf252ad1be2c89b69c2b068fc378daa952ba7f163c4a11628f55a4df523b3ef91a4949350505050565b6007546001600160a01b03163314610fec5760405163118cdaa760e01b81523360048201526024016108d9565b600780546001600160a01b038381166001600160a01b0319831681179093556040519116919082907f8be0079c531659141344cd1fd0a4f28419497f9722a3daafe3b4186f6b6457e0905f90a35050565b6001600160a01b0382166118b157604051630b61174360e31b81526001600160a01b03831660048201526024016108d9565b6001600160a01b038381165f81815260056020908152604080832094871680845294825291829020805460ff191686151590811790915591519182527f17307eab39ab6107e8899845ad3d59bd9653f200f220920489ca2b5937696c31910160405180910390a3505050565b6001600160a01b0383163b15611a3e57604051630a85bd0160e11b81526001600160a01b0384169063150b7a029061195f908890889087908790600401612aea565b6020604051808303815f875af1925050508015611999575060408051601f3d908101601f1916820190925261199691810190612b26565b60015b611a00573d8080156119c6576040519150601f19603f3d011682016040523d82523d5f602084013e6119cb565b606091505b5080515f036119f857604051633250574960e11b81526001600160a01b03851660048201526024016108d9565b805160208201fd5b6001600160e01b03198116630a85bd0160e11b14611a3c57604051633250574960e11b81526001600160a01b03851660048201526024016108d9565b505b5050505050565b6060611a50826116ca565b505f8281526006602052604081208054611a69906128c5565b80601f0160208091040260200160405190810160405280929190818152602001828054611a95906128c5565b8015611ae05780601f10611ab757610100808354040283529160200191611ae0565b820191905f5260205f20905b815481529060010190602001808311611ac357829003601f168201915b505050505090505f611afc60408051602081019091525f815290565b905080515f03611b0d575092915050565b815115611b3f578082604051602001611b27929190612b41565b60405160208183030381529060405292505050919050565b611b48846120ac565b949350505050565b6001600160a01b038216611b7957604051633250574960e11b81525f60048201526024016108d9565b5f611b8583835f61170f565b90506001600160a01b038116611bb157604051637e27328960e01b8152600481018390526024016108d9565b836001600160a01b0316816001600160a01b03161461093c576040516364283d7b60e01b81526001600160a01b03808616600483015260248201849052821660448201526064016108d9565b6001600160a01b0382165f908152600b60205260408120905b815481101561093c5782828281548110611c3257611c32612b55565b905f5260205f20015403611caf5781548290611c5090600190612b69565b81548110611c6057611c60612b55565b905f5260205f200154828281548110611c7b57611c7b612b55565b905f5260205f20018190555081805480611c9757611c97612b7c565b600190038181905f5260205f20015f9055905561093c565b600101611c16565b600260085403611cda57604051633ee5aeb560e01b815260040160405180910390fd5b6002600855565b5f5f611cf0600161271061211c565b905060648111611d155760105460ff1615611d0d57600291505090565b600391505090565b611d226103846064612b90565b8111611d3057600291505090565b610bb8611d406103846064612b90565b611d4a9190612b90565b8111611d5857600191505090565b5f91505090565b60606003826003811115611d7557611d75612663565b03611d9d5750506040805180820190915260078152667261696e626f7760c81b602082015290565b6002826003811115611db157611db1612663565b03611e16575f611dc36001600261211c565b905080600114611def5760405180604001604052806004815260200163626c756560e01b815250611e0f565b60405180604001604052806006815260200165707572706c6560d01b8152505b9392505050565b6001826003811115611e2a57611e2a612663565b03611eb6575f611e3c6001600361211c565b905080600103611e6957505060408051808201909152600581526433b932b2b760d91b6020820152919050565b80600203611e925750506040805180820190915260038152621c995960ea1b6020820152919050565b50506040805180820190915260068152656f72616e676560d01b6020820152919050565b5050604080518082019091526005815264626c61636b60d81b602082015290565b919050565b6108b0828260405180602001604052805f8152506121ee565b5f6001600160e01b031982166380ac58cd60e01b1480611f2557506001600160e01b03198216635b5e139f60e01b145b806107e957506301ffc9a760e01b6001600160e01b03198316146107e9565b8080611f5857506001600160a01b03821615155b15612019575f611f67846116ca565b90506001600160a01b03831615801590611f935750826001600160a01b0316816001600160a01b031614155b8015611fa65750611fa48184611226565b155b15611fcf5760405163a9fbf51f60e01b81526001600160a01b03841660048201526024016108d9565b81156120175783856001600160a01b0316826001600160a01b03167f8c5be1e5ebec7d5bd14f71427d1e84f3dd0314c0f7b2291e5b200ac8c7c3b92560405160405180910390a45b505b50505f90815260046020526040902080546001600160a01b0319166001600160a01b0392909216919091179055565b612053838383612205565b610cd5576001600160a01b03831661208157604051637e27328960e01b8152600481018290526024016108d9565b60405163177e802f60e01b81526001600160a01b0383166004820152602481018290526044016108d9565b60606120b7826116ca565b505f6120cd60408051602081019091525f815290565b90505f8151116120eb5760405180602001604052805f815250611e0f565b806120f584612266565b604051602001612106929190612b41565b6040516020818303038152906040529392505050565b5f82821161215c5760405162461bcd60e51b815260206004820152600d60248201526c496e76616c69642072616e676560981b60448201526064016108d9565b5f6121678484612b69565b612172906001612b90565b90505f4244336009546040516020016121b69493929190938452602084019290925260601b6bffffffffffffffffffffffff19166040830152605482015260740190565b60408051601f1981840301815291905280516020909101209050846121db8383612ba3565b6121e59190612b90565b95945050505050565b6121f883836122f6565b610cd5335f85858561191d565b5f6001600160a01b03831615801590611b485750826001600160a01b0316846001600160a01b0316148061223e575061223e8484611226565b80611b485750505f908152600460205260409020546001600160a01b03908116911614919050565b60605f61227283612357565b60010190505f8167ffffffffffffffff811115612291576122916124f3565b6040519080825280601f01601f1916602001820160405280156122bb576020820181803683370190505b5090508181016020015b5f19016f181899199a1a9b1b9c1cb0b131b232b360811b600a86061a8153600a85049450846122c557509392505050565b6001600160a01b03821661231f57604051633250574960e11b81525f60048201526024016108d9565b5f61232b83835f61170f565b90506001600160a01b03811615610cd5576040516339e3563760e11b81525f60048201526024016108d9565b5f8072184f03e93ff9f4daa797ed6e38ed64bf6a1f0160401b83106123955772184f03e93ff9f4daa797ed6e38ed64bf6a1f0160401b830492506040015b6d04ee2d6d415b85acef810000000083106123c1576d04ee2d6d415b85acef8100000000830492506020015b662386f26fc1000083106123df57662386f26fc10000830492506010015b6305f5e10083106123f7576305f5e100830492506008015b612710831061240b57612710830492506004015b6064831061241d576064830492506002015b600a83106107e95760010192915050565b6001600160e01b031981168114610c0c575f5ffd5b5f60208284031215612453575f5ffd5b8135611e0f8161242e565b5f81518084528060208401602086015e5f602082860101526020601f19601f83011685010191505092915050565b602081525f611e0f602083018461245e565b5f602082840312156124ae575f5ffd5b5035919050565b80356001600160a01b0381168114611ed7575f5ffd5b5f5f604083850312156124dc575f5ffd5b6124e5836124b5565b946020939093013593505050565b634e487b7160e01b5f52604160045260245ffd5b5f5f67ffffffffffffffff841115612521576125216124f3565b50604051601f19601f85018116603f0116810181811067ffffffffffffffff82111715612550576125506124f3565b604052838152905080828401851015612567575f5ffd5b838360208301375f60208583010152509392505050565b5f82601f83011261258d575f5ffd5b611e0f83833560208501612507565b5f602082840312156125ac575f5ffd5b813567ffffffffffffffff8111156125c2575f5ffd5b611b488482850161257e565b5f5f5f606084860312156125e0575f5ffd5b6125e9846124b5565b92506125f7602085016124b5565b929592945050506040919091013590565b5f60208284031215612618575f5ffd5b611e0f826124b5565b602080825282518282018190525f918401906040840190835b8181101561265857835183526020938401939092019160010161263a565b509095945050505050565b634e487b7160e01b5f52602160045260245ffd5b6004811061269357634e487b7160e01b5f52602160045260245ffd5b9052565b60a081525f6126a960a083018861245e565b6126b66020840188612677565b82810360408401526126c8818761245e565b905084606084015282810360808401526126e2818561245e565b98975050505050505050565b5f5f604083850312156126ff575f5ffd5b82359150602083013567ffffffffffffffff81111561271c575f5ffd5b6127288582860161257e565b9150509250929050565b602081525f825160a0602084015261274d60c084018261245e565b905060208401516127616040850182612677565b506040840151838203601f1901606085015261277d828261245e565b915050606084015160808401526080840151601f198483030160a08501526121e5828261245e565b5f5f604083850312156127b6575f5ffd5b6127bf836124b5565b9150602083013580151581146127d3575f5ffd5b809150509250929050565b5f602082840312156127ee575f5ffd5b813560048110611e0f575f5ffd5b5f5f5f5f6080858703121561280f575f5ffd5b612818856124b5565b9350612826602086016124b5565b925060408501359150606085013567ffffffffffffffff811115612848575f5ffd5b8501601f81018713612858575f5ffd5b61286787823560208401612507565b91505092959194509250565b5f5f60408385031215612884575f5ffd5b82359150612894602084016124b5565b90509250929050565b5f5f604083850312156128ae575f5ffd5b6128b7836124b5565b9150612894602084016124b5565b600181811c908216806128d957607f821691505b6020821081036128f757634e487b7160e01b5f52602260045260245ffd5b50919050565b601f821115610cd557805f5260205f20601f840160051c810160208510156129225750805b601f840160051c820191505b81811015611a3e575f815560010161292e565b815167ffffffffffffffff81111561295b5761295b6124f3565b61296f8161296984546128c5565b846128fd565b6020601f8211600181146129a1575f831561298a5750848201515b5f19600385901b1c1916600184901b178455611a3e565b5f84815260208120601f198516915b828110156129d057878501518255602094850194600190920191016129b0565b50848210156129ed57868401515f19600387901b60f8161c191681555b50505050600190811b01905550565b5f81518060208401855e5f93019283525090919050565b5f611e0f82846129fc565b5f5f8354612a2b816128c5565b600182168015612a425760018114612a5757612a84565b60ff1983168652811515820286019350612a84565b865f5260205f205f5b83811015612a7c57815488820152600190910190602001612a60565b505081860193505b509195945050505050565b634e487b7160e01b5f52601160045260245ffd5b5f60018201612ab457612ab4612a8f565b5060010190565b612ac58185612677565b606060208201525f612ada606083018561245e565b9050826040830152949350505050565b6001600160a01b03858116825284166020820152604081018390526080606082018190525f90612b1c9083018461245e565b9695505050505050565b5f60208284031215612b36575f5ffd5b8151611e0f8161242e565b5f611b48612b4f83866129fc565b846129fc565b634e487b7160e01b5f52603260045260245ffd5b818103818111156107e9576107e9612a8f565b634e487b7160e01b5f52603160045260245ffd5b808201808211156107e9576107e9612a8f565b5f82612bbd57634e487b7160e01b5f52601260045260245ffd5b50069056fea2646970667358221220eab3e96ea2e4108e000b9d399a0863aca22cbd2fdf6e1683372d91b3bb406e7b64736f6c634300081e0033","linkReferences":{}},"methodIdentifiers":{"MAX_CATS_PER_USER()":"48c5f80e","R_PROBABILITY()":"1715b8c6","SR_PROBABILITY()":"554d1952","SSR_PROBABILITY()":"6c569d58","UR_PROBABILITY()":"86d17084","approve(address,uint256)":"095ea7b3","balanceOf(address)":"70a08231","catInfos(uint256)":"33ce3dbe","drawCatNFT(string)":"f55426ee","drawFee()":"d75e30cf","getApproved(uint256)":"081812fc","getCatInfo(uint256)":"5de32ef5","getRainbowCatTokenId()":"34ded72d","getRarityCounts()":"1f71bab4","getUserCats(address)":"310c71ae","isApprovedForAll(address,address)":"e985e9c5","isColorUsed(string)":"d4924afc","isNameUsed(string)":"ec75d622","isRainbowCatMinted()":"ce5d7930","name()":"06fdde03","owner()":"8da5cb5b","ownerOf(uint256)":"6352211e","rainbowCatMinted()":"74f796ce","rainbowCatTokenId()":"594fd73c","rarityCounts(uint8)":"a3fbbb74","renounceOwnership()":"715018a6","safeTransferFrom(address,address,uint256)":"42842e0e","safeTransferFrom(address,address,uint256,bytes)":"b88d4fde","setApprovalForAll(address,bool)":"a22cb465","setDrawFee(uint256)":"c75da8d5","supportsInterface(bytes4)":"01ffc9a7","symbol()":"95d89b41","tokenURI(uint256)":"c87b56dd","transferCatNFT(uint256,address)":"e7697265","transferFrom(address,address,uint256)":"23b872dd","transferOwnership(address)":"f2fde38b","updateCatMetadata(uint256,string)":"3ed24510","usedCatNames(string)":"1083f8c2","usedColors(string)":"c08ee6ca","userCats(address,uint256)":"a4fc1a13","withdraw()":"3ccfd60b"},"id":41}