{"abi":[{"type":"constructor","inputs":[],"stateMutability":"nonpayable"},{"type":"function","name":"approve","inputs":[{"name":"to","type":"address","internalType":"address"},{"name":"tokenId","type":"uint256","internalType":"uint256"}],"outputs":[],"stateMutability":"nonpayable"},{"type":"function","name":"balanceOf","inputs":[{"name":"owner","type":"address","internalType":"address"}],"outputs":[{"name":"","type":"uint256","internalType":"uint256"}],"stateMutability":"view"},{"type":"function","name":"cards","inputs":[{"name":"","type":"uint256","internalType":"uint256"}],"outputs":[{"name":"name","type":"string","internalType":"string"},{"name":"rarity","type":"uint8","internalType":"uint8"},{"name":"element","type":"uint8","internalType":"uint8"},{"name":"attack","type":"uint16","internalType":"uint16"},{"name":"defense","type":"uint16","internalType":"uint16"},{"name":"speed","type":"uint16","internalType":"uint16"},{"name":"birthTime","type":"uint256","internalType":"uint256"}],"stateMutability":"view"},{"type":"function","name":"drawCard","inputs":[],"outputs":[{"name":"","type":"uint256","internalType":"uint256"}],"stateMutability":"payable"},{"type":"function","name":"drawMultipleCards","inputs":[{"name":"amount","type":"uint8","internalType":"uint8"}],"outputs":[{"name":"","type":"uint256[]","internalType":"uint256[]"}],"stateMutability":"payable"},{"type":"function","name":"getApproved","inputs":[{"name":"tokenId","type":"uint256","internalType":"uint256"}],"outputs":[{"name":"","type":"address","internalType":"address"}],"stateMutability":"view"},{"type":"function","name":"getCard","inputs":[{"name":"tokenId","type":"uint256","internalType":"uint256"}],"outputs":[{"name":"","type":"tuple","internalType":"struct PokemonCard.Card","components":[{"name":"name","type":"string","internalType":"string"},{"name":"rarity","type":"uint8","internalType":"uint8"},{"name":"element","type":"uint8","internalType":"uint8"},{"name":"attack","type":"uint16","internalType":"uint16"},{"name":"defense","type":"uint16","internalType":"uint16"},{"name":"speed","type":"uint16","internalType":"uint16"},{"name":"birthTime","type":"uint256","internalType":"uint256"}]}],"stateMutability":"view"},{"type":"function","name":"getCardPower","inputs":[{"name":"tokenId","type":"uint256","internalType":"uint256"}],"outputs":[{"name":"","type":"uint256","internalType":"uint256"}],"stateMutability":"view"},{"type":"function","name":"getElementName","inputs":[{"name":"element","type":"uint8","internalType":"uint8"}],"outputs":[{"name":"","type":"string","internalType":"string"}],"stateMutability":"pure"},{"type":"function","name":"getRarityName","inputs":[{"name":"rarity","type":"uint8","internalType":"uint8"}],"outputs":[{"name":"","type":"string","internalType":"string"}],"stateMutability":"pure"},{"type":"function","name":"isApprovedForAll","inputs":[{"name":"owner","type":"address","internalType":"address"},{"name":"operator","type":"address","internalType":"address"}],"outputs":[{"name":"","type":"bool","internalType":"bool"}],"stateMutability":"view"},{"type":"function","name":"maxSupply","inputs":[],"outputs":[{"name":"","type":"uint256","internalType":"uint256"}],"stateMutability":"view"},{"type":"function","name":"mintPrice","inputs":[],"outputs":[{"name":"","type":"uint256","internalType":"uint256"}],"stateMutability":"view"},{"type":"function","name":"name","inputs":[],"outputs":[{"name":"","type":"string","internalType":"string"}],"stateMutability":"view"},{"type":"function","name":"owner","inputs":[],"outputs":[{"name":"","type":"address","internalType":"address"}],"stateMutability":"view"},{"type":"function","name":"ownerOf","inputs":[{"name":"tokenId","type":"uint256","internalType":"uint256"}],"outputs":[{"name":"","type":"address","internalType":"address"}],"stateMutability":"view"},{"type":"function","name":"renounceOwnership","inputs":[],"outputs":[],"stateMutability":"nonpayable"},{"type":"function","name":"safeTransferFrom","inputs":[{"name":"from","type":"address","internalType":"address"},{"name":"to","type":"address","internalType":"address"},{"name":"tokenId","type":"uint256","internalType":"uint256"}],"outputs":[],"stateMutability":"nonpayable"},{"type":"function","name":"safeTransferFrom","inputs":[{"name":"from","type":"address","internalType":"address"},{"name":"to","type":"address","internalType":"address"},{"name":"tokenId","type":"uint256","internalType":"uint256"},{"name":"data","type":"bytes","internalType":"bytes"}],"outputs":[],"stateMutability":"nonpayable"},{"type":"function","name":"setApprovalForAll","inputs":[{"name":"operator","type":"address","internalType":"address"},{"name":"approved","type":"bool","internalType":"bool"}],"outputs":[],"stateMutability":"nonpayable"},{"type":"function","name":"setMaxSupply","inputs":[{"name":"_newMaxSupply","type":"uint256","internalType":"uint256"}],"outputs":[],"stateMutability":"nonpayable"},{"type":"function","name":"setMintPrice","inputs":[{"name":"_newPrice","type":"uint256","internalType":"uint256"}],"outputs":[],"stateMutability":"nonpayable"},{"type":"function","name":"supportsInterface","inputs":[{"name":"interfaceId","type":"bytes4","internalType":"bytes4"}],"outputs":[{"name":"","type":"bool","internalType":"bool"}],"stateMutability":"view"},{"type":"function","name":"symbol","inputs":[],"outputs":[{"name":"","type":"string","internalType":"string"}],"stateMutability":"view"},{"type":"function","name":"tokenURI","inputs":[{"name":"tokenId","type":"uint256","internalType":"uint256"}],"outputs":[{"name":"","type":"string","internalType":"string"}],"stateMutability":"view"},{"type":"function","name":"totalSupply","inputs":[],"outputs":[{"name":"","type":"uint256","internalType":"uint256"}],"stateMutability":"view"},{"type":"function","name":"transferFrom","inputs":[{"name":"from","type":"address","internalType":"address"},{"name":"to","type":"address","internalType":"address"},{"name":"tokenId","type":"uint256","internalType":"uint256"}],"outputs":[],"stateMutability":"nonpayable"},{"type":"function","name":"transferOwnership","inputs":[{"name":"newOwner","type":"address","internalType":"address"}],"outputs":[],"stateMutability":"nonpayable"},{"type":"function","name":"withdraw","inputs":[],"outputs":[],"stateMutability":"nonpayable"},{"type":"event","name":"Approval","inputs":[{"name":"owner","type":"address","indexed":true,"internalType":"address"},{"name":"approved","type":"address","indexed":true,"internalType":"address"},{"name":"tokenId","type":"uint256","indexed":true,"internalType":"uint256"}],"anonymous":false},{"type":"event","name":"ApprovalForAll","inputs":[{"name":"owner","type":"address","indexed":true,"internalType":"address"},{"name":"operator","type":"address","indexed":true,"internalType":"address"},{"name":"approved","type":"bool","indexed":false,"internalType":"bool"}],"anonymous":false},{"type":"event","name":"CardMinted","inputs":[{"name":"to","type":"address","indexed":true,"internalType":"address"},{"name":"tokenId","type":"uint256","indexed":true,"internalType":"uint256"},{"name":"card","type":"tuple","indexed":false,"internalType":"struct PokemonCard.Card","components":[{"name":"name","type":"string","internalType":"string"},{"name":"rarity","type":"uint8","internalType":"uint8"},{"name":"element","type":"uint8","internalType":"uint8"},{"name":"attack","type":"uint16","internalType":"uint16"},{"name":"defense","type":"uint16","internalType":"uint16"},{"name":"speed","type":"uint16","internalType":"uint16"},{"name":"birthTime","type":"uint256","internalType":"uint256"}]}],"anonymous":false},{"type":"event","name":"CardRevealed","inputs":[{"name":"tokenId","type":"uint256","indexed":true,"internalType":"uint256"},{"name":"card","type":"tuple","indexed":false,"internalType":"struct PokemonCard.Card","components":[{"name":"name","type":"string","internalType":"string"},{"name":"rarity","type":"uint8","internalType":"uint8"},{"name":"element","type":"uint8","internalType":"uint8"},{"name":"attack","type":"uint16","internalType":"uint16"},{"name":"defense","type":"uint16","internalType":"uint16"},{"name":"speed","type":"uint16","internalType":"uint16"},{"name":"birthTime","type":"uint256","internalType":"uint256"}]}],"anonymous":false},{"type":"event","name":"OwnershipTransferred","inputs":[{"name":"previousOwner","type":"address","indexed":true,"internalType":"address"},{"name":"newOwner","type":"address","indexed":true,"internalType":"address"}],"anonymous":false},{"type":"event","name":"Transfer","inputs":[{"name":"from","type":"address","indexed":true,"internalType":"address"},{"name":"to","type":"address","indexed":true,"internalType":"address"},{"name":"tokenId","type":"uint256","indexed":true,"internalType":"uint256"}],"anonymous":false},{"type":"error","name":"ERC721IncorrectOwner","inputs":[{"name":"sender","type":"address","internalType":"address"},{"name":"tokenId","type":"uint256","internalType":"uint256"},{"name":"owner","type":"address","internalType":"address"}]},{"type":"error","name":"ERC721InsufficientApproval","inputs":[{"name":"operator","type":"address","internalType":"address"},{"name":"tokenId","type":"uint256","internalType":"uint256"}]},{"type":"error","name":"ERC721InvalidApprover","inputs":[{"name":"approver","type":"address","internalType":"address"}]},{"type":"error","name":"ERC721InvalidOperator","inputs":[{"name":"operator","type":"address","internalType":"address"}]},{"type":"error","name":"ERC721InvalidOwner","inputs":[{"name":"owner","type":"address","internalType":"address"}]},{"type":"error","name":"ERC721InvalidReceiver","inputs":[{"name":"receiver","type":"address","internalType":"address"}]},{"type":"error","name":"ERC721InvalidSender","inputs":[{"name":"sender","type":"address","internalType":"address"}]},{"type":"error","name":"ERC721NonexistentToken","inputs":[{"name":"tokenId","type":"uint256","internalType":"uint256"}]},{"type":"error","name":"OwnableInvalidOwner","inputs":[{"name":"owner","type":"address","internalType":"address"}]},{"type":"error","name":"OwnableUnauthorizedAccount","inputs":[{"name":"account","type":"address","internalType":"address"}]}],"bytecode":{"object":"0x60076102608181526650696b6163687560c81b61028052608090815260096102a08181526810da185c9a5e985c9960ba1b6102c05260a0526102e081815268426c6173746f69736560b81b6103005260c0526008610320818152672b32b73ab9b0bab960c11b6103405260e05260066103608181526523b2b733b0b960d11b61038052610100526103a082815267416c616b617a616d60c01b6103c052610120526103e08581526604d616368616d760cc1b6104005261014052600561042090815264476f6c656d60d81b6104405261016052610460818152654c617072617360d01b61048052610180526104a0858152660a6dcdee4d8c2f60cb1b6104c0526101a0526104e092835268447261676f6e69746560b81b610500526101c092909252610520918252654d657774776f60d01b610540526101e0919091526003610560908152624d657760e81b61058052610200526105a0838152664c75636172696f60c81b6105c052610220526106206040526105e090815267047617263686f6d760c41b61060052610240526101989190600f6102a5565b50612710600a55662386f26fc10000600b553480156101b5575f5ffd5b50336040518060400160405280600d81526020016c506f6b656d6f6e20436172647360981b815250604051806040016040528060048152602001632825a6a760e11b815250815f908161020891906103fb565b50600161021582826103fb565b5050506001600160a01b03811661024557604051631e4fbdf760e01b81525f600482015260240160405180910390fd5b61024e81610254565b506104b5565b600680546001600160a01b038381166001600160a01b0319831681179093556040519116919082907f8be0079c531659141344cd1fd0a4f28419497f9722a3daafe3b4186f6b6457e0905f90a35050565b828054828255905f5260205f209081019282156102e9579160200282015b828111156102e957825182906102d990826103fb565b50916020019190600101906102c3565b506102f59291506102f9565b5090565b808211156102f5575f61030c8282610315565b506001016102f9565b50805461032190610377565b5f825580601f10610330575050565b601f0160209004905f5260205f209081019061034c919061034f565b50565b5b808211156102f5575f8155600101610350565b634e487b7160e01b5f52604160045260245ffd5b600181811c9082168061038b57607f821691505b6020821081036103a957634e487b7160e01b5f52602260045260245ffd5b50919050565b601f8211156103f657805f5260205f20601f840160051c810160208510156103d45750805b601f840160051c820191505b818110156103f3575f81556001016103e0565b50505b505050565b81516001600160401b0381111561041457610414610363565b610428816104228454610377565b846103af565b6020601f82116001811461045a575f83156104435750848201515b5f19600385901b1c1916600184901b1784556103f3565b5f84815260208120601f198516915b828110156104895787850151825560209485019460019092019101610469565b50848210156104a657868401515f19600387901b60f8161c191681555b50505050600190811b01905550565b6124db806104c25f395ff3fe6080604052600436106101ba575f3560e01c8063715018a6116100f2578063a22cb46511610092578063d5abeb0111610062578063d5abeb01146104d7578063e985e9c5146104ec578063f2fde38b1461050b578063f4a0a5281461052a575f5ffd5b8063a22cb4651461045b578063b88d4fde1461047a578063b9af8c9814610499578063c87b56dd146104b8575f5ffd5b80638da5cb5b116100cd5780638da5cb5b146103cc5780638dc10768146103e95780639188d3121461041b57806395d89b4114610447575f5ffd5b8063715018a61461037957806375057e1d1461038d578063857cc0a7146103ac575f5ffd5b80633ccfd60b1161015d5780636352211e116101385780636352211e146103075780636817c76c146103265780636f8b44b01461033b57806370a082311461035a575f5ffd5b80633ccfd60b146102b557806342842e0e146102c957806348fe5938146102e8575f5ffd5b8063095ea7b311610198578063095ea7b31461024a57806318160ddd1461026b57806323b872dd1461028e5780632f5be23e146102ad575f5ffd5b806301ffc9a7146101be57806306fdde03146101f2578063081812fc14610213575b5f5ffd5b3480156101c9575f5ffd5b506101dd6101d8366004611e5e565b610549565b60405190151581526020015b60405180910390f35b3480156101fd575f5ffd5b5061020661059a565b6040516101e99190611ea7565b34801561021e575f5ffd5b5061023261022d366004611eb9565b610629565b6040516001600160a01b0390911681526020016101e9565b348015610255575f5ffd5b50610269610264366004611eeb565b610650565b005b348015610276575f5ffd5b5061028060095481565b6040519081526020016101e9565b348015610299575f5ffd5b506102696102a8366004611f13565b61065f565b6102806106ed565b3480156102c0575f5ffd5b506102696108b9565b3480156102d4575f5ffd5b506102696102e3366004611f13565b6108fa565b3480156102f3575f5ffd5b50610280610302366004611eb9565b610919565b348015610312575f5ffd5b50610232610321366004611eb9565b610a56565b348015610331575f5ffd5b50610280600b5481565b348015610346575f5ffd5b50610269610355366004611eb9565b610a60565b348015610365575f5ffd5b50610280610374366004611f4d565b610abf565b348015610384575f5ffd5b50610269610b04565b348015610398575f5ffd5b506102066103a7366004611f66565b610b17565b6103bf6103ba366004611f66565b610bef565b6040516101e99190611f86565b3480156103d7575f5ffd5b506006546001600160a01b0316610232565b3480156103f4575f5ffd5b50610408610403366004611eb9565b610eb2565b6040516101e99796959493929190611fc8565b348015610426575f5ffd5b5061043a610435366004611eb9565b610f87565b6040516101e99190612011565b348015610452575f5ffd5b50610206611117565b348015610466575f5ffd5b50610269610475366004612091565b611126565b348015610485575f5ffd5b506102696104943660046120de565b611131565b3480156104a4575f5ffd5b506102066104b3366004611f66565b611149565b3480156104c3575f5ffd5b506102066104d2366004611eb9565b61122b565b3480156104e2575f5ffd5b50610280600a5481565b3480156104f7575f5ffd5b506101dd6105063660046121bb565b6113c2565b348015610516575f5ffd5b50610269610525366004611f4d565b6113ef565b348015610535575f5ffd5b50610269610544366004611eb9565b611429565b5f6001600160e01b031982166380ac58cd60e01b148061057957506001600160e01b03198216635b5e139f60e01b145b8061059457506301ffc9a760e01b6001600160e01b03198316145b92915050565b60605f80546105a8906121ec565b80601f01602080910402602001604051908101604052809291908181526020018280546105d4906121ec565b801561061f5780601f106105f65761010080835404028352916020019161061f565b820191905f5260205f20905b81548152906001019060200180831161060257829003601f168201915b5050505050905090565b5f61063382611436565b505f828152600460205260409020546001600160a01b0316610594565b61065b82823361146e565b5050565b6001600160a01b03821661068d57604051633250574960e11b81525f60048201526024015b60405180910390fd5b5f61069983833361147b565b9050836001600160a01b0316816001600160a01b0316146106e7576040516364283d7b60e01b81526001600160a01b0380861660048301526024820184905282166044820152606401610684565b50505050565b5f600b543410156107375760405162461bcd60e51b8152602060048201526014602482015273125b9cdd59999a58da595b9d081c185e5b595b9d60621b6044820152606401610684565b600a546009541061077f5760405162461bcd60e51b815260206004820152601260248201527113585e081cdd5c1c1b1e481c995858da195960721b6044820152606401610684565b5f600954600161078f9190612238565b600980549192505f6107a08361224b565b91905055505f6107af8261156d565b5f8381526008602052604090208151919250829181906107cf90826122a7565b50602082015160018201805460408501516060860151608087015160a088015161ffff908116600160301b0267ffff000000000000199282166401000000000265ffff00000000199290941662010000029190911665ffffffff00001960ff9586166101000261ffff199097169590981694909417949094179590951691909117179290921691909117905560c09091015160029091015561087133836117c4565b81336001600160a01b03167f880a76b5137115bfc7404588ff03a18905fff8f83f1d4fc6a7d73bfb18e7a9d5836040516108ab9190612011565b60405180910390a350919050565b6108c16117dd565b6006546040516001600160a01b03909116904780156108fc02915f818181858888f193505050501580156108f7573d5f5f3e3d5ffd5b50565b61091483838360405180602001604052805f815250611131565b505050565b5f81815260086020526040808220815160e0810190925280548392919082908290610943906121ec565b80601f016020809104026020016040519081016040528092919081815260200182805461096f906121ec565b80156109ba5780601f10610991576101008083540402835291602001916109ba565b820191905f5260205f20905b81548152906001019060200180831161099d57829003601f168201915b5050509183525050600182015460ff8082166020840152610100820416604083015261ffff620100008204811660608085019190915264010000000083048216608080860191909152600160301b909304821660a08086019190915260029095015460c090940193909352928401519084015191840151939450821692610a45929182169116612238565b610a4f9190612238565b9392505050565b5f61059482611436565b610a686117dd565b600954811015610aba5760405162461bcd60e51b815260206004820152601f60248201527f43616e6e6f74207365742062656c6f772063757272656e7420737570706c79006044820152606401610684565b600a55565b5f6001600160a01b038216610ae9576040516322718ad960e21b81525f6004820152602401610684565b506001600160a01b03165f9081526003602052604090205490565b610b0c6117dd565b610b155f61180a565b565b60608160ff16600103610b4657505060408051808201909152600681526521b7b6b6b7b760d11b602082015290565b8160ff16600203610b715750506040805180820190915260048152635261726560e01b602082015290565b8160ff16600303610b9c5750506040805180820190915260048152634570696360e01b602082015290565b8160ff16600403610bcc5750506040805180820190915260098152684c6567656e6461727960b81b602082015290565b50506040805180820190915260078152662ab735b737bbb760c91b602082015290565b60605f8260ff16118015610c075750600a8260ff1611155b610c445760405162461bcd60e51b815260206004820152600e60248201526d125b9d985b1a5908185b5bdd5b9d60921b6044820152606401610684565b8160ff16600b54610c559190612362565b341015610c9b5760405162461bcd60e51b8152602060048201526014602482015273125b9cdd59999a58da595b9d081c185e5b595b9d60621b6044820152606401610684565b600a548260ff16600954610caf9190612238565b1115610cf25760405162461bcd60e51b815260206004820152601260248201527145786365656473206d617820737570706c7960701b6044820152606401610684565b5f8260ff1667ffffffffffffffff811115610d0f57610d0f6120ca565b604051908082528060200260200182016040528015610d38578160200160208202803683370190505b5090505f5b8360ff168160ff161015610eab575f6009546001610d5b9190612238565b600980549192505f610d6c8361224b565b91905055505f610d7b8261156d565b5f838152600860205260409020815191925082918190610d9b90826122a7565b50602082015160018201805460408501516060860151608087015160a088015161ffff908116600160301b0267ffff000000000000199282166401000000000265ffff00000000199290941662010000029190911665ffffffff00001960ff9586166101000261ffff199097169590981694909417949094179590951691909117179290921691909117905560c090910151600290910155610e3d33836117c4565b81848460ff1681518110610e5357610e53612379565b60200260200101818152505081336001600160a01b03167f880a76b5137115bfc7404588ff03a18905fff8f83f1d4fc6a7d73bfb18e7a9d583604051610e999190612011565b60405180910390a35050600101610d3d565b5092915050565b60086020525f9081526040902080548190610ecc906121ec565b80601f0160208091040260200160405190810160405280929190818152602001828054610ef8906121ec565b8015610f435780601f10610f1a57610100808354040283529160200191610f43565b820191905f5260205f20905b815481529060010190602001808311610f2657829003601f168201915b5050506001840154600290940154929360ff808216946101008304909116935061ffff620100008304811693506401000000008304811692600160301b9004169087565b6040805160e08101825260608082525f60208084018290528385018290529183018190526080830181905260a0830181905260c08301819052848152600290915291909120546001600160a01b03166110185760405162461bcd60e51b815260206004820152601360248201527210d85c9908191bd95cc81b9bdd08195e1a5cdd606a1b6044820152606401610684565b5f8281526008602052604090819020815160e0810190925280548290829061103f906121ec565b80601f016020809104026020016040519081016040528092919081815260200182805461106b906121ec565b80156110b65780601f1061108d576101008083540402835291602001916110b6565b820191905f5260205f20905b81548152906001019060200180831161109957829003601f168201915b5050509183525050600182015460ff8082166020840152610100820416604083015261ffff62010000820481166060840152640100000000820481166080840152600160301b9091041660a082015260029091015460c09091015292915050565b6060600180546105a8906121ec565b61065b33838361185b565b61113c84848461065f565b6106e733858585856118f9565b60608160ff166001036111765750506040805180820190915260048152634669726560e01b602082015290565b8160ff166002036111a25750506040805180820190915260058152642bb0ba32b960d91b602082015290565b8160ff166003036111ce575050604080518082019091526005815264477261737360d81b602082015290565b8160ff166004036111fd575050604080518082019091526008815267456c65637472696360c01b602082015290565b8160ff16600503610bcc5750506040805180820190915260078152665073796368696360c81b602082015290565b5f818152600260205260409020546060906001600160a01b03166112875760405162461bcd60e51b815260206004820152601360248201527210d85c9908191bd95cc81b9bdd08195e1a5cdd606a1b6044820152606401610684565b5f82815260086020526040808220815160e081019092528054829082906112ad906121ec565b80601f01602080910402602001604051908101604052809291908181526020018280546112d9906121ec565b80156113245780601f106112fb57610100808354040283529160200191611324565b820191905f5260205f20905b81548152906001019060200180831161130757829003601f168201915b5050509183525050600182015460ff8082166020840152610100820416604083015261ffff62010000820481166060840152640100000000820481166080840152600160301b9091041660a082015260029091015460c090910152905061138a83611a21565b61139a826020015160ff16611a21565b6040516020016113ab9291906123a4565b604051602081830303815290604052915050919050565b6001600160a01b039182165f90815260056020908152604080832093909416825291909152205460ff1690565b6113f76117dd565b6001600160a01b03811661142057604051631e4fbdf760e01b81525f6004820152602401610684565b6108f78161180a565b6114316117dd565b600b55565b5f818152600260205260408120546001600160a01b03168061059457604051637e27328960e01b815260048101849052602401610684565b6109148383836001611ab1565b5f828152600260205260408120546001600160a01b03908116908316156114a7576114a7818486611bb5565b6001600160a01b038116156114e1576114c25f855f5f611ab1565b6001600160a01b0381165f90815260036020526040902080545f190190555b6001600160a01b0385161561150f576001600160a01b0385165f908152600360205260409020805460010190555b5f8481526002602052604080822080546001600160a01b0319166001600160a01b0389811691821790925591518793918516917fddf252ad1be2c89b69c2b068fc378daa952ba7f163c4a11628f55a4df523b3ef91a4949350505050565b6040805160e08101825260608082525f6020830181905292820183905281018290526080810182905260a0810182905260c08101919091525f424433600c5f8154809291906115bb9061224b565b909155506040805160208101959095528401929092526bffffffffffffffffffffffff19606091821b169083015260748201526094810184905260b40160408051601f19818403018152919052805160209091012090505f611626611621606484612416565b611c19565b600780549192505f916116399085612416565b8154811061164957611649612379565b905f5260205f2001805461165c906121ec565b80601f0160208091040260200160405190810160405280929190818152602001828054611688906121ec565b80156116d35780601f106116aa576101008083540402835291602001916116d3565b820191905f5260205f20905b8154815290600101906020018083116116b657829003601f168201915b505050505090505f6116e483611c55565b90505f6116f66005600887901c612416565b611701906001612435565b90505f826117146064601089901c612416565b61171f906032612238565b6117299190612238565b90505f8361173c606460188a901c612416565b61174790601e612238565b6117519190612238565b90505f84611764606460208b901c612416565b61176f906014612238565b6117799190612238565b6040805160e08101825297885260ff9889166020890152949097169386019390935261ffff91821660608601528116608085015290931660a0830152504260c0820152949350505050565b61065b828260405180602001604052805f815250611c96565b6006546001600160a01b03163314610b155760405163118cdaa760e01b8152336004820152602401610684565b600680546001600160a01b038381166001600160a01b0319831681179093556040519116919082907f8be0079c531659141344cd1fd0a4f28419497f9722a3daafe3b4186f6b6457e0905f90a35050565b6001600160a01b03821661188d57604051630b61174360e31b81526001600160a01b0383166004820152602401610684565b6001600160a01b038381165f81815260056020908152604080832094871680845294825291829020805460ff191686151590811790915591519182527f17307eab39ab6107e8899845ad3d59bd9653f200f220920489ca2b5937696c31910160405180910390a3505050565b6001600160a01b0383163b15611a1a57604051630a85bd0160e11b81526001600160a01b0384169063150b7a029061193b90889088908790879060040161244e565b6020604051808303815f875af1925050508015611975575060408051601f3d908101601f191682019092526119729181019061248a565b60015b6119dc573d8080156119a2576040519150601f19603f3d011682016040523d82523d5f602084013e6119a7565b606091505b5080515f036119d457604051633250574960e11b81526001600160a01b0385166004820152602401610684565b805160208201fd5b6001600160e01b03198116630a85bd0160e11b14611a1857604051633250574960e11b81526001600160a01b0385166004820152602401610684565b505b5050505050565b60605f611a2d83611cad565b60010190505f8167ffffffffffffffff811115611a4c57611a4c6120ca565b6040519080825280601f01601f191660200182016040528015611a76576020820181803683370190505b5090508181016020015b5f19016f181899199a1a9b1b9c1cb0b131b232b360811b600a86061a8153600a8504945084611a8057509392505050565b8080611ac557506001600160a01b03821615155b15611b86575f611ad484611436565b90506001600160a01b03831615801590611b005750826001600160a01b0316816001600160a01b031614155b8015611b135750611b1181846113c2565b155b15611b3c5760405163a9fbf51f60e01b81526001600160a01b0384166004820152602401610684565b8115611b845783856001600160a01b0316826001600160a01b03167f8c5be1e5ebec7d5bd14f71427d1e84f3dd0314c0f7b2291e5b200ac8c7c3b92560405160405180910390a45b505b50505f90815260046020526040902080546001600160a01b0319166001600160a01b0392909216919091179055565b611bc0838383611d84565b610914576001600160a01b038316611bee57604051637e27328960e01b815260048101829052602401610684565b60405163177e802f60e01b81526001600160a01b038316600482015260248101829052604401610684565b5f603c821015611c2b57506001919050565b6055821015611c3c57506002919050565b6061821015611c4d57506003919050565b506004919050565b5f8160ff16600103611c6857505f919050565b8160ff16600203611c7b57506014919050565b8160ff16600303611c8e57506032919050565b506064919050565b611ca08383611de8565b610914335f8585856118f9565b5f8072184f03e93ff9f4daa797ed6e38ed64bf6a1f0160401b8310611ceb5772184f03e93ff9f4daa797ed6e38ed64bf6a1f0160401b830492506040015b6d04ee2d6d415b85acef81000000008310611d17576d04ee2d6d415b85acef8100000000830492506020015b662386f26fc100008310611d3557662386f26fc10000830492506010015b6305f5e1008310611d4d576305f5e100830492506008015b6127108310611d6157612710830492506004015b60648310611d73576064830492506002015b600a83106105945760010192915050565b5f6001600160a01b03831615801590611de05750826001600160a01b0316846001600160a01b03161480611dbd5750611dbd84846113c2565b80611de057505f828152600460205260409020546001600160a01b038481169116145b949350505050565b6001600160a01b038216611e1157604051633250574960e11b81525f6004820152602401610684565b5f611e1d83835f61147b565b90506001600160a01b03811615610914576040516339e3563760e11b81525f6004820152602401610684565b6001600160e01b0319811681146108f7575f5ffd5b5f60208284031215611e6e575f5ffd5b8135610a4f81611e49565b5f81518084528060208401602086015e5f602082860101526020601f19601f83011685010191505092915050565b602081525f610a4f6020830184611e79565b5f60208284031215611ec9575f5ffd5b5035919050565b80356001600160a01b0381168114611ee6575f5ffd5b919050565b5f5f60408385031215611efc575f5ffd5b611f0583611ed0565b946020939093013593505050565b5f5f5f60608486031215611f25575f5ffd5b611f2e84611ed0565b9250611f3c60208501611ed0565b929592945050506040919091013590565b5f60208284031215611f5d575f5ffd5b610a4f82611ed0565b5f60208284031215611f76575f5ffd5b813560ff81168114610a4f575f5ffd5b602080825282518282018190525f918401906040840190835b81811015611fbd578351835260209384019390920191600101611f9f565b509095945050505050565b60e081525f611fda60e083018a611e79565b60ff988916602084015296909716604082015261ffff94851660608201529284166080840152921660a082015260c0015292915050565b602081525f825160e0602084015261202d610100840182611e79565b905060ff602085015116604084015260ff604085015116606084015261ffff6060850151166080840152608084015161206c60a085018261ffff169052565b5060a084015161ffff811660c08501525060c084015160e08401528091505092915050565b5f5f604083850312156120a2575f5ffd5b6120ab83611ed0565b9150602083013580151581146120bf575f5ffd5b809150509250929050565b634e487b7160e01b5f52604160045260245ffd5b5f5f5f5f608085870312156120f1575f5ffd5b6120fa85611ed0565b935061210860208601611ed0565b925060408501359150606085013567ffffffffffffffff81111561212a575f5ffd5b8501601f8101871361213a575f5ffd5b803567ffffffffffffffff811115612154576121546120ca565b604051601f8201601f19908116603f0116810167ffffffffffffffff81118282101715612183576121836120ca565b60405281815282820160200189101561219a575f5ffd5b816020840160208301375f6020838301015280935050505092959194509250565b5f5f604083850312156121cc575f5ffd5b6121d583611ed0565b91506121e360208401611ed0565b90509250929050565b600181811c9082168061220057607f821691505b60208210810361221e57634e487b7160e01b5f52602260045260245ffd5b50919050565b634e487b7160e01b5f52601160045260245ffd5b8082018082111561059457610594612224565b5f6001820161225c5761225c612224565b5060010190565b601f82111561091457805f5260205f20601f840160051c810160208510156122885750805b601f840160051c820191505b81811015611a1a575f8155600101612294565b815167ffffffffffffffff8111156122c1576122c16120ca565b6122d5816122cf84546121ec565b84612263565b6020601f821160018114612307575f83156122f05750848201515b5f19600385901b1c1916600184901b178455611a1a565b5f84815260208120601f198516915b828110156123365787850151825560209485019460019092019101612316565b508482101561235357868401515f19600387901b60f8161c191681555b50505050600190811b01905550565b808202811582820484141761059457610594612224565b634e487b7160e01b5f52603260045260245ffd5b5f81518060208401855e5f93019283525090919050565b7f68747470733a2f2f6170692e706f6b656d6f6e63617264732e636f6d2f6d657481526561646174612f60d01b60208201525f6123e4602683018561238d565b675f7261726974795f60c01b81526123ff600882018561238d565b64173539b7b760d91b815260050195945050505050565b5f8261243057634e487b7160e01b5f52601260045260245ffd5b500690565b60ff818116838216019081111561059457610594612224565b6001600160a01b03858116825284166020820152604081018390526080606082018190525f9061248090830184611e79565b9695505050505050565b5f6020828403121561249a575f5ffd5b8151610a4f81611e4956fea264697066735822122073dd890e84be060b9e1467641afb55d5e2d213bf68a701d1163ac3e1a2264b6764736f6c634300081c0033","linkReferences":{}},"methodIdentifiers":{"approve(address,uint256)":"095ea7b3","balanceOf(address)":"70a08231","cards(uint256)":"8dc10768","drawCard()":"2f5be23e","drawMultipleCards(uint8)":"857cc0a7","getApproved(uint256)":"081812fc","getCard(uint256)":"9188d312","getCardPower(uint256)":"48fe5938","getElementName(uint8)":"b9af8c98","getRarityName(uint8)":"75057e1d","isApprovedForAll(address,address)":"e985e9c5","maxSupply()":"d5abeb01","mintPrice()":"6817c76c","name()":"06fdde03","owner()":"8da5cb5b","ownerOf(uint256)":"6352211e","renounceOwnership()":"715018a6","safeTransferFrom(address,address,uint256)":"42842e0e","safeTransferFrom(address,address,uint256,bytes)":"b88d4fde","setApprovalForAll(address,bool)":"a22cb465","setMaxSupply(uint256)":"6f8b44b0","setMintPrice(uint256)":"f4a0a528","supportsInterface(bytes4)":"01ffc9a7","symbol()":"95d89b41","tokenURI(uint256)":"c87b56dd","totalSupply()":"18160ddd","transferFrom(address,address,uint256)":"23b872dd","transferOwnership(address)":"f2fde38b","withdraw()":"3ccfd60b"},"id":15}